{
	"contracts/lib/GameRegistry.sol": {
		"GameRegistry": {
			"abi": [
				{
					"inputs": [],
					"stateMutability": "nonpayable",
					"type": "constructor"
				},
				{
					"inputs": [
						{
							"internalType": "address",
							"name": "owner",
							"type": "address"
						}
					],
					"name": "OwnableInvalidOwner",
					"type": "error"
				},
				{
					"inputs": [
						{
							"internalType": "address",
							"name": "account",
							"type": "address"
						}
					],
					"name": "OwnableUnauthorizedAccount",
					"type": "error"
				},
				{
					"anonymous": false,
					"inputs": [
						{
							"indexed": true,
							"internalType": "address",
							"name": "game",
							"type": "address"
						},
						{
							"indexed": true,
							"internalType": "address",
							"name": "assetContract",
							"type": "address"
						},
						{
							"indexed": false,
							"internalType": "bytes32[]",
							"name": "attributes",
							"type": "bytes32[]"
						}
					],
					"name": "AssetPermissionGranted",
					"type": "event"
				},
				{
					"anonymous": false,
					"inputs": [
						{
							"indexed": true,
							"internalType": "address",
							"name": "game",
							"type": "address"
						},
						{
							"indexed": true,
							"internalType": "address",
							"name": "assetContract",
							"type": "address"
						}
					],
					"name": "AssetPermissionRevoked",
					"type": "event"
				},
				{
					"anonymous": false,
					"inputs": [
						{
							"indexed": true,
							"internalType": "address",
							"name": "game",
							"type": "address"
						},
						{
							"indexed": true,
							"internalType": "address",
							"name": "registeredBy",
							"type": "address"
						}
					],
					"name": "GameRegistered",
					"type": "event"
				},
				{
					"anonymous": false,
					"inputs": [
						{
							"indexed": true,
							"internalType": "address",
							"name": "game",
							"type": "address"
						},
						{
							"indexed": true,
							"internalType": "address",
							"name": "unregisteredBy",
							"type": "address"
						}
					],
					"name": "GameUnregistered",
					"type": "event"
				},
				{
					"anonymous": false,
					"inputs": [
						{
							"indexed": true,
							"internalType": "address",
							"name": "previousOwner",
							"type": "address"
						},
						{
							"indexed": true,
							"internalType": "address",
							"name": "newOwner",
							"type": "address"
						}
					],
					"name": "OwnershipTransferred",
					"type": "event"
				},
				{
					"inputs": [
						{
							"internalType": "address",
							"name": "game",
							"type": "address"
						}
					],
					"name": "getGameAssetContracts",
					"outputs": [
						{
							"internalType": "address[]",
							"name": "",
							"type": "address[]"
						}
					],
					"stateMutability": "view",
					"type": "function"
				},
				{
					"inputs": [
						{
							"internalType": "address",
							"name": "game",
							"type": "address"
						},
						{
							"internalType": "address",
							"name": "assetContract",
							"type": "address"
						}
					],
					"name": "getGamePermissions",
					"outputs": [
						{
							"internalType": "bytes32[]",
							"name": "",
							"type": "bytes32[]"
						}
					],
					"stateMutability": "view",
					"type": "function"
				},
				{
					"inputs": [
						{
							"internalType": "address",
							"name": "game",
							"type": "address"
						},
						{
							"internalType": "address",
							"name": "assetContract",
							"type": "address"
						},
						{
							"internalType": "bytes32[]",
							"name": "attributes",
							"type": "bytes32[]"
						}
					],
					"name": "grantAssetPermission",
					"outputs": [],
					"stateMutability": "nonpayable",
					"type": "function"
				},
				{
					"inputs": [
						{
							"internalType": "address",
							"name": "game",
							"type": "address"
						},
						{
							"internalType": "address",
							"name": "assetContract",
							"type": "address"
						},
						{
							"internalType": "bytes32[]",
							"name": "attributes",
							"type": "bytes32[]"
						}
					],
					"name": "hasPermissions",
					"outputs": [
						{
							"internalType": "bool",
							"name": "",
							"type": "bool"
						}
					],
					"stateMutability": "view",
					"type": "function"
				},
				{
					"inputs": [
						{
							"internalType": "address",
							"name": "game",
							"type": "address"
						}
					],
					"name": "isGameRegistered",
					"outputs": [
						{
							"internalType": "bool",
							"name": "",
							"type": "bool"
						}
					],
					"stateMutability": "view",
					"type": "function"
				},
				{
					"inputs": [],
					"name": "owner",
					"outputs": [
						{
							"internalType": "address",
							"name": "",
							"type": "address"
						}
					],
					"stateMutability": "view",
					"type": "function"
				},
				{
					"inputs": [
						{
							"internalType": "address",
							"name": "game",
							"type": "address"
						}
					],
					"name": "registerGame",
					"outputs": [],
					"stateMutability": "nonpayable",
					"type": "function"
				},
				{
					"inputs": [
						{
							"internalType": "uint256",
							"name": "",
							"type": "uint256"
						}
					],
					"name": "registeredGames",
					"outputs": [
						{
							"internalType": "address",
							"name": "",
							"type": "address"
						}
					],
					"stateMutability": "view",
					"type": "function"
				},
				{
					"inputs": [],
					"name": "renounceOwnership",
					"outputs": [],
					"stateMutability": "nonpayable",
					"type": "function"
				},
				{
					"inputs": [
						{
							"internalType": "address",
							"name": "game",
							"type": "address"
						},
						{
							"internalType": "address",
							"name": "assetContract",
							"type": "address"
						}
					],
					"name": "revokeAssetPermission",
					"outputs": [],
					"stateMutability": "nonpayable",
					"type": "function"
				},
				{
					"inputs": [
						{
							"internalType": "address",
							"name": "newOwner",
							"type": "address"
						}
					],
					"name": "transferOwnership",
					"outputs": [],
					"stateMutability": "nonpayable",
					"type": "function"
				}
			],
			"devdoc": {
				"errors": {
					"OwnableInvalidOwner(address)": [
						{
							"details": "The owner is not a valid owner account. (eg. `address(0)`)"
						}
					],
					"OwnableUnauthorizedAccount(address)": [
						{
							"details": "The caller account is not authorized to perform an operation."
						}
					]
				},
				"kind": "dev",
				"methods": {
					"getGameAssetContracts(address)": {
						"params": {
							"game": "Address of the game"
						},
						"returns": {
							"_0": "Array of asset contract addresses"
						}
					},
					"getGamePermissions(address,address)": {
						"params": {
							"assetContract": "Address of the asset contract",
							"game": "Address of the game"
						},
						"returns": {
							"_0": "Array of allowed attribute IDs"
						}
					},
					"grantAssetPermission(address,address,bytes32[])": {
						"params": {
							"assetContract": "Address of the asset contract",
							"attributes": "Array of attribute IDs the game can modify",
							"game": "Address of the game"
						}
					},
					"hasPermissions(address,address,bytes32[])": {
						"params": {
							"assetContract": "Address of the asset contract",
							"attributes": "Array of attribute IDs to check",
							"game": "Address of the game"
						},
						"returns": {
							"_0": "bool indicating if the game has all specified permissions"
						}
					},
					"isGameRegistered(address)": {
						"params": {
							"game": "Address of the game to check"
						}
					},
					"owner()": {
						"details": "Returns the address of the current owner."
					},
					"registerGame(address)": {
						"params": {
							"game": "Address of the game to register"
						}
					},
					"renounceOwnership()": {
						"details": "Leaves the contract without owner. It will not be possible to call `onlyOwner` functions. Can only be called by the current owner. NOTE: Renouncing ownership will leave the contract without an owner, thereby disabling any functionality that is only available to the owner."
					},
					"revokeAssetPermission(address,address)": {
						"params": {
							"assetContract": "Address of the asset contract",
							"game": "Address of the game"
						}
					},
					"transferOwnership(address)": {
						"details": "Transfers ownership of the contract to a new account (`newOwner`). Can only be called by the current owner."
					}
				},
				"version": 1
			},
			"evm": {
				"assembly": "    /* \"contracts/lib/GameRegistry.sol\":111:6144  contract GameRegistry is Ownable {... */\n  mstore(0x40, 0x80)\n    /* \"contracts/lib/GameRegistry.sol\":1031:1066  constructor() Ownable(msg.sender){} */\n  callvalue\n  dup1\n  iszero\n  tag_1\n  jumpi\n  0x00\n  dup1\n  revert\ntag_1:\n  pop\n    /* \"contracts/lib/GameRegistry.sol\":1053:1063  msg.sender */\n  caller\n    /* \"@openzeppelin/contracts/access/Ownable.sol\":1297:1298  0 */\n  0x00\n    /* \"@openzeppelin/contracts/access/Ownable.sol\":1273:1299  initialOwner == address(0) */\n  0xffffffffffffffffffffffffffffffffffffffff\n  and\n    /* \"@openzeppelin/contracts/access/Ownable.sol\":1273:1285  initialOwner */\n  dup2\n    /* \"@openzeppelin/contracts/access/Ownable.sol\":1273:1299  initialOwner == address(0) */\n  0xffffffffffffffffffffffffffffffffffffffff\n  and\n  sub\n    /* \"@openzeppelin/contracts/access/Ownable.sol\":1269:1364  if (initialOwner == address(0)) {... */\n  tag_5\n  jumpi\n    /* \"@openzeppelin/contracts/access/Ownable.sol\":1350:1351  0 */\n  0x00\n    /* \"@openzeppelin/contracts/access/Ownable.sol\":1322:1353  OwnableInvalidOwner(address(0)) */\n  mload(0x40)\n  0x1e4fbdf700000000000000000000000000000000000000000000000000000000\n  dup2\n  mstore\n  0x04\n  add\n  tag_6\n  swap2\n  swap1\n  tag_7\n  jump\t// in\ntag_6:\n  mload(0x40)\n  dup1\n  swap2\n  sub\n  swap1\n  revert\n    /* \"@openzeppelin/contracts/access/Ownable.sol\":1269:1364  if (initialOwner == address(0)) {... */\ntag_5:\n    /* \"@openzeppelin/contracts/access/Ownable.sol\":1373:1405  _transferOwnership(initialOwner) */\n  tag_8\n    /* \"@openzeppelin/contracts/access/Ownable.sol\":1392:1404  initialOwner */\n  dup2\n    /* \"@openzeppelin/contracts/access/Ownable.sol\":1373:1391  _transferOwnership */\n  shl(0x20, tag_9)\n    /* \"@openzeppelin/contracts/access/Ownable.sol\":1373:1405  _transferOwnership(initialOwner) */\n  0x20\n  shr\n  jump\t// in\ntag_8:\n    /* \"@openzeppelin/contracts/access/Ownable.sol\":1225:1412  constructor(address initialOwner) {... */\n  pop\n    /* \"contracts/lib/GameRegistry.sol\":111:6144  contract GameRegistry is Ownable {... */\n  jump(tag_11)\n    /* \"@openzeppelin/contracts/access/Ownable.sol\":2912:3099  function _transferOwnership(address newOwner) internal virtual {... */\ntag_9:\n    /* \"@openzeppelin/contracts/access/Ownable.sol\":2985:3001  address oldOwner */\n  0x00\n    /* \"@openzeppelin/contracts/access/Ownable.sol\":3004:3010  _owner */\n  dup1\n  0x00\n  swap1\n  sload\n  swap1\n  0x0100\n  exp\n  swap1\n  div\n  0xffffffffffffffffffffffffffffffffffffffff\n  and\n    /* \"@openzeppelin/contracts/access/Ownable.sol\":2985:3010  address oldOwner = _owner */\n  swap1\n  pop\n    /* \"@openzeppelin/contracts/access/Ownable.sol\":3029:3037  newOwner */\n  dup2\n    /* \"@openzeppelin/contracts/access/Ownable.sol\":3020:3026  _owner */\n  0x00\n  dup1\n    /* \"@openzeppelin/contracts/access/Ownable.sol\":3020:3037  _owner = newOwner */\n  0x0100\n  exp\n  dup2\n  sload\n  dup2\n  0xffffffffffffffffffffffffffffffffffffffff\n  mul\n  not\n  and\n  swap1\n  dup4\n  0xffffffffffffffffffffffffffffffffffffffff\n  and\n  mul\n  or\n  swap1\n  sstore\n  pop\n    /* \"@openzeppelin/contracts/access/Ownable.sol\":3083:3091  newOwner */\n  dup2\n    /* \"@openzeppelin/contracts/access/Ownable.sol\":3052:3092  OwnershipTransferred(oldOwner, newOwner) */\n  0xffffffffffffffffffffffffffffffffffffffff\n  and\n    /* \"@openzeppelin/contracts/access/Ownable.sol\":3073:3081  oldOwner */\n  dup2\n    /* \"@openzeppelin/contracts/access/Ownable.sol\":3052:3092  OwnershipTransferred(oldOwner, newOwner) */\n  0xffffffffffffffffffffffffffffffffffffffff\n  and\n  0x8be0079c531659141344cd1fd0a4f28419497f9722a3daafe3b4186f6b6457e0\n  mload(0x40)\n  mload(0x40)\n  dup1\n  swap2\n  sub\n  swap1\n  log3\n    /* \"@openzeppelin/contracts/access/Ownable.sol\":2975:3099  {... */\n  pop\n    /* \"@openzeppelin/contracts/access/Ownable.sol\":2912:3099  function _transferOwnership(address newOwner) internal virtual {... */\n  pop\n  jump\t// out\n    /* \"#utility.yul\":7:133   */\ntag_13:\n    /* \"#utility.yul\":44:51   */\n  0x00\n    /* \"#utility.yul\":84:126   */\n  0xffffffffffffffffffffffffffffffffffffffff\n    /* \"#utility.yul\":77:82   */\n  dup3\n    /* \"#utility.yul\":73:127   */\n  and\n    /* \"#utility.yul\":62:127   */\n  swap1\n  pop\n    /* \"#utility.yul\":7:133   */\n  swap2\n  swap1\n  pop\n  jump\t// out\n    /* \"#utility.yul\":139:235   */\ntag_14:\n    /* \"#utility.yul\":176:183   */\n  0x00\n    /* \"#utility.yul\":205:229   */\n  tag_19\n    /* \"#utility.yul\":223:228   */\n  dup3\n    /* \"#utility.yul\":205:229   */\n  tag_13\n  jump\t// in\ntag_19:\n    /* \"#utility.yul\":194:229   */\n  swap1\n  pop\n    /* \"#utility.yul\":139:235   */\n  swap2\n  swap1\n  pop\n  jump\t// out\n    /* \"#utility.yul\":241:359   */\ntag_15:\n    /* \"#utility.yul\":328:352   */\n  tag_21\n    /* \"#utility.yul\":346:351   */\n  dup2\n    /* \"#utility.yul\":328:352   */\n  tag_14\n  jump\t// in\ntag_21:\n    /* \"#utility.yul\":323:326   */\n  dup3\n    /* \"#utility.yul\":316:353   */\n  mstore\n    /* \"#utility.yul\":241:359   */\n  pop\n  pop\n  jump\t// out\n    /* \"#utility.yul\":365:587   */\ntag_7:\n    /* \"#utility.yul\":458:462   */\n  0x00\n    /* \"#utility.yul\":496:498   */\n  0x20\n    /* \"#utility.yul\":485:494   */\n  dup3\n    /* \"#utility.yul\":481:499   */\n  add\n    /* \"#utility.yul\":473:499   */\n  swap1\n  pop\n    /* \"#utility.yul\":509:580   */\n  tag_23\n    /* \"#utility.yul\":577:578   */\n  0x00\n    /* \"#utility.yul\":566:575   */\n  dup4\n    /* \"#utility.yul\":562:579   */\n  add\n    /* \"#utility.yul\":553:559   */\n  dup5\n    /* \"#utility.yul\":509:580   */\n  tag_15\n  jump\t// in\ntag_23:\n    /* \"#utility.yul\":365:587   */\n  swap3\n  swap2\n  pop\n  pop\n  jump\t// out\n    /* \"contracts/lib/GameRegistry.sol\":111:6144  contract GameRegistry is Ownable {... */\ntag_11:\n  dataSize(sub_0)\n  dup1\n  dataOffset(sub_0)\n  0x00\n  codecopy\n  0x00\n  return\nstop\n\nsub_0: assembly {\n        /* \"contracts/lib/GameRegistry.sol\":111:6144  contract GameRegistry is Ownable {... */\n      mstore(0x40, 0x80)\n      callvalue\n      dup1\n      iszero\n      tag_1\n      jumpi\n      0x00\n      dup1\n      revert\n    tag_1:\n      pop\n      jumpi(tag_2, lt(calldatasize, 0x04))\n      shr(0xe0, calldataload(0x00))\n      dup1\n      0x715018a6\n      gt\n      tag_14\n      jumpi\n      dup1\n      0x715018a6\n      eq\n      tag_8\n      jumpi\n      dup1\n      0x8da5cb5b\n      eq\n      tag_9\n      jumpi\n      dup1\n      0x9b36057c\n      eq\n      tag_10\n      jumpi\n      dup1\n      0x9e3c5a72\n      eq\n      tag_11\n      jumpi\n      dup1\n      0xee658e45\n      eq\n      tag_12\n      jumpi\n      dup1\n      0xf2fde38b\n      eq\n      tag_13\n      jumpi\n      jump(tag_2)\n    tag_14:\n      dup1\n      0x36e9b39a\n      eq\n      tag_3\n      jumpi\n      dup1\n      0x53c02924\n      eq\n      tag_4\n      jumpi\n      dup1\n      0x57f623d0\n      eq\n      tag_5\n      jumpi\n      dup1\n      0x64462142\n      eq\n      tag_6\n      jumpi\n      dup1\n      0x6f6145f0\n      eq\n      tag_7\n      jumpi\n    tag_2:\n      0x00\n      dup1\n      revert\n        /* \"contracts/lib/GameRegistry.sol\":4286:5077  function hasPermissions(... */\n    tag_3:\n      tag_15\n      0x04\n      dup1\n      calldatasize\n      sub\n      dup2\n      add\n      swap1\n      tag_16\n      swap2\n      swap1\n      tag_17\n      jump\t// in\n    tag_16:\n      tag_18\n      jump\t// in\n    tag_15:\n      mload(0x40)\n      tag_19\n      swap2\n      swap1\n      tag_20\n      jump\t// in\n    tag_19:\n      mload(0x40)\n      dup1\n      swap2\n      sub\n      swap1\n      return\n        /* \"contracts/lib/GameRegistry.sol\":3550:3946  function getGamePermissions(... */\n    tag_4:\n      tag_21\n      0x04\n      dup1\n      calldatasize\n      sub\n      dup2\n      add\n      swap1\n      tag_22\n      swap2\n      swap1\n      tag_23\n      jump\t// in\n    tag_22:\n      tag_24\n      jump\t// in\n    tag_21:\n      mload(0x40)\n      tag_25\n      swap2\n      swap1\n      tag_26\n      jump\t// in\n    tag_25:\n      mload(0x40)\n      dup1\n      swap2\n      sub\n      swap1\n      return\n        /* \"contracts/lib/GameRegistry.sol\":5253:6142  function getGameAssetContracts(address game) external view returns (address[] memory) {... */\n    tag_5:\n      tag_27\n      0x04\n      dup1\n      calldatasize\n      sub\n      dup2\n      add\n      swap1\n      tag_28\n      swap2\n      swap1\n      tag_29\n      jump\t// in\n    tag_28:\n      tag_30\n      jump\t// in\n    tag_27:\n      mload(0x40)\n      tag_31\n      swap2\n      swap1\n      tag_32\n      jump\t// in\n    tag_31:\n      mload(0x40)\n      dup1\n      swap2\n      sub\n      swap1\n      return\n        /* \"contracts/lib/GameRegistry.sol\":1881:2493  function grantAssetPermission(... */\n    tag_6:\n      tag_33\n      0x04\n      dup1\n      calldatasize\n      sub\n      dup2\n      add\n      swap1\n      tag_34\n      swap2\n      swap1\n      tag_17\n      jump\t// in\n    tag_34:\n      tag_35\n      jump\t// in\n    tag_33:\n      stop\n        /* \"contracts/lib/GameRegistry.sol\":2676:3085  function revokeAssetPermission(... */\n    tag_7:\n      tag_36\n      0x04\n      dup1\n      calldatasize\n      sub\n      dup2\n      add\n      swap1\n      tag_37\n      swap2\n      swap1\n      tag_23\n      jump\t// in\n    tag_37:\n      tag_38\n      jump\t// in\n    tag_36:\n      stop\n        /* \"@openzeppelin/contracts/access/Ownable.sol\":2293:2394  function renounceOwnership() public virtual onlyOwner {... */\n    tag_8:\n      tag_39\n      tag_40\n      jump\t// in\n    tag_39:\n      stop\n        /* \"@openzeppelin/contracts/access/Ownable.sol\":1638:1723  function owner() public view virtual returns (address) {... */\n    tag_9:\n      tag_41\n      tag_42\n      jump\t// in\n    tag_41:\n      mload(0x40)\n      tag_43\n      swap2\n      swap1\n      tag_44\n      jump\t// in\n    tag_43:\n      mload(0x40)\n      dup1\n      swap2\n      sub\n      swap1\n      return\n        /* \"contracts/lib/GameRegistry.sol\":1174:1613  function registerGame(address game) external onlyOwner {... */\n    tag_10:\n      tag_45\n      0x04\n      dup1\n      calldatasize\n      sub\n      dup2\n      add\n      swap1\n      tag_46\n      swap2\n      swap1\n      tag_29\n      jump\t// in\n    tag_46:\n      tag_47\n      jump\t// in\n    tag_45:\n      stop\n        /* \"contracts/lib/GameRegistry.sol\":580:612  address[] public registeredGames */\n    tag_11:\n      tag_48\n      0x04\n      dup1\n      calldatasize\n      sub\n      dup2\n      add\n      swap1\n      tag_49\n      swap2\n      swap1\n      tag_50\n      jump\t// in\n    tag_49:\n      tag_51\n      jump\t// in\n    tag_48:\n      mload(0x40)\n      tag_52\n      swap2\n      swap1\n      tag_44\n      jump\t// in\n    tag_52:\n      mload(0x40)\n      dup1\n      swap2\n      sub\n      swap1\n      return\n        /* \"contracts/lib/GameRegistry.sol\":3200:3317  function isGameRegistered(address game) external view returns (bool) {... */\n    tag_12:\n      tag_53\n      0x04\n      dup1\n      calldatasize\n      sub\n      dup2\n      add\n      swap1\n      tag_54\n      swap2\n      swap1\n      tag_29\n      jump\t// in\n    tag_54:\n      tag_55\n      jump\t// in\n    tag_53:\n      mload(0x40)\n      tag_56\n      swap2\n      swap1\n      tag_20\n      jump\t// in\n    tag_56:\n      mload(0x40)\n      dup1\n      swap2\n      sub\n      swap1\n      return\n        /* \"@openzeppelin/contracts/access/Ownable.sol\":2543:2758  function transferOwnership(address newOwner) public virtual onlyOwner {... */\n    tag_13:\n      tag_57\n      0x04\n      dup1\n      calldatasize\n      sub\n      dup2\n      add\n      swap1\n      tag_58\n      swap2\n      swap1\n      tag_29\n      jump\t// in\n    tag_58:\n      tag_59\n      jump\t// in\n    tag_57:\n      stop\n        /* \"contracts/lib/GameRegistry.sol\":4286:5077  function hasPermissions(... */\n    tag_18:\n        /* \"contracts/lib/GameRegistry.sol\":4431:4435  bool */\n      0x00\n        /* \"contracts/lib/GameRegistry.sol\":4452:4457  games */\n      0x01\n        /* \"contracts/lib/GameRegistry.sol\":4452:4463  games[game] */\n      0x00\n        /* \"contracts/lib/GameRegistry.sol\":4458:4462  game */\n      dup7\n        /* \"contracts/lib/GameRegistry.sol\":4452:4463  games[game] */\n      0xffffffffffffffffffffffffffffffffffffffff\n      and\n      0xffffffffffffffffffffffffffffffffffffffff\n      and\n      dup2\n      mstore\n      0x20\n      add\n      swap1\n      dup2\n      mstore\n      0x20\n      add\n      0x00\n      keccak256\n        /* \"contracts/lib/GameRegistry.sol\":4452:4476  games[game].isRegistered */\n      0x00\n      add\n      0x00\n      swap1\n      sload\n      swap1\n      0x0100\n      exp\n      swap1\n      div\n      0xff\n      and\n        /* \"contracts/lib/GameRegistry.sol\":4451:4476  !games[game].isRegistered */\n      iszero\n        /* \"contracts/lib/GameRegistry.sol\":4451:4537  !games[game].isRegistered || !games[game].assetPermissions[assetContract].isRegistered */\n      dup1\n      tag_61\n      jumpi\n      pop\n        /* \"contracts/lib/GameRegistry.sol\":4481:4486  games */\n      0x01\n        /* \"contracts/lib/GameRegistry.sol\":4481:4492  games[game] */\n      0x00\n        /* \"contracts/lib/GameRegistry.sol\":4487:4491  game */\n      dup7\n        /* \"contracts/lib/GameRegistry.sol\":4481:4492  games[game] */\n      0xffffffffffffffffffffffffffffffffffffffff\n      and\n      0xffffffffffffffffffffffffffffffffffffffff\n      and\n      dup2\n      mstore\n      0x20\n      add\n      swap1\n      dup2\n      mstore\n      0x20\n      add\n      0x00\n      keccak256\n        /* \"contracts/lib/GameRegistry.sol\":4481:4509  games[game].assetPermissions */\n      0x01\n      add\n        /* \"contracts/lib/GameRegistry.sol\":4481:4524  games[game].assetPermissions[assetContract] */\n      0x00\n        /* \"contracts/lib/GameRegistry.sol\":4510:4523  assetContract */\n      dup6\n        /* \"contracts/lib/GameRegistry.sol\":4481:4524  games[game].assetPermissions[assetContract] */\n      0xffffffffffffffffffffffffffffffffffffffff\n      and\n      0xffffffffffffffffffffffffffffffffffffffff\n      and\n      dup2\n      mstore\n      0x20\n      add\n      swap1\n      dup2\n      mstore\n      0x20\n      add\n      0x00\n      keccak256\n        /* \"contracts/lib/GameRegistry.sol\":4481:4537  games[game].assetPermissions[assetContract].isRegistered */\n      0x00\n      add\n      0x00\n      swap1\n      sload\n      swap1\n      0x0100\n      exp\n      swap1\n      div\n      0xff\n      and\n        /* \"contracts/lib/GameRegistry.sol\":4480:4537  !games[game].assetPermissions[assetContract].isRegistered */\n      iszero\n        /* \"contracts/lib/GameRegistry.sol\":4451:4537  !games[game].isRegistered || !games[game].assetPermissions[assetContract].isRegistered */\n    tag_61:\n        /* \"contracts/lib/GameRegistry.sol\":4447:4576  if (!games[game].isRegistered || !games[game].assetPermissions[assetContract].isRegistered) {... */\n      iszero\n      tag_62\n      jumpi\n        /* \"contracts/lib/GameRegistry.sol\":4560:4565  false */\n      0x00\n        /* \"contracts/lib/GameRegistry.sol\":4553:4565  return false */\n      swap1\n      pop\n      jump(tag_60)\n        /* \"contracts/lib/GameRegistry.sol\":4447:4576  if (!games[game].isRegistered || !games[game].assetPermissions[assetContract].isRegistered) {... */\n    tag_62:\n        /* \"contracts/lib/GameRegistry.sol\":4586:4616  bytes32[] storage allowedAttrs */\n      0x00\n        /* \"contracts/lib/GameRegistry.sol\":4619:4624  games */\n      0x01\n        /* \"contracts/lib/GameRegistry.sol\":4619:4630  games[game] */\n      0x00\n        /* \"contracts/lib/GameRegistry.sol\":4625:4629  game */\n      dup8\n        /* \"contracts/lib/GameRegistry.sol\":4619:4630  games[game] */\n      0xffffffffffffffffffffffffffffffffffffffff\n      and\n      0xffffffffffffffffffffffffffffffffffffffff\n      and\n      dup2\n      mstore\n      0x20\n      add\n      swap1\n      dup2\n      mstore\n      0x20\n      add\n      0x00\n      keccak256\n        /* \"contracts/lib/GameRegistry.sol\":4619:4647  games[game].assetPermissions */\n      0x01\n      add\n        /* \"contracts/lib/GameRegistry.sol\":4619:4662  games[game].assetPermissions[assetContract] */\n      0x00\n        /* \"contracts/lib/GameRegistry.sol\":4648:4661  assetContract */\n      dup7\n        /* \"contracts/lib/GameRegistry.sol\":4619:4662  games[game].assetPermissions[assetContract] */\n      0xffffffffffffffffffffffffffffffffffffffff\n      and\n      0xffffffffffffffffffffffffffffffffffffffff\n      and\n      dup2\n      mstore\n      0x20\n      add\n      swap1\n      dup2\n      mstore\n      0x20\n      add\n      0x00\n      keccak256\n        /* \"contracts/lib/GameRegistry.sol\":4619:4680  games[game].assetPermissions[assetContract].allowedAttributes */\n      0x01\n      add\n        /* \"contracts/lib/GameRegistry.sol\":4586:4680  bytes32[] storage allowedAttrs = games[game].assetPermissions[assetContract].allowedAttributes */\n      swap1\n      pop\n        /* \"contracts/lib/GameRegistry.sol\":4695:4701  uint i */\n      0x00\n        /* \"contracts/lib/GameRegistry.sol\":4690:5050  for (uint i = 0; i < attributes.length; i++) {... */\n    tag_63:\n        /* \"contracts/lib/GameRegistry.sol\":4711:4721  attributes */\n      dup5\n      dup5\n        /* \"contracts/lib/GameRegistry.sol\":4711:4728  attributes.length */\n      swap1\n      pop\n        /* \"contracts/lib/GameRegistry.sol\":4707:4708  i */\n      dup2\n        /* \"contracts/lib/GameRegistry.sol\":4707:4728  i < attributes.length */\n      lt\n        /* \"contracts/lib/GameRegistry.sol\":4690:5050  for (uint i = 0; i < attributes.length; i++) {... */\n      iszero\n      tag_64\n      jumpi\n        /* \"contracts/lib/GameRegistry.sol\":4749:4767  bool hasPermission */\n      0x00\n        /* \"contracts/lib/GameRegistry.sol\":4794:4800  uint j */\n      dup1\n        /* \"contracts/lib/GameRegistry.sol\":4789:4994  for (uint j = 0; j < allowedAttrs.length; j++) {... */\n    tag_66:\n        /* \"contracts/lib/GameRegistry.sol\":4810:4822  allowedAttrs */\n      dup4\n        /* \"contracts/lib/GameRegistry.sol\":4810:4829  allowedAttrs.length */\n      dup1\n      sload\n      swap1\n      pop\n        /* \"contracts/lib/GameRegistry.sol\":4806:4807  j */\n      dup2\n        /* \"contracts/lib/GameRegistry.sol\":4806:4829  j < allowedAttrs.length */\n      lt\n        /* \"contracts/lib/GameRegistry.sol\":4789:4994  for (uint j = 0; j < allowedAttrs.length; j++) {... */\n      iszero\n      tag_67\n      jumpi\n        /* \"contracts/lib/GameRegistry.sol\":4875:4887  allowedAttrs */\n      dup4\n        /* \"contracts/lib/GameRegistry.sol\":4888:4889  j */\n      dup2\n        /* \"contracts/lib/GameRegistry.sol\":4875:4890  allowedAttrs[j] */\n      dup2\n      sload\n      dup2\n      lt\n      tag_69\n      jumpi\n      tag_70\n      tag_71\n      jump\t// in\n    tag_70:\n    tag_69:\n      swap1\n      0x00\n      mstore\n      keccak256(0x00, 0x20)\n      add\n      sload\n        /* \"contracts/lib/GameRegistry.sol\":4858:4868  attributes */\n      dup8\n      dup8\n        /* \"contracts/lib/GameRegistry.sol\":4869:4870  i */\n      dup6\n        /* \"contracts/lib/GameRegistry.sol\":4858:4871  attributes[i] */\n      dup2\n      dup2\n      lt\n      tag_73\n      jumpi\n      tag_74\n      tag_71\n      jump\t// in\n    tag_74:\n    tag_73:\n      swap1\n      pop\n      0x20\n      mul\n      add\n      calldataload\n        /* \"contracts/lib/GameRegistry.sol\":4858:4890  attributes[i] == allowedAttrs[j] */\n      sub\n        /* \"contracts/lib/GameRegistry.sol\":4854:4980  if (attributes[i] == allowedAttrs[j]) {... */\n      tag_75\n      jumpi\n        /* \"contracts/lib/GameRegistry.sol\":4930:4934  true */\n      0x01\n        /* \"contracts/lib/GameRegistry.sol\":4914:4934  hasPermission = true */\n      swap2\n      pop\n        /* \"contracts/lib/GameRegistry.sol\":4956:4961  break */\n      jump(tag_67)\n        /* \"contracts/lib/GameRegistry.sol\":4854:4980  if (attributes[i] == allowedAttrs[j]) {... */\n    tag_75:\n        /* \"contracts/lib/GameRegistry.sol\":4831:4834  j++ */\n      dup1\n      dup1\n      0x01\n      add\n      swap2\n      pop\n      pop\n        /* \"contracts/lib/GameRegistry.sol\":4789:4994  for (uint j = 0; j < allowedAttrs.length; j++) {... */\n      jump(tag_66)\n    tag_67:\n      pop\n        /* \"contracts/lib/GameRegistry.sol\":5012:5025  hasPermission */\n      dup1\n        /* \"contracts/lib/GameRegistry.sol\":5007:5039  if (!hasPermission) return false */\n      tag_76\n      jumpi\n        /* \"contracts/lib/GameRegistry.sol\":5034:5039  false */\n      0x00\n        /* \"contracts/lib/GameRegistry.sol\":5027:5039  return false */\n      swap4\n      pop\n      pop\n      pop\n      pop\n      jump(tag_60)\n        /* \"contracts/lib/GameRegistry.sol\":5007:5039  if (!hasPermission) return false */\n    tag_76:\n        /* \"contracts/lib/GameRegistry.sol\":4735:5050  {... */\n      pop\n        /* \"contracts/lib/GameRegistry.sol\":4730:4733  i++ */\n      dup1\n      dup1\n      0x01\n      add\n      swap2\n      pop\n      pop\n        /* \"contracts/lib/GameRegistry.sol\":4690:5050  for (uint i = 0; i < attributes.length; i++) {... */\n      jump(tag_63)\n    tag_64:\n      pop\n        /* \"contracts/lib/GameRegistry.sol\":5066:5070  true */\n      0x01\n        /* \"contracts/lib/GameRegistry.sol\":5059:5070  return true */\n      swap2\n      pop\n      pop\n        /* \"contracts/lib/GameRegistry.sol\":4286:5077  function hasPermissions(... */\n    tag_60:\n      swap5\n      swap4\n      pop\n      pop\n      pop\n      pop\n      jump\t// out\n        /* \"contracts/lib/GameRegistry.sol\":3550:3946  function getGamePermissions(... */\n    tag_24:\n        /* \"contracts/lib/GameRegistry.sol\":3660:3676  bytes32[] memory */\n      0x60\n        /* \"contracts/lib/GameRegistry.sol\":3696:3701  games */\n      0x01\n        /* \"contracts/lib/GameRegistry.sol\":3696:3707  games[game] */\n      0x00\n        /* \"contracts/lib/GameRegistry.sol\":3702:3706  game */\n      dup5\n        /* \"contracts/lib/GameRegistry.sol\":3696:3707  games[game] */\n      0xffffffffffffffffffffffffffffffffffffffff\n      and\n      0xffffffffffffffffffffffffffffffffffffffff\n      and\n      dup2\n      mstore\n      0x20\n      add\n      swap1\n      dup2\n      mstore\n      0x20\n      add\n      0x00\n      keccak256\n        /* \"contracts/lib/GameRegistry.sol\":3696:3720  games[game].isRegistered */\n      0x00\n      add\n      0x00\n      swap1\n      sload\n      swap1\n      0x0100\n      exp\n      swap1\n      div\n      0xff\n      and\n        /* \"contracts/lib/GameRegistry.sol\":3688:3744  require(games[game].isRegistered, \"Game not registered\") */\n      tag_78\n      jumpi\n      mload(0x40)\n      0x08c379a000000000000000000000000000000000000000000000000000000000\n      dup2\n      mstore\n      0x04\n      add\n      tag_79\n      swap1\n      tag_80\n      jump\t// in\n    tag_79:\n      mload(0x40)\n      dup1\n      swap2\n      sub\n      swap1\n      revert\n    tag_78:\n        /* \"contracts/lib/GameRegistry.sol\":3762:3767  games */\n      0x01\n        /* \"contracts/lib/GameRegistry.sol\":3762:3773  games[game] */\n      0x00\n        /* \"contracts/lib/GameRegistry.sol\":3768:3772  game */\n      dup5\n        /* \"contracts/lib/GameRegistry.sol\":3762:3773  games[game] */\n      0xffffffffffffffffffffffffffffffffffffffff\n      and\n      0xffffffffffffffffffffffffffffffffffffffff\n      and\n      dup2\n      mstore\n      0x20\n      add\n      swap1\n      dup2\n      mstore\n      0x20\n      add\n      0x00\n      keccak256\n        /* \"contracts/lib/GameRegistry.sol\":3762:3790  games[game].assetPermissions */\n      0x01\n      add\n        /* \"contracts/lib/GameRegistry.sol\":3762:3805  games[game].assetPermissions[assetContract] */\n      0x00\n        /* \"contracts/lib/GameRegistry.sol\":3791:3804  assetContract */\n      dup4\n        /* \"contracts/lib/GameRegistry.sol\":3762:3805  games[game].assetPermissions[assetContract] */\n      0xffffffffffffffffffffffffffffffffffffffff\n      and\n      0xffffffffffffffffffffffffffffffffffffffff\n      and\n      dup2\n      mstore\n      0x20\n      add\n      swap1\n      dup2\n      mstore\n      0x20\n      add\n      0x00\n      keccak256\n        /* \"contracts/lib/GameRegistry.sol\":3762:3818  games[game].assetPermissions[assetContract].isRegistered */\n      0x00\n      add\n      0x00\n      swap1\n      sload\n      swap1\n      0x0100\n      exp\n      swap1\n      div\n      0xff\n      and\n        /* \"contracts/lib/GameRegistry.sol\":3754:3852  require(games[game].assetPermissions[assetContract].isRegistered, \"Asset not registered for game\") */\n      tag_81\n      jumpi\n      mload(0x40)\n      0x08c379a000000000000000000000000000000000000000000000000000000000\n      dup2\n      mstore\n      0x04\n      add\n      tag_82\n      swap1\n      tag_83\n      jump\t// in\n    tag_82:\n      mload(0x40)\n      dup1\n      swap2\n      sub\n      swap1\n      revert\n    tag_81:\n        /* \"contracts/lib/GameRegistry.sol\":3878:3883  games */\n      0x01\n        /* \"contracts/lib/GameRegistry.sol\":3878:3889  games[game] */\n      0x00\n        /* \"contracts/lib/GameRegistry.sol\":3884:3888  game */\n      dup5\n        /* \"contracts/lib/GameRegistry.sol\":3878:3889  games[game] */\n      0xffffffffffffffffffffffffffffffffffffffff\n      and\n      0xffffffffffffffffffffffffffffffffffffffff\n      and\n      dup2\n      mstore\n      0x20\n      add\n      swap1\n      dup2\n      mstore\n      0x20\n      add\n      0x00\n      keccak256\n        /* \"contracts/lib/GameRegistry.sol\":3878:3906  games[game].assetPermissions */\n      0x01\n      add\n        /* \"contracts/lib/GameRegistry.sol\":3878:3921  games[game].assetPermissions[assetContract] */\n      0x00\n        /* \"contracts/lib/GameRegistry.sol\":3907:3920  assetContract */\n      dup4\n        /* \"contracts/lib/GameRegistry.sol\":3878:3921  games[game].assetPermissions[assetContract] */\n      0xffffffffffffffffffffffffffffffffffffffff\n      and\n      0xffffffffffffffffffffffffffffffffffffffff\n      and\n      dup2\n      mstore\n      0x20\n      add\n      swap1\n      dup2\n      mstore\n      0x20\n      add\n      0x00\n      keccak256\n        /* \"contracts/lib/GameRegistry.sol\":3878:3939  games[game].assetPermissions[assetContract].allowedAttributes */\n      0x01\n      add\n        /* \"contracts/lib/GameRegistry.sol\":3871:3939  return games[game].assetPermissions[assetContract].allowedAttributes */\n      dup1\n      sload\n      dup1\n      0x20\n      mul\n      0x20\n      add\n      mload(0x40)\n      swap1\n      dup2\n      add\n      0x40\n      mstore\n      dup1\n      swap3\n      swap2\n      swap1\n      dup2\n      dup2\n      mstore\n      0x20\n      add\n      dup3\n      dup1\n      sload\n      dup1\n      iszero\n      tag_84\n      jumpi\n      0x20\n      mul\n      dup3\n      add\n      swap2\n      swap1\n      0x00\n      mstore\n      keccak256(0x00, 0x20)\n      swap1\n    tag_85:\n      dup2\n      sload\n      dup2\n      mstore\n      0x20\n      add\n      swap1\n      0x01\n      add\n      swap1\n      dup1\n      dup4\n      gt\n      tag_85\n      jumpi\n    tag_84:\n      pop\n      pop\n      pop\n      pop\n      pop\n      swap1\n      pop\n        /* \"contracts/lib/GameRegistry.sol\":3550:3946  function getGamePermissions(... */\n      swap3\n      swap2\n      pop\n      pop\n      jump\t// out\n        /* \"contracts/lib/GameRegistry.sol\":5253:6142  function getGameAssetContracts(address game) external view returns (address[] memory) {... */\n    tag_30:\n        /* \"contracts/lib/GameRegistry.sol\":5321:5337  address[] memory */\n      0x60\n        /* \"contracts/lib/GameRegistry.sol\":5357:5362  games */\n      0x01\n        /* \"contracts/lib/GameRegistry.sol\":5357:5368  games[game] */\n      0x00\n        /* \"contracts/lib/GameRegistry.sol\":5363:5367  game */\n      dup4\n        /* \"contracts/lib/GameRegistry.sol\":5357:5368  games[game] */\n      0xffffffffffffffffffffffffffffffffffffffff\n      and\n      0xffffffffffffffffffffffffffffffffffffffff\n      and\n      dup2\n      mstore\n      0x20\n      add\n      swap1\n      dup2\n      mstore\n      0x20\n      add\n      0x00\n      keccak256\n        /* \"contracts/lib/GameRegistry.sol\":5357:5381  games[game].isRegistered */\n      0x00\n      add\n      0x00\n      swap1\n      sload\n      swap1\n      0x0100\n      exp\n      swap1\n      div\n      0xff\n      and\n        /* \"contracts/lib/GameRegistry.sol\":5349:5405  require(games[game].isRegistered, \"Game not registered\") */\n      tag_87\n      jumpi\n      mload(0x40)\n      0x08c379a000000000000000000000000000000000000000000000000000000000\n      dup2\n      mstore\n      0x04\n      add\n      tag_88\n      swap1\n      tag_80\n      jump\t// in\n    tag_88:\n      mload(0x40)\n      dup1\n      swap2\n      sub\n      swap1\n      revert\n    tag_87:\n        /* \"contracts/lib/GameRegistry.sol\":5501:5514  uint256 count */\n      0x00\n        /* \"contracts/lib/GameRegistry.sol\":5533:5539  uint i */\n      dup1\n        /* \"contracts/lib/GameRegistry.sol\":5528:5709  for (uint i = 0; i < registeredGames.length; i++) {... */\n    tag_89:\n        /* \"contracts/lib/GameRegistry.sol\":5549:5564  registeredGames */\n      0x02\n        /* \"contracts/lib/GameRegistry.sol\":5549:5571  registeredGames.length */\n      dup1\n      sload\n      swap1\n      pop\n        /* \"contracts/lib/GameRegistry.sol\":5545:5546  i */\n      dup2\n        /* \"contracts/lib/GameRegistry.sol\":5545:5571  i < registeredGames.length */\n      lt\n        /* \"contracts/lib/GameRegistry.sol\":5528:5709  for (uint i = 0; i < registeredGames.length; i++) {... */\n      iszero\n      tag_90\n      jumpi\n        /* \"contracts/lib/GameRegistry.sol\":5596:5601  games */\n      0x01\n        /* \"contracts/lib/GameRegistry.sol\":5596:5607  games[game] */\n      0x00\n        /* \"contracts/lib/GameRegistry.sol\":5602:5606  game */\n      dup6\n        /* \"contracts/lib/GameRegistry.sol\":5596:5607  games[game] */\n      0xffffffffffffffffffffffffffffffffffffffff\n      and\n      0xffffffffffffffffffffffffffffffffffffffff\n      and\n      dup2\n      mstore\n      0x20\n      add\n      swap1\n      dup2\n      mstore\n      0x20\n      add\n      0x00\n      keccak256\n        /* \"contracts/lib/GameRegistry.sol\":5596:5624  games[game].assetPermissions */\n      0x01\n      add\n        /* \"contracts/lib/GameRegistry.sol\":5596:5644  games[game].assetPermissions[registeredGames[i]] */\n      0x00\n        /* \"contracts/lib/GameRegistry.sol\":5625:5640  registeredGames */\n      0x02\n        /* \"contracts/lib/GameRegistry.sol\":5641:5642  i */\n      dup4\n        /* \"contracts/lib/GameRegistry.sol\":5625:5643  registeredGames[i] */\n      dup2\n      sload\n      dup2\n      lt\n      tag_92\n      jumpi\n      tag_93\n      tag_71\n      jump\t// in\n    tag_93:\n    tag_92:\n      swap1\n      0x00\n      mstore\n      keccak256(0x00, 0x20)\n      add\n      0x00\n      swap1\n      sload\n      swap1\n      0x0100\n      exp\n      swap1\n      div\n      0xffffffffffffffffffffffffffffffffffffffff\n      and\n        /* \"contracts/lib/GameRegistry.sol\":5596:5644  games[game].assetPermissions[registeredGames[i]] */\n      0xffffffffffffffffffffffffffffffffffffffff\n      and\n      0xffffffffffffffffffffffffffffffffffffffff\n      and\n      dup2\n      mstore\n      0x20\n      add\n      swap1\n      dup2\n      mstore\n      0x20\n      add\n      0x00\n      keccak256\n        /* \"contracts/lib/GameRegistry.sol\":5596:5657  games[game].assetPermissions[registeredGames[i]].isRegistered */\n      0x00\n      add\n      0x00\n      swap1\n      sload\n      swap1\n      0x0100\n      exp\n      swap1\n      div\n      0xff\n      and\n        /* \"contracts/lib/GameRegistry.sol\":5592:5699  if (games[game].assetPermissions[registeredGames[i]].isRegistered) {... */\n      iszero\n      tag_95\n      jumpi\n        /* \"contracts/lib/GameRegistry.sol\":5677:5684  count++ */\n      dup2\n      dup1\n      tag_96\n      swap1\n      tag_97\n      jump\t// in\n    tag_96:\n      swap3\n      pop\n      pop\n        /* \"contracts/lib/GameRegistry.sol\":5592:5699  if (games[game].assetPermissions[registeredGames[i]].isRegistered) {... */\n    tag_95:\n        /* \"contracts/lib/GameRegistry.sol\":5573:5576  i++ */\n      dup1\n      dup1\n      0x01\n      add\n      swap2\n      pop\n      pop\n        /* \"contracts/lib/GameRegistry.sol\":5528:5709  for (uint i = 0; i < registeredGames.length; i++) {... */\n      jump(tag_89)\n    tag_90:\n      pop\n        /* \"contracts/lib/GameRegistry.sol\":5764:5795  address[] memory assetContracts */\n      0x00\n        /* \"contracts/lib/GameRegistry.sol\":5812:5817  count */\n      dup2\n        /* \"contracts/lib/GameRegistry.sol\":5798:5818  new address[](count) */\n      0xffffffffffffffff\n      dup2\n      gt\n      iszero\n      tag_98\n      jumpi\n      tag_99\n      tag_100\n      jump\t// in\n    tag_99:\n    tag_98:\n      mload(0x40)\n      swap1\n      dup1\n      dup3\n      mstore\n      dup1\n      0x20\n      mul\n      0x20\n      add\n      dup3\n      add\n      0x40\n      mstore\n      dup1\n      iszero\n      tag_101\n      jumpi\n      dup2\n      0x20\n      add\n      0x20\n      dup3\n      mul\n      dup1\n      calldatasize\n      dup4\n      calldatacopy\n      dup1\n      dup3\n      add\n      swap2\n      pop\n      pop\n      swap1\n      pop\n    tag_101:\n      pop\n        /* \"contracts/lib/GameRegistry.sol\":5764:5818  address[] memory assetContracts = new address[](count) */\n      swap1\n      pop\n        /* \"contracts/lib/GameRegistry.sol\":5828:5841  uint256 index */\n      0x00\n        /* \"contracts/lib/GameRegistry.sol\":5860:5866  uint i */\n      dup1\n        /* \"contracts/lib/GameRegistry.sol\":5855:6096  for (uint i = 0; i < registeredGames.length; i++) {... */\n    tag_102:\n        /* \"contracts/lib/GameRegistry.sol\":5876:5891  registeredGames */\n      0x02\n        /* \"contracts/lib/GameRegistry.sol\":5876:5898  registeredGames.length */\n      dup1\n      sload\n      swap1\n      pop\n        /* \"contracts/lib/GameRegistry.sol\":5872:5873  i */\n      dup2\n        /* \"contracts/lib/GameRegistry.sol\":5872:5898  i < registeredGames.length */\n      lt\n        /* \"contracts/lib/GameRegistry.sol\":5855:6096  for (uint i = 0; i < registeredGames.length; i++) {... */\n      iszero\n      tag_103\n      jumpi\n        /* \"contracts/lib/GameRegistry.sol\":5923:5928  games */\n      0x01\n        /* \"contracts/lib/GameRegistry.sol\":5923:5934  games[game] */\n      0x00\n        /* \"contracts/lib/GameRegistry.sol\":5929:5933  game */\n      dup8\n        /* \"contracts/lib/GameRegistry.sol\":5923:5934  games[game] */\n      0xffffffffffffffffffffffffffffffffffffffff\n      and\n      0xffffffffffffffffffffffffffffffffffffffff\n      and\n      dup2\n      mstore\n      0x20\n      add\n      swap1\n      dup2\n      mstore\n      0x20\n      add\n      0x00\n      keccak256\n        /* \"contracts/lib/GameRegistry.sol\":5923:5951  games[game].assetPermissions */\n      0x01\n      add\n        /* \"contracts/lib/GameRegistry.sol\":5923:5971  games[game].assetPermissions[registeredGames[i]] */\n      0x00\n        /* \"contracts/lib/GameRegistry.sol\":5952:5967  registeredGames */\n      0x02\n        /* \"contracts/lib/GameRegistry.sol\":5968:5969  i */\n      dup4\n        /* \"contracts/lib/GameRegistry.sol\":5952:5970  registeredGames[i] */\n      dup2\n      sload\n      dup2\n      lt\n      tag_105\n      jumpi\n      tag_106\n      tag_71\n      jump\t// in\n    tag_106:\n    tag_105:\n      swap1\n      0x00\n      mstore\n      keccak256(0x00, 0x20)\n      add\n      0x00\n      swap1\n      sload\n      swap1\n      0x0100\n      exp\n      swap1\n      div\n      0xffffffffffffffffffffffffffffffffffffffff\n      and\n        /* \"contracts/lib/GameRegistry.sol\":5923:5971  games[game].assetPermissions[registeredGames[i]] */\n      0xffffffffffffffffffffffffffffffffffffffff\n      and\n      0xffffffffffffffffffffffffffffffffffffffff\n      and\n      dup2\n      mstore\n      0x20\n      add\n      swap1\n      dup2\n      mstore\n      0x20\n      add\n      0x00\n      keccak256\n        /* \"contracts/lib/GameRegistry.sol\":5923:5984  games[game].assetPermissions[registeredGames[i]].isRegistered */\n      0x00\n      add\n      0x00\n      swap1\n      sload\n      swap1\n      0x0100\n      exp\n      swap1\n      div\n      0xff\n      and\n        /* \"contracts/lib/GameRegistry.sol\":5919:6086  if (games[game].assetPermissions[registeredGames[i]].isRegistered) {... */\n      iszero\n      tag_108\n      jumpi\n        /* \"contracts/lib/GameRegistry.sol\":6028:6043  registeredGames */\n      0x02\n        /* \"contracts/lib/GameRegistry.sol\":6044:6045  i */\n      dup2\n        /* \"contracts/lib/GameRegistry.sol\":6028:6046  registeredGames[i] */\n      dup2\n      sload\n      dup2\n      lt\n      tag_109\n      jumpi\n      tag_110\n      tag_71\n      jump\t// in\n    tag_110:\n    tag_109:\n      swap1\n      0x00\n      mstore\n      keccak256(0x00, 0x20)\n      add\n      0x00\n      swap1\n      sload\n      swap1\n      0x0100\n      exp\n      swap1\n      div\n      0xffffffffffffffffffffffffffffffffffffffff\n      and\n        /* \"contracts/lib/GameRegistry.sol\":6004:6018  assetContracts */\n      dup4\n        /* \"contracts/lib/GameRegistry.sol\":6019:6024  index */\n      dup4\n        /* \"contracts/lib/GameRegistry.sol\":6004:6025  assetContracts[index] */\n      dup2\n      mload\n      dup2\n      lt\n      tag_112\n      jumpi\n      tag_113\n      tag_71\n      jump\t// in\n    tag_113:\n    tag_112:\n      0x20\n      mul\n      0x20\n      add\n      add\n        /* \"contracts/lib/GameRegistry.sol\":6004:6046  assetContracts[index] = registeredGames[i] */\n      swap1\n      0xffffffffffffffffffffffffffffffffffffffff\n      and\n      swap1\n      dup2\n      0xffffffffffffffffffffffffffffffffffffffff\n      and\n      dup2\n      mstore\n      pop\n      pop\n        /* \"contracts/lib/GameRegistry.sol\":6064:6071  index++ */\n      dup2\n      dup1\n      tag_114\n      swap1\n      tag_97\n      jump\t// in\n    tag_114:\n      swap3\n      pop\n      pop\n        /* \"contracts/lib/GameRegistry.sol\":5919:6086  if (games[game].assetPermissions[registeredGames[i]].isRegistered) {... */\n    tag_108:\n        /* \"contracts/lib/GameRegistry.sol\":5900:5903  i++ */\n      dup1\n      dup1\n      0x01\n      add\n      swap2\n      pop\n      pop\n        /* \"contracts/lib/GameRegistry.sol\":5855:6096  for (uint i = 0; i < registeredGames.length; i++) {... */\n      jump(tag_102)\n    tag_103:\n      pop\n        /* \"contracts/lib/GameRegistry.sol\":6121:6135  assetContracts */\n      dup2\n        /* \"contracts/lib/GameRegistry.sol\":6114:6135  return assetContracts */\n      swap4\n      pop\n      pop\n      pop\n      pop\n        /* \"contracts/lib/GameRegistry.sol\":5253:6142  function getGameAssetContracts(address game) external view returns (address[] memory) {... */\n      swap2\n      swap1\n      pop\n      jump\t// out\n        /* \"contracts/lib/GameRegistry.sol\":1881:2493  function grantAssetPermission(... */\n    tag_35:\n        /* \"@openzeppelin/contracts/access/Ownable.sol\":1531:1544  _checkOwner() */\n      tag_116\n        /* \"@openzeppelin/contracts/access/Ownable.sol\":1531:1542  _checkOwner */\n      tag_117\n        /* \"@openzeppelin/contracts/access/Ownable.sol\":1531:1544  _checkOwner() */\n      jump\t// in\n    tag_116:\n        /* \"contracts/lib/GameRegistry.sol\":2046:2051  games */\n      0x01\n        /* \"contracts/lib/GameRegistry.sol\":2046:2057  games[game] */\n      0x00\n        /* \"contracts/lib/GameRegistry.sol\":2052:2056  game */\n      dup6\n        /* \"contracts/lib/GameRegistry.sol\":2046:2057  games[game] */\n      0xffffffffffffffffffffffffffffffffffffffff\n      and\n      0xffffffffffffffffffffffffffffffffffffffff\n      and\n      dup2\n      mstore\n      0x20\n      add\n      swap1\n      dup2\n      mstore\n      0x20\n      add\n      0x00\n      keccak256\n        /* \"contracts/lib/GameRegistry.sol\":2046:2070  games[game].isRegistered */\n      0x00\n      add\n      0x00\n      swap1\n      sload\n      swap1\n      0x0100\n      exp\n      swap1\n      div\n      0xff\n      and\n        /* \"contracts/lib/GameRegistry.sol\":2038:2094  require(games[game].isRegistered, \"Game not registered\") */\n      tag_119\n      jumpi\n      mload(0x40)\n      0x08c379a000000000000000000000000000000000000000000000000000000000\n      dup2\n      mstore\n      0x04\n      add\n      tag_120\n      swap1\n      tag_80\n      jump\t// in\n    tag_120:\n      mload(0x40)\n      dup1\n      swap2\n      sub\n      swap1\n      revert\n    tag_119:\n        /* \"contracts/lib/GameRegistry.sol\":2137:2138  0 */\n      0x00\n        /* \"contracts/lib/GameRegistry.sol\":2112:2139  assetContract != address(0) */\n      0xffffffffffffffffffffffffffffffffffffffff\n      and\n        /* \"contracts/lib/GameRegistry.sol\":2112:2125  assetContract */\n      dup4\n        /* \"contracts/lib/GameRegistry.sol\":2112:2139  assetContract != address(0) */\n      0xffffffffffffffffffffffffffffffffffffffff\n      and\n      sub\n        /* \"contracts/lib/GameRegistry.sol\":2104:2166  require(assetContract != address(0), \"Invalid asset contract\") */\n      tag_121\n      jumpi\n      mload(0x40)\n      0x08c379a000000000000000000000000000000000000000000000000000000000\n      dup2\n      mstore\n      0x04\n      add\n      tag_122\n      swap1\n      tag_123\n      jump\t// in\n    tag_122:\n      mload(0x40)\n      dup1\n      swap2\n      sub\n      swap1\n      revert\n    tag_121:\n        /* \"contracts/lib/GameRegistry.sol\":2204:2205  0 */\n      0x00\n        /* \"contracts/lib/GameRegistry.sol\":2184:2194  attributes */\n      dup3\n      dup3\n        /* \"contracts/lib/GameRegistry.sol\":2184:2201  attributes.length */\n      swap1\n      pop\n        /* \"contracts/lib/GameRegistry.sol\":2184:2205  attributes.length > 0 */\n      gt\n        /* \"contracts/lib/GameRegistry.sol\":2176:2233  require(attributes.length > 0, \"No attributes specified\") */\n      tag_124\n      jumpi\n      mload(0x40)\n      0x08c379a000000000000000000000000000000000000000000000000000000000\n      dup2\n      mstore\n      0x04\n      add\n      tag_125\n      swap1\n      tag_126\n      jump\t// in\n    tag_125:\n      mload(0x40)\n      dup1\n      swap2\n      sub\n      swap1\n      revert\n    tag_124:\n        /* \"contracts/lib/GameRegistry.sol\":2244:2278  AssetPermission storage permission */\n      0x00\n        /* \"contracts/lib/GameRegistry.sol\":2281:2286  games */\n      0x01\n        /* \"contracts/lib/GameRegistry.sol\":2281:2292  games[game] */\n      0x00\n        /* \"contracts/lib/GameRegistry.sol\":2287:2291  game */\n      dup7\n        /* \"contracts/lib/GameRegistry.sol\":2281:2292  games[game] */\n      0xffffffffffffffffffffffffffffffffffffffff\n      and\n      0xffffffffffffffffffffffffffffffffffffffff\n      and\n      dup2\n      mstore\n      0x20\n      add\n      swap1\n      dup2\n      mstore\n      0x20\n      add\n      0x00\n      keccak256\n        /* \"contracts/lib/GameRegistry.sol\":2281:2309  games[game].assetPermissions */\n      0x01\n      add\n        /* \"contracts/lib/GameRegistry.sol\":2281:2324  games[game].assetPermissions[assetContract] */\n      0x00\n        /* \"contracts/lib/GameRegistry.sol\":2310:2323  assetContract */\n      dup6\n        /* \"contracts/lib/GameRegistry.sol\":2281:2324  games[game].assetPermissions[assetContract] */\n      0xffffffffffffffffffffffffffffffffffffffff\n      and\n      0xffffffffffffffffffffffffffffffffffffffff\n      and\n      dup2\n      mstore\n      0x20\n      add\n      swap1\n      dup2\n      mstore\n      0x20\n      add\n      0x00\n      keccak256\n        /* \"contracts/lib/GameRegistry.sol\":2244:2324  AssetPermission storage permission = games[game].assetPermissions[assetContract] */\n      swap1\n      pop\n        /* \"contracts/lib/GameRegistry.sol\":2360:2364  true */\n      0x01\n        /* \"contracts/lib/GameRegistry.sol\":2334:2344  permission */\n      dup2\n        /* \"contracts/lib/GameRegistry.sol\":2334:2357  permission.isRegistered */\n      0x00\n      add\n      0x00\n        /* \"contracts/lib/GameRegistry.sol\":2334:2364  permission.isRegistered = true */\n      0x0100\n      exp\n      dup2\n      sload\n      dup2\n      0xff\n      mul\n      not\n      and\n      swap1\n      dup4\n      iszero\n      iszero\n      mul\n      or\n      swap1\n      sstore\n      pop\n        /* \"contracts/lib/GameRegistry.sol\":2405:2415  attributes */\n      dup3\n      dup3\n        /* \"contracts/lib/GameRegistry.sol\":2374:2384  permission */\n      dup3\n        /* \"contracts/lib/GameRegistry.sol\":2374:2402  permission.allowedAttributes */\n      0x01\n      add\n        /* \"contracts/lib/GameRegistry.sol\":2374:2415  permission.allowedAttributes = attributes */\n      swap2\n      swap1\n      tag_127\n      swap3\n      swap2\n      swap1\n      tag_128\n      jump\t// in\n    tag_127:\n      pop\n        /* \"contracts/lib/GameRegistry.sol\":2460:2473  assetContract */\n      dup4\n        /* \"contracts/lib/GameRegistry.sol\":2431:2486  AssetPermissionGranted(game, assetContract, attributes) */\n      0xffffffffffffffffffffffffffffffffffffffff\n      and\n        /* \"contracts/lib/GameRegistry.sol\":2454:2458  game */\n      dup6\n        /* \"contracts/lib/GameRegistry.sol\":2431:2486  AssetPermissionGranted(game, assetContract, attributes) */\n      0xffffffffffffffffffffffffffffffffffffffff\n      and\n      0x5a1925924b0857ceb006f7400134cecccedb6ca75ecef791a1a109cf8890edae\n        /* \"contracts/lib/GameRegistry.sol\":2475:2485  attributes */\n      dup6\n      dup6\n        /* \"contracts/lib/GameRegistry.sol\":2431:2486  AssetPermissionGranted(game, assetContract, attributes) */\n      mload(0x40)\n      tag_129\n      swap3\n      swap2\n      swap1\n      tag_130\n      jump\t// in\n    tag_129:\n      mload(0x40)\n      dup1\n      swap2\n      sub\n      swap1\n      log3\n        /* \"contracts/lib/GameRegistry.sol\":2028:2493  {... */\n      pop\n        /* \"contracts/lib/GameRegistry.sol\":1881:2493  function grantAssetPermission(... */\n      pop\n      pop\n      pop\n      pop\n      jump\t// out\n        /* \"contracts/lib/GameRegistry.sol\":2676:3085  function revokeAssetPermission(... */\n    tag_38:\n        /* \"@openzeppelin/contracts/access/Ownable.sol\":1531:1544  _checkOwner() */\n      tag_132\n        /* \"@openzeppelin/contracts/access/Ownable.sol\":1531:1542  _checkOwner */\n      tag_117\n        /* \"@openzeppelin/contracts/access/Ownable.sol\":1531:1544  _checkOwner() */\n      jump\t// in\n    tag_132:\n        /* \"contracts/lib/GameRegistry.sol\":2803:2808  games */\n      0x01\n        /* \"contracts/lib/GameRegistry.sol\":2803:2814  games[game] */\n      0x00\n        /* \"contracts/lib/GameRegistry.sol\":2809:2813  game */\n      dup4\n        /* \"contracts/lib/GameRegistry.sol\":2803:2814  games[game] */\n      0xffffffffffffffffffffffffffffffffffffffff\n      and\n      0xffffffffffffffffffffffffffffffffffffffff\n      and\n      dup2\n      mstore\n      0x20\n      add\n      swap1\n      dup2\n      mstore\n      0x20\n      add\n      0x00\n      keccak256\n        /* \"contracts/lib/GameRegistry.sol\":2803:2827  games[game].isRegistered */\n      0x00\n      add\n      0x00\n      swap1\n      sload\n      swap1\n      0x0100\n      exp\n      swap1\n      div\n      0xff\n      and\n        /* \"contracts/lib/GameRegistry.sol\":2795:2851  require(games[game].isRegistered, \"Game not registered\") */\n      tag_134\n      jumpi\n      mload(0x40)\n      0x08c379a000000000000000000000000000000000000000000000000000000000\n      dup2\n      mstore\n      0x04\n      add\n      tag_135\n      swap1\n      tag_80\n      jump\t// in\n    tag_135:\n      mload(0x40)\n      dup1\n      swap2\n      sub\n      swap1\n      revert\n    tag_134:\n        /* \"contracts/lib/GameRegistry.sol\":2869:2874  games */\n      0x01\n        /* \"contracts/lib/GameRegistry.sol\":2869:2880  games[game] */\n      0x00\n        /* \"contracts/lib/GameRegistry.sol\":2875:2879  game */\n      dup4\n        /* \"contracts/lib/GameRegistry.sol\":2869:2880  games[game] */\n      0xffffffffffffffffffffffffffffffffffffffff\n      and\n      0xffffffffffffffffffffffffffffffffffffffff\n      and\n      dup2\n      mstore\n      0x20\n      add\n      swap1\n      dup2\n      mstore\n      0x20\n      add\n      0x00\n      keccak256\n        /* \"contracts/lib/GameRegistry.sol\":2869:2897  games[game].assetPermissions */\n      0x01\n      add\n        /* \"contracts/lib/GameRegistry.sol\":2869:2912  games[game].assetPermissions[assetContract] */\n      0x00\n        /* \"contracts/lib/GameRegistry.sol\":2898:2911  assetContract */\n      dup3\n        /* \"contracts/lib/GameRegistry.sol\":2869:2912  games[game].assetPermissions[assetContract] */\n      0xffffffffffffffffffffffffffffffffffffffff\n      and\n      0xffffffffffffffffffffffffffffffffffffffff\n      and\n      dup2\n      mstore\n      0x20\n      add\n      swap1\n      dup2\n      mstore\n      0x20\n      add\n      0x00\n      keccak256\n        /* \"contracts/lib/GameRegistry.sol\":2869:2925  games[game].assetPermissions[assetContract].isRegistered */\n      0x00\n      add\n      0x00\n      swap1\n      sload\n      swap1\n      0x0100\n      exp\n      swap1\n      div\n      0xff\n      and\n        /* \"contracts/lib/GameRegistry.sol\":2861:2959  require(games[game].assetPermissions[assetContract].isRegistered, \"Asset not registered for game\") */\n      tag_136\n      jumpi\n      mload(0x40)\n      0x08c379a000000000000000000000000000000000000000000000000000000000\n      dup2\n      mstore\n      0x04\n      add\n      tag_137\n      swap1\n      tag_83\n      jump\t// in\n    tag_137:\n      mload(0x40)\n      dup1\n      swap2\n      sub\n      swap1\n      revert\n    tag_136:\n        /* \"contracts/lib/GameRegistry.sol\":2977:2982  games */\n      0x01\n        /* \"contracts/lib/GameRegistry.sol\":2977:2988  games[game] */\n      0x00\n        /* \"contracts/lib/GameRegistry.sol\":2983:2987  game */\n      dup4\n        /* \"contracts/lib/GameRegistry.sol\":2977:2988  games[game] */\n      0xffffffffffffffffffffffffffffffffffffffff\n      and\n      0xffffffffffffffffffffffffffffffffffffffff\n      and\n      dup2\n      mstore\n      0x20\n      add\n      swap1\n      dup2\n      mstore\n      0x20\n      add\n      0x00\n      keccak256\n        /* \"contracts/lib/GameRegistry.sol\":2977:3005  games[game].assetPermissions */\n      0x01\n      add\n        /* \"contracts/lib/GameRegistry.sol\":2977:3020  games[game].assetPermissions[assetContract] */\n      0x00\n        /* \"contracts/lib/GameRegistry.sol\":3006:3019  assetContract */\n      dup3\n        /* \"contracts/lib/GameRegistry.sol\":2977:3020  games[game].assetPermissions[assetContract] */\n      0xffffffffffffffffffffffffffffffffffffffff\n      and\n      0xffffffffffffffffffffffffffffffffffffffff\n      and\n      dup2\n      mstore\n      0x20\n      add\n      swap1\n      dup2\n      mstore\n      0x20\n      add\n      0x00\n      keccak256\n      0x00\n        /* \"contracts/lib/GameRegistry.sol\":2970:3020  delete games[game].assetPermissions[assetContract] */\n      dup1\n      dup3\n      add\n      exp(0x0100, 0x00)\n      dup2\n      sload\n      swap1\n      0xff\n      mul\n      not\n      and\n      swap1\n      sstore\n      0x01\n      dup3\n      add\n      0x00\n      tag_138\n      swap2\n      swap1\n      tag_139\n      jump\t// in\n    tag_138:\n      pop\n      pop\n        /* \"contracts/lib/GameRegistry.sol\":3064:3077  assetContract */\n      dup1\n        /* \"contracts/lib/GameRegistry.sol\":3035:3078  AssetPermissionRevoked(game, assetContract) */\n      0xffffffffffffffffffffffffffffffffffffffff\n      and\n        /* \"contracts/lib/GameRegistry.sol\":3058:3062  game */\n      dup3\n        /* \"contracts/lib/GameRegistry.sol\":3035:3078  AssetPermissionRevoked(game, assetContract) */\n      0xffffffffffffffffffffffffffffffffffffffff\n      and\n      0xb0b93a7d8a8ec4a98f21206af2d3af128fc5ba7b8df65991b7477766ed425622\n      mload(0x40)\n      mload(0x40)\n      dup1\n      swap2\n      sub\n      swap1\n      log3\n        /* \"contracts/lib/GameRegistry.sol\":2676:3085  function revokeAssetPermission(... */\n      pop\n      pop\n      jump\t// out\n        /* \"@openzeppelin/contracts/access/Ownable.sol\":2293:2394  function renounceOwnership() public virtual onlyOwner {... */\n    tag_40:\n        /* \"@openzeppelin/contracts/access/Ownable.sol\":1531:1544  _checkOwner() */\n      tag_141\n        /* \"@openzeppelin/contracts/access/Ownable.sol\":1531:1542  _checkOwner */\n      tag_117\n        /* \"@openzeppelin/contracts/access/Ownable.sol\":1531:1544  _checkOwner() */\n      jump\t// in\n    tag_141:\n        /* \"@openzeppelin/contracts/access/Ownable.sol\":2357:2387  _transferOwnership(address(0)) */\n      tag_143\n        /* \"@openzeppelin/contracts/access/Ownable.sol\":2384:2385  0 */\n      0x00\n        /* \"@openzeppelin/contracts/access/Ownable.sol\":2357:2375  _transferOwnership */\n      tag_144\n        /* \"@openzeppelin/contracts/access/Ownable.sol\":2357:2387  _transferOwnership(address(0)) */\n      jump\t// in\n    tag_143:\n        /* \"@openzeppelin/contracts/access/Ownable.sol\":2293:2394  function renounceOwnership() public virtual onlyOwner {... */\n      jump\t// out\n        /* \"@openzeppelin/contracts/access/Ownable.sol\":1638:1723  function owner() public view virtual returns (address) {... */\n    tag_42:\n        /* \"@openzeppelin/contracts/access/Ownable.sol\":1684:1691  address */\n      0x00\n        /* \"@openzeppelin/contracts/access/Ownable.sol\":1710:1716  _owner */\n      dup1\n      0x00\n      swap1\n      sload\n      swap1\n      0x0100\n      exp\n      swap1\n      div\n      0xffffffffffffffffffffffffffffffffffffffff\n      and\n        /* \"@openzeppelin/contracts/access/Ownable.sol\":1703:1716  return _owner */\n      swap1\n      pop\n        /* \"@openzeppelin/contracts/access/Ownable.sol\":1638:1723  function owner() public view virtual returns (address) {... */\n      swap1\n      jump\t// out\n        /* \"contracts/lib/GameRegistry.sol\":1174:1613  function registerGame(address game) external onlyOwner {... */\n    tag_47:\n        /* \"@openzeppelin/contracts/access/Ownable.sol\":1531:1544  _checkOwner() */\n      tag_147\n        /* \"@openzeppelin/contracts/access/Ownable.sol\":1531:1542  _checkOwner */\n      tag_117\n        /* \"@openzeppelin/contracts/access/Ownable.sol\":1531:1544  _checkOwner() */\n      jump\t// in\n    tag_147:\n        /* \"contracts/lib/GameRegistry.sol\":1263:1264  0 */\n      0x00\n        /* \"contracts/lib/GameRegistry.sol\":1247:1265  game != address(0) */\n      0xffffffffffffffffffffffffffffffffffffffff\n      and\n        /* \"contracts/lib/GameRegistry.sol\":1247:1251  game */\n      dup2\n        /* \"contracts/lib/GameRegistry.sol\":1247:1265  game != address(0) */\n      0xffffffffffffffffffffffffffffffffffffffff\n      and\n      sub\n        /* \"contracts/lib/GameRegistry.sol\":1239:1290  require(game != address(0), \"Invalid game address\") */\n      tag_149\n      jumpi\n      mload(0x40)\n      0x08c379a000000000000000000000000000000000000000000000000000000000\n      dup2\n      mstore\n      0x04\n      add\n      tag_150\n      swap1\n      tag_151\n      jump\t// in\n    tag_150:\n      mload(0x40)\n      dup1\n      swap2\n      sub\n      swap1\n      revert\n    tag_149:\n        /* \"contracts/lib/GameRegistry.sol\":1309:1314  games */\n      0x01\n        /* \"contracts/lib/GameRegistry.sol\":1309:1320  games[game] */\n      0x00\n        /* \"contracts/lib/GameRegistry.sol\":1315:1319  game */\n      dup3\n        /* \"contracts/lib/GameRegistry.sol\":1309:1320  games[game] */\n      0xffffffffffffffffffffffffffffffffffffffff\n      and\n      0xffffffffffffffffffffffffffffffffffffffff\n      and\n      dup2\n      mstore\n      0x20\n      add\n      swap1\n      dup2\n      mstore\n      0x20\n      add\n      0x00\n      keccak256\n        /* \"contracts/lib/GameRegistry.sol\":1309:1333  games[game].isRegistered */\n      0x00\n      add\n      0x00\n      swap1\n      sload\n      swap1\n      0x0100\n      exp\n      swap1\n      div\n      0xff\n      and\n        /* \"contracts/lib/GameRegistry.sol\":1308:1333  !games[game].isRegistered */\n      iszero\n        /* \"contracts/lib/GameRegistry.sol\":1300:1361  require(!games[game].isRegistered, \"Game already registered\") */\n      tag_152\n      jumpi\n      mload(0x40)\n      0x08c379a000000000000000000000000000000000000000000000000000000000\n      dup2\n      mstore\n      0x04\n      add\n      tag_153\n      swap1\n      tag_154\n      jump\t// in\n    tag_153:\n      mload(0x40)\n      dup1\n      swap2\n      sub\n      swap1\n      revert\n    tag_152:\n        /* \"contracts/lib/GameRegistry.sol\":1407:1411  true */\n      0x01\n        /* \"contracts/lib/GameRegistry.sol\":1380:1385  games */\n      dup1\n        /* \"contracts/lib/GameRegistry.sol\":1380:1391  games[game] */\n      0x00\n        /* \"contracts/lib/GameRegistry.sol\":1386:1390  game */\n      dup4\n        /* \"contracts/lib/GameRegistry.sol\":1380:1391  games[game] */\n      0xffffffffffffffffffffffffffffffffffffffff\n      and\n      0xffffffffffffffffffffffffffffffffffffffff\n      and\n      dup2\n      mstore\n      0x20\n      add\n      swap1\n      dup2\n      mstore\n      0x20\n      add\n      0x00\n      keccak256\n        /* \"contracts/lib/GameRegistry.sol\":1380:1404  games[game].isRegistered */\n      0x00\n      add\n      0x00\n        /* \"contracts/lib/GameRegistry.sol\":1380:1411  games[game].isRegistered = true */\n      0x0100\n      exp\n      dup2\n      sload\n      dup2\n      0xff\n      mul\n      not\n      and\n      swap1\n      dup4\n      iszero\n      iszero\n      mul\n      or\n      swap1\n      sstore\n      pop\n        /* \"contracts/lib/GameRegistry.sol\":1452:1467  block.timestamp */\n      timestamp\n        /* \"contracts/lib/GameRegistry.sol\":1421:1426  games */\n      0x01\n        /* \"contracts/lib/GameRegistry.sol\":1421:1432  games[game] */\n      0x00\n        /* \"contracts/lib/GameRegistry.sol\":1427:1431  game */\n      dup4\n        /* \"contracts/lib/GameRegistry.sol\":1421:1432  games[game] */\n      0xffffffffffffffffffffffffffffffffffffffff\n      and\n      0xffffffffffffffffffffffffffffffffffffffff\n      and\n      dup2\n      mstore\n      0x20\n      add\n      swap1\n      dup2\n      mstore\n      0x20\n      add\n      0x00\n      keccak256\n        /* \"contracts/lib/GameRegistry.sol\":1421:1449  games[game].registrationTime */\n      0x02\n      add\n        /* \"contracts/lib/GameRegistry.sol\":1421:1467  games[game].registrationTime = block.timestamp */\n      dup2\n      swap1\n      sstore\n      pop\n        /* \"contracts/lib/GameRegistry.sol\":1504:1514  msg.sender */\n      caller\n        /* \"contracts/lib/GameRegistry.sol\":1477:1482  games */\n      0x01\n        /* \"contracts/lib/GameRegistry.sol\":1477:1488  games[game] */\n      0x00\n        /* \"contracts/lib/GameRegistry.sol\":1483:1487  game */\n      dup4\n        /* \"contracts/lib/GameRegistry.sol\":1477:1488  games[game] */\n      0xffffffffffffffffffffffffffffffffffffffff\n      and\n      0xffffffffffffffffffffffffffffffffffffffff\n      and\n      dup2\n      mstore\n      0x20\n      add\n      swap1\n      dup2\n      mstore\n      0x20\n      add\n      0x00\n      keccak256\n        /* \"contracts/lib/GameRegistry.sol\":1477:1501  games[game].registeredBy */\n      0x03\n      add\n      0x00\n        /* \"contracts/lib/GameRegistry.sol\":1477:1514  games[game].registeredBy = msg.sender */\n      0x0100\n      exp\n      dup2\n      sload\n      dup2\n      0xffffffffffffffffffffffffffffffffffffffff\n      mul\n      not\n      and\n      swap1\n      dup4\n      0xffffffffffffffffffffffffffffffffffffffff\n      and\n      mul\n      or\n      swap1\n      sstore\n      pop\n        /* \"contracts/lib/GameRegistry.sol\":1533:1548  registeredGames */\n      0x02\n        /* \"contracts/lib/GameRegistry.sol\":1554:1558  game */\n      dup2\n        /* \"contracts/lib/GameRegistry.sol\":1533:1559  registeredGames.push(game) */\n      swap1\n      dup1\n      0x01\n      dup2\n      sload\n      add\n      dup1\n      dup3\n      sstore\n      dup1\n      swap2\n      pop\n      pop\n      0x01\n      swap1\n      sub\n      swap1\n      0x00\n      mstore\n      keccak256(0x00, 0x20)\n      add\n      0x00\n      swap1\n      swap2\n      swap1\n      swap2\n      swap1\n      swap2\n      0x0100\n      exp\n      dup2\n      sload\n      dup2\n      0xffffffffffffffffffffffffffffffffffffffff\n      mul\n      not\n      and\n      swap1\n      dup4\n      0xffffffffffffffffffffffffffffffffffffffff\n      and\n      mul\n      or\n      swap1\n      sstore\n      pop\n        /* \"contracts/lib/GameRegistry.sol\":1595:1605  msg.sender */\n      caller\n        /* \"contracts/lib/GameRegistry.sol\":1574:1606  GameRegistered(game, msg.sender) */\n      0xffffffffffffffffffffffffffffffffffffffff\n      and\n        /* \"contracts/lib/GameRegistry.sol\":1589:1593  game */\n      dup2\n        /* \"contracts/lib/GameRegistry.sol\":1574:1606  GameRegistered(game, msg.sender) */\n      0xffffffffffffffffffffffffffffffffffffffff\n      and\n      0x076eada2b266f926d3ecb187dece20428d68db62016c04bea8ccb92679f788de\n      mload(0x40)\n      mload(0x40)\n      dup1\n      swap2\n      sub\n      swap1\n      log3\n        /* \"contracts/lib/GameRegistry.sol\":1174:1613  function registerGame(address game) external onlyOwner {... */\n      pop\n      jump\t// out\n        /* \"contracts/lib/GameRegistry.sol\":580:612  address[] public registeredGames */\n    tag_51:\n      0x02\n      dup2\n      dup2\n      sload\n      dup2\n      lt\n      tag_156\n      jumpi\n      0x00\n      dup1\n      revert\n    tag_156:\n      swap1\n      0x00\n      mstore\n      keccak256(0x00, 0x20)\n      add\n      0x00\n      swap2\n      pop\n      sload\n      swap1\n      0x0100\n      exp\n      swap1\n      div\n      0xffffffffffffffffffffffffffffffffffffffff\n      and\n      dup2\n      jump\t// out\n        /* \"contracts/lib/GameRegistry.sol\":3200:3317  function isGameRegistered(address game) external view returns (bool) {... */\n    tag_55:\n        /* \"contracts/lib/GameRegistry.sol\":3263:3267  bool */\n      0x00\n        /* \"contracts/lib/GameRegistry.sol\":3286:3291  games */\n      0x01\n        /* \"contracts/lib/GameRegistry.sol\":3286:3297  games[game] */\n      0x00\n        /* \"contracts/lib/GameRegistry.sol\":3292:3296  game */\n      dup4\n        /* \"contracts/lib/GameRegistry.sol\":3286:3297  games[game] */\n      0xffffffffffffffffffffffffffffffffffffffff\n      and\n      0xffffffffffffffffffffffffffffffffffffffff\n      and\n      dup2\n      mstore\n      0x20\n      add\n      swap1\n      dup2\n      mstore\n      0x20\n      add\n      0x00\n      keccak256\n        /* \"contracts/lib/GameRegistry.sol\":3286:3310  games[game].isRegistered */\n      0x00\n      add\n      0x00\n      swap1\n      sload\n      swap1\n      0x0100\n      exp\n      swap1\n      div\n      0xff\n      and\n        /* \"contracts/lib/GameRegistry.sol\":3279:3310  return games[game].isRegistered */\n      swap1\n      pop\n        /* \"contracts/lib/GameRegistry.sol\":3200:3317  function isGameRegistered(address game) external view returns (bool) {... */\n      swap2\n      swap1\n      pop\n      jump\t// out\n        /* \"@openzeppelin/contracts/access/Ownable.sol\":2543:2758  function transferOwnership(address newOwner) public virtual onlyOwner {... */\n    tag_59:\n        /* \"@openzeppelin/contracts/access/Ownable.sol\":1531:1544  _checkOwner() */\n      tag_160\n        /* \"@openzeppelin/contracts/access/Ownable.sol\":1531:1542  _checkOwner */\n      tag_117\n        /* \"@openzeppelin/contracts/access/Ownable.sol\":1531:1544  _checkOwner() */\n      jump\t// in\n    tag_160:\n        /* \"@openzeppelin/contracts/access/Ownable.sol\":2647:2648  0 */\n      0x00\n        /* \"@openzeppelin/contracts/access/Ownable.sol\":2627:2649  newOwner == address(0) */\n      0xffffffffffffffffffffffffffffffffffffffff\n      and\n        /* \"@openzeppelin/contracts/access/Ownable.sol\":2627:2635  newOwner */\n      dup2\n        /* \"@openzeppelin/contracts/access/Ownable.sol\":2627:2649  newOwner == address(0) */\n      0xffffffffffffffffffffffffffffffffffffffff\n      and\n      sub\n        /* \"@openzeppelin/contracts/access/Ownable.sol\":2623:2714  if (newOwner == address(0)) {... */\n      tag_162\n      jumpi\n        /* \"@openzeppelin/contracts/access/Ownable.sol\":2700:2701  0 */\n      0x00\n        /* \"@openzeppelin/contracts/access/Ownable.sol\":2672:2703  OwnableInvalidOwner(address(0)) */\n      mload(0x40)\n      0x1e4fbdf700000000000000000000000000000000000000000000000000000000\n      dup2\n      mstore\n      0x04\n      add\n      tag_163\n      swap2\n      swap1\n      tag_44\n      jump\t// in\n    tag_163:\n      mload(0x40)\n      dup1\n      swap2\n      sub\n      swap1\n      revert\n        /* \"@openzeppelin/contracts/access/Ownable.sol\":2623:2714  if (newOwner == address(0)) {... */\n    tag_162:\n        /* \"@openzeppelin/contracts/access/Ownable.sol\":2723:2751  _transferOwnership(newOwner) */\n      tag_164\n        /* \"@openzeppelin/contracts/access/Ownable.sol\":2742:2750  newOwner */\n      dup2\n        /* \"@openzeppelin/contracts/access/Ownable.sol\":2723:2741  _transferOwnership */\n      tag_144\n        /* \"@openzeppelin/contracts/access/Ownable.sol\":2723:2751  _transferOwnership(newOwner) */\n      jump\t// in\n    tag_164:\n        /* \"@openzeppelin/contracts/access/Ownable.sol\":2543:2758  function transferOwnership(address newOwner) public virtual onlyOwner {... */\n      pop\n      jump\t// out\n        /* \"@openzeppelin/contracts/access/Ownable.sol\":1796:1958  function _checkOwner() internal view virtual {... */\n    tag_117:\n        /* \"@openzeppelin/contracts/access/Ownable.sol\":1866:1878  _msgSender() */\n      tag_166\n        /* \"@openzeppelin/contracts/access/Ownable.sol\":1866:1876  _msgSender */\n      tag_167\n        /* \"@openzeppelin/contracts/access/Ownable.sol\":1866:1878  _msgSender() */\n      jump\t// in\n    tag_166:\n        /* \"@openzeppelin/contracts/access/Ownable.sol\":1855:1878  owner() != _msgSender() */\n      0xffffffffffffffffffffffffffffffffffffffff\n      and\n        /* \"@openzeppelin/contracts/access/Ownable.sol\":1855:1862  owner() */\n      tag_168\n        /* \"@openzeppelin/contracts/access/Ownable.sol\":1855:1860  owner */\n      tag_42\n        /* \"@openzeppelin/contracts/access/Ownable.sol\":1855:1862  owner() */\n      jump\t// in\n    tag_168:\n        /* \"@openzeppelin/contracts/access/Ownable.sol\":1855:1878  owner() != _msgSender() */\n      0xffffffffffffffffffffffffffffffffffffffff\n      and\n      eq\n        /* \"@openzeppelin/contracts/access/Ownable.sol\":1851:1952  if (owner() != _msgSender()) {... */\n      tag_169\n      jumpi\n        /* \"@openzeppelin/contracts/access/Ownable.sol\":1928:1940  _msgSender() */\n      tag_170\n        /* \"@openzeppelin/contracts/access/Ownable.sol\":1928:1938  _msgSender */\n      tag_167\n        /* \"@openzeppelin/contracts/access/Ownable.sol\":1928:1940  _msgSender() */\n      jump\t// in\n    tag_170:\n        /* \"@openzeppelin/contracts/access/Ownable.sol\":1901:1941  OwnableUnauthorizedAccount(_msgSender()) */\n      mload(0x40)\n      0x118cdaa700000000000000000000000000000000000000000000000000000000\n      dup2\n      mstore\n      0x04\n      add\n      tag_171\n      swap2\n      swap1\n      tag_44\n      jump\t// in\n    tag_171:\n      mload(0x40)\n      dup1\n      swap2\n      sub\n      swap1\n      revert\n        /* \"@openzeppelin/contracts/access/Ownable.sol\":1851:1952  if (owner() != _msgSender()) {... */\n    tag_169:\n        /* \"@openzeppelin/contracts/access/Ownable.sol\":1796:1958  function _checkOwner() internal view virtual {... */\n      jump\t// out\n        /* \"@openzeppelin/contracts/access/Ownable.sol\":2912:3099  function _transferOwnership(address newOwner) internal virtual {... */\n    tag_144:\n        /* \"@openzeppelin/contracts/access/Ownable.sol\":2985:3001  address oldOwner */\n      0x00\n        /* \"@openzeppelin/contracts/access/Ownable.sol\":3004:3010  _owner */\n      dup1\n      0x00\n      swap1\n      sload\n      swap1\n      0x0100\n      exp\n      swap1\n      div\n      0xffffffffffffffffffffffffffffffffffffffff\n      and\n        /* \"@openzeppelin/contracts/access/Ownable.sol\":2985:3010  address oldOwner = _owner */\n      swap1\n      pop\n        /* \"@openzeppelin/contracts/access/Ownable.sol\":3029:3037  newOwner */\n      dup2\n        /* \"@openzeppelin/contracts/access/Ownable.sol\":3020:3026  _owner */\n      0x00\n      dup1\n        /* \"@openzeppelin/contracts/access/Ownable.sol\":3020:3037  _owner = newOwner */\n      0x0100\n      exp\n      dup2\n      sload\n      dup2\n      0xffffffffffffffffffffffffffffffffffffffff\n      mul\n      not\n      and\n      swap1\n      dup4\n      0xffffffffffffffffffffffffffffffffffffffff\n      and\n      mul\n      or\n      swap1\n      sstore\n      pop\n        /* \"@openzeppelin/contracts/access/Ownable.sol\":3083:3091  newOwner */\n      dup2\n        /* \"@openzeppelin/contracts/access/Ownable.sol\":3052:3092  OwnershipTransferred(oldOwner, newOwner) */\n      0xffffffffffffffffffffffffffffffffffffffff\n      and\n        /* \"@openzeppelin/contracts/access/Ownable.sol\":3073:3081  oldOwner */\n      dup2\n        /* \"@openzeppelin/contracts/access/Ownable.sol\":3052:3092  OwnershipTransferred(oldOwner, newOwner) */\n      0xffffffffffffffffffffffffffffffffffffffff\n      and\n      0x8be0079c531659141344cd1fd0a4f28419497f9722a3daafe3b4186f6b6457e0\n      mload(0x40)\n      mload(0x40)\n      dup1\n      swap2\n      sub\n      swap1\n      log3\n        /* \"@openzeppelin/contracts/access/Ownable.sol\":2975:3099  {... */\n      pop\n        /* \"@openzeppelin/contracts/access/Ownable.sol\":2912:3099  function _transferOwnership(address newOwner) internal virtual {... */\n      pop\n      jump\t// out\n        /* \"@openzeppelin/contracts/utils/Context.sol\":656:752  function _msgSender() internal view virtual returns (address) {... */\n    tag_167:\n        /* \"@openzeppelin/contracts/utils/Context.sol\":709:716  address */\n      0x00\n        /* \"@openzeppelin/contracts/utils/Context.sol\":735:745  msg.sender */\n      caller\n        /* \"@openzeppelin/contracts/utils/Context.sol\":728:745  return msg.sender */\n      swap1\n      pop\n        /* \"@openzeppelin/contracts/utils/Context.sol\":656:752  function _msgSender() internal view virtual returns (address) {... */\n      swap1\n      jump\t// out\n    tag_128:\n      dup3\n      dup1\n      sload\n      dup3\n      dup3\n      sstore\n      swap1\n      0x00\n      mstore\n      keccak256(0x00, 0x20)\n      swap1\n      dup2\n      add\n      swap3\n      dup3\n      iszero\n      tag_174\n      jumpi\n      swap2\n      0x20\n      mul\n      dup3\n      add\n    tag_175:\n      dup3\n      dup2\n      gt\n      iszero\n      tag_176\n      jumpi\n      dup3\n      calldataload\n      dup3\n      sstore\n      swap2\n      0x20\n      add\n      swap2\n      swap1\n      0x01\n      add\n      swap1\n      jump(tag_175)\n    tag_176:\n    tag_174:\n      pop\n      swap1\n      pop\n      tag_177\n      swap2\n      swap1\n      tag_178\n      jump\t// in\n    tag_177:\n      pop\n      swap1\n      jump\t// out\n    tag_139:\n      pop\n      dup1\n      sload\n      0x00\n      dup3\n      sstore\n      swap1\n      0x00\n      mstore\n      keccak256(0x00, 0x20)\n      swap1\n      dup2\n      add\n      swap1\n      tag_180\n      swap2\n      swap1\n      tag_178\n      jump\t// in\n    tag_180:\n      pop\n      jump\t// out\n    tag_178:\n    tag_181:\n      dup1\n      dup3\n      gt\n      iszero\n      tag_182\n      jumpi\n      0x00\n      dup2\n      0x00\n      swap1\n      sstore\n      pop\n      0x01\n      add\n      jump(tag_181)\n    tag_182:\n      pop\n      swap1\n      jump\t// out\n        /* \"#utility.yul\":88:205   */\n    tag_184:\n        /* \"#utility.yul\":197:198   */\n      0x00\n        /* \"#utility.yul\":194:195   */\n      dup1\n        /* \"#utility.yul\":187:199   */\n      revert\n        /* \"#utility.yul\":211:328   */\n    tag_185:\n        /* \"#utility.yul\":320:321   */\n      0x00\n        /* \"#utility.yul\":317:318   */\n      dup1\n        /* \"#utility.yul\":310:322   */\n      revert\n        /* \"#utility.yul\":334:460   */\n    tag_186:\n        /* \"#utility.yul\":371:378   */\n      0x00\n        /* \"#utility.yul\":411:453   */\n      0xffffffffffffffffffffffffffffffffffffffff\n        /* \"#utility.yul\":404:409   */\n      dup3\n        /* \"#utility.yul\":400:454   */\n      and\n        /* \"#utility.yul\":389:454   */\n      swap1\n      pop\n        /* \"#utility.yul\":334:460   */\n      swap2\n      swap1\n      pop\n      jump\t// out\n        /* \"#utility.yul\":466:562   */\n    tag_187:\n        /* \"#utility.yul\":503:510   */\n      0x00\n        /* \"#utility.yul\":532:556   */\n      tag_238\n        /* \"#utility.yul\":550:555   */\n      dup3\n        /* \"#utility.yul\":532:556   */\n      tag_186\n      jump\t// in\n    tag_238:\n        /* \"#utility.yul\":521:556   */\n      swap1\n      pop\n        /* \"#utility.yul\":466:562   */\n      swap2\n      swap1\n      pop\n      jump\t// out\n        /* \"#utility.yul\":568:690   */\n    tag_188:\n        /* \"#utility.yul\":641:665   */\n      tag_240\n        /* \"#utility.yul\":659:664   */\n      dup2\n        /* \"#utility.yul\":641:665   */\n      tag_187\n      jump\t// in\n    tag_240:\n        /* \"#utility.yul\":634:639   */\n      dup2\n        /* \"#utility.yul\":631:666   */\n      eq\n        /* \"#utility.yul\":621:684   */\n      tag_241\n      jumpi\n        /* \"#utility.yul\":680:681   */\n      0x00\n        /* \"#utility.yul\":677:678   */\n      dup1\n        /* \"#utility.yul\":670:682   */\n      revert\n        /* \"#utility.yul\":621:684   */\n    tag_241:\n        /* \"#utility.yul\":568:690   */\n      pop\n      jump\t// out\n        /* \"#utility.yul\":696:835   */\n    tag_189:\n        /* \"#utility.yul\":742:747   */\n      0x00\n        /* \"#utility.yul\":780:786   */\n      dup2\n        /* \"#utility.yul\":767:787   */\n      calldataload\n        /* \"#utility.yul\":758:787   */\n      swap1\n      pop\n        /* \"#utility.yul\":796:829   */\n      tag_243\n        /* \"#utility.yul\":823:828   */\n      dup2\n        /* \"#utility.yul\":796:829   */\n      tag_188\n      jump\t// in\n    tag_243:\n        /* \"#utility.yul\":696:835   */\n      swap3\n      swap2\n      pop\n      pop\n      jump\t// out\n        /* \"#utility.yul\":841:958   */\n    tag_190:\n        /* \"#utility.yul\":950:951   */\n      0x00\n        /* \"#utility.yul\":947:948   */\n      dup1\n        /* \"#utility.yul\":940:952   */\n      revert\n        /* \"#utility.yul\":964:1081   */\n    tag_191:\n        /* \"#utility.yul\":1073:1074   */\n      0x00\n        /* \"#utility.yul\":1070:1071   */\n      dup1\n        /* \"#utility.yul\":1063:1075   */\n      revert\n        /* \"#utility.yul\":1087:1204   */\n    tag_192:\n        /* \"#utility.yul\":1196:1197   */\n      0x00\n        /* \"#utility.yul\":1193:1194   */\n      dup1\n        /* \"#utility.yul\":1186:1198   */\n      revert\n        /* \"#utility.yul\":1227:1795   */\n    tag_193:\n        /* \"#utility.yul\":1300:1308   */\n      0x00\n        /* \"#utility.yul\":1310:1316   */\n      dup1\n        /* \"#utility.yul\":1360:1363   */\n      dup4\n        /* \"#utility.yul\":1353:1357   */\n      0x1f\n        /* \"#utility.yul\":1345:1351   */\n      dup5\n        /* \"#utility.yul\":1341:1358   */\n      add\n        /* \"#utility.yul\":1337:1364   */\n      slt\n        /* \"#utility.yul\":1327:1449   */\n      tag_248\n      jumpi\n        /* \"#utility.yul\":1368:1447   */\n      tag_249\n      tag_190\n      jump\t// in\n    tag_249:\n        /* \"#utility.yul\":1327:1449   */\n    tag_248:\n        /* \"#utility.yul\":1481:1487   */\n      dup3\n        /* \"#utility.yul\":1468:1488   */\n      calldataload\n        /* \"#utility.yul\":1458:1488   */\n      swap1\n      pop\n        /* \"#utility.yul\":1511:1529   */\n      0xffffffffffffffff\n        /* \"#utility.yul\":1503:1509   */\n      dup2\n        /* \"#utility.yul\":1500:1530   */\n      gt\n        /* \"#utility.yul\":1497:1614   */\n      iszero\n      tag_250\n      jumpi\n        /* \"#utility.yul\":1533:1612   */\n      tag_251\n      tag_191\n      jump\t// in\n    tag_251:\n        /* \"#utility.yul\":1497:1614   */\n    tag_250:\n        /* \"#utility.yul\":1647:1651   */\n      0x20\n        /* \"#utility.yul\":1639:1645   */\n      dup4\n        /* \"#utility.yul\":1635:1652   */\n      add\n        /* \"#utility.yul\":1623:1652   */\n      swap2\n      pop\n        /* \"#utility.yul\":1701:1704   */\n      dup4\n        /* \"#utility.yul\":1693:1697   */\n      0x20\n        /* \"#utility.yul\":1685:1691   */\n      dup3\n        /* \"#utility.yul\":1681:1698   */\n      mul\n        /* \"#utility.yul\":1671:1679   */\n      dup4\n        /* \"#utility.yul\":1667:1699   */\n      add\n        /* \"#utility.yul\":1664:1705   */\n      gt\n        /* \"#utility.yul\":1661:1789   */\n      iszero\n      tag_252\n      jumpi\n        /* \"#utility.yul\":1708:1787   */\n      tag_253\n      tag_192\n      jump\t// in\n    tag_253:\n        /* \"#utility.yul\":1661:1789   */\n    tag_252:\n        /* \"#utility.yul\":1227:1795   */\n      swap3\n      pop\n      swap3\n      swap1\n      pop\n      jump\t// out\n        /* \"#utility.yul\":1801:2650   */\n    tag_17:\n        /* \"#utility.yul\":1905:1911   */\n      0x00\n        /* \"#utility.yul\":1913:1919   */\n      dup1\n        /* \"#utility.yul\":1921:1927   */\n      0x00\n        /* \"#utility.yul\":1929:1935   */\n      dup1\n        /* \"#utility.yul\":1978:1980   */\n      0x60\n        /* \"#utility.yul\":1966:1975   */\n      dup6\n        /* \"#utility.yul\":1957:1964   */\n      dup8\n        /* \"#utility.yul\":1953:1976   */\n      sub\n        /* \"#utility.yul\":1949:1981   */\n      slt\n        /* \"#utility.yul\":1946:2065   */\n      iszero\n      tag_255\n      jumpi\n        /* \"#utility.yul\":1984:2063   */\n      tag_256\n      tag_184\n      jump\t// in\n    tag_256:\n        /* \"#utility.yul\":1946:2065   */\n    tag_255:\n        /* \"#utility.yul\":2104:2105   */\n      0x00\n        /* \"#utility.yul\":2129:2182   */\n      tag_257\n        /* \"#utility.yul\":2174:2181   */\n      dup8\n        /* \"#utility.yul\":2165:2171   */\n      dup3\n        /* \"#utility.yul\":2154:2163   */\n      dup9\n        /* \"#utility.yul\":2150:2172   */\n      add\n        /* \"#utility.yul\":2129:2182   */\n      tag_189\n      jump\t// in\n    tag_257:\n        /* \"#utility.yul\":2119:2182   */\n      swap5\n      pop\n        /* \"#utility.yul\":2075:2192   */\n      pop\n        /* \"#utility.yul\":2231:2233   */\n      0x20\n        /* \"#utility.yul\":2257:2310   */\n      tag_258\n        /* \"#utility.yul\":2302:2309   */\n      dup8\n        /* \"#utility.yul\":2293:2299   */\n      dup3\n        /* \"#utility.yul\":2282:2291   */\n      dup9\n        /* \"#utility.yul\":2278:2300   */\n      add\n        /* \"#utility.yul\":2257:2310   */\n      tag_189\n      jump\t// in\n    tag_258:\n        /* \"#utility.yul\":2247:2310   */\n      swap4\n      pop\n        /* \"#utility.yul\":2202:2320   */\n      pop\n        /* \"#utility.yul\":2387:2389   */\n      0x40\n        /* \"#utility.yul\":2376:2385   */\n      dup6\n        /* \"#utility.yul\":2372:2390   */\n      add\n        /* \"#utility.yul\":2359:2391   */\n      calldataload\n        /* \"#utility.yul\":2418:2436   */\n      0xffffffffffffffff\n        /* \"#utility.yul\":2410:2416   */\n      dup2\n        /* \"#utility.yul\":2407:2437   */\n      gt\n        /* \"#utility.yul\":2404:2521   */\n      iszero\n      tag_259\n      jumpi\n        /* \"#utility.yul\":2440:2519   */\n      tag_260\n      tag_185\n      jump\t// in\n    tag_260:\n        /* \"#utility.yul\":2404:2521   */\n    tag_259:\n        /* \"#utility.yul\":2553:2633   */\n      tag_261\n        /* \"#utility.yul\":2625:2632   */\n      dup8\n        /* \"#utility.yul\":2616:2622   */\n      dup3\n        /* \"#utility.yul\":2605:2614   */\n      dup9\n        /* \"#utility.yul\":2601:2623   */\n      add\n        /* \"#utility.yul\":2553:2633   */\n      tag_193\n      jump\t// in\n    tag_261:\n        /* \"#utility.yul\":2535:2633   */\n      swap3\n      pop\n      swap3\n      pop\n        /* \"#utility.yul\":2330:2643   */\n      pop\n        /* \"#utility.yul\":1801:2650   */\n      swap3\n      swap6\n      swap2\n      swap5\n      pop\n      swap3\n      pop\n      jump\t// out\n        /* \"#utility.yul\":2656:2746   */\n    tag_194:\n        /* \"#utility.yul\":2690:2697   */\n      0x00\n        /* \"#utility.yul\":2733:2738   */\n      dup2\n        /* \"#utility.yul\":2726:2739   */\n      iszero\n        /* \"#utility.yul\":2719:2740   */\n      iszero\n        /* \"#utility.yul\":2708:2740   */\n      swap1\n      pop\n        /* \"#utility.yul\":2656:2746   */\n      swap2\n      swap1\n      pop\n      jump\t// out\n        /* \"#utility.yul\":2752:2861   */\n    tag_195:\n        /* \"#utility.yul\":2833:2854   */\n      tag_264\n        /* \"#utility.yul\":2848:2853   */\n      dup2\n        /* \"#utility.yul\":2833:2854   */\n      tag_194\n      jump\t// in\n    tag_264:\n        /* \"#utility.yul\":2828:2831   */\n      dup3\n        /* \"#utility.yul\":2821:2855   */\n      mstore\n        /* \"#utility.yul\":2752:2861   */\n      pop\n      pop\n      jump\t// out\n        /* \"#utility.yul\":2867:3077   */\n    tag_20:\n        /* \"#utility.yul\":2954:2958   */\n      0x00\n        /* \"#utility.yul\":2992:2994   */\n      0x20\n        /* \"#utility.yul\":2981:2990   */\n      dup3\n        /* \"#utility.yul\":2977:2995   */\n      add\n        /* \"#utility.yul\":2969:2995   */\n      swap1\n      pop\n        /* \"#utility.yul\":3005:3070   */\n      tag_266\n        /* \"#utility.yul\":3067:3068   */\n      0x00\n        /* \"#utility.yul\":3056:3065   */\n      dup4\n        /* \"#utility.yul\":3052:3069   */\n      add\n        /* \"#utility.yul\":3043:3049   */\n      dup5\n        /* \"#utility.yul\":3005:3070   */\n      tag_195\n      jump\t// in\n    tag_266:\n        /* \"#utility.yul\":2867:3077   */\n      swap3\n      swap2\n      pop\n      pop\n      jump\t// out\n        /* \"#utility.yul\":3083:3557   */\n    tag_23:\n        /* \"#utility.yul\":3151:3157   */\n      0x00\n        /* \"#utility.yul\":3159:3165   */\n      dup1\n        /* \"#utility.yul\":3208:3210   */\n      0x40\n        /* \"#utility.yul\":3196:3205   */\n      dup4\n        /* \"#utility.yul\":3187:3194   */\n      dup6\n        /* \"#utility.yul\":3183:3206   */\n      sub\n        /* \"#utility.yul\":3179:3211   */\n      slt\n        /* \"#utility.yul\":3176:3295   */\n      iszero\n      tag_268\n      jumpi\n        /* \"#utility.yul\":3214:3293   */\n      tag_269\n      tag_184\n      jump\t// in\n    tag_269:\n        /* \"#utility.yul\":3176:3295   */\n    tag_268:\n        /* \"#utility.yul\":3334:3335   */\n      0x00\n        /* \"#utility.yul\":3359:3412   */\n      tag_270\n        /* \"#utility.yul\":3404:3411   */\n      dup6\n        /* \"#utility.yul\":3395:3401   */\n      dup3\n        /* \"#utility.yul\":3384:3393   */\n      dup7\n        /* \"#utility.yul\":3380:3402   */\n      add\n        /* \"#utility.yul\":3359:3412   */\n      tag_189\n      jump\t// in\n    tag_270:\n        /* \"#utility.yul\":3349:3412   */\n      swap3\n      pop\n        /* \"#utility.yul\":3305:3422   */\n      pop\n        /* \"#utility.yul\":3461:3463   */\n      0x20\n        /* \"#utility.yul\":3487:3540   */\n      tag_271\n        /* \"#utility.yul\":3532:3539   */\n      dup6\n        /* \"#utility.yul\":3523:3529   */\n      dup3\n        /* \"#utility.yul\":3512:3521   */\n      dup7\n        /* \"#utility.yul\":3508:3530   */\n      add\n        /* \"#utility.yul\":3487:3540   */\n      tag_189\n      jump\t// in\n    tag_271:\n        /* \"#utility.yul\":3477:3540   */\n      swap2\n      pop\n        /* \"#utility.yul\":3432:3550   */\n      pop\n        /* \"#utility.yul\":3083:3557   */\n      swap3\n      pop\n      swap3\n      swap1\n      pop\n      jump\t// out\n        /* \"#utility.yul\":3563:3677   */\n    tag_196:\n        /* \"#utility.yul\":3630:3636   */\n      0x00\n        /* \"#utility.yul\":3664:3669   */\n      dup2\n        /* \"#utility.yul\":3658:3670   */\n      mload\n        /* \"#utility.yul\":3648:3670   */\n      swap1\n      pop\n        /* \"#utility.yul\":3563:3677   */\n      swap2\n      swap1\n      pop\n      jump\t// out\n        /* \"#utility.yul\":3683:3867   */\n    tag_197:\n        /* \"#utility.yul\":3782:3793   */\n      0x00\n        /* \"#utility.yul\":3816:3822   */\n      dup3\n        /* \"#utility.yul\":3811:3814   */\n      dup3\n        /* \"#utility.yul\":3804:3823   */\n      mstore\n        /* \"#utility.yul\":3856:3860   */\n      0x20\n        /* \"#utility.yul\":3851:3854   */\n      dup3\n        /* \"#utility.yul\":3847:3861   */\n      add\n        /* \"#utility.yul\":3832:3861   */\n      swap1\n      pop\n        /* \"#utility.yul\":3683:3867   */\n      swap3\n      swap2\n      pop\n      pop\n      jump\t// out\n        /* \"#utility.yul\":3873:4005   */\n    tag_198:\n        /* \"#utility.yul\":3940:3944   */\n      0x00\n        /* \"#utility.yul\":3963:3966   */\n      dup2\n        /* \"#utility.yul\":3955:3966   */\n      swap1\n      pop\n        /* \"#utility.yul\":3993:3997   */\n      0x20\n        /* \"#utility.yul\":3988:3991   */\n      dup3\n        /* \"#utility.yul\":3984:3998   */\n      add\n        /* \"#utility.yul\":3976:3998   */\n      swap1\n      pop\n        /* \"#utility.yul\":3873:4005   */\n      swap2\n      swap1\n      pop\n      jump\t// out\n        /* \"#utility.yul\":4011:4088   */\n    tag_199:\n        /* \"#utility.yul\":4048:4055   */\n      0x00\n        /* \"#utility.yul\":4077:4082   */\n      dup2\n        /* \"#utility.yul\":4066:4082   */\n      swap1\n      pop\n        /* \"#utility.yul\":4011:4088   */\n      swap2\n      swap1\n      pop\n      jump\t// out\n        /* \"#utility.yul\":4094:4202   */\n    tag_200:\n        /* \"#utility.yul\":4171:4195   */\n      tag_277\n        /* \"#utility.yul\":4189:4194   */\n      dup2\n        /* \"#utility.yul\":4171:4195   */\n      tag_199\n      jump\t// in\n    tag_277:\n        /* \"#utility.yul\":4166:4169   */\n      dup3\n        /* \"#utility.yul\":4159:4196   */\n      mstore\n        /* \"#utility.yul\":4094:4202   */\n      pop\n      pop\n      jump\t// out\n        /* \"#utility.yul\":4208:4387   */\n    tag_201:\n        /* \"#utility.yul\":4277:4287   */\n      0x00\n        /* \"#utility.yul\":4298:4344   */\n      tag_279\n        /* \"#utility.yul\":4340:4343   */\n      dup4\n        /* \"#utility.yul\":4332:4338   */\n      dup4\n        /* \"#utility.yul\":4298:4344   */\n      tag_200\n      jump\t// in\n    tag_279:\n        /* \"#utility.yul\":4376:4380   */\n      0x20\n        /* \"#utility.yul\":4371:4374   */\n      dup4\n        /* \"#utility.yul\":4367:4381   */\n      add\n        /* \"#utility.yul\":4353:4381   */\n      swap1\n      pop\n        /* \"#utility.yul\":4208:4387   */\n      swap3\n      swap2\n      pop\n      pop\n      jump\t// out\n        /* \"#utility.yul\":4393:4506   */\n    tag_202:\n        /* \"#utility.yul\":4463:4467   */\n      0x00\n        /* \"#utility.yul\":4495:4499   */\n      0x20\n        /* \"#utility.yul\":4490:4493   */\n      dup3\n        /* \"#utility.yul\":4486:4500   */\n      add\n        /* \"#utility.yul\":4478:4500   */\n      swap1\n      pop\n        /* \"#utility.yul\":4393:4506   */\n      swap2\n      swap1\n      pop\n      jump\t// out\n        /* \"#utility.yul\":4542:5274   */\n    tag_203:\n        /* \"#utility.yul\":4661:4664   */\n      0x00\n        /* \"#utility.yul\":4690:4744   */\n      tag_282\n        /* \"#utility.yul\":4738:4743   */\n      dup3\n        /* \"#utility.yul\":4690:4744   */\n      tag_196\n      jump\t// in\n    tag_282:\n        /* \"#utility.yul\":4760:4846   */\n      tag_283\n        /* \"#utility.yul\":4839:4845   */\n      dup2\n        /* \"#utility.yul\":4834:4837   */\n      dup6\n        /* \"#utility.yul\":4760:4846   */\n      tag_197\n      jump\t// in\n    tag_283:\n        /* \"#utility.yul\":4753:4846   */\n      swap4\n      pop\n        /* \"#utility.yul\":4870:4926   */\n      tag_284\n        /* \"#utility.yul\":4920:4925   */\n      dup4\n        /* \"#utility.yul\":4870:4926   */\n      tag_198\n      jump\t// in\n    tag_284:\n        /* \"#utility.yul\":4949:4956   */\n      dup1\n        /* \"#utility.yul\":4980:4981   */\n      0x00\n        /* \"#utility.yul\":4965:5249   */\n    tag_285:\n        /* \"#utility.yul\":4990:4996   */\n      dup4\n        /* \"#utility.yul\":4987:4988   */\n      dup2\n        /* \"#utility.yul\":4984:4997   */\n      lt\n        /* \"#utility.yul\":4965:5249   */\n      iszero\n      tag_287\n      jumpi\n        /* \"#utility.yul\":5066:5072   */\n      dup2\n        /* \"#utility.yul\":5060:5073   */\n      mload\n        /* \"#utility.yul\":5093:5156   */\n      tag_288\n        /* \"#utility.yul\":5152:5155   */\n      dup9\n        /* \"#utility.yul\":5137:5150   */\n      dup3\n        /* \"#utility.yul\":5093:5156   */\n      tag_201\n      jump\t// in\n    tag_288:\n        /* \"#utility.yul\":5086:5156   */\n      swap8\n      pop\n        /* \"#utility.yul\":5179:5239   */\n      tag_289\n        /* \"#utility.yul\":5232:5238   */\n      dup4\n        /* \"#utility.yul\":5179:5239   */\n      tag_202\n      jump\t// in\n    tag_289:\n        /* \"#utility.yul\":5169:5239   */\n      swap3\n      pop\n        /* \"#utility.yul\":5025:5249   */\n      pop\n        /* \"#utility.yul\":5012:5013   */\n      0x01\n        /* \"#utility.yul\":5009:5010   */\n      dup2\n        /* \"#utility.yul\":5005:5014   */\n      add\n        /* \"#utility.yul\":5000:5014   */\n      swap1\n      pop\n        /* \"#utility.yul\":4965:5249   */\n      jump(tag_285)\n    tag_287:\n        /* \"#utility.yul\":4969:4983   */\n      pop\n        /* \"#utility.yul\":5265:5268   */\n      dup6\n        /* \"#utility.yul\":5258:5268   */\n      swap4\n      pop\n        /* \"#utility.yul\":4666:5274   */\n      pop\n      pop\n      pop\n        /* \"#utility.yul\":4542:5274   */\n      swap3\n      swap2\n      pop\n      pop\n      jump\t// out\n        /* \"#utility.yul\":5280:5653   */\n    tag_26:\n        /* \"#utility.yul\":5423:5427   */\n      0x00\n        /* \"#utility.yul\":5461:5463   */\n      0x20\n        /* \"#utility.yul\":5450:5459   */\n      dup3\n        /* \"#utility.yul\":5446:5464   */\n      add\n        /* \"#utility.yul\":5438:5464   */\n      swap1\n      pop\n        /* \"#utility.yul\":5510:5519   */\n      dup2\n        /* \"#utility.yul\":5504:5508   */\n      dup2\n        /* \"#utility.yul\":5500:5520   */\n      sub\n        /* \"#utility.yul\":5496:5497   */\n      0x00\n        /* \"#utility.yul\":5485:5494   */\n      dup4\n        /* \"#utility.yul\":5481:5498   */\n      add\n        /* \"#utility.yul\":5474:5521   */\n      mstore\n        /* \"#utility.yul\":5538:5646   */\n      tag_291\n        /* \"#utility.yul\":5641:5645   */\n      dup2\n        /* \"#utility.yul\":5632:5638   */\n      dup5\n        /* \"#utility.yul\":5538:5646   */\n      tag_203\n      jump\t// in\n    tag_291:\n        /* \"#utility.yul\":5530:5646   */\n      swap1\n      pop\n        /* \"#utility.yul\":5280:5653   */\n      swap3\n      swap2\n      pop\n      pop\n      jump\t// out\n        /* \"#utility.yul\":5659:5988   */\n    tag_29:\n        /* \"#utility.yul\":5718:5724   */\n      0x00\n        /* \"#utility.yul\":5767:5769   */\n      0x20\n        /* \"#utility.yul\":5755:5764   */\n      dup3\n        /* \"#utility.yul\":5746:5753   */\n      dup5\n        /* \"#utility.yul\":5742:5765   */\n      sub\n        /* \"#utility.yul\":5738:5770   */\n      slt\n        /* \"#utility.yul\":5735:5854   */\n      iszero\n      tag_293\n      jumpi\n        /* \"#utility.yul\":5773:5852   */\n      tag_294\n      tag_184\n      jump\t// in\n    tag_294:\n        /* \"#utility.yul\":5735:5854   */\n    tag_293:\n        /* \"#utility.yul\":5893:5894   */\n      0x00\n        /* \"#utility.yul\":5918:5971   */\n      tag_295\n        /* \"#utility.yul\":5963:5970   */\n      dup5\n        /* \"#utility.yul\":5954:5960   */\n      dup3\n        /* \"#utility.yul\":5943:5952   */\n      dup6\n        /* \"#utility.yul\":5939:5961   */\n      add\n        /* \"#utility.yul\":5918:5971   */\n      tag_189\n      jump\t// in\n    tag_295:\n        /* \"#utility.yul\":5908:5971   */\n      swap2\n      pop\n        /* \"#utility.yul\":5864:5981   */\n      pop\n        /* \"#utility.yul\":5659:5988   */\n      swap3\n      swap2\n      pop\n      pop\n      jump\t// out\n        /* \"#utility.yul\":5994:6108   */\n    tag_204:\n        /* \"#utility.yul\":6061:6067   */\n      0x00\n        /* \"#utility.yul\":6095:6100   */\n      dup2\n        /* \"#utility.yul\":6089:6101   */\n      mload\n        /* \"#utility.yul\":6079:6101   */\n      swap1\n      pop\n        /* \"#utility.yul\":5994:6108   */\n      swap2\n      swap1\n      pop\n      jump\t// out\n        /* \"#utility.yul\":6114:6298   */\n    tag_205:\n        /* \"#utility.yul\":6213:6224   */\n      0x00\n        /* \"#utility.yul\":6247:6253   */\n      dup3\n        /* \"#utility.yul\":6242:6245   */\n      dup3\n        /* \"#utility.yul\":6235:6254   */\n      mstore\n        /* \"#utility.yul\":6287:6291   */\n      0x20\n        /* \"#utility.yul\":6282:6285   */\n      dup3\n        /* \"#utility.yul\":6278:6292   */\n      add\n        /* \"#utility.yul\":6263:6292   */\n      swap1\n      pop\n        /* \"#utility.yul\":6114:6298   */\n      swap3\n      swap2\n      pop\n      pop\n      jump\t// out\n        /* \"#utility.yul\":6304:6436   */\n    tag_206:\n        /* \"#utility.yul\":6371:6375   */\n      0x00\n        /* \"#utility.yul\":6394:6397   */\n      dup2\n        /* \"#utility.yul\":6386:6397   */\n      swap1\n      pop\n        /* \"#utility.yul\":6424:6428   */\n      0x20\n        /* \"#utility.yul\":6419:6422   */\n      dup3\n        /* \"#utility.yul\":6415:6429   */\n      add\n        /* \"#utility.yul\":6407:6429   */\n      swap1\n      pop\n        /* \"#utility.yul\":6304:6436   */\n      swap2\n      swap1\n      pop\n      jump\t// out\n        /* \"#utility.yul\":6442:6550   */\n    tag_207:\n        /* \"#utility.yul\":6519:6543   */\n      tag_300\n        /* \"#utility.yul\":6537:6542   */\n      dup2\n        /* \"#utility.yul\":6519:6543   */\n      tag_187\n      jump\t// in\n    tag_300:\n        /* \"#utility.yul\":6514:6517   */\n      dup3\n        /* \"#utility.yul\":6507:6544   */\n      mstore\n        /* \"#utility.yul\":6442:6550   */\n      pop\n      pop\n      jump\t// out\n        /* \"#utility.yul\":6556:6735   */\n    tag_208:\n        /* \"#utility.yul\":6625:6635   */\n      0x00\n        /* \"#utility.yul\":6646:6692   */\n      tag_302\n        /* \"#utility.yul\":6688:6691   */\n      dup4\n        /* \"#utility.yul\":6680:6686   */\n      dup4\n        /* \"#utility.yul\":6646:6692   */\n      tag_207\n      jump\t// in\n    tag_302:\n        /* \"#utility.yul\":6724:6728   */\n      0x20\n        /* \"#utility.yul\":6719:6722   */\n      dup4\n        /* \"#utility.yul\":6715:6729   */\n      add\n        /* \"#utility.yul\":6701:6729   */\n      swap1\n      pop\n        /* \"#utility.yul\":6556:6735   */\n      swap3\n      swap2\n      pop\n      pop\n      jump\t// out\n        /* \"#utility.yul\":6741:6854   */\n    tag_209:\n        /* \"#utility.yul\":6811:6815   */\n      0x00\n        /* \"#utility.yul\":6843:6847   */\n      0x20\n        /* \"#utility.yul\":6838:6841   */\n      dup3\n        /* \"#utility.yul\":6834:6848   */\n      add\n        /* \"#utility.yul\":6826:6848   */\n      swap1\n      pop\n        /* \"#utility.yul\":6741:6854   */\n      swap2\n      swap1\n      pop\n      jump\t// out\n        /* \"#utility.yul\":6890:7622   */\n    tag_210:\n        /* \"#utility.yul\":7009:7012   */\n      0x00\n        /* \"#utility.yul\":7038:7092   */\n      tag_305\n        /* \"#utility.yul\":7086:7091   */\n      dup3\n        /* \"#utility.yul\":7038:7092   */\n      tag_204\n      jump\t// in\n    tag_305:\n        /* \"#utility.yul\":7108:7194   */\n      tag_306\n        /* \"#utility.yul\":7187:7193   */\n      dup2\n        /* \"#utility.yul\":7182:7185   */\n      dup6\n        /* \"#utility.yul\":7108:7194   */\n      tag_205\n      jump\t// in\n    tag_306:\n        /* \"#utility.yul\":7101:7194   */\n      swap4\n      pop\n        /* \"#utility.yul\":7218:7274   */\n      tag_307\n        /* \"#utility.yul\":7268:7273   */\n      dup4\n        /* \"#utility.yul\":7218:7274   */\n      tag_206\n      jump\t// in\n    tag_307:\n        /* \"#utility.yul\":7297:7304   */\n      dup1\n        /* \"#utility.yul\":7328:7329   */\n      0x00\n        /* \"#utility.yul\":7313:7597   */\n    tag_308:\n        /* \"#utility.yul\":7338:7344   */\n      dup4\n        /* \"#utility.yul\":7335:7336   */\n      dup2\n        /* \"#utility.yul\":7332:7345   */\n      lt\n        /* \"#utility.yul\":7313:7597   */\n      iszero\n      tag_310\n      jumpi\n        /* \"#utility.yul\":7414:7420   */\n      dup2\n        /* \"#utility.yul\":7408:7421   */\n      mload\n        /* \"#utility.yul\":7441:7504   */\n      tag_311\n        /* \"#utility.yul\":7500:7503   */\n      dup9\n        /* \"#utility.yul\":7485:7498   */\n      dup3\n        /* \"#utility.yul\":7441:7504   */\n      tag_208\n      jump\t// in\n    tag_311:\n        /* \"#utility.yul\":7434:7504   */\n      swap8\n      pop\n        /* \"#utility.yul\":7527:7587   */\n      tag_312\n        /* \"#utility.yul\":7580:7586   */\n      dup4\n        /* \"#utility.yul\":7527:7587   */\n      tag_209\n      jump\t// in\n    tag_312:\n        /* \"#utility.yul\":7517:7587   */\n      swap3\n      pop\n        /* \"#utility.yul\":7373:7597   */\n      pop\n        /* \"#utility.yul\":7360:7361   */\n      0x01\n        /* \"#utility.yul\":7357:7358   */\n      dup2\n        /* \"#utility.yul\":7353:7362   */\n      add\n        /* \"#utility.yul\":7348:7362   */\n      swap1\n      pop\n        /* \"#utility.yul\":7313:7597   */\n      jump(tag_308)\n    tag_310:\n        /* \"#utility.yul\":7317:7331   */\n      pop\n        /* \"#utility.yul\":7613:7616   */\n      dup6\n        /* \"#utility.yul\":7606:7616   */\n      swap4\n      pop\n        /* \"#utility.yul\":7014:7622   */\n      pop\n      pop\n      pop\n        /* \"#utility.yul\":6890:7622   */\n      swap3\n      swap2\n      pop\n      pop\n      jump\t// out\n        /* \"#utility.yul\":7628:8001   */\n    tag_32:\n        /* \"#utility.yul\":7771:7775   */\n      0x00\n        /* \"#utility.yul\":7809:7811   */\n      0x20\n        /* \"#utility.yul\":7798:7807   */\n      dup3\n        /* \"#utility.yul\":7794:7812   */\n      add\n        /* \"#utility.yul\":7786:7812   */\n      swap1\n      pop\n        /* \"#utility.yul\":7858:7867   */\n      dup2\n        /* \"#utility.yul\":7852:7856   */\n      dup2\n        /* \"#utility.yul\":7848:7868   */\n      sub\n        /* \"#utility.yul\":7844:7845   */\n      0x00\n        /* \"#utility.yul\":7833:7842   */\n      dup4\n        /* \"#utility.yul\":7829:7846   */\n      add\n        /* \"#utility.yul\":7822:7869   */\n      mstore\n        /* \"#utility.yul\":7886:7994   */\n      tag_314\n        /* \"#utility.yul\":7989:7993   */\n      dup2\n        /* \"#utility.yul\":7980:7986   */\n      dup5\n        /* \"#utility.yul\":7886:7994   */\n      tag_210\n      jump\t// in\n    tag_314:\n        /* \"#utility.yul\":7878:7994   */\n      swap1\n      pop\n        /* \"#utility.yul\":7628:8001   */\n      swap3\n      swap2\n      pop\n      pop\n      jump\t// out\n        /* \"#utility.yul\":8007:8125   */\n    tag_211:\n        /* \"#utility.yul\":8094:8118   */\n      tag_316\n        /* \"#utility.yul\":8112:8117   */\n      dup2\n        /* \"#utility.yul\":8094:8118   */\n      tag_187\n      jump\t// in\n    tag_316:\n        /* \"#utility.yul\":8089:8092   */\n      dup3\n        /* \"#utility.yul\":8082:8119   */\n      mstore\n        /* \"#utility.yul\":8007:8125   */\n      pop\n      pop\n      jump\t// out\n        /* \"#utility.yul\":8131:8353   */\n    tag_44:\n        /* \"#utility.yul\":8224:8228   */\n      0x00\n        /* \"#utility.yul\":8262:8264   */\n      0x20\n        /* \"#utility.yul\":8251:8260   */\n      dup3\n        /* \"#utility.yul\":8247:8265   */\n      add\n        /* \"#utility.yul\":8239:8265   */\n      swap1\n      pop\n        /* \"#utility.yul\":8275:8346   */\n      tag_318\n        /* \"#utility.yul\":8343:8344   */\n      0x00\n        /* \"#utility.yul\":8332:8341   */\n      dup4\n        /* \"#utility.yul\":8328:8345   */\n      add\n        /* \"#utility.yul\":8319:8325   */\n      dup5\n        /* \"#utility.yul\":8275:8346   */\n      tag_211\n      jump\t// in\n    tag_318:\n        /* \"#utility.yul\":8131:8353   */\n      swap3\n      swap2\n      pop\n      pop\n      jump\t// out\n        /* \"#utility.yul\":8359:8436   */\n    tag_212:\n        /* \"#utility.yul\":8396:8403   */\n      0x00\n        /* \"#utility.yul\":8425:8430   */\n      dup2\n        /* \"#utility.yul\":8414:8430   */\n      swap1\n      pop\n        /* \"#utility.yul\":8359:8436   */\n      swap2\n      swap1\n      pop\n      jump\t// out\n        /* \"#utility.yul\":8442:8564   */\n    tag_213:\n        /* \"#utility.yul\":8515:8539   */\n      tag_321\n        /* \"#utility.yul\":8533:8538   */\n      dup2\n        /* \"#utility.yul\":8515:8539   */\n      tag_212\n      jump\t// in\n    tag_321:\n        /* \"#utility.yul\":8508:8513   */\n      dup2\n        /* \"#utility.yul\":8505:8540   */\n      eq\n        /* \"#utility.yul\":8495:8558   */\n      tag_322\n      jumpi\n        /* \"#utility.yul\":8554:8555   */\n      0x00\n        /* \"#utility.yul\":8551:8552   */\n      dup1\n        /* \"#utility.yul\":8544:8556   */\n      revert\n        /* \"#utility.yul\":8495:8558   */\n    tag_322:\n        /* \"#utility.yul\":8442:8564   */\n      pop\n      jump\t// out\n        /* \"#utility.yul\":8570:8709   */\n    tag_214:\n        /* \"#utility.yul\":8616:8621   */\n      0x00\n        /* \"#utility.yul\":8654:8660   */\n      dup2\n        /* \"#utility.yul\":8641:8661   */\n      calldataload\n        /* \"#utility.yul\":8632:8661   */\n      swap1\n      pop\n        /* \"#utility.yul\":8670:8703   */\n      tag_324\n        /* \"#utility.yul\":8697:8702   */\n      dup2\n        /* \"#utility.yul\":8670:8703   */\n      tag_213\n      jump\t// in\n    tag_324:\n        /* \"#utility.yul\":8570:8709   */\n      swap3\n      swap2\n      pop\n      pop\n      jump\t// out\n        /* \"#utility.yul\":8715:9044   */\n    tag_50:\n        /* \"#utility.yul\":8774:8780   */\n      0x00\n        /* \"#utility.yul\":8823:8825   */\n      0x20\n        /* \"#utility.yul\":8811:8820   */\n      dup3\n        /* \"#utility.yul\":8802:8809   */\n      dup5\n        /* \"#utility.yul\":8798:8821   */\n      sub\n        /* \"#utility.yul\":8794:8826   */\n      slt\n        /* \"#utility.yul\":8791:8910   */\n      iszero\n      tag_326\n      jumpi\n        /* \"#utility.yul\":8829:8908   */\n      tag_327\n      tag_184\n      jump\t// in\n    tag_327:\n        /* \"#utility.yul\":8791:8910   */\n    tag_326:\n        /* \"#utility.yul\":8949:8950   */\n      0x00\n        /* \"#utility.yul\":8974:9027   */\n      tag_328\n        /* \"#utility.yul\":9019:9026   */\n      dup5\n        /* \"#utility.yul\":9010:9016   */\n      dup3\n        /* \"#utility.yul\":8999:9008   */\n      dup6\n        /* \"#utility.yul\":8995:9017   */\n      add\n        /* \"#utility.yul\":8974:9027   */\n      tag_214\n      jump\t// in\n    tag_328:\n        /* \"#utility.yul\":8964:9027   */\n      swap2\n      pop\n        /* \"#utility.yul\":8920:9037   */\n      pop\n        /* \"#utility.yul\":8715:9044   */\n      swap3\n      swap2\n      pop\n      pop\n      jump\t// out\n        /* \"#utility.yul\":9050:9230   */\n    tag_71:\n        /* \"#utility.yul\":9098:9175   */\n      0x4e487b7100000000000000000000000000000000000000000000000000000000\n        /* \"#utility.yul\":9095:9096   */\n      0x00\n        /* \"#utility.yul\":9088:9176   */\n      mstore\n        /* \"#utility.yul\":9195:9199   */\n      0x32\n        /* \"#utility.yul\":9192:9193   */\n      0x04\n        /* \"#utility.yul\":9185:9200   */\n      mstore\n        /* \"#utility.yul\":9219:9223   */\n      0x24\n        /* \"#utility.yul\":9216:9217   */\n      0x00\n        /* \"#utility.yul\":9209:9224   */\n      revert\n        /* \"#utility.yul\":9236:9405   */\n    tag_215:\n        /* \"#utility.yul\":9320:9331   */\n      0x00\n        /* \"#utility.yul\":9354:9360   */\n      dup3\n        /* \"#utility.yul\":9349:9352   */\n      dup3\n        /* \"#utility.yul\":9342:9361   */\n      mstore\n        /* \"#utility.yul\":9394:9398   */\n      0x20\n        /* \"#utility.yul\":9389:9392   */\n      dup3\n        /* \"#utility.yul\":9385:9399   */\n      add\n        /* \"#utility.yul\":9370:9399   */\n      swap1\n      pop\n        /* \"#utility.yul\":9236:9405   */\n      swap3\n      swap2\n      pop\n      pop\n      jump\t// out\n        /* \"#utility.yul\":9411:9580   */\n    tag_216:\n        /* \"#utility.yul\":9551:9572   */\n      0x47616d65206e6f74207265676973746572656400000000000000000000000000\n        /* \"#utility.yul\":9547:9548   */\n      0x00\n        /* \"#utility.yul\":9539:9545   */\n      dup3\n        /* \"#utility.yul\":9535:9549   */\n      add\n        /* \"#utility.yul\":9528:9573   */\n      mstore\n        /* \"#utility.yul\":9411:9580   */\n      pop\n      jump\t// out\n        /* \"#utility.yul\":9586:9952   */\n    tag_217:\n        /* \"#utility.yul\":9728:9731   */\n      0x00\n        /* \"#utility.yul\":9749:9816   */\n      tag_333\n        /* \"#utility.yul\":9813:9815   */\n      0x13\n        /* \"#utility.yul\":9808:9811   */\n      dup4\n        /* \"#utility.yul\":9749:9816   */\n      tag_215\n      jump\t// in\n    tag_333:\n        /* \"#utility.yul\":9742:9816   */\n      swap2\n      pop\n        /* \"#utility.yul\":9825:9918   */\n      tag_334\n        /* \"#utility.yul\":9914:9917   */\n      dup3\n        /* \"#utility.yul\":9825:9918   */\n      tag_216\n      jump\t// in\n    tag_334:\n        /* \"#utility.yul\":9943:9945   */\n      0x20\n        /* \"#utility.yul\":9938:9941   */\n      dup3\n        /* \"#utility.yul\":9934:9946   */\n      add\n        /* \"#utility.yul\":9927:9946   */\n      swap1\n      pop\n        /* \"#utility.yul\":9586:9952   */\n      swap2\n      swap1\n      pop\n      jump\t// out\n        /* \"#utility.yul\":9958:10377   */\n    tag_80:\n        /* \"#utility.yul\":10124:10128   */\n      0x00\n        /* \"#utility.yul\":10162:10164   */\n      0x20\n        /* \"#utility.yul\":10151:10160   */\n      dup3\n        /* \"#utility.yul\":10147:10165   */\n      add\n        /* \"#utility.yul\":10139:10165   */\n      swap1\n      pop\n        /* \"#utility.yul\":10211:10220   */\n      dup2\n        /* \"#utility.yul\":10205:10209   */\n      dup2\n        /* \"#utility.yul\":10201:10221   */\n      sub\n        /* \"#utility.yul\":10197:10198   */\n      0x00\n        /* \"#utility.yul\":10186:10195   */\n      dup4\n        /* \"#utility.yul\":10182:10199   */\n      add\n        /* \"#utility.yul\":10175:10222   */\n      mstore\n        /* \"#utility.yul\":10239:10370   */\n      tag_336\n        /* \"#utility.yul\":10365:10369   */\n      dup2\n        /* \"#utility.yul\":10239:10370   */\n      tag_217\n      jump\t// in\n    tag_336:\n        /* \"#utility.yul\":10231:10370   */\n      swap1\n      pop\n        /* \"#utility.yul\":9958:10377   */\n      swap2\n      swap1\n      pop\n      jump\t// out\n        /* \"#utility.yul\":10383:10562   */\n    tag_218:\n        /* \"#utility.yul\":10523:10554   */\n      0x4173736574206e6f74207265676973746572656420666f722067616d65000000\n        /* \"#utility.yul\":10519:10520   */\n      0x00\n        /* \"#utility.yul\":10511:10517   */\n      dup3\n        /* \"#utility.yul\":10507:10521   */\n      add\n        /* \"#utility.yul\":10500:10555   */\n      mstore\n        /* \"#utility.yul\":10383:10562   */\n      pop\n      jump\t// out\n        /* \"#utility.yul\":10568:10934   */\n    tag_219:\n        /* \"#utility.yul\":10710:10713   */\n      0x00\n        /* \"#utility.yul\":10731:10798   */\n      tag_339\n        /* \"#utility.yul\":10795:10797   */\n      0x1d\n        /* \"#utility.yul\":10790:10793   */\n      dup4\n        /* \"#utility.yul\":10731:10798   */\n      tag_215\n      jump\t// in\n    tag_339:\n        /* \"#utility.yul\":10724:10798   */\n      swap2\n      pop\n        /* \"#utility.yul\":10807:10900   */\n      tag_340\n        /* \"#utility.yul\":10896:10899   */\n      dup3\n        /* \"#utility.yul\":10807:10900   */\n      tag_218\n      jump\t// in\n    tag_340:\n        /* \"#utility.yul\":10925:10927   */\n      0x20\n        /* \"#utility.yul\":10920:10923   */\n      dup3\n        /* \"#utility.yul\":10916:10928   */\n      add\n        /* \"#utility.yul\":10909:10928   */\n      swap1\n      pop\n        /* \"#utility.yul\":10568:10934   */\n      swap2\n      swap1\n      pop\n      jump\t// out\n        /* \"#utility.yul\":10940:11359   */\n    tag_83:\n        /* \"#utility.yul\":11106:11110   */\n      0x00\n        /* \"#utility.yul\":11144:11146   */\n      0x20\n        /* \"#utility.yul\":11133:11142   */\n      dup3\n        /* \"#utility.yul\":11129:11147   */\n      add\n        /* \"#utility.yul\":11121:11147   */\n      swap1\n      pop\n        /* \"#utility.yul\":11193:11202   */\n      dup2\n        /* \"#utility.yul\":11187:11191   */\n      dup2\n        /* \"#utility.yul\":11183:11203   */\n      sub\n        /* \"#utility.yul\":11179:11180   */\n      0x00\n        /* \"#utility.yul\":11168:11177   */\n      dup4\n        /* \"#utility.yul\":11164:11181   */\n      add\n        /* \"#utility.yul\":11157:11204   */\n      mstore\n        /* \"#utility.yul\":11221:11352   */\n      tag_342\n        /* \"#utility.yul\":11347:11351   */\n      dup2\n        /* \"#utility.yul\":11221:11352   */\n      tag_219\n      jump\t// in\n    tag_342:\n        /* \"#utility.yul\":11213:11352   */\n      swap1\n      pop\n        /* \"#utility.yul\":10940:11359   */\n      swap2\n      swap1\n      pop\n      jump\t// out\n        /* \"#utility.yul\":11365:11545   */\n    tag_220:\n        /* \"#utility.yul\":11413:11490   */\n      0x4e487b7100000000000000000000000000000000000000000000000000000000\n        /* \"#utility.yul\":11410:11411   */\n      0x00\n        /* \"#utility.yul\":11403:11491   */\n      mstore\n        /* \"#utility.yul\":11510:11514   */\n      0x11\n        /* \"#utility.yul\":11507:11508   */\n      0x04\n        /* \"#utility.yul\":11500:11515   */\n      mstore\n        /* \"#utility.yul\":11534:11538   */\n      0x24\n        /* \"#utility.yul\":11531:11532   */\n      0x00\n        /* \"#utility.yul\":11524:11539   */\n      revert\n        /* \"#utility.yul\":11551:11784   */\n    tag_97:\n        /* \"#utility.yul\":11590:11593   */\n      0x00\n        /* \"#utility.yul\":11613:11637   */\n      tag_345\n        /* \"#utility.yul\":11631:11636   */\n      dup3\n        /* \"#utility.yul\":11613:11637   */\n      tag_212\n      jump\t// in\n    tag_345:\n        /* \"#utility.yul\":11604:11637   */\n      swap2\n      pop\n        /* \"#utility.yul\":11659:11725   */\n      0xffffffffffffffffffffffffffffffffffffffffffffffffffffffffffffffff\n        /* \"#utility.yul\":11652:11657   */\n      dup3\n        /* \"#utility.yul\":11649:11726   */\n      sub\n        /* \"#utility.yul\":11646:11749   */\n      tag_346\n      jumpi\n        /* \"#utility.yul\":11729:11747   */\n      tag_347\n      tag_220\n      jump\t// in\n    tag_347:\n        /* \"#utility.yul\":11646:11749   */\n    tag_346:\n        /* \"#utility.yul\":11776:11777   */\n      0x01\n        /* \"#utility.yul\":11769:11774   */\n      dup3\n        /* \"#utility.yul\":11765:11778   */\n      add\n        /* \"#utility.yul\":11758:11778   */\n      swap1\n      pop\n        /* \"#utility.yul\":11551:11784   */\n      swap2\n      swap1\n      pop\n      jump\t// out\n        /* \"#utility.yul\":11790:11970   */\n    tag_100:\n        /* \"#utility.yul\":11838:11915   */\n      0x4e487b7100000000000000000000000000000000000000000000000000000000\n        /* \"#utility.yul\":11835:11836   */\n      0x00\n        /* \"#utility.yul\":11828:11916   */\n      mstore\n        /* \"#utility.yul\":11935:11939   */\n      0x41\n        /* \"#utility.yul\":11932:11933   */\n      0x04\n        /* \"#utility.yul\":11925:11940   */\n      mstore\n        /* \"#utility.yul\":11959:11963   */\n      0x24\n        /* \"#utility.yul\":11956:11957   */\n      0x00\n        /* \"#utility.yul\":11949:11964   */\n      revert\n        /* \"#utility.yul\":11976:12148   */\n    tag_221:\n        /* \"#utility.yul\":12116:12140   */\n      0x496e76616c696420617373657420636f6e747261637400000000000000000000\n        /* \"#utility.yul\":12112:12113   */\n      0x00\n        /* \"#utility.yul\":12104:12110   */\n      dup3\n        /* \"#utility.yul\":12100:12114   */\n      add\n        /* \"#utility.yul\":12093:12141   */\n      mstore\n        /* \"#utility.yul\":11976:12148   */\n      pop\n      jump\t// out\n        /* \"#utility.yul\":12154:12520   */\n    tag_222:\n        /* \"#utility.yul\":12296:12299   */\n      0x00\n        /* \"#utility.yul\":12317:12384   */\n      tag_351\n        /* \"#utility.yul\":12381:12383   */\n      0x16\n        /* \"#utility.yul\":12376:12379   */\n      dup4\n        /* \"#utility.yul\":12317:12384   */\n      tag_215\n      jump\t// in\n    tag_351:\n        /* \"#utility.yul\":12310:12384   */\n      swap2\n      pop\n        /* \"#utility.yul\":12393:12486   */\n      tag_352\n        /* \"#utility.yul\":12482:12485   */\n      dup3\n        /* \"#utility.yul\":12393:12486   */\n      tag_221\n      jump\t// in\n    tag_352:\n        /* \"#utility.yul\":12511:12513   */\n      0x20\n        /* \"#utility.yul\":12506:12509   */\n      dup3\n        /* \"#utility.yul\":12502:12514   */\n      add\n        /* \"#utility.yul\":12495:12514   */\n      swap1\n      pop\n        /* \"#utility.yul\":12154:12520   */\n      swap2\n      swap1\n      pop\n      jump\t// out\n        /* \"#utility.yul\":12526:12945   */\n    tag_123:\n        /* \"#utility.yul\":12692:12696   */\n      0x00\n        /* \"#utility.yul\":12730:12732   */\n      0x20\n        /* \"#utility.yul\":12719:12728   */\n      dup3\n        /* \"#utility.yul\":12715:12733   */\n      add\n        /* \"#utility.yul\":12707:12733   */\n      swap1\n      pop\n        /* \"#utility.yul\":12779:12788   */\n      dup2\n        /* \"#utility.yul\":12773:12777   */\n      dup2\n        /* \"#utility.yul\":12769:12789   */\n      sub\n        /* \"#utility.yul\":12765:12766   */\n      0x00\n        /* \"#utility.yul\":12754:12763   */\n      dup4\n        /* \"#utility.yul\":12750:12767   */\n      add\n        /* \"#utility.yul\":12743:12790   */\n      mstore\n        /* \"#utility.yul\":12807:12938   */\n      tag_354\n        /* \"#utility.yul\":12933:12937   */\n      dup2\n        /* \"#utility.yul\":12807:12938   */\n      tag_222\n      jump\t// in\n    tag_354:\n        /* \"#utility.yul\":12799:12938   */\n      swap1\n      pop\n        /* \"#utility.yul\":12526:12945   */\n      swap2\n      swap1\n      pop\n      jump\t// out\n        /* \"#utility.yul\":12951:13124   */\n    tag_223:\n        /* \"#utility.yul\":13091:13116   */\n      0x4e6f206174747269627574657320737065636966696564000000000000000000\n        /* \"#utility.yul\":13087:13088   */\n      0x00\n        /* \"#utility.yul\":13079:13085   */\n      dup3\n        /* \"#utility.yul\":13075:13089   */\n      add\n        /* \"#utility.yul\":13068:13117   */\n      mstore\n        /* \"#utility.yul\":12951:13124   */\n      pop\n      jump\t// out\n        /* \"#utility.yul\":13130:13496   */\n    tag_224:\n        /* \"#utility.yul\":13272:13275   */\n      0x00\n        /* \"#utility.yul\":13293:13360   */\n      tag_357\n        /* \"#utility.yul\":13357:13359   */\n      0x17\n        /* \"#utility.yul\":13352:13355   */\n      dup4\n        /* \"#utility.yul\":13293:13360   */\n      tag_215\n      jump\t// in\n    tag_357:\n        /* \"#utility.yul\":13286:13360   */\n      swap2\n      pop\n        /* \"#utility.yul\":13369:13462   */\n      tag_358\n        /* \"#utility.yul\":13458:13461   */\n      dup3\n        /* \"#utility.yul\":13369:13462   */\n      tag_223\n      jump\t// in\n    tag_358:\n        /* \"#utility.yul\":13487:13489   */\n      0x20\n        /* \"#utility.yul\":13482:13485   */\n      dup3\n        /* \"#utility.yul\":13478:13490   */\n      add\n        /* \"#utility.yul\":13471:13490   */\n      swap1\n      pop\n        /* \"#utility.yul\":13130:13496   */\n      swap2\n      swap1\n      pop\n      jump\t// out\n        /* \"#utility.yul\":13502:13921   */\n    tag_126:\n        /* \"#utility.yul\":13668:13672   */\n      0x00\n        /* \"#utility.yul\":13706:13708   */\n      0x20\n        /* \"#utility.yul\":13695:13704   */\n      dup3\n        /* \"#utility.yul\":13691:13709   */\n      add\n        /* \"#utility.yul\":13683:13709   */\n      swap1\n      pop\n        /* \"#utility.yul\":13755:13764   */\n      dup2\n        /* \"#utility.yul\":13749:13753   */\n      dup2\n        /* \"#utility.yul\":13745:13765   */\n      sub\n        /* \"#utility.yul\":13741:13742   */\n      0x00\n        /* \"#utility.yul\":13730:13739   */\n      dup4\n        /* \"#utility.yul\":13726:13743   */\n      add\n        /* \"#utility.yul\":13719:13766   */\n      mstore\n        /* \"#utility.yul\":13783:13914   */\n      tag_360\n        /* \"#utility.yul\":13909:13913   */\n      dup2\n        /* \"#utility.yul\":13783:13914   */\n      tag_224\n      jump\t// in\n    tag_360:\n        /* \"#utility.yul\":13775:13914   */\n      swap1\n      pop\n        /* \"#utility.yul\":13502:13921   */\n      swap2\n      swap1\n      pop\n      jump\t// out\n        /* \"#utility.yul\":13927:14044   */\n    tag_225:\n        /* \"#utility.yul\":14036:14037   */\n      0x00\n        /* \"#utility.yul\":14033:14034   */\n      dup1\n        /* \"#utility.yul\":14026:14038   */\n      revert\n        /* \"#utility.yul\":14050:14149   */\n    tag_226:\n        /* \"#utility.yul\":14135:14141   */\n      dup3\n        /* \"#utility.yul\":14130:14133   */\n      dup2\n        /* \"#utility.yul\":14125:14128   */\n      dup4\n        /* \"#utility.yul\":14112:14142   */\n      calldatacopy\n        /* \"#utility.yul\":14050:14149   */\n      pop\n      pop\n      pop\n      jump\t// out\n        /* \"#utility.yul\":14185:14722   */\n    tag_227:\n        /* \"#utility.yul\":14313:14316   */\n      0x00\n        /* \"#utility.yul\":14334:14420   */\n      tag_364\n        /* \"#utility.yul\":14413:14419   */\n      dup4\n        /* \"#utility.yul\":14408:14411   */\n      dup6\n        /* \"#utility.yul\":14334:14420   */\n      tag_197\n      jump\t// in\n    tag_364:\n        /* \"#utility.yul\":14327:14420   */\n      swap4\n      pop\n        /* \"#utility.yul\":14444:14510   */\n      0x07ffffffffffffffffffffffffffffffffffffffffffffffffffffffffffffff\n        /* \"#utility.yul\":14436:14442   */\n      dup4\n        /* \"#utility.yul\":14433:14511   */\n      gt\n        /* \"#utility.yul\":14430:14595   */\n      iszero\n      tag_365\n      jumpi\n        /* \"#utility.yul\":14514:14593   */\n      tag_366\n      tag_225\n      jump\t// in\n    tag_366:\n        /* \"#utility.yul\":14430:14595   */\n    tag_365:\n        /* \"#utility.yul\":14626:14630   */\n      0x20\n        /* \"#utility.yul\":14618:14624   */\n      dup4\n        /* \"#utility.yul\":14614:14631   */\n      mul\n        /* \"#utility.yul\":14604:14631   */\n      swap3\n      pop\n        /* \"#utility.yul\":14641:14684   */\n      tag_367\n        /* \"#utility.yul\":14677:14683   */\n      dup4\n        /* \"#utility.yul\":14672:14675   */\n      dup6\n        /* \"#utility.yul\":14665:14670   */\n      dup5\n        /* \"#utility.yul\":14641:14684   */\n      tag_226\n      jump\t// in\n    tag_367:\n        /* \"#utility.yul\":14709:14715   */\n      dup3\n        /* \"#utility.yul\":14704:14707   */\n      dup5\n        /* \"#utility.yul\":14700:14716   */\n      add\n        /* \"#utility.yul\":14693:14716   */\n      swap1\n      pop\n        /* \"#utility.yul\":14185:14722   */\n      swap4\n      swap3\n      pop\n      pop\n      pop\n      jump\t// out\n        /* \"#utility.yul\":14728:15121   */\n    tag_130:\n        /* \"#utility.yul\":14881:14885   */\n      0x00\n        /* \"#utility.yul\":14919:14921   */\n      0x20\n        /* \"#utility.yul\":14908:14917   */\n      dup3\n        /* \"#utility.yul\":14904:14922   */\n      add\n        /* \"#utility.yul\":14896:14922   */\n      swap1\n      pop\n        /* \"#utility.yul\":14968:14977   */\n      dup2\n        /* \"#utility.yul\":14962:14966   */\n      dup2\n        /* \"#utility.yul\":14958:14978   */\n      sub\n        /* \"#utility.yul\":14954:14955   */\n      0x00\n        /* \"#utility.yul\":14943:14952   */\n      dup4\n        /* \"#utility.yul\":14939:14956   */\n      add\n        /* \"#utility.yul\":14932:14979   */\n      mstore\n        /* \"#utility.yul\":14996:15114   */\n      tag_369\n        /* \"#utility.yul\":15109:15113   */\n      dup2\n        /* \"#utility.yul\":15100:15106   */\n      dup5\n        /* \"#utility.yul\":15092:15098   */\n      dup7\n        /* \"#utility.yul\":14996:15114   */\n      tag_227\n      jump\t// in\n    tag_369:\n        /* \"#utility.yul\":14988:15114   */\n      swap1\n      pop\n        /* \"#utility.yul\":14728:15121   */\n      swap4\n      swap3\n      pop\n      pop\n      pop\n      jump\t// out\n        /* \"#utility.yul\":15127:15297   */\n    tag_228:\n        /* \"#utility.yul\":15267:15289   */\n      0x496e76616c69642067616d652061646472657373000000000000000000000000\n        /* \"#utility.yul\":15263:15264   */\n      0x00\n        /* \"#utility.yul\":15255:15261   */\n      dup3\n        /* \"#utility.yul\":15251:15265   */\n      add\n        /* \"#utility.yul\":15244:15290   */\n      mstore\n        /* \"#utility.yul\":15127:15297   */\n      pop\n      jump\t// out\n        /* \"#utility.yul\":15303:15669   */\n    tag_229:\n        /* \"#utility.yul\":15445:15448   */\n      0x00\n        /* \"#utility.yul\":15466:15533   */\n      tag_372\n        /* \"#utility.yul\":15530:15532   */\n      0x14\n        /* \"#utility.yul\":15525:15528   */\n      dup4\n        /* \"#utility.yul\":15466:15533   */\n      tag_215\n      jump\t// in\n    tag_372:\n        /* \"#utility.yul\":15459:15533   */\n      swap2\n      pop\n        /* \"#utility.yul\":15542:15635   */\n      tag_373\n        /* \"#utility.yul\":15631:15634   */\n      dup3\n        /* \"#utility.yul\":15542:15635   */\n      tag_228\n      jump\t// in\n    tag_373:\n        /* \"#utility.yul\":15660:15662   */\n      0x20\n        /* \"#utility.yul\":15655:15658   */\n      dup3\n        /* \"#utility.yul\":15651:15663   */\n      add\n        /* \"#utility.yul\":15644:15663   */\n      swap1\n      pop\n        /* \"#utility.yul\":15303:15669   */\n      swap2\n      swap1\n      pop\n      jump\t// out\n        /* \"#utility.yul\":15675:16094   */\n    tag_151:\n        /* \"#utility.yul\":15841:15845   */\n      0x00\n        /* \"#utility.yul\":15879:15881   */\n      0x20\n        /* \"#utility.yul\":15868:15877   */\n      dup3\n        /* \"#utility.yul\":15864:15882   */\n      add\n        /* \"#utility.yul\":15856:15882   */\n      swap1\n      pop\n        /* \"#utility.yul\":15928:15937   */\n      dup2\n        /* \"#utility.yul\":15922:15926   */\n      dup2\n        /* \"#utility.yul\":15918:15938   */\n      sub\n        /* \"#utility.yul\":15914:15915   */\n      0x00\n        /* \"#utility.yul\":15903:15912   */\n      dup4\n        /* \"#utility.yul\":15899:15916   */\n      add\n        /* \"#utility.yul\":15892:15939   */\n      mstore\n        /* \"#utility.yul\":15956:16087   */\n      tag_375\n        /* \"#utility.yul\":16082:16086   */\n      dup2\n        /* \"#utility.yul\":15956:16087   */\n      tag_229\n      jump\t// in\n    tag_375:\n        /* \"#utility.yul\":15948:16087   */\n      swap1\n      pop\n        /* \"#utility.yul\":15675:16094   */\n      swap2\n      swap1\n      pop\n      jump\t// out\n        /* \"#utility.yul\":16100:16273   */\n    tag_230:\n        /* \"#utility.yul\":16240:16265   */\n      0x47616d6520616c72656164792072656769737465726564000000000000000000\n        /* \"#utility.yul\":16236:16237   */\n      0x00\n        /* \"#utility.yul\":16228:16234   */\n      dup3\n        /* \"#utility.yul\":16224:16238   */\n      add\n        /* \"#utility.yul\":16217:16266   */\n      mstore\n        /* \"#utility.yul\":16100:16273   */\n      pop\n      jump\t// out\n        /* \"#utility.yul\":16279:16645   */\n    tag_231:\n        /* \"#utility.yul\":16421:16424   */\n      0x00\n        /* \"#utility.yul\":16442:16509   */\n      tag_378\n        /* \"#utility.yul\":16506:16508   */\n      0x17\n        /* \"#utility.yul\":16501:16504   */\n      dup4\n        /* \"#utility.yul\":16442:16509   */\n      tag_215\n      jump\t// in\n    tag_378:\n        /* \"#utility.yul\":16435:16509   */\n      swap2\n      pop\n        /* \"#utility.yul\":16518:16611   */\n      tag_379\n        /* \"#utility.yul\":16607:16610   */\n      dup3\n        /* \"#utility.yul\":16518:16611   */\n      tag_230\n      jump\t// in\n    tag_379:\n        /* \"#utility.yul\":16636:16638   */\n      0x20\n        /* \"#utility.yul\":16631:16634   */\n      dup3\n        /* \"#utility.yul\":16627:16639   */\n      add\n        /* \"#utility.yul\":16620:16639   */\n      swap1\n      pop\n        /* \"#utility.yul\":16279:16645   */\n      swap2\n      swap1\n      pop\n      jump\t// out\n        /* \"#utility.yul\":16651:17070   */\n    tag_154:\n        /* \"#utility.yul\":16817:16821   */\n      0x00\n        /* \"#utility.yul\":16855:16857   */\n      0x20\n        /* \"#utility.yul\":16844:16853   */\n      dup3\n        /* \"#utility.yul\":16840:16858   */\n      add\n        /* \"#utility.yul\":16832:16858   */\n      swap1\n      pop\n        /* \"#utility.yul\":16904:16913   */\n      dup2\n        /* \"#utility.yul\":16898:16902   */\n      dup2\n        /* \"#utility.yul\":16894:16914   */\n      sub\n        /* \"#utility.yul\":16890:16891   */\n      0x00\n        /* \"#utility.yul\":16879:16888   */\n      dup4\n        /* \"#utility.yul\":16875:16892   */\n      add\n        /* \"#utility.yul\":16868:16915   */\n      mstore\n        /* \"#utility.yul\":16932:17063   */\n      tag_381\n        /* \"#utility.yul\":17058:17062   */\n      dup2\n        /* \"#utility.yul\":16932:17063   */\n      tag_231\n      jump\t// in\n    tag_381:\n        /* \"#utility.yul\":16924:17063   */\n      swap1\n      pop\n        /* \"#utility.yul\":16651:17070   */\n      swap2\n      swap1\n      pop\n      jump\t// out\n\n    auxdata: 0xa2646970667358221220bb6e151a27a9dd7f9f86f1321e922261e029f2dfd2ce38b0f14b0e79927fbbb864736f6c634300081a0033\n}\n",
				"bytecode": {
					"linkReferences": {},
					"object": "608060405234801561000f575f80fd5b50335f73ffffffffffffffffffffffffffffffffffffffff168173ffffffffffffffffffffffffffffffffffffffff1603610081575f6040517f1e4fbdf70000000000000000000000000000000000000000000000000000000081526004016100789190610196565b60405180910390fd5b6100908161009660201b60201c565b506101af565b5f805f9054906101000a900473ffffffffffffffffffffffffffffffffffffffff169050815f806101000a81548173ffffffffffffffffffffffffffffffffffffffff021916908373ffffffffffffffffffffffffffffffffffffffff1602179055508173ffffffffffffffffffffffffffffffffffffffff168173ffffffffffffffffffffffffffffffffffffffff167f8be0079c531659141344cd1fd0a4f28419497f9722a3daafe3b4186f6b6457e060405160405180910390a35050565b5f73ffffffffffffffffffffffffffffffffffffffff82169050919050565b5f61018082610157565b9050919050565b61019081610176565b82525050565b5f6020820190506101a95f830184610187565b92915050565b611c8d806101bc5f395ff3fe608060405234801561000f575f80fd5b50600436106100a7575f3560e01c8063715018a61161006f578063715018a6146101735780638da5cb5b1461017d5780639b36057c1461019b5780639e3c5a72146101b7578063ee658e45146101e7578063f2fde38b14610217576100a7565b806336e9b39a146100ab57806353c02924146100db57806357f623d01461010b578063644621421461013b5780636f6145f014610157575b5f80fd5b6100c560048036038101906100c09190611535565b610233565b6040516100d291906115c0565b60405180910390f35b6100f560048036038101906100f091906115d9565b61043c565b60405161010291906116d7565b60405180910390f35b610125600480360381019061012091906116f7565b610665565b60405161013291906117d9565b60405180910390f35b61015560048036038101906101509190611535565b6109c0565b005b610171600480360381019061016c91906115d9565b610c21565b005b61017b610e7a565b005b610185610e8d565b6040516101929190611808565b60405180910390f35b6101b560048036038101906101b091906116f7565b610eb4565b005b6101d160048036038101906101cc9190611854565b61118c565b6040516101de9190611808565b60405180910390f35b61020160048036038101906101fc91906116f7565b6111c7565b60405161020e91906115c0565b60405180910390f35b610231600480360381019061022c91906116f7565b61121b565b005b5f60015f8673ffffffffffffffffffffffffffffffffffffffff1673ffffffffffffffffffffffffffffffffffffffff1681526020019081526020015f205f015f9054906101000a900460ff161580610313575060015f8673ffffffffffffffffffffffffffffffffffffffff1673ffffffffffffffffffffffffffffffffffffffff1681526020019081526020015f206001015f8573ffffffffffffffffffffffffffffffffffffffff1673ffffffffffffffffffffffffffffffffffffffff1681526020019081526020015f205f015f9054906101000a900460ff16155b15610320575f9050610434565b5f60015f8773ffffffffffffffffffffffffffffffffffffffff1673ffffffffffffffffffffffffffffffffffffffff1681526020019081526020015f206001015f8673ffffffffffffffffffffffffffffffffffffffff1673ffffffffffffffffffffffffffffffffffffffff1681526020019081526020015f2060010190505f5b8484905081101561042d575f805b838054905081101561040e578381815481106103d0576103cf61187f565b5b905f5260205f2001548787858181106103ec576103eb61187f565b5b9050602002013503610401576001915061040e565b80806001019150506103b1565b508061041f575f9350505050610434565b5080806001019150506103a3565b5060019150505b949350505050565b606060015f8473ffffffffffffffffffffffffffffffffffffffff1673ffffffffffffffffffffffffffffffffffffffff1681526020019081526020015f205f015f9054906101000a900460ff166104c9576040517f08c379a00000000000000000000000000000000000000000000000000000000081526004016104c090611906565b60405180910390fd5b60015f8473ffffffffffffffffffffffffffffffffffffffff1673ffffffffffffffffffffffffffffffffffffffff1681526020019081526020015f206001015f8373ffffffffffffffffffffffffffffffffffffffff1673ffffffffffffffffffffffffffffffffffffffff1681526020019081526020015f205f015f9054906101000a900460ff16610592576040517f08c379a00000000000000000000000000000000000000000000000000000000081526004016105899061196e565b60405180910390fd5b60015f8473ffffffffffffffffffffffffffffffffffffffff1673ffffffffffffffffffffffffffffffffffffffff1681526020019081526020015f206001015f8373ffffffffffffffffffffffffffffffffffffffff1673ffffffffffffffffffffffffffffffffffffffff1681526020019081526020015f2060010180548060200260200160405190810160405280929190818152602001828054801561065857602002820191905f5260205f20905b815481526020019060010190808311610644575b5050505050905092915050565b606060015f8373ffffffffffffffffffffffffffffffffffffffff1673ffffffffffffffffffffffffffffffffffffffff1681526020019081526020015f205f015f9054906101000a900460ff166106f2576040517f08c379a00000000000000000000000000000000000000000000000000000000081526004016106e990611906565b60405180910390fd5b5f805b6002805490508110156107e85760015f8573ffffffffffffffffffffffffffffffffffffffff1673ffffffffffffffffffffffffffffffffffffffff1681526020019081526020015f206001015f600283815481106107575761075661187f565b5b905f5260205f20015f9054906101000a900473ffffffffffffffffffffffffffffffffffffffff1673ffffffffffffffffffffffffffffffffffffffff1673ffffffffffffffffffffffffffffffffffffffff1681526020019081526020015f205f015f9054906101000a900460ff16156107db5781806107d7906119b9565b9250505b80806001019150506106f5565b505f8167ffffffffffffffff81111561080457610803611a00565b5b6040519080825280602002602001820160405280156108325781602001602082028036833780820191505090505b5090505f805b6002805490508110156109b45760015f8773ffffffffffffffffffffffffffffffffffffffff1673ffffffffffffffffffffffffffffffffffffffff1681526020019081526020015f206001015f6002838154811061089a5761089961187f565b5b905f5260205f20015f9054906101000a900473ffffffffffffffffffffffffffffffffffffffff1673ffffffffffffffffffffffffffffffffffffffff1673ffffffffffffffffffffffffffffffffffffffff1681526020019081526020015f205f015f9054906101000a900460ff16156109a757600281815481106109235761092261187f565b5b905f5260205f20015f9054906101000a900473ffffffffffffffffffffffffffffffffffffffff1683838151811061095e5761095d61187f565b5b602002602001019073ffffffffffffffffffffffffffffffffffffffff16908173ffffffffffffffffffffffffffffffffffffffff168152505081806109a3906119b9565b9250505b8080600101915050610838565b50819350505050919050565b6109c861129f565b60015f8573ffffffffffffffffffffffffffffffffffffffff1673ffffffffffffffffffffffffffffffffffffffff1681526020019081526020015f205f015f9054906101000a900460ff16610a53576040517f08c379a0000000000000000000000000000000000000000000000000000000008152600401610a4a90611906565b60405180910390fd5b5f73ffffffffffffffffffffffffffffffffffffffff168373ffffffffffffffffffffffffffffffffffffffff1603610ac1576040517f08c379a0000000000000000000000000000000000000000000000000000000008152600401610ab890611a77565b60405180910390fd5b5f8282905011610b06576040517f08c379a0000000000000000000000000000000000000000000000000000000008152600401610afd90611adf565b60405180910390fd5b5f60015f8673ffffffffffffffffffffffffffffffffffffffff1673ffffffffffffffffffffffffffffffffffffffff1681526020019081526020015f206001015f8573ffffffffffffffffffffffffffffffffffffffff1673ffffffffffffffffffffffffffffffffffffffff1681526020019081526020015f2090506001815f015f6101000a81548160ff0219169083151502179055508282826001019190610bb29291906113ee565b508373ffffffffffffffffffffffffffffffffffffffff168573ffffffffffffffffffffffffffffffffffffffff167f5a1925924b0857ceb006f7400134cecccedb6ca75ecef791a1a109cf8890edae8585604051610c12929190611b65565b60405180910390a35050505050565b610c2961129f565b60015f8373ffffffffffffffffffffffffffffffffffffffff1673ffffffffffffffffffffffffffffffffffffffff1681526020019081526020015f205f015f9054906101000a900460ff16610cb4576040517f08c379a0000000000000000000000000000000000000000000000000000000008152600401610cab90611906565b60405180910390fd5b60015f8373ffffffffffffffffffffffffffffffffffffffff1673ffffffffffffffffffffffffffffffffffffffff1681526020019081526020015f206001015f8273ffffffffffffffffffffffffffffffffffffffff1673ffffffffffffffffffffffffffffffffffffffff1681526020019081526020015f205f015f9054906101000a900460ff16610d7d576040517f08c379a0000000000000000000000000000000000000000000000000000000008152600401610d749061196e565b60405180910390fd5b60015f8373ffffffffffffffffffffffffffffffffffffffff1673ffffffffffffffffffffffffffffffffffffffff1681526020019081526020015f206001015f8273ffffffffffffffffffffffffffffffffffffffff1673ffffffffffffffffffffffffffffffffffffffff1681526020019081526020015f205f8082015f6101000a81549060ff0219169055600182015f610e1a9190611439565b50508073ffffffffffffffffffffffffffffffffffffffff168273ffffffffffffffffffffffffffffffffffffffff167fb0b93a7d8a8ec4a98f21206af2d3af128fc5ba7b8df65991b7477766ed42562260405160405180910390a35050565b610e8261129f565b610e8b5f611326565b565b5f805f9054906101000a900473ffffffffffffffffffffffffffffffffffffffff16905090565b610ebc61129f565b5f73ffffffffffffffffffffffffffffffffffffffff168173ffffffffffffffffffffffffffffffffffffffff1603610f2a576040517f08c379a0000000000000000000000000000000000000000000000000000000008152600401610f2190611bd1565b60405180910390fd5b60015f8273ffffffffffffffffffffffffffffffffffffffff1673ffffffffffffffffffffffffffffffffffffffff1681526020019081526020015f205f015f9054906101000a900460ff1615610fb6576040517f08c379a0000000000000000000000000000000000000000000000000000000008152600401610fad90611c39565b60405180910390fd5b6001805f8373ffffffffffffffffffffffffffffffffffffffff1673ffffffffffffffffffffffffffffffffffffffff1681526020019081526020015f205f015f6101000a81548160ff0219169083151502179055504260015f8373ffffffffffffffffffffffffffffffffffffffff1673ffffffffffffffffffffffffffffffffffffffff1681526020019081526020015f20600201819055503360015f8373ffffffffffffffffffffffffffffffffffffffff1673ffffffffffffffffffffffffffffffffffffffff1681526020019081526020015f206003015f6101000a81548173ffffffffffffffffffffffffffffffffffffffff021916908373ffffffffffffffffffffffffffffffffffffffff160217905550600281908060018154018082558091505060019003905f5260205f20015f9091909190916101000a81548173ffffffffffffffffffffffffffffffffffffffff021916908373ffffffffffffffffffffffffffffffffffffffff1602179055503373ffffffffffffffffffffffffffffffffffffffff168173ffffffffffffffffffffffffffffffffffffffff167f076eada2b266f926d3ecb187dece20428d68db62016c04bea8ccb92679f788de60405160405180910390a350565b6002818154811061119b575f80fd5b905f5260205f20015f915054906101000a900473ffffffffffffffffffffffffffffffffffffffff1681565b5f60015f8373ffffffffffffffffffffffffffffffffffffffff1673ffffffffffffffffffffffffffffffffffffffff1681526020019081526020015f205f015f9054906101000a900460ff169050919050565b61122361129f565b5f73ffffffffffffffffffffffffffffffffffffffff168173ffffffffffffffffffffffffffffffffffffffff1603611293575f6040517f1e4fbdf700000000000000000000000000000000000000000000000000000000815260040161128a9190611808565b60405180910390fd5b61129c81611326565b50565b6112a76113e7565b73ffffffffffffffffffffffffffffffffffffffff166112c5610e8d565b73ffffffffffffffffffffffffffffffffffffffff1614611324576112e86113e7565b6040517f118cdaa700000000000000000000000000000000000000000000000000000000815260040161131b9190611808565b60405180910390fd5b565b5f805f9054906101000a900473ffffffffffffffffffffffffffffffffffffffff169050815f806101000a81548173ffffffffffffffffffffffffffffffffffffffff021916908373ffffffffffffffffffffffffffffffffffffffff1602179055508173ffffffffffffffffffffffffffffffffffffffff168173ffffffffffffffffffffffffffffffffffffffff167f8be0079c531659141344cd1fd0a4f28419497f9722a3daafe3b4186f6b6457e060405160405180910390a35050565b5f33905090565b828054828255905f5260205f20908101928215611428579160200282015b8281111561142757823582559160200191906001019061140c565b5b5090506114359190611457565b5090565b5080545f8255905f5260205f20908101906114549190611457565b50565b5b8082111561146e575f815f905550600101611458565b5090565b5f80fd5b5f80fd5b5f73ffffffffffffffffffffffffffffffffffffffff82169050919050565b5f6114a38261147a565b9050919050565b6114b381611499565b81146114bd575f80fd5b50565b5f813590506114ce816114aa565b92915050565b5f80fd5b5f80fd5b5f80fd5b5f8083601f8401126114f5576114f46114d4565b5b8235905067ffffffffffffffff811115611512576115116114d8565b5b60208301915083602082028301111561152e5761152d6114dc565b5b9250929050565b5f805f806060858703121561154d5761154c611472565b5b5f61155a878288016114c0565b945050602061156b878288016114c0565b935050604085013567ffffffffffffffff81111561158c5761158b611476565b5b611598878288016114e0565b925092505092959194509250565b5f8115159050919050565b6115ba816115a6565b82525050565b5f6020820190506115d35f8301846115b1565b92915050565b5f80604083850312156115ef576115ee611472565b5b5f6115fc858286016114c0565b925050602061160d858286016114c0565b9150509250929050565b5f81519050919050565b5f82825260208201905092915050565b5f819050602082019050919050565b5f819050919050565b61165281611640565b82525050565b5f6116638383611649565b60208301905092915050565b5f602082019050919050565b5f61168582611617565b61168f8185611621565b935061169a83611631565b805f5b838110156116ca5781516116b18882611658565b97506116bc8361166f565b92505060018101905061169d565b5085935050505092915050565b5f6020820190508181035f8301526116ef818461167b565b905092915050565b5f6020828403121561170c5761170b611472565b5b5f611719848285016114c0565b91505092915050565b5f81519050919050565b5f82825260208201905092915050565b5f819050602082019050919050565b61175481611499565b82525050565b5f611765838361174b565b60208301905092915050565b5f602082019050919050565b5f61178782611722565b611791818561172c565b935061179c8361173c565b805f5b838110156117cc5781516117b3888261175a565b97506117be83611771565b92505060018101905061179f565b5085935050505092915050565b5f6020820190508181035f8301526117f1818461177d565b905092915050565b61180281611499565b82525050565b5f60208201905061181b5f8301846117f9565b92915050565b5f819050919050565b61183381611821565b811461183d575f80fd5b50565b5f8135905061184e8161182a565b92915050565b5f6020828403121561186957611868611472565b5b5f61187684828501611840565b91505092915050565b7f4e487b71000000000000000000000000000000000000000000000000000000005f52603260045260245ffd5b5f82825260208201905092915050565b7f47616d65206e6f742072656769737465726564000000000000000000000000005f82015250565b5f6118f06013836118ac565b91506118fb826118bc565b602082019050919050565b5f6020820190508181035f83015261191d816118e4565b9050919050565b7f4173736574206e6f74207265676973746572656420666f722067616d650000005f82015250565b5f611958601d836118ac565b915061196382611924565b602082019050919050565b5f6020820190508181035f8301526119858161194c565b9050919050565b7f4e487b71000000000000000000000000000000000000000000000000000000005f52601160045260245ffd5b5f6119c382611821565b91507fffffffffffffffffffffffffffffffffffffffffffffffffffffffffffffffff82036119f5576119f461198c565b5b600182019050919050565b7f4e487b71000000000000000000000000000000000000000000000000000000005f52604160045260245ffd5b7f496e76616c696420617373657420636f6e7472616374000000000000000000005f82015250565b5f611a616016836118ac565b9150611a6c82611a2d565b602082019050919050565b5f6020820190508181035f830152611a8e81611a55565b9050919050565b7f4e6f2061747472696275746573207370656369666965640000000000000000005f82015250565b5f611ac96017836118ac565b9150611ad482611a95565b602082019050919050565b5f6020820190508181035f830152611af681611abd565b9050919050565b5f80fd5b82818337505050565b5f611b158385611621565b93507f07ffffffffffffffffffffffffffffffffffffffffffffffffffffffffffffff831115611b4857611b47611afd565b5b602083029250611b59838584611b01565b82840190509392505050565b5f6020820190508181035f830152611b7e818486611b0a565b90509392505050565b7f496e76616c69642067616d6520616464726573730000000000000000000000005f82015250565b5f611bbb6014836118ac565b9150611bc682611b87565b602082019050919050565b5f6020820190508181035f830152611be881611baf565b9050919050565b7f47616d6520616c726561647920726567697374657265640000000000000000005f82015250565b5f611c236017836118ac565b9150611c2e82611bef565b602082019050919050565b5f6020820190508181035f830152611c5081611c17565b905091905056fea2646970667358221220bb6e151a27a9dd7f9f86f1321e922261e029f2dfd2ce38b0f14b0e79927fbbb864736f6c634300081a0033",
					"opcodes": "PUSH1 0x80 PUSH1 0x40 MSTORE CALLVALUE DUP1 ISZERO PUSH2 0xF JUMPI PUSH0 DUP1 REVERT JUMPDEST POP CALLER PUSH0 PUSH20 0xFFFFFFFFFFFFFFFFFFFFFFFFFFFFFFFFFFFFFFFF AND DUP2 PUSH20 0xFFFFFFFFFFFFFFFFFFFFFFFFFFFFFFFFFFFFFFFF AND SUB PUSH2 0x81 JUMPI PUSH0 PUSH1 0x40 MLOAD PUSH32 0x1E4FBDF700000000000000000000000000000000000000000000000000000000 DUP2 MSTORE PUSH1 0x4 ADD PUSH2 0x78 SWAP2 SWAP1 PUSH2 0x196 JUMP JUMPDEST PUSH1 0x40 MLOAD DUP1 SWAP2 SUB SWAP1 REVERT JUMPDEST PUSH2 0x90 DUP2 PUSH2 0x96 PUSH1 0x20 SHL PUSH1 0x20 SHR JUMP JUMPDEST POP PUSH2 0x1AF JUMP JUMPDEST PUSH0 DUP1 PUSH0 SWAP1 SLOAD SWAP1 PUSH2 0x100 EXP SWAP1 DIV PUSH20 0xFFFFFFFFFFFFFFFFFFFFFFFFFFFFFFFFFFFFFFFF AND SWAP1 POP DUP2 PUSH0 DUP1 PUSH2 0x100 EXP DUP2 SLOAD DUP2 PUSH20 0xFFFFFFFFFFFFFFFFFFFFFFFFFFFFFFFFFFFFFFFF MUL NOT AND SWAP1 DUP4 PUSH20 0xFFFFFFFFFFFFFFFFFFFFFFFFFFFFFFFFFFFFFFFF AND MUL OR SWAP1 SSTORE POP DUP2 PUSH20 0xFFFFFFFFFFFFFFFFFFFFFFFFFFFFFFFFFFFFFFFF AND DUP2 PUSH20 0xFFFFFFFFFFFFFFFFFFFFFFFFFFFFFFFFFFFFFFFF AND PUSH32 0x8BE0079C531659141344CD1FD0A4F28419497F9722A3DAAFE3B4186F6B6457E0 PUSH1 0x40 MLOAD PUSH1 0x40 MLOAD DUP1 SWAP2 SUB SWAP1 LOG3 POP POP JUMP JUMPDEST PUSH0 PUSH20 0xFFFFFFFFFFFFFFFFFFFFFFFFFFFFFFFFFFFFFFFF DUP3 AND SWAP1 POP SWAP2 SWAP1 POP JUMP JUMPDEST PUSH0 PUSH2 0x180 DUP3 PUSH2 0x157 JUMP JUMPDEST SWAP1 POP SWAP2 SWAP1 POP JUMP JUMPDEST PUSH2 0x190 DUP2 PUSH2 0x176 JUMP JUMPDEST DUP3 MSTORE POP POP JUMP JUMPDEST PUSH0 PUSH1 0x20 DUP3 ADD SWAP1 POP PUSH2 0x1A9 PUSH0 DUP4 ADD DUP5 PUSH2 0x187 JUMP JUMPDEST SWAP3 SWAP2 POP POP JUMP JUMPDEST PUSH2 0x1C8D DUP1 PUSH2 0x1BC PUSH0 CODECOPY PUSH0 RETURN INVALID PUSH1 0x80 PUSH1 0x40 MSTORE CALLVALUE DUP1 ISZERO PUSH2 0xF JUMPI PUSH0 DUP1 REVERT JUMPDEST POP PUSH1 0x4 CALLDATASIZE LT PUSH2 0xA7 JUMPI PUSH0 CALLDATALOAD PUSH1 0xE0 SHR DUP1 PUSH4 0x715018A6 GT PUSH2 0x6F JUMPI DUP1 PUSH4 0x715018A6 EQ PUSH2 0x173 JUMPI DUP1 PUSH4 0x8DA5CB5B EQ PUSH2 0x17D JUMPI DUP1 PUSH4 0x9B36057C EQ PUSH2 0x19B JUMPI DUP1 PUSH4 0x9E3C5A72 EQ PUSH2 0x1B7 JUMPI DUP1 PUSH4 0xEE658E45 EQ PUSH2 0x1E7 JUMPI DUP1 PUSH4 0xF2FDE38B EQ PUSH2 0x217 JUMPI PUSH2 0xA7 JUMP JUMPDEST DUP1 PUSH4 0x36E9B39A EQ PUSH2 0xAB JUMPI DUP1 PUSH4 0x53C02924 EQ PUSH2 0xDB JUMPI DUP1 PUSH4 0x57F623D0 EQ PUSH2 0x10B JUMPI DUP1 PUSH4 0x64462142 EQ PUSH2 0x13B JUMPI DUP1 PUSH4 0x6F6145F0 EQ PUSH2 0x157 JUMPI JUMPDEST PUSH0 DUP1 REVERT JUMPDEST PUSH2 0xC5 PUSH1 0x4 DUP1 CALLDATASIZE SUB DUP2 ADD SWAP1 PUSH2 0xC0 SWAP2 SWAP1 PUSH2 0x1535 JUMP JUMPDEST PUSH2 0x233 JUMP JUMPDEST PUSH1 0x40 MLOAD PUSH2 0xD2 SWAP2 SWAP1 PUSH2 0x15C0 JUMP JUMPDEST PUSH1 0x40 MLOAD DUP1 SWAP2 SUB SWAP1 RETURN JUMPDEST PUSH2 0xF5 PUSH1 0x4 DUP1 CALLDATASIZE SUB DUP2 ADD SWAP1 PUSH2 0xF0 SWAP2 SWAP1 PUSH2 0x15D9 JUMP JUMPDEST PUSH2 0x43C JUMP JUMPDEST PUSH1 0x40 MLOAD PUSH2 0x102 SWAP2 SWAP1 PUSH2 0x16D7 JUMP JUMPDEST PUSH1 0x40 MLOAD DUP1 SWAP2 SUB SWAP1 RETURN JUMPDEST PUSH2 0x125 PUSH1 0x4 DUP1 CALLDATASIZE SUB DUP2 ADD SWAP1 PUSH2 0x120 SWAP2 SWAP1 PUSH2 0x16F7 JUMP JUMPDEST PUSH2 0x665 JUMP JUMPDEST PUSH1 0x40 MLOAD PUSH2 0x132 SWAP2 SWAP1 PUSH2 0x17D9 JUMP JUMPDEST PUSH1 0x40 MLOAD DUP1 SWAP2 SUB SWAP1 RETURN JUMPDEST PUSH2 0x155 PUSH1 0x4 DUP1 CALLDATASIZE SUB DUP2 ADD SWAP1 PUSH2 0x150 SWAP2 SWAP1 PUSH2 0x1535 JUMP JUMPDEST PUSH2 0x9C0 JUMP JUMPDEST STOP JUMPDEST PUSH2 0x171 PUSH1 0x4 DUP1 CALLDATASIZE SUB DUP2 ADD SWAP1 PUSH2 0x16C SWAP2 SWAP1 PUSH2 0x15D9 JUMP JUMPDEST PUSH2 0xC21 JUMP JUMPDEST STOP JUMPDEST PUSH2 0x17B PUSH2 0xE7A JUMP JUMPDEST STOP JUMPDEST PUSH2 0x185 PUSH2 0xE8D JUMP JUMPDEST PUSH1 0x40 MLOAD PUSH2 0x192 SWAP2 SWAP1 PUSH2 0x1808 JUMP JUMPDEST PUSH1 0x40 MLOAD DUP1 SWAP2 SUB SWAP1 RETURN JUMPDEST PUSH2 0x1B5 PUSH1 0x4 DUP1 CALLDATASIZE SUB DUP2 ADD SWAP1 PUSH2 0x1B0 SWAP2 SWAP1 PUSH2 0x16F7 JUMP JUMPDEST PUSH2 0xEB4 JUMP JUMPDEST STOP JUMPDEST PUSH2 0x1D1 PUSH1 0x4 DUP1 CALLDATASIZE SUB DUP2 ADD SWAP1 PUSH2 0x1CC SWAP2 SWAP1 PUSH2 0x1854 JUMP JUMPDEST PUSH2 0x118C JUMP JUMPDEST PUSH1 0x40 MLOAD PUSH2 0x1DE SWAP2 SWAP1 PUSH2 0x1808 JUMP JUMPDEST PUSH1 0x40 MLOAD DUP1 SWAP2 SUB SWAP1 RETURN JUMPDEST PUSH2 0x201 PUSH1 0x4 DUP1 CALLDATASIZE SUB DUP2 ADD SWAP1 PUSH2 0x1FC SWAP2 SWAP1 PUSH2 0x16F7 JUMP JUMPDEST PUSH2 0x11C7 JUMP JUMPDEST PUSH1 0x40 MLOAD PUSH2 0x20E SWAP2 SWAP1 PUSH2 0x15C0 JUMP JUMPDEST PUSH1 0x40 MLOAD DUP1 SWAP2 SUB SWAP1 RETURN JUMPDEST PUSH2 0x231 PUSH1 0x4 DUP1 CALLDATASIZE SUB DUP2 ADD SWAP1 PUSH2 0x22C SWAP2 SWAP1 PUSH2 0x16F7 JUMP JUMPDEST PUSH2 0x121B JUMP JUMPDEST STOP JUMPDEST PUSH0 PUSH1 0x1 PUSH0 DUP7 PUSH20 0xFFFFFFFFFFFFFFFFFFFFFFFFFFFFFFFFFFFFFFFF AND PUSH20 0xFFFFFFFFFFFFFFFFFFFFFFFFFFFFFFFFFFFFFFFF AND DUP2 MSTORE PUSH1 0x20 ADD SWAP1 DUP2 MSTORE PUSH1 0x20 ADD PUSH0 KECCAK256 PUSH0 ADD PUSH0 SWAP1 SLOAD SWAP1 PUSH2 0x100 EXP SWAP1 DIV PUSH1 0xFF AND ISZERO DUP1 PUSH2 0x313 JUMPI POP PUSH1 0x1 PUSH0 DUP7 PUSH20 0xFFFFFFFFFFFFFFFFFFFFFFFFFFFFFFFFFFFFFFFF AND PUSH20 0xFFFFFFFFFFFFFFFFFFFFFFFFFFFFFFFFFFFFFFFF AND DUP2 MSTORE PUSH1 0x20 ADD SWAP1 DUP2 MSTORE PUSH1 0x20 ADD PUSH0 KECCAK256 PUSH1 0x1 ADD PUSH0 DUP6 PUSH20 0xFFFFFFFFFFFFFFFFFFFFFFFFFFFFFFFFFFFFFFFF AND PUSH20 0xFFFFFFFFFFFFFFFFFFFFFFFFFFFFFFFFFFFFFFFF AND DUP2 MSTORE PUSH1 0x20 ADD SWAP1 DUP2 MSTORE PUSH1 0x20 ADD PUSH0 KECCAK256 PUSH0 ADD PUSH0 SWAP1 SLOAD SWAP1 PUSH2 0x100 EXP SWAP1 DIV PUSH1 0xFF AND ISZERO JUMPDEST ISZERO PUSH2 0x320 JUMPI PUSH0 SWAP1 POP PUSH2 0x434 JUMP JUMPDEST PUSH0 PUSH1 0x1 PUSH0 DUP8 PUSH20 0xFFFFFFFFFFFFFFFFFFFFFFFFFFFFFFFFFFFFFFFF AND PUSH20 0xFFFFFFFFFFFFFFFFFFFFFFFFFFFFFFFFFFFFFFFF AND DUP2 MSTORE PUSH1 0x20 ADD SWAP1 DUP2 MSTORE PUSH1 0x20 ADD PUSH0 KECCAK256 PUSH1 0x1 ADD PUSH0 DUP7 PUSH20 0xFFFFFFFFFFFFFFFFFFFFFFFFFFFFFFFFFFFFFFFF AND PUSH20 0xFFFFFFFFFFFFFFFFFFFFFFFFFFFFFFFFFFFFFFFF AND DUP2 MSTORE PUSH1 0x20 ADD SWAP1 DUP2 MSTORE PUSH1 0x20 ADD PUSH0 KECCAK256 PUSH1 0x1 ADD SWAP1 POP PUSH0 JUMPDEST DUP5 DUP5 SWAP1 POP DUP2 LT ISZERO PUSH2 0x42D JUMPI PUSH0 DUP1 JUMPDEST DUP4 DUP1 SLOAD SWAP1 POP DUP2 LT ISZERO PUSH2 0x40E JUMPI DUP4 DUP2 DUP2 SLOAD DUP2 LT PUSH2 0x3D0 JUMPI PUSH2 0x3CF PUSH2 0x187F JUMP JUMPDEST JUMPDEST SWAP1 PUSH0 MSTORE PUSH1 0x20 PUSH0 KECCAK256 ADD SLOAD DUP8 DUP8 DUP6 DUP2 DUP2 LT PUSH2 0x3EC JUMPI PUSH2 0x3EB PUSH2 0x187F JUMP JUMPDEST JUMPDEST SWAP1 POP PUSH1 0x20 MUL ADD CALLDATALOAD SUB PUSH2 0x401 JUMPI PUSH1 0x1 SWAP2 POP PUSH2 0x40E JUMP JUMPDEST DUP1 DUP1 PUSH1 0x1 ADD SWAP2 POP POP PUSH2 0x3B1 JUMP JUMPDEST POP DUP1 PUSH2 0x41F JUMPI PUSH0 SWAP4 POP POP POP POP PUSH2 0x434 JUMP JUMPDEST POP DUP1 DUP1 PUSH1 0x1 ADD SWAP2 POP POP PUSH2 0x3A3 JUMP JUMPDEST POP PUSH1 0x1 SWAP2 POP POP JUMPDEST SWAP5 SWAP4 POP POP POP POP JUMP JUMPDEST PUSH1 0x60 PUSH1 0x1 PUSH0 DUP5 PUSH20 0xFFFFFFFFFFFFFFFFFFFFFFFFFFFFFFFFFFFFFFFF AND PUSH20 0xFFFFFFFFFFFFFFFFFFFFFFFFFFFFFFFFFFFFFFFF AND DUP2 MSTORE PUSH1 0x20 ADD SWAP1 DUP2 MSTORE PUSH1 0x20 ADD PUSH0 KECCAK256 PUSH0 ADD PUSH0 SWAP1 SLOAD SWAP1 PUSH2 0x100 EXP SWAP1 DIV PUSH1 0xFF AND PUSH2 0x4C9 JUMPI PUSH1 0x40 MLOAD PUSH32 0x8C379A000000000000000000000000000000000000000000000000000000000 DUP2 MSTORE PUSH1 0x4 ADD PUSH2 0x4C0 SWAP1 PUSH2 0x1906 JUMP JUMPDEST PUSH1 0x40 MLOAD DUP1 SWAP2 SUB SWAP1 REVERT JUMPDEST PUSH1 0x1 PUSH0 DUP5 PUSH20 0xFFFFFFFFFFFFFFFFFFFFFFFFFFFFFFFFFFFFFFFF AND PUSH20 0xFFFFFFFFFFFFFFFFFFFFFFFFFFFFFFFFFFFFFFFF AND DUP2 MSTORE PUSH1 0x20 ADD SWAP1 DUP2 MSTORE PUSH1 0x20 ADD PUSH0 KECCAK256 PUSH1 0x1 ADD PUSH0 DUP4 PUSH20 0xFFFFFFFFFFFFFFFFFFFFFFFFFFFFFFFFFFFFFFFF AND PUSH20 0xFFFFFFFFFFFFFFFFFFFFFFFFFFFFFFFFFFFFFFFF AND DUP2 MSTORE PUSH1 0x20 ADD SWAP1 DUP2 MSTORE PUSH1 0x20 ADD PUSH0 KECCAK256 PUSH0 ADD PUSH0 SWAP1 SLOAD SWAP1 PUSH2 0x100 EXP SWAP1 DIV PUSH1 0xFF AND PUSH2 0x592 JUMPI PUSH1 0x40 MLOAD PUSH32 0x8C379A000000000000000000000000000000000000000000000000000000000 DUP2 MSTORE PUSH1 0x4 ADD PUSH2 0x589 SWAP1 PUSH2 0x196E JUMP JUMPDEST PUSH1 0x40 MLOAD DUP1 SWAP2 SUB SWAP1 REVERT JUMPDEST PUSH1 0x1 PUSH0 DUP5 PUSH20 0xFFFFFFFFFFFFFFFFFFFFFFFFFFFFFFFFFFFFFFFF AND PUSH20 0xFFFFFFFFFFFFFFFFFFFFFFFFFFFFFFFFFFFFFFFF AND DUP2 MSTORE PUSH1 0x20 ADD SWAP1 DUP2 MSTORE PUSH1 0x20 ADD PUSH0 KECCAK256 PUSH1 0x1 ADD PUSH0 DUP4 PUSH20 0xFFFFFFFFFFFFFFFFFFFFFFFFFFFFFFFFFFFFFFFF AND PUSH20 0xFFFFFFFFFFFFFFFFFFFFFFFFFFFFFFFFFFFFFFFF AND DUP2 MSTORE PUSH1 0x20 ADD SWAP1 DUP2 MSTORE PUSH1 0x20 ADD PUSH0 KECCAK256 PUSH1 0x1 ADD DUP1 SLOAD DUP1 PUSH1 0x20 MUL PUSH1 0x20 ADD PUSH1 0x40 MLOAD SWAP1 DUP2 ADD PUSH1 0x40 MSTORE DUP1 SWAP3 SWAP2 SWAP1 DUP2 DUP2 MSTORE PUSH1 0x20 ADD DUP3 DUP1 SLOAD DUP1 ISZERO PUSH2 0x658 JUMPI PUSH1 0x20 MUL DUP3 ADD SWAP2 SWAP1 PUSH0 MSTORE PUSH1 0x20 PUSH0 KECCAK256 SWAP1 JUMPDEST DUP2 SLOAD DUP2 MSTORE PUSH1 0x20 ADD SWAP1 PUSH1 0x1 ADD SWAP1 DUP1 DUP4 GT PUSH2 0x644 JUMPI JUMPDEST POP POP POP POP POP SWAP1 POP SWAP3 SWAP2 POP POP JUMP JUMPDEST PUSH1 0x60 PUSH1 0x1 PUSH0 DUP4 PUSH20 0xFFFFFFFFFFFFFFFFFFFFFFFFFFFFFFFFFFFFFFFF AND PUSH20 0xFFFFFFFFFFFFFFFFFFFFFFFFFFFFFFFFFFFFFFFF AND DUP2 MSTORE PUSH1 0x20 ADD SWAP1 DUP2 MSTORE PUSH1 0x20 ADD PUSH0 KECCAK256 PUSH0 ADD PUSH0 SWAP1 SLOAD SWAP1 PUSH2 0x100 EXP SWAP1 DIV PUSH1 0xFF AND PUSH2 0x6F2 JUMPI PUSH1 0x40 MLOAD PUSH32 0x8C379A000000000000000000000000000000000000000000000000000000000 DUP2 MSTORE PUSH1 0x4 ADD PUSH2 0x6E9 SWAP1 PUSH2 0x1906 JUMP JUMPDEST PUSH1 0x40 MLOAD DUP1 SWAP2 SUB SWAP1 REVERT JUMPDEST PUSH0 DUP1 JUMPDEST PUSH1 0x2 DUP1 SLOAD SWAP1 POP DUP2 LT ISZERO PUSH2 0x7E8 JUMPI PUSH1 0x1 PUSH0 DUP6 PUSH20 0xFFFFFFFFFFFFFFFFFFFFFFFFFFFFFFFFFFFFFFFF AND PUSH20 0xFFFFFFFFFFFFFFFFFFFFFFFFFFFFFFFFFFFFFFFF AND DUP2 MSTORE PUSH1 0x20 ADD SWAP1 DUP2 MSTORE PUSH1 0x20 ADD PUSH0 KECCAK256 PUSH1 0x1 ADD PUSH0 PUSH1 0x2 DUP4 DUP2 SLOAD DUP2 LT PUSH2 0x757 JUMPI PUSH2 0x756 PUSH2 0x187F JUMP JUMPDEST JUMPDEST SWAP1 PUSH0 MSTORE PUSH1 0x20 PUSH0 KECCAK256 ADD PUSH0 SWAP1 SLOAD SWAP1 PUSH2 0x100 EXP SWAP1 DIV PUSH20 0xFFFFFFFFFFFFFFFFFFFFFFFFFFFFFFFFFFFFFFFF AND PUSH20 0xFFFFFFFFFFFFFFFFFFFFFFFFFFFFFFFFFFFFFFFF AND PUSH20 0xFFFFFFFFFFFFFFFFFFFFFFFFFFFFFFFFFFFFFFFF AND DUP2 MSTORE PUSH1 0x20 ADD SWAP1 DUP2 MSTORE PUSH1 0x20 ADD PUSH0 KECCAK256 PUSH0 ADD PUSH0 SWAP1 SLOAD SWAP1 PUSH2 0x100 EXP SWAP1 DIV PUSH1 0xFF AND ISZERO PUSH2 0x7DB JUMPI DUP2 DUP1 PUSH2 0x7D7 SWAP1 PUSH2 0x19B9 JUMP JUMPDEST SWAP3 POP POP JUMPDEST DUP1 DUP1 PUSH1 0x1 ADD SWAP2 POP POP PUSH2 0x6F5 JUMP JUMPDEST POP PUSH0 DUP2 PUSH8 0xFFFFFFFFFFFFFFFF DUP2 GT ISZERO PUSH2 0x804 JUMPI PUSH2 0x803 PUSH2 0x1A00 JUMP JUMPDEST JUMPDEST PUSH1 0x40 MLOAD SWAP1 DUP1 DUP3 MSTORE DUP1 PUSH1 0x20 MUL PUSH1 0x20 ADD DUP3 ADD PUSH1 0x40 MSTORE DUP1 ISZERO PUSH2 0x832 JUMPI DUP2 PUSH1 0x20 ADD PUSH1 0x20 DUP3 MUL DUP1 CALLDATASIZE DUP4 CALLDATACOPY DUP1 DUP3 ADD SWAP2 POP POP SWAP1 POP JUMPDEST POP SWAP1 POP PUSH0 DUP1 JUMPDEST PUSH1 0x2 DUP1 SLOAD SWAP1 POP DUP2 LT ISZERO PUSH2 0x9B4 JUMPI PUSH1 0x1 PUSH0 DUP8 PUSH20 0xFFFFFFFFFFFFFFFFFFFFFFFFFFFFFFFFFFFFFFFF AND PUSH20 0xFFFFFFFFFFFFFFFFFFFFFFFFFFFFFFFFFFFFFFFF AND DUP2 MSTORE PUSH1 0x20 ADD SWAP1 DUP2 MSTORE PUSH1 0x20 ADD PUSH0 KECCAK256 PUSH1 0x1 ADD PUSH0 PUSH1 0x2 DUP4 DUP2 SLOAD DUP2 LT PUSH2 0x89A JUMPI PUSH2 0x899 PUSH2 0x187F JUMP JUMPDEST JUMPDEST SWAP1 PUSH0 MSTORE PUSH1 0x20 PUSH0 KECCAK256 ADD PUSH0 SWAP1 SLOAD SWAP1 PUSH2 0x100 EXP SWAP1 DIV PUSH20 0xFFFFFFFFFFFFFFFFFFFFFFFFFFFFFFFFFFFFFFFF AND PUSH20 0xFFFFFFFFFFFFFFFFFFFFFFFFFFFFFFFFFFFFFFFF AND PUSH20 0xFFFFFFFFFFFFFFFFFFFFFFFFFFFFFFFFFFFFFFFF AND DUP2 MSTORE PUSH1 0x20 ADD SWAP1 DUP2 MSTORE PUSH1 0x20 ADD PUSH0 KECCAK256 PUSH0 ADD PUSH0 SWAP1 SLOAD SWAP1 PUSH2 0x100 EXP SWAP1 DIV PUSH1 0xFF AND ISZERO PUSH2 0x9A7 JUMPI PUSH1 0x2 DUP2 DUP2 SLOAD DUP2 LT PUSH2 0x923 JUMPI PUSH2 0x922 PUSH2 0x187F JUMP JUMPDEST JUMPDEST SWAP1 PUSH0 MSTORE PUSH1 0x20 PUSH0 KECCAK256 ADD PUSH0 SWAP1 SLOAD SWAP1 PUSH2 0x100 EXP SWAP1 DIV PUSH20 0xFFFFFFFFFFFFFFFFFFFFFFFFFFFFFFFFFFFFFFFF AND DUP4 DUP4 DUP2 MLOAD DUP2 LT PUSH2 0x95E JUMPI PUSH2 0x95D PUSH2 0x187F JUMP JUMPDEST JUMPDEST PUSH1 0x20 MUL PUSH1 0x20 ADD ADD SWAP1 PUSH20 0xFFFFFFFFFFFFFFFFFFFFFFFFFFFFFFFFFFFFFFFF AND SWAP1 DUP2 PUSH20 0xFFFFFFFFFFFFFFFFFFFFFFFFFFFFFFFFFFFFFFFF AND DUP2 MSTORE POP POP DUP2 DUP1 PUSH2 0x9A3 SWAP1 PUSH2 0x19B9 JUMP JUMPDEST SWAP3 POP POP JUMPDEST DUP1 DUP1 PUSH1 0x1 ADD SWAP2 POP POP PUSH2 0x838 JUMP JUMPDEST POP DUP2 SWAP4 POP POP POP POP SWAP2 SWAP1 POP JUMP JUMPDEST PUSH2 0x9C8 PUSH2 0x129F JUMP JUMPDEST PUSH1 0x1 PUSH0 DUP6 PUSH20 0xFFFFFFFFFFFFFFFFFFFFFFFFFFFFFFFFFFFFFFFF AND PUSH20 0xFFFFFFFFFFFFFFFFFFFFFFFFFFFFFFFFFFFFFFFF AND DUP2 MSTORE PUSH1 0x20 ADD SWAP1 DUP2 MSTORE PUSH1 0x20 ADD PUSH0 KECCAK256 PUSH0 ADD PUSH0 SWAP1 SLOAD SWAP1 PUSH2 0x100 EXP SWAP1 DIV PUSH1 0xFF AND PUSH2 0xA53 JUMPI PUSH1 0x40 MLOAD PUSH32 0x8C379A000000000000000000000000000000000000000000000000000000000 DUP2 MSTORE PUSH1 0x4 ADD PUSH2 0xA4A SWAP1 PUSH2 0x1906 JUMP JUMPDEST PUSH1 0x40 MLOAD DUP1 SWAP2 SUB SWAP1 REVERT JUMPDEST PUSH0 PUSH20 0xFFFFFFFFFFFFFFFFFFFFFFFFFFFFFFFFFFFFFFFF AND DUP4 PUSH20 0xFFFFFFFFFFFFFFFFFFFFFFFFFFFFFFFFFFFFFFFF AND SUB PUSH2 0xAC1 JUMPI PUSH1 0x40 MLOAD PUSH32 0x8C379A000000000000000000000000000000000000000000000000000000000 DUP2 MSTORE PUSH1 0x4 ADD PUSH2 0xAB8 SWAP1 PUSH2 0x1A77 JUMP JUMPDEST PUSH1 0x40 MLOAD DUP1 SWAP2 SUB SWAP1 REVERT JUMPDEST PUSH0 DUP3 DUP3 SWAP1 POP GT PUSH2 0xB06 JUMPI PUSH1 0x40 MLOAD PUSH32 0x8C379A000000000000000000000000000000000000000000000000000000000 DUP2 MSTORE PUSH1 0x4 ADD PUSH2 0xAFD SWAP1 PUSH2 0x1ADF JUMP JUMPDEST PUSH1 0x40 MLOAD DUP1 SWAP2 SUB SWAP1 REVERT JUMPDEST PUSH0 PUSH1 0x1 PUSH0 DUP7 PUSH20 0xFFFFFFFFFFFFFFFFFFFFFFFFFFFFFFFFFFFFFFFF AND PUSH20 0xFFFFFFFFFFFFFFFFFFFFFFFFFFFFFFFFFFFFFFFF AND DUP2 MSTORE PUSH1 0x20 ADD SWAP1 DUP2 MSTORE PUSH1 0x20 ADD PUSH0 KECCAK256 PUSH1 0x1 ADD PUSH0 DUP6 PUSH20 0xFFFFFFFFFFFFFFFFFFFFFFFFFFFFFFFFFFFFFFFF AND PUSH20 0xFFFFFFFFFFFFFFFFFFFFFFFFFFFFFFFFFFFFFFFF AND DUP2 MSTORE PUSH1 0x20 ADD SWAP1 DUP2 MSTORE PUSH1 0x20 ADD PUSH0 KECCAK256 SWAP1 POP PUSH1 0x1 DUP2 PUSH0 ADD PUSH0 PUSH2 0x100 EXP DUP2 SLOAD DUP2 PUSH1 0xFF MUL NOT AND SWAP1 DUP4 ISZERO ISZERO MUL OR SWAP1 SSTORE POP DUP3 DUP3 DUP3 PUSH1 0x1 ADD SWAP2 SWAP1 PUSH2 0xBB2 SWAP3 SWAP2 SWAP1 PUSH2 0x13EE JUMP JUMPDEST POP DUP4 PUSH20 0xFFFFFFFFFFFFFFFFFFFFFFFFFFFFFFFFFFFFFFFF AND DUP6 PUSH20 0xFFFFFFFFFFFFFFFFFFFFFFFFFFFFFFFFFFFFFFFF AND PUSH32 0x5A1925924B0857CEB006F7400134CECCCEDB6CA75ECEF791A1A109CF8890EDAE DUP6 DUP6 PUSH1 0x40 MLOAD PUSH2 0xC12 SWAP3 SWAP2 SWAP1 PUSH2 0x1B65 JUMP JUMPDEST PUSH1 0x40 MLOAD DUP1 SWAP2 SUB SWAP1 LOG3 POP POP POP POP POP JUMP JUMPDEST PUSH2 0xC29 PUSH2 0x129F JUMP JUMPDEST PUSH1 0x1 PUSH0 DUP4 PUSH20 0xFFFFFFFFFFFFFFFFFFFFFFFFFFFFFFFFFFFFFFFF AND PUSH20 0xFFFFFFFFFFFFFFFFFFFFFFFFFFFFFFFFFFFFFFFF AND DUP2 MSTORE PUSH1 0x20 ADD SWAP1 DUP2 MSTORE PUSH1 0x20 ADD PUSH0 KECCAK256 PUSH0 ADD PUSH0 SWAP1 SLOAD SWAP1 PUSH2 0x100 EXP SWAP1 DIV PUSH1 0xFF AND PUSH2 0xCB4 JUMPI PUSH1 0x40 MLOAD PUSH32 0x8C379A000000000000000000000000000000000000000000000000000000000 DUP2 MSTORE PUSH1 0x4 ADD PUSH2 0xCAB SWAP1 PUSH2 0x1906 JUMP JUMPDEST PUSH1 0x40 MLOAD DUP1 SWAP2 SUB SWAP1 REVERT JUMPDEST PUSH1 0x1 PUSH0 DUP4 PUSH20 0xFFFFFFFFFFFFFFFFFFFFFFFFFFFFFFFFFFFFFFFF AND PUSH20 0xFFFFFFFFFFFFFFFFFFFFFFFFFFFFFFFFFFFFFFFF AND DUP2 MSTORE PUSH1 0x20 ADD SWAP1 DUP2 MSTORE PUSH1 0x20 ADD PUSH0 KECCAK256 PUSH1 0x1 ADD PUSH0 DUP3 PUSH20 0xFFFFFFFFFFFFFFFFFFFFFFFFFFFFFFFFFFFFFFFF AND PUSH20 0xFFFFFFFFFFFFFFFFFFFFFFFFFFFFFFFFFFFFFFFF AND DUP2 MSTORE PUSH1 0x20 ADD SWAP1 DUP2 MSTORE PUSH1 0x20 ADD PUSH0 KECCAK256 PUSH0 ADD PUSH0 SWAP1 SLOAD SWAP1 PUSH2 0x100 EXP SWAP1 DIV PUSH1 0xFF AND PUSH2 0xD7D JUMPI PUSH1 0x40 MLOAD PUSH32 0x8C379A000000000000000000000000000000000000000000000000000000000 DUP2 MSTORE PUSH1 0x4 ADD PUSH2 0xD74 SWAP1 PUSH2 0x196E JUMP JUMPDEST PUSH1 0x40 MLOAD DUP1 SWAP2 SUB SWAP1 REVERT JUMPDEST PUSH1 0x1 PUSH0 DUP4 PUSH20 0xFFFFFFFFFFFFFFFFFFFFFFFFFFFFFFFFFFFFFFFF AND PUSH20 0xFFFFFFFFFFFFFFFFFFFFFFFFFFFFFFFFFFFFFFFF AND DUP2 MSTORE PUSH1 0x20 ADD SWAP1 DUP2 MSTORE PUSH1 0x20 ADD PUSH0 KECCAK256 PUSH1 0x1 ADD PUSH0 DUP3 PUSH20 0xFFFFFFFFFFFFFFFFFFFFFFFFFFFFFFFFFFFFFFFF AND PUSH20 0xFFFFFFFFFFFFFFFFFFFFFFFFFFFFFFFFFFFFFFFF AND DUP2 MSTORE PUSH1 0x20 ADD SWAP1 DUP2 MSTORE PUSH1 0x20 ADD PUSH0 KECCAK256 PUSH0 DUP1 DUP3 ADD PUSH0 PUSH2 0x100 EXP DUP2 SLOAD SWAP1 PUSH1 0xFF MUL NOT AND SWAP1 SSTORE PUSH1 0x1 DUP3 ADD PUSH0 PUSH2 0xE1A SWAP2 SWAP1 PUSH2 0x1439 JUMP JUMPDEST POP POP DUP1 PUSH20 0xFFFFFFFFFFFFFFFFFFFFFFFFFFFFFFFFFFFFFFFF AND DUP3 PUSH20 0xFFFFFFFFFFFFFFFFFFFFFFFFFFFFFFFFFFFFFFFF AND PUSH32 0xB0B93A7D8A8EC4A98F21206AF2D3AF128FC5BA7B8DF65991B7477766ED425622 PUSH1 0x40 MLOAD PUSH1 0x40 MLOAD DUP1 SWAP2 SUB SWAP1 LOG3 POP POP JUMP JUMPDEST PUSH2 0xE82 PUSH2 0x129F JUMP JUMPDEST PUSH2 0xE8B PUSH0 PUSH2 0x1326 JUMP JUMPDEST JUMP JUMPDEST PUSH0 DUP1 PUSH0 SWAP1 SLOAD SWAP1 PUSH2 0x100 EXP SWAP1 DIV PUSH20 0xFFFFFFFFFFFFFFFFFFFFFFFFFFFFFFFFFFFFFFFF AND SWAP1 POP SWAP1 JUMP JUMPDEST PUSH2 0xEBC PUSH2 0x129F JUMP JUMPDEST PUSH0 PUSH20 0xFFFFFFFFFFFFFFFFFFFFFFFFFFFFFFFFFFFFFFFF AND DUP2 PUSH20 0xFFFFFFFFFFFFFFFFFFFFFFFFFFFFFFFFFFFFFFFF AND SUB PUSH2 0xF2A JUMPI PUSH1 0x40 MLOAD PUSH32 0x8C379A000000000000000000000000000000000000000000000000000000000 DUP2 MSTORE PUSH1 0x4 ADD PUSH2 0xF21 SWAP1 PUSH2 0x1BD1 JUMP JUMPDEST PUSH1 0x40 MLOAD DUP1 SWAP2 SUB SWAP1 REVERT JUMPDEST PUSH1 0x1 PUSH0 DUP3 PUSH20 0xFFFFFFFFFFFFFFFFFFFFFFFFFFFFFFFFFFFFFFFF AND PUSH20 0xFFFFFFFFFFFFFFFFFFFFFFFFFFFFFFFFFFFFFFFF AND DUP2 MSTORE PUSH1 0x20 ADD SWAP1 DUP2 MSTORE PUSH1 0x20 ADD PUSH0 KECCAK256 PUSH0 ADD PUSH0 SWAP1 SLOAD SWAP1 PUSH2 0x100 EXP SWAP1 DIV PUSH1 0xFF AND ISZERO PUSH2 0xFB6 JUMPI PUSH1 0x40 MLOAD PUSH32 0x8C379A000000000000000000000000000000000000000000000000000000000 DUP2 MSTORE PUSH1 0x4 ADD PUSH2 0xFAD SWAP1 PUSH2 0x1C39 JUMP JUMPDEST PUSH1 0x40 MLOAD DUP1 SWAP2 SUB SWAP1 REVERT JUMPDEST PUSH1 0x1 DUP1 PUSH0 DUP4 PUSH20 0xFFFFFFFFFFFFFFFFFFFFFFFFFFFFFFFFFFFFFFFF AND PUSH20 0xFFFFFFFFFFFFFFFFFFFFFFFFFFFFFFFFFFFFFFFF AND DUP2 MSTORE PUSH1 0x20 ADD SWAP1 DUP2 MSTORE PUSH1 0x20 ADD PUSH0 KECCAK256 PUSH0 ADD PUSH0 PUSH2 0x100 EXP DUP2 SLOAD DUP2 PUSH1 0xFF MUL NOT AND SWAP1 DUP4 ISZERO ISZERO MUL OR SWAP1 SSTORE POP TIMESTAMP PUSH1 0x1 PUSH0 DUP4 PUSH20 0xFFFFFFFFFFFFFFFFFFFFFFFFFFFFFFFFFFFFFFFF AND PUSH20 0xFFFFFFFFFFFFFFFFFFFFFFFFFFFFFFFFFFFFFFFF AND DUP2 MSTORE PUSH1 0x20 ADD SWAP1 DUP2 MSTORE PUSH1 0x20 ADD PUSH0 KECCAK256 PUSH1 0x2 ADD DUP2 SWAP1 SSTORE POP CALLER PUSH1 0x1 PUSH0 DUP4 PUSH20 0xFFFFFFFFFFFFFFFFFFFFFFFFFFFFFFFFFFFFFFFF AND PUSH20 0xFFFFFFFFFFFFFFFFFFFFFFFFFFFFFFFFFFFFFFFF AND DUP2 MSTORE PUSH1 0x20 ADD SWAP1 DUP2 MSTORE PUSH1 0x20 ADD PUSH0 KECCAK256 PUSH1 0x3 ADD PUSH0 PUSH2 0x100 EXP DUP2 SLOAD DUP2 PUSH20 0xFFFFFFFFFFFFFFFFFFFFFFFFFFFFFFFFFFFFFFFF MUL NOT AND SWAP1 DUP4 PUSH20 0xFFFFFFFFFFFFFFFFFFFFFFFFFFFFFFFFFFFFFFFF AND MUL OR SWAP1 SSTORE POP PUSH1 0x2 DUP2 SWAP1 DUP1 PUSH1 0x1 DUP2 SLOAD ADD DUP1 DUP3 SSTORE DUP1 SWAP2 POP POP PUSH1 0x1 SWAP1 SUB SWAP1 PUSH0 MSTORE PUSH1 0x20 PUSH0 KECCAK256 ADD PUSH0 SWAP1 SWAP2 SWAP1 SWAP2 SWAP1 SWAP2 PUSH2 0x100 EXP DUP2 SLOAD DUP2 PUSH20 0xFFFFFFFFFFFFFFFFFFFFFFFFFFFFFFFFFFFFFFFF MUL NOT AND SWAP1 DUP4 PUSH20 0xFFFFFFFFFFFFFFFFFFFFFFFFFFFFFFFFFFFFFFFF AND MUL OR SWAP1 SSTORE POP CALLER PUSH20 0xFFFFFFFFFFFFFFFFFFFFFFFFFFFFFFFFFFFFFFFF AND DUP2 PUSH20 0xFFFFFFFFFFFFFFFFFFFFFFFFFFFFFFFFFFFFFFFF AND PUSH32 0x76EADA2B266F926D3ECB187DECE20428D68DB62016C04BEA8CCB92679F788DE PUSH1 0x40 MLOAD PUSH1 0x40 MLOAD DUP1 SWAP2 SUB SWAP1 LOG3 POP JUMP JUMPDEST PUSH1 0x2 DUP2 DUP2 SLOAD DUP2 LT PUSH2 0x119B JUMPI PUSH0 DUP1 REVERT JUMPDEST SWAP1 PUSH0 MSTORE PUSH1 0x20 PUSH0 KECCAK256 ADD PUSH0 SWAP2 POP SLOAD SWAP1 PUSH2 0x100 EXP SWAP1 DIV PUSH20 0xFFFFFFFFFFFFFFFFFFFFFFFFFFFFFFFFFFFFFFFF AND DUP2 JUMP JUMPDEST PUSH0 PUSH1 0x1 PUSH0 DUP4 PUSH20 0xFFFFFFFFFFFFFFFFFFFFFFFFFFFFFFFFFFFFFFFF AND PUSH20 0xFFFFFFFFFFFFFFFFFFFFFFFFFFFFFFFFFFFFFFFF AND DUP2 MSTORE PUSH1 0x20 ADD SWAP1 DUP2 MSTORE PUSH1 0x20 ADD PUSH0 KECCAK256 PUSH0 ADD PUSH0 SWAP1 SLOAD SWAP1 PUSH2 0x100 EXP SWAP1 DIV PUSH1 0xFF AND SWAP1 POP SWAP2 SWAP1 POP JUMP JUMPDEST PUSH2 0x1223 PUSH2 0x129F JUMP JUMPDEST PUSH0 PUSH20 0xFFFFFFFFFFFFFFFFFFFFFFFFFFFFFFFFFFFFFFFF AND DUP2 PUSH20 0xFFFFFFFFFFFFFFFFFFFFFFFFFFFFFFFFFFFFFFFF AND SUB PUSH2 0x1293 JUMPI PUSH0 PUSH1 0x40 MLOAD PUSH32 0x1E4FBDF700000000000000000000000000000000000000000000000000000000 DUP2 MSTORE PUSH1 0x4 ADD PUSH2 0x128A SWAP2 SWAP1 PUSH2 0x1808 JUMP JUMPDEST PUSH1 0x40 MLOAD DUP1 SWAP2 SUB SWAP1 REVERT JUMPDEST PUSH2 0x129C DUP2 PUSH2 0x1326 JUMP JUMPDEST POP JUMP JUMPDEST PUSH2 0x12A7 PUSH2 0x13E7 JUMP JUMPDEST PUSH20 0xFFFFFFFFFFFFFFFFFFFFFFFFFFFFFFFFFFFFFFFF AND PUSH2 0x12C5 PUSH2 0xE8D JUMP JUMPDEST PUSH20 0xFFFFFFFFFFFFFFFFFFFFFFFFFFFFFFFFFFFFFFFF AND EQ PUSH2 0x1324 JUMPI PUSH2 0x12E8 PUSH2 0x13E7 JUMP JUMPDEST PUSH1 0x40 MLOAD PUSH32 0x118CDAA700000000000000000000000000000000000000000000000000000000 DUP2 MSTORE PUSH1 0x4 ADD PUSH2 0x131B SWAP2 SWAP1 PUSH2 0x1808 JUMP JUMPDEST PUSH1 0x40 MLOAD DUP1 SWAP2 SUB SWAP1 REVERT JUMPDEST JUMP JUMPDEST PUSH0 DUP1 PUSH0 SWAP1 SLOAD SWAP1 PUSH2 0x100 EXP SWAP1 DIV PUSH20 0xFFFFFFFFFFFFFFFFFFFFFFFFFFFFFFFFFFFFFFFF AND SWAP1 POP DUP2 PUSH0 DUP1 PUSH2 0x100 EXP DUP2 SLOAD DUP2 PUSH20 0xFFFFFFFFFFFFFFFFFFFFFFFFFFFFFFFFFFFFFFFF MUL NOT AND SWAP1 DUP4 PUSH20 0xFFFFFFFFFFFFFFFFFFFFFFFFFFFFFFFFFFFFFFFF AND MUL OR SWAP1 SSTORE POP DUP2 PUSH20 0xFFFFFFFFFFFFFFFFFFFFFFFFFFFFFFFFFFFFFFFF AND DUP2 PUSH20 0xFFFFFFFFFFFFFFFFFFFFFFFFFFFFFFFFFFFFFFFF AND PUSH32 0x8BE0079C531659141344CD1FD0A4F28419497F9722A3DAAFE3B4186F6B6457E0 PUSH1 0x40 MLOAD PUSH1 0x40 MLOAD DUP1 SWAP2 SUB SWAP1 LOG3 POP POP JUMP JUMPDEST PUSH0 CALLER SWAP1 POP SWAP1 JUMP JUMPDEST DUP3 DUP1 SLOAD DUP3 DUP3 SSTORE SWAP1 PUSH0 MSTORE PUSH1 0x20 PUSH0 KECCAK256 SWAP1 DUP2 ADD SWAP3 DUP3 ISZERO PUSH2 0x1428 JUMPI SWAP2 PUSH1 0x20 MUL DUP3 ADD JUMPDEST DUP3 DUP2 GT ISZERO PUSH2 0x1427 JUMPI DUP3 CALLDATALOAD DUP3 SSTORE SWAP2 PUSH1 0x20 ADD SWAP2 SWAP1 PUSH1 0x1 ADD SWAP1 PUSH2 0x140C JUMP JUMPDEST JUMPDEST POP SWAP1 POP PUSH2 0x1435 SWAP2 SWAP1 PUSH2 0x1457 JUMP JUMPDEST POP SWAP1 JUMP JUMPDEST POP DUP1 SLOAD PUSH0 DUP3 SSTORE SWAP1 PUSH0 MSTORE PUSH1 0x20 PUSH0 KECCAK256 SWAP1 DUP2 ADD SWAP1 PUSH2 0x1454 SWAP2 SWAP1 PUSH2 0x1457 JUMP JUMPDEST POP JUMP JUMPDEST JUMPDEST DUP1 DUP3 GT ISZERO PUSH2 0x146E JUMPI PUSH0 DUP2 PUSH0 SWAP1 SSTORE POP PUSH1 0x1 ADD PUSH2 0x1458 JUMP JUMPDEST POP SWAP1 JUMP JUMPDEST PUSH0 DUP1 REVERT JUMPDEST PUSH0 DUP1 REVERT JUMPDEST PUSH0 PUSH20 0xFFFFFFFFFFFFFFFFFFFFFFFFFFFFFFFFFFFFFFFF DUP3 AND SWAP1 POP SWAP2 SWAP1 POP JUMP JUMPDEST PUSH0 PUSH2 0x14A3 DUP3 PUSH2 0x147A JUMP JUMPDEST SWAP1 POP SWAP2 SWAP1 POP JUMP JUMPDEST PUSH2 0x14B3 DUP2 PUSH2 0x1499 JUMP JUMPDEST DUP2 EQ PUSH2 0x14BD JUMPI PUSH0 DUP1 REVERT JUMPDEST POP JUMP JUMPDEST PUSH0 DUP2 CALLDATALOAD SWAP1 POP PUSH2 0x14CE DUP2 PUSH2 0x14AA JUMP JUMPDEST SWAP3 SWAP2 POP POP JUMP JUMPDEST PUSH0 DUP1 REVERT JUMPDEST PUSH0 DUP1 REVERT JUMPDEST PUSH0 DUP1 REVERT JUMPDEST PUSH0 DUP1 DUP4 PUSH1 0x1F DUP5 ADD SLT PUSH2 0x14F5 JUMPI PUSH2 0x14F4 PUSH2 0x14D4 JUMP JUMPDEST JUMPDEST DUP3 CALLDATALOAD SWAP1 POP PUSH8 0xFFFFFFFFFFFFFFFF DUP2 GT ISZERO PUSH2 0x1512 JUMPI PUSH2 0x1511 PUSH2 0x14D8 JUMP JUMPDEST JUMPDEST PUSH1 0x20 DUP4 ADD SWAP2 POP DUP4 PUSH1 0x20 DUP3 MUL DUP4 ADD GT ISZERO PUSH2 0x152E JUMPI PUSH2 0x152D PUSH2 0x14DC JUMP JUMPDEST JUMPDEST SWAP3 POP SWAP3 SWAP1 POP JUMP JUMPDEST PUSH0 DUP1 PUSH0 DUP1 PUSH1 0x60 DUP6 DUP8 SUB SLT ISZERO PUSH2 0x154D JUMPI PUSH2 0x154C PUSH2 0x1472 JUMP JUMPDEST JUMPDEST PUSH0 PUSH2 0x155A DUP8 DUP3 DUP9 ADD PUSH2 0x14C0 JUMP JUMPDEST SWAP5 POP POP PUSH1 0x20 PUSH2 0x156B DUP8 DUP3 DUP9 ADD PUSH2 0x14C0 JUMP JUMPDEST SWAP4 POP POP PUSH1 0x40 DUP6 ADD CALLDATALOAD PUSH8 0xFFFFFFFFFFFFFFFF DUP2 GT ISZERO PUSH2 0x158C JUMPI PUSH2 0x158B PUSH2 0x1476 JUMP JUMPDEST JUMPDEST PUSH2 0x1598 DUP8 DUP3 DUP9 ADD PUSH2 0x14E0 JUMP JUMPDEST SWAP3 POP SWAP3 POP POP SWAP3 SWAP6 SWAP2 SWAP5 POP SWAP3 POP JUMP JUMPDEST PUSH0 DUP2 ISZERO ISZERO SWAP1 POP SWAP2 SWAP1 POP JUMP JUMPDEST PUSH2 0x15BA DUP2 PUSH2 0x15A6 JUMP JUMPDEST DUP3 MSTORE POP POP JUMP JUMPDEST PUSH0 PUSH1 0x20 DUP3 ADD SWAP1 POP PUSH2 0x15D3 PUSH0 DUP4 ADD DUP5 PUSH2 0x15B1 JUMP JUMPDEST SWAP3 SWAP2 POP POP JUMP JUMPDEST PUSH0 DUP1 PUSH1 0x40 DUP4 DUP6 SUB SLT ISZERO PUSH2 0x15EF JUMPI PUSH2 0x15EE PUSH2 0x1472 JUMP JUMPDEST JUMPDEST PUSH0 PUSH2 0x15FC DUP6 DUP3 DUP7 ADD PUSH2 0x14C0 JUMP JUMPDEST SWAP3 POP POP PUSH1 0x20 PUSH2 0x160D DUP6 DUP3 DUP7 ADD PUSH2 0x14C0 JUMP JUMPDEST SWAP2 POP POP SWAP3 POP SWAP3 SWAP1 POP JUMP JUMPDEST PUSH0 DUP2 MLOAD SWAP1 POP SWAP2 SWAP1 POP JUMP JUMPDEST PUSH0 DUP3 DUP3 MSTORE PUSH1 0x20 DUP3 ADD SWAP1 POP SWAP3 SWAP2 POP POP JUMP JUMPDEST PUSH0 DUP2 SWAP1 POP PUSH1 0x20 DUP3 ADD SWAP1 POP SWAP2 SWAP1 POP JUMP JUMPDEST PUSH0 DUP2 SWAP1 POP SWAP2 SWAP1 POP JUMP JUMPDEST PUSH2 0x1652 DUP2 PUSH2 0x1640 JUMP JUMPDEST DUP3 MSTORE POP POP JUMP JUMPDEST PUSH0 PUSH2 0x1663 DUP4 DUP4 PUSH2 0x1649 JUMP JUMPDEST PUSH1 0x20 DUP4 ADD SWAP1 POP SWAP3 SWAP2 POP POP JUMP JUMPDEST PUSH0 PUSH1 0x20 DUP3 ADD SWAP1 POP SWAP2 SWAP1 POP JUMP JUMPDEST PUSH0 PUSH2 0x1685 DUP3 PUSH2 0x1617 JUMP JUMPDEST PUSH2 0x168F DUP2 DUP6 PUSH2 0x1621 JUMP JUMPDEST SWAP4 POP PUSH2 0x169A DUP4 PUSH2 0x1631 JUMP JUMPDEST DUP1 PUSH0 JUMPDEST DUP4 DUP2 LT ISZERO PUSH2 0x16CA JUMPI DUP2 MLOAD PUSH2 0x16B1 DUP9 DUP3 PUSH2 0x1658 JUMP JUMPDEST SWAP8 POP PUSH2 0x16BC DUP4 PUSH2 0x166F JUMP JUMPDEST SWAP3 POP POP PUSH1 0x1 DUP2 ADD SWAP1 POP PUSH2 0x169D JUMP JUMPDEST POP DUP6 SWAP4 POP POP POP POP SWAP3 SWAP2 POP POP JUMP JUMPDEST PUSH0 PUSH1 0x20 DUP3 ADD SWAP1 POP DUP2 DUP2 SUB PUSH0 DUP4 ADD MSTORE PUSH2 0x16EF DUP2 DUP5 PUSH2 0x167B JUMP JUMPDEST SWAP1 POP SWAP3 SWAP2 POP POP JUMP JUMPDEST PUSH0 PUSH1 0x20 DUP3 DUP5 SUB SLT ISZERO PUSH2 0x170C JUMPI PUSH2 0x170B PUSH2 0x1472 JUMP JUMPDEST JUMPDEST PUSH0 PUSH2 0x1719 DUP5 DUP3 DUP6 ADD PUSH2 0x14C0 JUMP JUMPDEST SWAP2 POP POP SWAP3 SWAP2 POP POP JUMP JUMPDEST PUSH0 DUP2 MLOAD SWAP1 POP SWAP2 SWAP1 POP JUMP JUMPDEST PUSH0 DUP3 DUP3 MSTORE PUSH1 0x20 DUP3 ADD SWAP1 POP SWAP3 SWAP2 POP POP JUMP JUMPDEST PUSH0 DUP2 SWAP1 POP PUSH1 0x20 DUP3 ADD SWAP1 POP SWAP2 SWAP1 POP JUMP JUMPDEST PUSH2 0x1754 DUP2 PUSH2 0x1499 JUMP JUMPDEST DUP3 MSTORE POP POP JUMP JUMPDEST PUSH0 PUSH2 0x1765 DUP4 DUP4 PUSH2 0x174B JUMP JUMPDEST PUSH1 0x20 DUP4 ADD SWAP1 POP SWAP3 SWAP2 POP POP JUMP JUMPDEST PUSH0 PUSH1 0x20 DUP3 ADD SWAP1 POP SWAP2 SWAP1 POP JUMP JUMPDEST PUSH0 PUSH2 0x1787 DUP3 PUSH2 0x1722 JUMP JUMPDEST PUSH2 0x1791 DUP2 DUP6 PUSH2 0x172C JUMP JUMPDEST SWAP4 POP PUSH2 0x179C DUP4 PUSH2 0x173C JUMP JUMPDEST DUP1 PUSH0 JUMPDEST DUP4 DUP2 LT ISZERO PUSH2 0x17CC JUMPI DUP2 MLOAD PUSH2 0x17B3 DUP9 DUP3 PUSH2 0x175A JUMP JUMPDEST SWAP8 POP PUSH2 0x17BE DUP4 PUSH2 0x1771 JUMP JUMPDEST SWAP3 POP POP PUSH1 0x1 DUP2 ADD SWAP1 POP PUSH2 0x179F JUMP JUMPDEST POP DUP6 SWAP4 POP POP POP POP SWAP3 SWAP2 POP POP JUMP JUMPDEST PUSH0 PUSH1 0x20 DUP3 ADD SWAP1 POP DUP2 DUP2 SUB PUSH0 DUP4 ADD MSTORE PUSH2 0x17F1 DUP2 DUP5 PUSH2 0x177D JUMP JUMPDEST SWAP1 POP SWAP3 SWAP2 POP POP JUMP JUMPDEST PUSH2 0x1802 DUP2 PUSH2 0x1499 JUMP JUMPDEST DUP3 MSTORE POP POP JUMP JUMPDEST PUSH0 PUSH1 0x20 DUP3 ADD SWAP1 POP PUSH2 0x181B PUSH0 DUP4 ADD DUP5 PUSH2 0x17F9 JUMP JUMPDEST SWAP3 SWAP2 POP POP JUMP JUMPDEST PUSH0 DUP2 SWAP1 POP SWAP2 SWAP1 POP JUMP JUMPDEST PUSH2 0x1833 DUP2 PUSH2 0x1821 JUMP JUMPDEST DUP2 EQ PUSH2 0x183D JUMPI PUSH0 DUP1 REVERT JUMPDEST POP JUMP JUMPDEST PUSH0 DUP2 CALLDATALOAD SWAP1 POP PUSH2 0x184E DUP2 PUSH2 0x182A JUMP JUMPDEST SWAP3 SWAP2 POP POP JUMP JUMPDEST PUSH0 PUSH1 0x20 DUP3 DUP5 SUB SLT ISZERO PUSH2 0x1869 JUMPI PUSH2 0x1868 PUSH2 0x1472 JUMP JUMPDEST JUMPDEST PUSH0 PUSH2 0x1876 DUP5 DUP3 DUP6 ADD PUSH2 0x1840 JUMP JUMPDEST SWAP2 POP POP SWAP3 SWAP2 POP POP JUMP JUMPDEST PUSH32 0x4E487B7100000000000000000000000000000000000000000000000000000000 PUSH0 MSTORE PUSH1 0x32 PUSH1 0x4 MSTORE PUSH1 0x24 PUSH0 REVERT JUMPDEST PUSH0 DUP3 DUP3 MSTORE PUSH1 0x20 DUP3 ADD SWAP1 POP SWAP3 SWAP2 POP POP JUMP JUMPDEST PUSH32 0x47616D65206E6F74207265676973746572656400000000000000000000000000 PUSH0 DUP3 ADD MSTORE POP JUMP JUMPDEST PUSH0 PUSH2 0x18F0 PUSH1 0x13 DUP4 PUSH2 0x18AC JUMP JUMPDEST SWAP2 POP PUSH2 0x18FB DUP3 PUSH2 0x18BC JUMP JUMPDEST PUSH1 0x20 DUP3 ADD SWAP1 POP SWAP2 SWAP1 POP JUMP JUMPDEST PUSH0 PUSH1 0x20 DUP3 ADD SWAP1 POP DUP2 DUP2 SUB PUSH0 DUP4 ADD MSTORE PUSH2 0x191D DUP2 PUSH2 0x18E4 JUMP JUMPDEST SWAP1 POP SWAP2 SWAP1 POP JUMP JUMPDEST PUSH32 0x4173736574206E6F74207265676973746572656420666F722067616D65000000 PUSH0 DUP3 ADD MSTORE POP JUMP JUMPDEST PUSH0 PUSH2 0x1958 PUSH1 0x1D DUP4 PUSH2 0x18AC JUMP JUMPDEST SWAP2 POP PUSH2 0x1963 DUP3 PUSH2 0x1924 JUMP JUMPDEST PUSH1 0x20 DUP3 ADD SWAP1 POP SWAP2 SWAP1 POP JUMP JUMPDEST PUSH0 PUSH1 0x20 DUP3 ADD SWAP1 POP DUP2 DUP2 SUB PUSH0 DUP4 ADD MSTORE PUSH2 0x1985 DUP2 PUSH2 0x194C JUMP JUMPDEST SWAP1 POP SWAP2 SWAP1 POP JUMP JUMPDEST PUSH32 0x4E487B7100000000000000000000000000000000000000000000000000000000 PUSH0 MSTORE PUSH1 0x11 PUSH1 0x4 MSTORE PUSH1 0x24 PUSH0 REVERT JUMPDEST PUSH0 PUSH2 0x19C3 DUP3 PUSH2 0x1821 JUMP JUMPDEST SWAP2 POP PUSH32 0xFFFFFFFFFFFFFFFFFFFFFFFFFFFFFFFFFFFFFFFFFFFFFFFFFFFFFFFFFFFFFFFF DUP3 SUB PUSH2 0x19F5 JUMPI PUSH2 0x19F4 PUSH2 0x198C JUMP JUMPDEST JUMPDEST PUSH1 0x1 DUP3 ADD SWAP1 POP SWAP2 SWAP1 POP JUMP JUMPDEST PUSH32 0x4E487B7100000000000000000000000000000000000000000000000000000000 PUSH0 MSTORE PUSH1 0x41 PUSH1 0x4 MSTORE PUSH1 0x24 PUSH0 REVERT JUMPDEST PUSH32 0x496E76616C696420617373657420636F6E747261637400000000000000000000 PUSH0 DUP3 ADD MSTORE POP JUMP JUMPDEST PUSH0 PUSH2 0x1A61 PUSH1 0x16 DUP4 PUSH2 0x18AC JUMP JUMPDEST SWAP2 POP PUSH2 0x1A6C DUP3 PUSH2 0x1A2D JUMP JUMPDEST PUSH1 0x20 DUP3 ADD SWAP1 POP SWAP2 SWAP1 POP JUMP JUMPDEST PUSH0 PUSH1 0x20 DUP3 ADD SWAP1 POP DUP2 DUP2 SUB PUSH0 DUP4 ADD MSTORE PUSH2 0x1A8E DUP2 PUSH2 0x1A55 JUMP JUMPDEST SWAP1 POP SWAP2 SWAP1 POP JUMP JUMPDEST PUSH32 0x4E6F206174747269627574657320737065636966696564000000000000000000 PUSH0 DUP3 ADD MSTORE POP JUMP JUMPDEST PUSH0 PUSH2 0x1AC9 PUSH1 0x17 DUP4 PUSH2 0x18AC JUMP JUMPDEST SWAP2 POP PUSH2 0x1AD4 DUP3 PUSH2 0x1A95 JUMP JUMPDEST PUSH1 0x20 DUP3 ADD SWAP1 POP SWAP2 SWAP1 POP JUMP JUMPDEST PUSH0 PUSH1 0x20 DUP3 ADD SWAP1 POP DUP2 DUP2 SUB PUSH0 DUP4 ADD MSTORE PUSH2 0x1AF6 DUP2 PUSH2 0x1ABD JUMP JUMPDEST SWAP1 POP SWAP2 SWAP1 POP JUMP JUMPDEST PUSH0 DUP1 REVERT JUMPDEST DUP3 DUP2 DUP4 CALLDATACOPY POP POP POP JUMP JUMPDEST PUSH0 PUSH2 0x1B15 DUP4 DUP6 PUSH2 0x1621 JUMP JUMPDEST SWAP4 POP PUSH32 0x7FFFFFFFFFFFFFFFFFFFFFFFFFFFFFFFFFFFFFFFFFFFFFFFFFFFFFFFFFFFFFF DUP4 GT ISZERO PUSH2 0x1B48 JUMPI PUSH2 0x1B47 PUSH2 0x1AFD JUMP JUMPDEST JUMPDEST PUSH1 0x20 DUP4 MUL SWAP3 POP PUSH2 0x1B59 DUP4 DUP6 DUP5 PUSH2 0x1B01 JUMP JUMPDEST DUP3 DUP5 ADD SWAP1 POP SWAP4 SWAP3 POP POP POP JUMP JUMPDEST PUSH0 PUSH1 0x20 DUP3 ADD SWAP1 POP DUP2 DUP2 SUB PUSH0 DUP4 ADD MSTORE PUSH2 0x1B7E DUP2 DUP5 DUP7 PUSH2 0x1B0A JUMP JUMPDEST SWAP1 POP SWAP4 SWAP3 POP POP POP JUMP JUMPDEST PUSH32 0x496E76616C69642067616D652061646472657373000000000000000000000000 PUSH0 DUP3 ADD MSTORE POP JUMP JUMPDEST PUSH0 PUSH2 0x1BBB PUSH1 0x14 DUP4 PUSH2 0x18AC JUMP JUMPDEST SWAP2 POP PUSH2 0x1BC6 DUP3 PUSH2 0x1B87 JUMP JUMPDEST PUSH1 0x20 DUP3 ADD SWAP1 POP SWAP2 SWAP1 POP JUMP JUMPDEST PUSH0 PUSH1 0x20 DUP3 ADD SWAP1 POP DUP2 DUP2 SUB PUSH0 DUP4 ADD MSTORE PUSH2 0x1BE8 DUP2 PUSH2 0x1BAF JUMP JUMPDEST SWAP1 POP SWAP2 SWAP1 POP JUMP JUMPDEST PUSH32 0x47616D6520616C72656164792072656769737465726564000000000000000000 PUSH0 DUP3 ADD MSTORE POP JUMP JUMPDEST PUSH0 PUSH2 0x1C23 PUSH1 0x17 DUP4 PUSH2 0x18AC JUMP JUMPDEST SWAP2 POP PUSH2 0x1C2E DUP3 PUSH2 0x1BEF JUMP JUMPDEST PUSH1 0x20 DUP3 ADD SWAP1 POP SWAP2 SWAP1 POP JUMP JUMPDEST PUSH0 PUSH1 0x20 DUP3 ADD SWAP1 POP DUP2 DUP2 SUB PUSH0 DUP4 ADD MSTORE PUSH2 0x1C50 DUP2 PUSH2 0x1C17 JUMP JUMPDEST SWAP1 POP SWAP2 SWAP1 POP JUMP INVALID LOG2 PUSH5 0x6970667358 0x22 SLT KECCAK256 0xBB PUSH15 0x151A27A9DD7F9F86F1321E922261E0 0x29 CALLCODE 0xDF 0xD2 0xCE CODESIZE 0xB0 CALL 0x4B 0xE PUSH26 0x927FBBB864736F6C634300081A00330000000000000000000000 "
				},
				"gasEstimates": {
					"creation": {
						"codeDepositCost": "1461800",
						"executionCost": "infinite",
						"totalCost": "infinite"
					},
					"external": {
						"getGameAssetContracts(address)": "infinite",
						"getGamePermissions(address,address)": "infinite",
						"grantAssetPermission(address,address,bytes32[])": "infinite",
						"hasPermissions(address,address,bytes32[])": "infinite",
						"isGameRegistered(address)": "2963",
						"owner()": "2537",
						"registerGame(address)": "infinite",
						"registeredGames(uint256)": "5010",
						"renounceOwnership()": "infinite",
						"revokeAssetPermission(address,address)": "infinite",
						"transferOwnership(address)": "infinite"
					}
				},
				"methodIdentifiers": {
					"getGameAssetContracts(address)": "57f623d0",
					"getGamePermissions(address,address)": "53c02924",
					"grantAssetPermission(address,address,bytes32[])": "64462142",
					"hasPermissions(address,address,bytes32[])": "36e9b39a",
					"isGameRegistered(address)": "ee658e45",
					"owner()": "8da5cb5b",
					"registerGame(address)": "9b36057c",
					"registeredGames(uint256)": "9e3c5a72",
					"renounceOwnership()": "715018a6",
					"revokeAssetPermission(address,address)": "6f6145f0",
					"transferOwnership(address)": "f2fde38b"
				}
			},
			"storageLayout": {
				"storage": [
					{
						"astId": 8,
						"contract": "contracts/lib/GameRegistry.sol:GameRegistry",
						"label": "_owner",
						"offset": 0,
						"slot": "0",
						"type": "t_address"
					},
					{
						"astId": 557,
						"contract": "contracts/lib/GameRegistry.sol:GameRegistry",
						"label": "games",
						"offset": 0,
						"slot": "1",
						"type": "t_mapping(t_address,t_struct(GameData)552_storage)"
					},
					{
						"astId": 560,
						"contract": "contracts/lib/GameRegistry.sol:GameRegistry",
						"label": "registeredGames",
						"offset": 0,
						"slot": "2",
						"type": "t_array(t_address)dyn_storage"
					}
				],
				"types": {
					"t_address": {
						"encoding": "inplace",
						"label": "address",
						"numberOfBytes": "20"
					},
					"t_array(t_address)dyn_storage": {
						"base": "t_address",
						"encoding": "dynamic_array",
						"label": "address[]",
						"numberOfBytes": "32"
					},
					"t_array(t_bytes32)dyn_storage": {
						"base": "t_bytes32",
						"encoding": "dynamic_array",
						"label": "bytes32[]",
						"numberOfBytes": "32"
					},
					"t_bool": {
						"encoding": "inplace",
						"label": "bool",
						"numberOfBytes": "1"
					},
					"t_bytes32": {
						"encoding": "inplace",
						"label": "bytes32",
						"numberOfBytes": "32"
					},
					"t_mapping(t_address,t_struct(AssetPermission)540_storage)": {
						"encoding": "mapping",
						"key": "t_address",
						"label": "mapping(address => struct GameRegistry.AssetPermission)",
						"numberOfBytes": "32",
						"value": "t_struct(AssetPermission)540_storage"
					},
					"t_mapping(t_address,t_struct(GameData)552_storage)": {
						"encoding": "mapping",
						"key": "t_address",
						"label": "mapping(address => struct GameRegistry.GameData)",
						"numberOfBytes": "32",
						"value": "t_struct(GameData)552_storage"
					},
					"t_struct(AssetPermission)540_storage": {
						"encoding": "inplace",
						"label": "struct GameRegistry.AssetPermission",
						"members": [
							{
								"astId": 536,
								"contract": "contracts/lib/GameRegistry.sol:GameRegistry",
								"label": "isRegistered",
								"offset": 0,
								"slot": "0",
								"type": "t_bool"
							},
							{
								"astId": 539,
								"contract": "contracts/lib/GameRegistry.sol:GameRegistry",
								"label": "allowedAttributes",
								"offset": 0,
								"slot": "1",
								"type": "t_array(t_bytes32)dyn_storage"
							}
						],
						"numberOfBytes": "64"
					},
					"t_struct(GameData)552_storage": {
						"encoding": "inplace",
						"label": "struct GameRegistry.GameData",
						"members": [
							{
								"astId": 542,
								"contract": "contracts/lib/GameRegistry.sol:GameRegistry",
								"label": "isRegistered",
								"offset": 0,
								"slot": "0",
								"type": "t_bool"
							},
							{
								"astId": 547,
								"contract": "contracts/lib/GameRegistry.sol:GameRegistry",
								"label": "assetPermissions",
								"offset": 0,
								"slot": "1",
								"type": "t_mapping(t_address,t_struct(AssetPermission)540_storage)"
							},
							{
								"astId": 549,
								"contract": "contracts/lib/GameRegistry.sol:GameRegistry",
								"label": "registrationTime",
								"offset": 0,
								"slot": "2",
								"type": "t_uint256"
							},
							{
								"astId": 551,
								"contract": "contracts/lib/GameRegistry.sol:GameRegistry",
								"label": "registeredBy",
								"offset": 0,
								"slot": "3",
								"type": "t_address"
							}
						],
						"numberOfBytes": "128"
					},
					"t_uint256": {
						"encoding": "inplace",
						"label": "uint256",
						"numberOfBytes": "32"
					}
				}
			},
			"userdoc": {
				"kind": "user",
				"methods": {
					"getGameAssetContracts(address)": {
						"notice": "Get all asset contracts a game has permissions for"
					},
					"getGamePermissions(address,address)": {
						"notice": "Get allowed attributes for a game and asset contract"
					},
					"grantAssetPermission(address,address,bytes32[])": {
						"notice": "Grant permission to a game for specific asset contract attributes"
					},
					"hasPermissions(address,address,bytes32[])": {
						"notice": "Check if a game has permission for specific attributes on an asset contract"
					},
					"isGameRegistered(address)": {
						"notice": "Check if a game is registered"
					},
					"registerGame(address)": {
						"notice": "Register a new game"
					},
					"revokeAssetPermission(address,address)": {
						"notice": "Revoke a game's permission for an asset contract"
					}
				},
				"version": 1
			}
		}
	}
}