{
	"contracts/lib/GameRegistry.sol": {
		"GameRegistry": {
			"abi": [
				{
					"inputs": [],
					"stateMutability": "nonpayable",
					"type": "constructor"
				},
				{
					"inputs": [
						{
							"internalType": "address",
							"name": "owner",
							"type": "address"
						}
					],
					"name": "OwnableInvalidOwner",
					"type": "error"
				},
				{
					"inputs": [
						{
							"internalType": "address",
							"name": "account",
							"type": "address"
						}
					],
					"name": "OwnableUnauthorizedAccount",
					"type": "error"
				},
				{
					"anonymous": false,
					"inputs": [
						{
							"indexed": true,
							"internalType": "address",
							"name": "game",
							"type": "address"
						},
						{
							"indexed": false,
							"internalType": "bytes32[]",
							"name": "attributes",
							"type": "bytes32[]"
						}
					],
					"name": "AttributesUpdated",
					"type": "event"
				},
				{
					"anonymous": false,
					"inputs": [
						{
							"indexed": true,
							"internalType": "address",
							"name": "game",
							"type": "address"
						},
						{
							"indexed": true,
							"internalType": "address",
							"name": "registeredBy",
							"type": "address"
						},
						{
							"indexed": false,
							"internalType": "bytes32[]",
							"name": "attributes",
							"type": "bytes32[]"
						}
					],
					"name": "GameRegistered",
					"type": "event"
				},
				{
					"anonymous": false,
					"inputs": [
						{
							"indexed": true,
							"internalType": "address",
							"name": "game",
							"type": "address"
						},
						{
							"indexed": true,
							"internalType": "address",
							"name": "unregisteredBy",
							"type": "address"
						}
					],
					"name": "GameUnregistered",
					"type": "event"
				},
				{
					"anonymous": false,
					"inputs": [
						{
							"indexed": true,
							"internalType": "address",
							"name": "previousOwner",
							"type": "address"
						},
						{
							"indexed": true,
							"internalType": "address",
							"name": "newOwner",
							"type": "address"
						}
					],
					"name": "OwnershipTransferred",
					"type": "event"
				},
				{
					"inputs": [],
					"name": "getAllRegisteredGames",
					"outputs": [
						{
							"internalType": "address[]",
							"name": "",
							"type": "address[]"
						}
					],
					"stateMutability": "view",
					"type": "function"
				},
				{
					"inputs": [
						{
							"internalType": "address",
							"name": "game",
							"type": "address"
						}
					],
					"name": "getGameData",
					"outputs": [
						{
							"internalType": "bool",
							"name": "isRegistered",
							"type": "bool"
						},
						{
							"internalType": "bytes32[]",
							"name": "attributes",
							"type": "bytes32[]"
						},
						{
							"internalType": "uint256",
							"name": "registrationTime",
							"type": "uint256"
						},
						{
							"internalType": "address",
							"name": "registeredBy",
							"type": "address"
						}
					],
					"stateMutability": "view",
					"type": "function"
				},
				{
					"inputs": [
						{
							"internalType": "address",
							"name": "game",
							"type": "address"
						}
					],
					"name": "getGamePermissions",
					"outputs": [
						{
							"internalType": "bytes32[]",
							"name": "",
							"type": "bytes32[]"
						}
					],
					"stateMutability": "view",
					"type": "function"
				},
				{
					"inputs": [
						{
							"internalType": "address",
							"name": "game",
							"type": "address"
						},
						{
							"internalType": "bytes32[]",
							"name": "attributes",
							"type": "bytes32[]"
						}
					],
					"name": "hasPermissions",
					"outputs": [
						{
							"internalType": "bool",
							"name": "",
							"type": "bool"
						}
					],
					"stateMutability": "view",
					"type": "function"
				},
				{
					"inputs": [
						{
							"internalType": "address",
							"name": "game",
							"type": "address"
						}
					],
					"name": "isGameRegistered",
					"outputs": [
						{
							"internalType": "bool",
							"name": "",
							"type": "bool"
						}
					],
					"stateMutability": "view",
					"type": "function"
				},
				{
					"inputs": [],
					"name": "owner",
					"outputs": [
						{
							"internalType": "address",
							"name": "",
							"type": "address"
						}
					],
					"stateMutability": "view",
					"type": "function"
				},
				{
					"inputs": [
						{
							"internalType": "address",
							"name": "game",
							"type": "address"
						},
						{
							"internalType": "bytes32[]",
							"name": "attributes",
							"type": "bytes32[]"
						}
					],
					"name": "registerGame",
					"outputs": [],
					"stateMutability": "nonpayable",
					"type": "function"
				},
				{
					"inputs": [
						{
							"internalType": "uint256",
							"name": "",
							"type": "uint256"
						}
					],
					"name": "registeredGames",
					"outputs": [
						{
							"internalType": "address",
							"name": "",
							"type": "address"
						}
					],
					"stateMutability": "view",
					"type": "function"
				},
				{
					"inputs": [],
					"name": "renounceOwnership",
					"outputs": [],
					"stateMutability": "nonpayable",
					"type": "function"
				},
				{
					"inputs": [
						{
							"internalType": "address",
							"name": "newOwner",
							"type": "address"
						}
					],
					"name": "transferOwnership",
					"outputs": [],
					"stateMutability": "nonpayable",
					"type": "function"
				},
				{
					"inputs": [
						{
							"internalType": "address",
							"name": "game",
							"type": "address"
						}
					],
					"name": "unregisterGame",
					"outputs": [],
					"stateMutability": "nonpayable",
					"type": "function"
				},
				{
					"inputs": [
						{
							"internalType": "address",
							"name": "game",
							"type": "address"
						},
						{
							"internalType": "bytes32[]",
							"name": "attributes",
							"type": "bytes32[]"
						}
					],
					"name": "updateGameAttributes",
					"outputs": [],
					"stateMutability": "nonpayable",
					"type": "function"
				}
			],
			"devdoc": {
				"details": "Implementation of IGameRegistry for managing game registrations and permissions",
				"errors": {
					"OwnableInvalidOwner(address)": [
						{
							"details": "The owner is not a valid owner account. (eg. `address(0)`)"
						}
					],
					"OwnableUnauthorizedAccount(address)": [
						{
							"details": "The caller account is not authorized to perform an operation."
						}
					]
				},
				"kind": "dev",
				"methods": {
					"getAllRegisteredGames()": {
						"returns": {
							"_0": "Array of registered game addresses"
						}
					},
					"getGameData(address)": {
						"params": {
							"game": "Address of the game contract"
						},
						"returns": {
							"attributes": "Allowed attributes",
							"isRegistered": "Registration status",
							"registeredBy": "Address that registered the game",
							"registrationTime": "Time of registration"
						}
					},
					"getGamePermissions(address)": {
						"params": {
							"game": "Address of the game contract"
						},
						"returns": {
							"_0": "Array of attribute IDs the game can modify"
						}
					},
					"hasPermissions(address,bytes32[])": {
						"params": {
							"attributes": "Attributes to check",
							"game": "Address of the game contract"
						},
						"returns": {
							"_0": "bool indicating if the game has permission for all attributes"
						}
					},
					"isGameRegistered(address)": {
						"params": {
							"game": "Address of the game contract"
						},
						"returns": {
							"_0": "bool indicating if the game is registered"
						}
					},
					"owner()": {
						"details": "Returns the address of the current owner."
					},
					"registerGame(address,bytes32[])": {
						"params": {
							"attributes": "List of attributes the game can modify",
							"game": "Address of the game contract"
						}
					},
					"renounceOwnership()": {
						"details": "Leaves the contract without owner. It will not be possible to call `onlyOwner` functions. Can only be called by the current owner. NOTE: Renouncing ownership will leave the contract without an owner, thereby disabling any functionality that is only available to the owner."
					},
					"transferOwnership(address)": {
						"details": "Transfers ownership of the contract to a new account (`newOwner`). Can only be called by the current owner."
					},
					"unregisterGame(address)": {
						"params": {
							"game": "Address of the game contract to unregister"
						}
					},
					"updateGameAttributes(address,bytes32[])": {
						"params": {
							"attributes": "New list of allowed attributes",
							"game": "Address of the game contract"
						}
					}
				},
				"title": "GameRegistry",
				"version": 1
			},
			"evm": {
				"assembly": "    /* \"contracts/lib/GameRegistry.sol\":260:5507  contract GameRegistry is IGameRegistry, Ownable {... */\n  mstore(0x40, 0x80)\n    /* \"contracts/lib/GameRegistry.sol\":720:755  constructor() Ownable(msg.sender){} */\n  callvalue\n  dup1\n  iszero\n  tag_1\n  jumpi\n  0x00\n  dup1\n  revert\ntag_1:\n  pop\n    /* \"contracts/lib/GameRegistry.sol\":742:752  msg.sender */\n  caller\n    /* \"@openzeppelin/contracts/access/Ownable.sol\":1297:1298  0 */\n  0x00\n    /* \"@openzeppelin/contracts/access/Ownable.sol\":1273:1299  initialOwner == address(0) */\n  0xffffffffffffffffffffffffffffffffffffffff\n  and\n    /* \"@openzeppelin/contracts/access/Ownable.sol\":1273:1285  initialOwner */\n  dup2\n    /* \"@openzeppelin/contracts/access/Ownable.sol\":1273:1299  initialOwner == address(0) */\n  0xffffffffffffffffffffffffffffffffffffffff\n  and\n  sub\n    /* \"@openzeppelin/contracts/access/Ownable.sol\":1269:1364  if (initialOwner == address(0)) {... */\n  tag_5\n  jumpi\n    /* \"@openzeppelin/contracts/access/Ownable.sol\":1350:1351  0 */\n  0x00\n    /* \"@openzeppelin/contracts/access/Ownable.sol\":1322:1353  OwnableInvalidOwner(address(0)) */\n  mload(0x40)\n  0x1e4fbdf700000000000000000000000000000000000000000000000000000000\n  dup2\n  mstore\n  0x04\n  add\n  tag_6\n  swap2\n  swap1\n  tag_7\n  jump\t// in\ntag_6:\n  mload(0x40)\n  dup1\n  swap2\n  sub\n  swap1\n  revert\n    /* \"@openzeppelin/contracts/access/Ownable.sol\":1269:1364  if (initialOwner == address(0)) {... */\ntag_5:\n    /* \"@openzeppelin/contracts/access/Ownable.sol\":1373:1405  _transferOwnership(initialOwner) */\n  tag_8\n    /* \"@openzeppelin/contracts/access/Ownable.sol\":1392:1404  initialOwner */\n  dup2\n    /* \"@openzeppelin/contracts/access/Ownable.sol\":1373:1391  _transferOwnership */\n  shl(0x20, tag_9)\n    /* \"@openzeppelin/contracts/access/Ownable.sol\":1373:1405  _transferOwnership(initialOwner) */\n  0x20\n  shr\n  jump\t// in\ntag_8:\n    /* \"@openzeppelin/contracts/access/Ownable.sol\":1225:1412  constructor(address initialOwner) {... */\n  pop\n    /* \"contracts/lib/GameRegistry.sol\":260:5507  contract GameRegistry is IGameRegistry, Ownable {... */\n  jump(tag_11)\n    /* \"@openzeppelin/contracts/access/Ownable.sol\":2912:3099  function _transferOwnership(address newOwner) internal virtual {... */\ntag_9:\n    /* \"@openzeppelin/contracts/access/Ownable.sol\":2985:3001  address oldOwner */\n  0x00\n    /* \"@openzeppelin/contracts/access/Ownable.sol\":3004:3010  _owner */\n  dup1\n  0x00\n  swap1\n  sload\n  swap1\n  0x0100\n  exp\n  swap1\n  div\n  0xffffffffffffffffffffffffffffffffffffffff\n  and\n    /* \"@openzeppelin/contracts/access/Ownable.sol\":2985:3010  address oldOwner = _owner */\n  swap1\n  pop\n    /* \"@openzeppelin/contracts/access/Ownable.sol\":3029:3037  newOwner */\n  dup2\n    /* \"@openzeppelin/contracts/access/Ownable.sol\":3020:3026  _owner */\n  0x00\n  dup1\n    /* \"@openzeppelin/contracts/access/Ownable.sol\":3020:3037  _owner = newOwner */\n  0x0100\n  exp\n  dup2\n  sload\n  dup2\n  0xffffffffffffffffffffffffffffffffffffffff\n  mul\n  not\n  and\n  swap1\n  dup4\n  0xffffffffffffffffffffffffffffffffffffffff\n  and\n  mul\n  or\n  swap1\n  sstore\n  pop\n    /* \"@openzeppelin/contracts/access/Ownable.sol\":3083:3091  newOwner */\n  dup2\n    /* \"@openzeppelin/contracts/access/Ownable.sol\":3052:3092  OwnershipTransferred(oldOwner, newOwner) */\n  0xffffffffffffffffffffffffffffffffffffffff\n  and\n    /* \"@openzeppelin/contracts/access/Ownable.sol\":3073:3081  oldOwner */\n  dup2\n    /* \"@openzeppelin/contracts/access/Ownable.sol\":3052:3092  OwnershipTransferred(oldOwner, newOwner) */\n  0xffffffffffffffffffffffffffffffffffffffff\n  and\n  0x8be0079c531659141344cd1fd0a4f28419497f9722a3daafe3b4186f6b6457e0\n  mload(0x40)\n  mload(0x40)\n  dup1\n  swap2\n  sub\n  swap1\n  log3\n    /* \"@openzeppelin/contracts/access/Ownable.sol\":2975:3099  {... */\n  pop\n    /* \"@openzeppelin/contracts/access/Ownable.sol\":2912:3099  function _transferOwnership(address newOwner) internal virtual {... */\n  pop\n  jump\t// out\n    /* \"#utility.yul\":7:133   */\ntag_13:\n    /* \"#utility.yul\":44:51   */\n  0x00\n    /* \"#utility.yul\":84:126   */\n  0xffffffffffffffffffffffffffffffffffffffff\n    /* \"#utility.yul\":77:82   */\n  dup3\n    /* \"#utility.yul\":73:127   */\n  and\n    /* \"#utility.yul\":62:127   */\n  swap1\n  pop\n    /* \"#utility.yul\":7:133   */\n  swap2\n  swap1\n  pop\n  jump\t// out\n    /* \"#utility.yul\":139:235   */\ntag_14:\n    /* \"#utility.yul\":176:183   */\n  0x00\n    /* \"#utility.yul\":205:229   */\n  tag_19\n    /* \"#utility.yul\":223:228   */\n  dup3\n    /* \"#utility.yul\":205:229   */\n  tag_13\n  jump\t// in\ntag_19:\n    /* \"#utility.yul\":194:229   */\n  swap1\n  pop\n    /* \"#utility.yul\":139:235   */\n  swap2\n  swap1\n  pop\n  jump\t// out\n    /* \"#utility.yul\":241:359   */\ntag_15:\n    /* \"#utility.yul\":328:352   */\n  tag_21\n    /* \"#utility.yul\":346:351   */\n  dup2\n    /* \"#utility.yul\":328:352   */\n  tag_14\n  jump\t// in\ntag_21:\n    /* \"#utility.yul\":323:326   */\n  dup3\n    /* \"#utility.yul\":316:353   */\n  mstore\n    /* \"#utility.yul\":241:359   */\n  pop\n  pop\n  jump\t// out\n    /* \"#utility.yul\":365:587   */\ntag_7:\n    /* \"#utility.yul\":458:462   */\n  0x00\n    /* \"#utility.yul\":496:498   */\n  0x20\n    /* \"#utility.yul\":485:494   */\n  dup3\n    /* \"#utility.yul\":481:499   */\n  add\n    /* \"#utility.yul\":473:499   */\n  swap1\n  pop\n    /* \"#utility.yul\":509:580   */\n  tag_23\n    /* \"#utility.yul\":577:578   */\n  0x00\n    /* \"#utility.yul\":566:575   */\n  dup4\n    /* \"#utility.yul\":562:579   */\n  add\n    /* \"#utility.yul\":553:559   */\n  dup5\n    /* \"#utility.yul\":509:580   */\n  tag_15\n  jump\t// in\ntag_23:\n    /* \"#utility.yul\":365:587   */\n  swap3\n  swap2\n  pop\n  pop\n  jump\t// out\n    /* \"contracts/lib/GameRegistry.sol\":260:5507  contract GameRegistry is IGameRegistry, Ownable {... */\ntag_11:\n  dataSize(sub_0)\n  dup1\n  dataOffset(sub_0)\n  0x00\n  codecopy\n  0x00\n  return\nstop\n\nsub_0: assembly {\n        /* \"contracts/lib/GameRegistry.sol\":260:5507  contract GameRegistry is IGameRegistry, Ownable {... */\n      mstore(0x40, 0x80)\n      callvalue\n      dup1\n      iszero\n      tag_1\n      jumpi\n      0x00\n      dup1\n      revert\n    tag_1:\n      pop\n      jumpi(tag_2, lt(calldatasize, 0x04))\n      shr(0xe0, calldataload(0x00))\n      dup1\n      0x8da5cb5b\n      gt\n      tag_15\n      jumpi\n      dup1\n      0x8da5cb5b\n      eq\n      tag_9\n      jumpi\n      dup1\n      0x9e3c5a72\n      eq\n      tag_10\n      jumpi\n      dup1\n      0xb975c34d\n      eq\n      tag_11\n      jumpi\n      dup1\n      0xcfbb6bd0\n      eq\n      tag_12\n      jumpi\n      dup1\n      0xee658e45\n      eq\n      tag_13\n      jumpi\n      dup1\n      0xf2fde38b\n      eq\n      tag_14\n      jumpi\n      jump(tag_2)\n    tag_15:\n      dup1\n      0x099a99c8\n      eq\n      tag_3\n      jumpi\n      dup1\n      0x1a4ad3f0\n      eq\n      tag_4\n      jumpi\n      dup1\n      0x55491444\n      eq\n      tag_5\n      jumpi\n      dup1\n      0x715018a6\n      eq\n      tag_6\n      jumpi\n      dup1\n      0x7ff7d4a0\n      eq\n      tag_7\n      jumpi\n      dup1\n      0x890aa541\n      eq\n      tag_8\n      jumpi\n    tag_2:\n      0x00\n      dup1\n      revert\n        /* \"contracts/lib/GameRegistry.sol\":4877:5505  function hasPermissions(address game, bytes32[] calldata attributes) external view returns (bool) {... */\n    tag_3:\n      tag_16\n      0x04\n      dup1\n      calldatasize\n      sub\n      dup2\n      add\n      swap1\n      tag_17\n      swap2\n      swap1\n      tag_18\n      jump\t// in\n    tag_17:\n      tag_19\n      jump\t// in\n    tag_16:\n      mload(0x40)\n      tag_20\n      swap2\n      swap1\n      tag_21\n      jump\t// in\n    tag_20:\n      mload(0x40)\n      dup1\n      swap2\n      sub\n      swap1\n      return\n        /* \"contracts/lib/GameRegistry.sol\":4502:4615  function getAllRegisteredGames() external view returns (address[] memory) {... */\n    tag_4:\n      tag_22\n      tag_23\n      jump\t// in\n    tag_22:\n      mload(0x40)\n      tag_24\n      swap2\n      swap1\n      tag_25\n      jump\t// in\n    tag_24:\n      mload(0x40)\n      dup1\n      swap2\n      sub\n      swap1\n      return\n        /* \"contracts/lib/GameRegistry.sol\":3451:3662  function getGamePermissions(address game) external view override returns (bytes32[] memory) {... */\n    tag_5:\n      tag_26\n      0x04\n      dup1\n      calldatasize\n      sub\n      dup2\n      add\n      swap1\n      tag_27\n      swap2\n      swap1\n      tag_28\n      jump\t// in\n    tag_27:\n      tag_29\n      jump\t// in\n    tag_26:\n      mload(0x40)\n      tag_30\n      swap2\n      swap1\n      tag_31\n      jump\t// in\n    tag_30:\n      mload(0x40)\n      dup1\n      swap2\n      sub\n      swap1\n      return\n        /* \"@openzeppelin/contracts/access/Ownable.sol\":2293:2394  function renounceOwnership() public virtual onlyOwner {... */\n    tag_6:\n      tag_32\n      tag_33\n      jump\t// in\n    tag_32:\n      stop\n        /* \"contracts/lib/GameRegistry.sol\":1194:1796  function registerGame(address game, bytes32[] calldata attributes) external onlyOwner {... */\n    tag_7:\n      tag_34\n      0x04\n      dup1\n      calldatasize\n      sub\n      dup2\n      add\n      swap1\n      tag_35\n      swap2\n      swap1\n      tag_18\n      jump\t// in\n    tag_35:\n      tag_36\n      jump\t// in\n    tag_34:\n      stop\n        /* \"contracts/lib/GameRegistry.sol\":1913:2442  function unregisterGame(address game) external onlyOwner {... */\n    tag_8:\n      tag_37\n      0x04\n      dup1\n      calldatasize\n      sub\n      dup2\n      add\n      swap1\n      tag_38\n      swap2\n      swap1\n      tag_28\n      jump\t// in\n    tag_38:\n      tag_39\n      jump\t// in\n    tag_37:\n      stop\n        /* \"@openzeppelin/contracts/access/Ownable.sol\":1638:1723  function owner() public view virtual returns (address) {... */\n    tag_9:\n      tag_40\n      tag_41\n      jump\t// in\n    tag_40:\n      mload(0x40)\n      tag_42\n      swap2\n      swap1\n      tag_43\n      jump\t// in\n    tag_42:\n      mload(0x40)\n      dup1\n      swap2\n      sub\n      swap1\n      return\n        /* \"contracts/lib/GameRegistry.sol\":681:713  address[] public registeredGames */\n    tag_10:\n      tag_44\n      0x04\n      dup1\n      calldatasize\n      sub\n      dup2\n      add\n      swap1\n      tag_45\n      swap2\n      swap1\n      tag_46\n      jump\t// in\n    tag_45:\n      tag_47\n      jump\t// in\n    tag_44:\n      mload(0x40)\n      tag_48\n      swap2\n      swap1\n      tag_43\n      jump\t// in\n    tag_48:\n      mload(0x40)\n      dup1\n      swap2\n      sub\n      swap1\n      return\n        /* \"contracts/lib/GameRegistry.sol\":3987:4390  function getGameData(address game) external view returns (... */\n    tag_11:\n      tag_49\n      0x04\n      dup1\n      calldatasize\n      sub\n      dup2\n      add\n      swap1\n      tag_50\n      swap2\n      swap1\n      tag_28\n      jump\t// in\n    tag_50:\n      tag_51\n      jump\t// in\n    tag_49:\n      mload(0x40)\n      tag_52\n      swap5\n      swap4\n      swap3\n      swap2\n      swap1\n      tag_53\n      jump\t// in\n    tag_52:\n      mload(0x40)\n      dup1\n      swap2\n      sub\n      swap1\n      return\n        /* \"contracts/lib/GameRegistry.sol\":2631:2977  function updateGameAttributes(address game, bytes32[] calldata attributes) external onlyOwner {... */\n    tag_12:\n      tag_54\n      0x04\n      dup1\n      calldatasize\n      sub\n      dup2\n      add\n      swap1\n      tag_55\n      swap2\n      swap1\n      tag_18\n      jump\t// in\n    tag_55:\n      tag_56\n      jump\t// in\n    tag_54:\n      stop\n        /* \"contracts/lib/GameRegistry.sol\":3149:3275  function isGameRegistered(address game) external view override returns (bool) {... */\n    tag_13:\n      tag_57\n      0x04\n      dup1\n      calldatasize\n      sub\n      dup2\n      add\n      swap1\n      tag_58\n      swap2\n      swap1\n      tag_28\n      jump\t// in\n    tag_58:\n      tag_59\n      jump\t// in\n    tag_57:\n      mload(0x40)\n      tag_60\n      swap2\n      swap1\n      tag_21\n      jump\t// in\n    tag_60:\n      mload(0x40)\n      dup1\n      swap2\n      sub\n      swap1\n      return\n        /* \"@openzeppelin/contracts/access/Ownable.sol\":2543:2758  function transferOwnership(address newOwner) public virtual onlyOwner {... */\n    tag_14:\n      tag_61\n      0x04\n      dup1\n      calldatasize\n      sub\n      dup2\n      add\n      swap1\n      tag_62\n      swap2\n      swap1\n      tag_28\n      jump\t// in\n    tag_62:\n      tag_63\n      jump\t// in\n    tag_61:\n      stop\n        /* \"contracts/lib/GameRegistry.sol\":4877:5505  function hasPermissions(address game, bytes32[] calldata attributes) external view returns (bool) {... */\n    tag_19:\n        /* \"contracts/lib/GameRegistry.sol\":4969:4973  bool */\n      0x00\n        /* \"contracts/lib/GameRegistry.sol\":4990:4995  games */\n      0x01\n        /* \"contracts/lib/GameRegistry.sol\":4990:5001  games[game] */\n      0x00\n        /* \"contracts/lib/GameRegistry.sol\":4996:5000  game */\n      dup6\n        /* \"contracts/lib/GameRegistry.sol\":4990:5001  games[game] */\n      0xffffffffffffffffffffffffffffffffffffffff\n      and\n      0xffffffffffffffffffffffffffffffffffffffff\n      and\n      dup2\n      mstore\n      0x20\n      add\n      swap1\n      dup2\n      mstore\n      0x20\n      add\n      0x00\n      keccak256\n        /* \"contracts/lib/GameRegistry.sol\":4990:5014  games[game].isRegistered */\n      0x00\n      add\n      0x00\n      swap1\n      sload\n      swap1\n      0x0100\n      exp\n      swap1\n      div\n      0xff\n      and\n        /* \"contracts/lib/GameRegistry.sol\":4985:5028  if (!games[game].isRegistered) return false */\n      tag_65\n      jumpi\n        /* \"contracts/lib/GameRegistry.sol\":5023:5028  false */\n      0x00\n        /* \"contracts/lib/GameRegistry.sol\":5016:5028  return false */\n      swap1\n      pop\n      jump(tag_64)\n        /* \"contracts/lib/GameRegistry.sol\":4985:5028  if (!games[game].isRegistered) return false */\n    tag_65:\n        /* \"contracts/lib/GameRegistry.sol\":5047:5076  bytes32[] memory allowedAttrs */\n      0x00\n        /* \"contracts/lib/GameRegistry.sol\":5079:5084  games */\n      0x01\n        /* \"contracts/lib/GameRegistry.sol\":5079:5090  games[game] */\n      0x00\n        /* \"contracts/lib/GameRegistry.sol\":5085:5089  game */\n      dup7\n        /* \"contracts/lib/GameRegistry.sol\":5079:5090  games[game] */\n      0xffffffffffffffffffffffffffffffffffffffff\n      and\n      0xffffffffffffffffffffffffffffffffffffffff\n      and\n      dup2\n      mstore\n      0x20\n      add\n      swap1\n      dup2\n      mstore\n      0x20\n      add\n      0x00\n      keccak256\n        /* \"contracts/lib/GameRegistry.sol\":5079:5108  games[game].allowedAttributes */\n      0x01\n      add\n        /* \"contracts/lib/GameRegistry.sol\":5047:5108  bytes32[] memory allowedAttrs = games[game].allowedAttributes */\n      dup1\n      sload\n      dup1\n      0x20\n      mul\n      0x20\n      add\n      mload(0x40)\n      swap1\n      dup2\n      add\n      0x40\n      mstore\n      dup1\n      swap3\n      swap2\n      swap1\n      dup2\n      dup2\n      mstore\n      0x20\n      add\n      dup3\n      dup1\n      sload\n      dup1\n      iszero\n      tag_66\n      jumpi\n      0x20\n      mul\n      dup3\n      add\n      swap2\n      swap1\n      0x00\n      mstore\n      keccak256(0x00, 0x20)\n      swap1\n    tag_67:\n      dup2\n      sload\n      dup2\n      mstore\n      0x20\n      add\n      swap1\n      0x01\n      add\n      swap1\n      dup1\n      dup4\n      gt\n      tag_67\n      jumpi\n    tag_66:\n      pop\n      pop\n      pop\n      pop\n      pop\n      swap1\n      pop\n        /* \"contracts/lib/GameRegistry.sol\":5123:5129  uint i */\n      0x00\n        /* \"contracts/lib/GameRegistry.sol\":5118:5478  for (uint i = 0; i < attributes.length; i++) {... */\n    tag_68:\n        /* \"contracts/lib/GameRegistry.sol\":5139:5149  attributes */\n      dup5\n      dup5\n        /* \"contracts/lib/GameRegistry.sol\":5139:5156  attributes.length */\n      swap1\n      pop\n        /* \"contracts/lib/GameRegistry.sol\":5135:5136  i */\n      dup2\n        /* \"contracts/lib/GameRegistry.sol\":5135:5156  i < attributes.length */\n      lt\n        /* \"contracts/lib/GameRegistry.sol\":5118:5478  for (uint i = 0; i < attributes.length; i++) {... */\n      iszero\n      tag_69\n      jumpi\n        /* \"contracts/lib/GameRegistry.sol\":5177:5195  bool hasPermission */\n      0x00\n        /* \"contracts/lib/GameRegistry.sol\":5222:5228  uint j */\n      dup1\n        /* \"contracts/lib/GameRegistry.sol\":5217:5422  for (uint j = 0; j < allowedAttrs.length; j++) {... */\n    tag_71:\n        /* \"contracts/lib/GameRegistry.sol\":5238:5250  allowedAttrs */\n      dup4\n        /* \"contracts/lib/GameRegistry.sol\":5238:5257  allowedAttrs.length */\n      mload\n        /* \"contracts/lib/GameRegistry.sol\":5234:5235  j */\n      dup2\n        /* \"contracts/lib/GameRegistry.sol\":5234:5257  j < allowedAttrs.length */\n      lt\n        /* \"contracts/lib/GameRegistry.sol\":5217:5422  for (uint j = 0; j < allowedAttrs.length; j++) {... */\n      iszero\n      tag_72\n      jumpi\n        /* \"contracts/lib/GameRegistry.sol\":5303:5315  allowedAttrs */\n      dup4\n        /* \"contracts/lib/GameRegistry.sol\":5316:5317  j */\n      dup2\n        /* \"contracts/lib/GameRegistry.sol\":5303:5318  allowedAttrs[j] */\n      dup2\n      mload\n      dup2\n      lt\n      tag_74\n      jumpi\n      tag_75\n      tag_76\n      jump\t// in\n    tag_75:\n    tag_74:\n      0x20\n      mul\n      0x20\n      add\n      add\n      mload\n        /* \"contracts/lib/GameRegistry.sol\":5286:5296  attributes */\n      dup8\n      dup8\n        /* \"contracts/lib/GameRegistry.sol\":5297:5298  i */\n      dup6\n        /* \"contracts/lib/GameRegistry.sol\":5286:5299  attributes[i] */\n      dup2\n      dup2\n      lt\n      tag_77\n      jumpi\n      tag_78\n      tag_76\n      jump\t// in\n    tag_78:\n    tag_77:\n      swap1\n      pop\n      0x20\n      mul\n      add\n      calldataload\n        /* \"contracts/lib/GameRegistry.sol\":5286:5318  attributes[i] == allowedAttrs[j] */\n      sub\n        /* \"contracts/lib/GameRegistry.sol\":5282:5408  if (attributes[i] == allowedAttrs[j]) {... */\n      tag_79\n      jumpi\n        /* \"contracts/lib/GameRegistry.sol\":5358:5362  true */\n      0x01\n        /* \"contracts/lib/GameRegistry.sol\":5342:5362  hasPermission = true */\n      swap2\n      pop\n        /* \"contracts/lib/GameRegistry.sol\":5384:5389  break */\n      jump(tag_72)\n        /* \"contracts/lib/GameRegistry.sol\":5282:5408  if (attributes[i] == allowedAttrs[j]) {... */\n    tag_79:\n        /* \"contracts/lib/GameRegistry.sol\":5259:5262  j++ */\n      dup1\n      dup1\n      0x01\n      add\n      swap2\n      pop\n      pop\n        /* \"contracts/lib/GameRegistry.sol\":5217:5422  for (uint j = 0; j < allowedAttrs.length; j++) {... */\n      jump(tag_71)\n    tag_72:\n      pop\n        /* \"contracts/lib/GameRegistry.sol\":5440:5453  hasPermission */\n      dup1\n        /* \"contracts/lib/GameRegistry.sol\":5435:5467  if (!hasPermission) return false */\n      tag_80\n      jumpi\n        /* \"contracts/lib/GameRegistry.sol\":5462:5467  false */\n      0x00\n        /* \"contracts/lib/GameRegistry.sol\":5455:5467  return false */\n      swap4\n      pop\n      pop\n      pop\n      pop\n      jump(tag_64)\n        /* \"contracts/lib/GameRegistry.sol\":5435:5467  if (!hasPermission) return false */\n    tag_80:\n        /* \"contracts/lib/GameRegistry.sol\":5163:5478  {... */\n      pop\n        /* \"contracts/lib/GameRegistry.sol\":5158:5161  i++ */\n      dup1\n      dup1\n      0x01\n      add\n      swap2\n      pop\n      pop\n        /* \"contracts/lib/GameRegistry.sol\":5118:5478  for (uint i = 0; i < attributes.length; i++) {... */\n      jump(tag_68)\n    tag_69:\n      pop\n        /* \"contracts/lib/GameRegistry.sol\":5494:5498  true */\n      0x01\n        /* \"contracts/lib/GameRegistry.sol\":5487:5498  return true */\n      swap2\n      pop\n      pop\n        /* \"contracts/lib/GameRegistry.sol\":4877:5505  function hasPermissions(address game, bytes32[] calldata attributes) external view returns (bool) {... */\n    tag_64:\n      swap4\n      swap3\n      pop\n      pop\n      pop\n      jump\t// out\n        /* \"contracts/lib/GameRegistry.sol\":4502:4615  function getAllRegisteredGames() external view returns (address[] memory) {... */\n    tag_23:\n        /* \"contracts/lib/GameRegistry.sol\":4558:4574  address[] memory */\n      0x60\n        /* \"contracts/lib/GameRegistry.sol\":4593:4608  registeredGames */\n      0x02\n        /* \"contracts/lib/GameRegistry.sol\":4586:4608  return registeredGames */\n      dup1\n      sload\n      dup1\n      0x20\n      mul\n      0x20\n      add\n      mload(0x40)\n      swap1\n      dup2\n      add\n      0x40\n      mstore\n      dup1\n      swap3\n      swap2\n      swap1\n      dup2\n      dup2\n      mstore\n      0x20\n      add\n      dup3\n      dup1\n      sload\n      dup1\n      iszero\n      tag_82\n      jumpi\n      0x20\n      mul\n      dup3\n      add\n      swap2\n      swap1\n      0x00\n      mstore\n      keccak256(0x00, 0x20)\n      swap1\n    tag_83:\n      dup2\n      0x00\n      swap1\n      sload\n      swap1\n      0x0100\n      exp\n      swap1\n      div\n      0xffffffffffffffffffffffffffffffffffffffff\n      and\n      0xffffffffffffffffffffffffffffffffffffffff\n      and\n      dup2\n      mstore\n      0x20\n      add\n      swap1\n      0x01\n      add\n      swap1\n      dup1\n      dup4\n      gt\n      tag_83\n      jumpi\n    tag_82:\n      pop\n      pop\n      pop\n      pop\n      pop\n      swap1\n      pop\n        /* \"contracts/lib/GameRegistry.sol\":4502:4615  function getAllRegisteredGames() external view returns (address[] memory) {... */\n      swap1\n      jump\t// out\n        /* \"contracts/lib/GameRegistry.sol\":3451:3662  function getGamePermissions(address game) external view override returns (bytes32[] memory) {... */\n    tag_29:\n        /* \"contracts/lib/GameRegistry.sol\":3525:3541  bytes32[] memory */\n      0x60\n        /* \"contracts/lib/GameRegistry.sol\":3561:3566  games */\n      0x01\n        /* \"contracts/lib/GameRegistry.sol\":3561:3572  games[game] */\n      0x00\n        /* \"contracts/lib/GameRegistry.sol\":3567:3571  game */\n      dup4\n        /* \"contracts/lib/GameRegistry.sol\":3561:3572  games[game] */\n      0xffffffffffffffffffffffffffffffffffffffff\n      and\n      0xffffffffffffffffffffffffffffffffffffffff\n      and\n      dup2\n      mstore\n      0x20\n      add\n      swap1\n      dup2\n      mstore\n      0x20\n      add\n      0x00\n      keccak256\n        /* \"contracts/lib/GameRegistry.sol\":3561:3585  games[game].isRegistered */\n      0x00\n      add\n      0x00\n      swap1\n      sload\n      swap1\n      0x0100\n      exp\n      swap1\n      div\n      0xff\n      and\n        /* \"contracts/lib/GameRegistry.sol\":3553:3609  require(games[game].isRegistered, \"Game not registered\") */\n      tag_85\n      jumpi\n      mload(0x40)\n      0x08c379a000000000000000000000000000000000000000000000000000000000\n      dup2\n      mstore\n      0x04\n      add\n      tag_86\n      swap1\n      tag_87\n      jump\t// in\n    tag_86:\n      mload(0x40)\n      dup1\n      swap2\n      sub\n      swap1\n      revert\n    tag_85:\n        /* \"contracts/lib/GameRegistry.sol\":3626:3631  games */\n      0x01\n        /* \"contracts/lib/GameRegistry.sol\":3626:3637  games[game] */\n      0x00\n        /* \"contracts/lib/GameRegistry.sol\":3632:3636  game */\n      dup4\n        /* \"contracts/lib/GameRegistry.sol\":3626:3637  games[game] */\n      0xffffffffffffffffffffffffffffffffffffffff\n      and\n      0xffffffffffffffffffffffffffffffffffffffff\n      and\n      dup2\n      mstore\n      0x20\n      add\n      swap1\n      dup2\n      mstore\n      0x20\n      add\n      0x00\n      keccak256\n        /* \"contracts/lib/GameRegistry.sol\":3626:3655  games[game].allowedAttributes */\n      0x01\n      add\n        /* \"contracts/lib/GameRegistry.sol\":3619:3655  return games[game].allowedAttributes */\n      dup1\n      sload\n      dup1\n      0x20\n      mul\n      0x20\n      add\n      mload(0x40)\n      swap1\n      dup2\n      add\n      0x40\n      mstore\n      dup1\n      swap3\n      swap2\n      swap1\n      dup2\n      dup2\n      mstore\n      0x20\n      add\n      dup3\n      dup1\n      sload\n      dup1\n      iszero\n      tag_88\n      jumpi\n      0x20\n      mul\n      dup3\n      add\n      swap2\n      swap1\n      0x00\n      mstore\n      keccak256(0x00, 0x20)\n      swap1\n    tag_89:\n      dup2\n      sload\n      dup2\n      mstore\n      0x20\n      add\n      swap1\n      0x01\n      add\n      swap1\n      dup1\n      dup4\n      gt\n      tag_89\n      jumpi\n    tag_88:\n      pop\n      pop\n      pop\n      pop\n      pop\n      swap1\n      pop\n        /* \"contracts/lib/GameRegistry.sol\":3451:3662  function getGamePermissions(address game) external view override returns (bytes32[] memory) {... */\n      swap2\n      swap1\n      pop\n      jump\t// out\n        /* \"@openzeppelin/contracts/access/Ownable.sol\":2293:2394  function renounceOwnership() public virtual onlyOwner {... */\n    tag_33:\n        /* \"@openzeppelin/contracts/access/Ownable.sol\":1531:1544  _checkOwner() */\n      tag_91\n        /* \"@openzeppelin/contracts/access/Ownable.sol\":1531:1542  _checkOwner */\n      tag_92\n        /* \"@openzeppelin/contracts/access/Ownable.sol\":1531:1544  _checkOwner() */\n      jump\t// in\n    tag_91:\n        /* \"@openzeppelin/contracts/access/Ownable.sol\":2357:2387  _transferOwnership(address(0)) */\n      tag_94\n        /* \"@openzeppelin/contracts/access/Ownable.sol\":2384:2385  0 */\n      0x00\n        /* \"@openzeppelin/contracts/access/Ownable.sol\":2357:2375  _transferOwnership */\n      tag_95\n        /* \"@openzeppelin/contracts/access/Ownable.sol\":2357:2387  _transferOwnership(address(0)) */\n      jump\t// in\n    tag_94:\n        /* \"@openzeppelin/contracts/access/Ownable.sol\":2293:2394  function renounceOwnership() public virtual onlyOwner {... */\n      jump\t// out\n        /* \"contracts/lib/GameRegistry.sol\":1194:1796  function registerGame(address game, bytes32[] calldata attributes) external onlyOwner {... */\n    tag_36:\n        /* \"@openzeppelin/contracts/access/Ownable.sol\":1531:1544  _checkOwner() */\n      tag_97\n        /* \"@openzeppelin/contracts/access/Ownable.sol\":1531:1542  _checkOwner */\n      tag_92\n        /* \"@openzeppelin/contracts/access/Ownable.sol\":1531:1544  _checkOwner() */\n      jump\t// in\n    tag_97:\n        /* \"contracts/lib/GameRegistry.sol\":1314:1315  0 */\n      0x00\n        /* \"contracts/lib/GameRegistry.sol\":1298:1316  game != address(0) */\n      0xffffffffffffffffffffffffffffffffffffffff\n      and\n        /* \"contracts/lib/GameRegistry.sol\":1298:1302  game */\n      dup4\n        /* \"contracts/lib/GameRegistry.sol\":1298:1316  game != address(0) */\n      0xffffffffffffffffffffffffffffffffffffffff\n      and\n      sub\n        /* \"contracts/lib/GameRegistry.sol\":1290:1341  require(game != address(0), \"Invalid game address\") */\n      tag_99\n      jumpi\n      mload(0x40)\n      0x08c379a000000000000000000000000000000000000000000000000000000000\n      dup2\n      mstore\n      0x04\n      add\n      tag_100\n      swap1\n      tag_101\n      jump\t// in\n    tag_100:\n      mload(0x40)\n      dup1\n      swap2\n      sub\n      swap1\n      revert\n    tag_99:\n        /* \"contracts/lib/GameRegistry.sol\":1360:1365  games */\n      0x01\n        /* \"contracts/lib/GameRegistry.sol\":1360:1371  games[game] */\n      0x00\n        /* \"contracts/lib/GameRegistry.sol\":1366:1370  game */\n      dup5\n        /* \"contracts/lib/GameRegistry.sol\":1360:1371  games[game] */\n      0xffffffffffffffffffffffffffffffffffffffff\n      and\n      0xffffffffffffffffffffffffffffffffffffffff\n      and\n      dup2\n      mstore\n      0x20\n      add\n      swap1\n      dup2\n      mstore\n      0x20\n      add\n      0x00\n      keccak256\n        /* \"contracts/lib/GameRegistry.sol\":1360:1384  games[game].isRegistered */\n      0x00\n      add\n      0x00\n      swap1\n      sload\n      swap1\n      0x0100\n      exp\n      swap1\n      div\n      0xff\n      and\n        /* \"contracts/lib/GameRegistry.sol\":1359:1384  !games[game].isRegistered */\n      iszero\n        /* \"contracts/lib/GameRegistry.sol\":1351:1412  require(!games[game].isRegistered, \"Game already registered\") */\n      tag_102\n      jumpi\n      mload(0x40)\n      0x08c379a000000000000000000000000000000000000000000000000000000000\n      dup2\n      mstore\n      0x04\n      add\n      tag_103\n      swap1\n      tag_104\n      jump\t// in\n    tag_103:\n      mload(0x40)\n      dup1\n      swap2\n      sub\n      swap1\n      revert\n    tag_102:\n        /* \"contracts/lib/GameRegistry.sol\":1450:1451  0 */\n      0x00\n        /* \"contracts/lib/GameRegistry.sol\":1430:1440  attributes */\n      dup3\n      dup3\n        /* \"contracts/lib/GameRegistry.sol\":1430:1447  attributes.length */\n      swap1\n      pop\n        /* \"contracts/lib/GameRegistry.sol\":1430:1451  attributes.length > 0 */\n      gt\n        /* \"contracts/lib/GameRegistry.sol\":1422:1479  require(attributes.length > 0, \"No attributes specified\") */\n      tag_105\n      jumpi\n      mload(0x40)\n      0x08c379a000000000000000000000000000000000000000000000000000000000\n      dup2\n      mstore\n      0x04\n      add\n      tag_106\n      swap1\n      tag_107\n      jump\t// in\n    tag_106:\n      mload(0x40)\n      dup1\n      swap2\n      sub\n      swap1\n      revert\n    tag_105:\n        /* \"contracts/lib/GameRegistry.sol\":1504:1684  GameData({... */\n      mload(0x40)\n      dup1\n      0x80\n      add\n      0x40\n      mstore\n      dup1\n        /* \"contracts/lib/GameRegistry.sol\":1541:1545  true */\n      0x01\n        /* \"contracts/lib/GameRegistry.sol\":1504:1684  GameData({... */\n      iszero\n      iszero\n      dup2\n      mstore\n      0x20\n      add\n        /* \"contracts/lib/GameRegistry.sol\":1578:1588  attributes */\n      dup4\n      dup4\n        /* \"contracts/lib/GameRegistry.sol\":1504:1684  GameData({... */\n      dup1\n      dup1\n      0x20\n      mul\n      0x20\n      add\n      mload(0x40)\n      swap1\n      dup2\n      add\n      0x40\n      mstore\n      dup1\n      swap4\n      swap3\n      swap2\n      swap1\n      dup2\n      dup2\n      mstore\n      0x20\n      add\n      dup4\n      dup4\n      0x20\n      mul\n      dup1\n      dup3\n      dup5\n      calldatacopy\n      0x00\n      dup2\n      dup5\n      add\n      mstore\n      not(0x1f)\n      0x1f\n      dup3\n      add\n      and\n      swap1\n      pop\n      dup1\n      dup4\n      add\n      swap3\n      pop\n      pop\n      pop\n      pop\n      pop\n      pop\n      pop\n      dup2\n      mstore\n      0x20\n      add\n        /* \"contracts/lib/GameRegistry.sol\":1620:1635  block.timestamp */\n      timestamp\n        /* \"contracts/lib/GameRegistry.sol\":1504:1684  GameData({... */\n      dup2\n      mstore\n      0x20\n      add\n        /* \"contracts/lib/GameRegistry.sol\":1663:1673  msg.sender */\n      caller\n        /* \"contracts/lib/GameRegistry.sol\":1504:1684  GameData({... */\n      0xffffffffffffffffffffffffffffffffffffffff\n      and\n      dup2\n      mstore\n      pop\n        /* \"contracts/lib/GameRegistry.sol\":1490:1495  games */\n      0x01\n        /* \"contracts/lib/GameRegistry.sol\":1490:1501  games[game] */\n      0x00\n        /* \"contracts/lib/GameRegistry.sol\":1496:1500  game */\n      dup6\n        /* \"contracts/lib/GameRegistry.sol\":1490:1501  games[game] */\n      0xffffffffffffffffffffffffffffffffffffffff\n      and\n      0xffffffffffffffffffffffffffffffffffffffff\n      and\n      dup2\n      mstore\n      0x20\n      add\n      swap1\n      dup2\n      mstore\n      0x20\n      add\n      0x00\n      keccak256\n        /* \"contracts/lib/GameRegistry.sol\":1490:1684  games[game] = GameData({... */\n      0x00\n      dup3\n      add\n      mload\n      dup2\n      0x00\n      add\n      exp(0x0100, 0x00)\n      dup2\n      sload\n      dup2\n      0xff\n      mul\n      not\n      and\n      swap1\n      dup4\n      iszero\n      iszero\n      mul\n      or\n      swap1\n      sstore\n      pop\n      0x20\n      dup3\n      add\n      mload\n      dup2\n      0x01\n      add\n      swap1\n      dup1\n      mload\n      swap1\n      0x20\n      add\n      swap1\n      tag_108\n      swap3\n      swap2\n      swap1\n      tag_109\n      jump\t// in\n    tag_108:\n      pop\n      0x40\n      dup3\n      add\n      mload\n      dup2\n      0x02\n      add\n      sstore\n      0x60\n      dup3\n      add\n      mload\n      dup2\n      0x03\n      add\n      exp(0x0100, 0x00)\n      dup2\n      sload\n      dup2\n      0xffffffffffffffffffffffffffffffffffffffff\n      mul\n      not\n      and\n      swap1\n      dup4\n      0xffffffffffffffffffffffffffffffffffffffff\n      and\n      mul\n      or\n      swap1\n      sstore\n      pop\n      swap1\n      pop\n      pop\n        /* \"contracts/lib/GameRegistry.sol\":1695:1710  registeredGames */\n      0x02\n        /* \"contracts/lib/GameRegistry.sol\":1716:1720  game */\n      dup4\n        /* \"contracts/lib/GameRegistry.sol\":1695:1721  registeredGames.push(game) */\n      swap1\n      dup1\n      0x01\n      dup2\n      sload\n      add\n      dup1\n      dup3\n      sstore\n      dup1\n      swap2\n      pop\n      pop\n      0x01\n      swap1\n      sub\n      swap1\n      0x00\n      mstore\n      keccak256(0x00, 0x20)\n      add\n      0x00\n      swap1\n      swap2\n      swap1\n      swap2\n      swap1\n      swap2\n      0x0100\n      exp\n      dup2\n      sload\n      dup2\n      0xffffffffffffffffffffffffffffffffffffffff\n      mul\n      not\n      and\n      swap1\n      dup4\n      0xffffffffffffffffffffffffffffffffffffffff\n      and\n      mul\n      or\n      swap1\n      sstore\n      pop\n        /* \"contracts/lib/GameRegistry.sol\":1766:1776  msg.sender */\n      caller\n        /* \"contracts/lib/GameRegistry.sol\":1745:1789  GameRegistered(game, msg.sender, attributes) */\n      0xffffffffffffffffffffffffffffffffffffffff\n      and\n        /* \"contracts/lib/GameRegistry.sol\":1760:1764  game */\n      dup4\n        /* \"contracts/lib/GameRegistry.sol\":1745:1789  GameRegistered(game, msg.sender, attributes) */\n      0xffffffffffffffffffffffffffffffffffffffff\n      and\n      0x6eb4e0bf305910e6826fc3491a68d75b8ac753d1d90695979c53fc90ba1c0ef6\n        /* \"contracts/lib/GameRegistry.sol\":1778:1788  attributes */\n      dup5\n      dup5\n        /* \"contracts/lib/GameRegistry.sol\":1745:1789  GameRegistered(game, msg.sender, attributes) */\n      mload(0x40)\n      tag_111\n      swap3\n      swap2\n      swap1\n      tag_112\n      jump\t// in\n    tag_111:\n      mload(0x40)\n      dup1\n      swap2\n      sub\n      swap1\n      log3\n        /* \"contracts/lib/GameRegistry.sol\":1194:1796  function registerGame(address game, bytes32[] calldata attributes) external onlyOwner {... */\n      pop\n      pop\n      pop\n      jump\t// out\n        /* \"contracts/lib/GameRegistry.sol\":1913:2442  function unregisterGame(address game) external onlyOwner {... */\n    tag_39:\n        /* \"@openzeppelin/contracts/access/Ownable.sol\":1531:1544  _checkOwner() */\n      tag_114\n        /* \"@openzeppelin/contracts/access/Ownable.sol\":1531:1542  _checkOwner */\n      tag_92\n        /* \"@openzeppelin/contracts/access/Ownable.sol\":1531:1544  _checkOwner() */\n      jump\t// in\n    tag_114:\n        /* \"contracts/lib/GameRegistry.sol\":1988:1993  games */\n      0x01\n        /* \"contracts/lib/GameRegistry.sol\":1988:1999  games[game] */\n      0x00\n        /* \"contracts/lib/GameRegistry.sol\":1994:1998  game */\n      dup3\n        /* \"contracts/lib/GameRegistry.sol\":1988:1999  games[game] */\n      0xffffffffffffffffffffffffffffffffffffffff\n      and\n      0xffffffffffffffffffffffffffffffffffffffff\n      and\n      dup2\n      mstore\n      0x20\n      add\n      swap1\n      dup2\n      mstore\n      0x20\n      add\n      0x00\n      keccak256\n        /* \"contracts/lib/GameRegistry.sol\":1988:2012  games[game].isRegistered */\n      0x00\n      add\n      0x00\n      swap1\n      sload\n      swap1\n      0x0100\n      exp\n      swap1\n      div\n      0xff\n      and\n        /* \"contracts/lib/GameRegistry.sol\":1980:2036  require(games[game].isRegistered, \"Game not registered\") */\n      tag_116\n      jumpi\n      mload(0x40)\n      0x08c379a000000000000000000000000000000000000000000000000000000000\n      dup2\n      mstore\n      0x04\n      add\n      tag_117\n      swap1\n      tag_87\n      jump\t// in\n    tag_117:\n      mload(0x40)\n      dup1\n      swap2\n      sub\n      swap1\n      revert\n    tag_116:\n        /* \"contracts/lib/GameRegistry.sol\":2054:2059  games */\n      0x01\n        /* \"contracts/lib/GameRegistry.sol\":2054:2065  games[game] */\n      0x00\n        /* \"contracts/lib/GameRegistry.sol\":2060:2064  game */\n      dup3\n        /* \"contracts/lib/GameRegistry.sol\":2054:2065  games[game] */\n      0xffffffffffffffffffffffffffffffffffffffff\n      and\n      0xffffffffffffffffffffffffffffffffffffffff\n      and\n      dup2\n      mstore\n      0x20\n      add\n      swap1\n      dup2\n      mstore\n      0x20\n      add\n      0x00\n      keccak256\n      0x00\n        /* \"contracts/lib/GameRegistry.sol\":2047:2065  delete games[game] */\n      dup1\n      dup3\n      add\n      exp(0x0100, 0x00)\n      dup2\n      sload\n      swap1\n      0xff\n      mul\n      not\n      and\n      swap1\n      sstore\n      0x01\n      dup3\n      add\n      0x00\n      tag_118\n      swap2\n      swap1\n      tag_119\n      jump\t// in\n    tag_118:\n      0x02\n      dup3\n      add\n      0x00\n      swap1\n      sstore\n      0x03\n      dup3\n      add\n      exp(0x0100, 0x00)\n      dup2\n      sload\n      swap1\n      0xffffffffffffffffffffffffffffffffffffffff\n      mul\n      not\n      and\n      swap1\n      sstore\n      pop\n      pop\n        /* \"contracts/lib/GameRegistry.sol\":2126:2132  uint i */\n      0x00\n        /* \"contracts/lib/GameRegistry.sol\":2121:2386  for (uint i = 0; i < registeredGames.length; i++) {... */\n    tag_120:\n        /* \"contracts/lib/GameRegistry.sol\":2142:2157  registeredGames */\n      0x02\n        /* \"contracts/lib/GameRegistry.sol\":2142:2164  registeredGames.length */\n      dup1\n      sload\n      swap1\n      pop\n        /* \"contracts/lib/GameRegistry.sol\":2138:2139  i */\n      dup2\n        /* \"contracts/lib/GameRegistry.sol\":2138:2164  i < registeredGames.length */\n      lt\n        /* \"contracts/lib/GameRegistry.sol\":2121:2386  for (uint i = 0; i < registeredGames.length; i++) {... */\n      iszero\n      tag_121\n      jumpi\n        /* \"contracts/lib/GameRegistry.sol\":2211:2215  game */\n      dup2\n        /* \"contracts/lib/GameRegistry.sol\":2189:2215  registeredGames[i] == game */\n      0xffffffffffffffffffffffffffffffffffffffff\n      and\n        /* \"contracts/lib/GameRegistry.sol\":2189:2204  registeredGames */\n      0x02\n        /* \"contracts/lib/GameRegistry.sol\":2205:2206  i */\n      dup3\n        /* \"contracts/lib/GameRegistry.sol\":2189:2207  registeredGames[i] */\n      dup2\n      sload\n      dup2\n      lt\n      tag_123\n      jumpi\n      tag_124\n      tag_76\n      jump\t// in\n    tag_124:\n    tag_123:\n      swap1\n      0x00\n      mstore\n      keccak256(0x00, 0x20)\n      add\n      0x00\n      swap1\n      sload\n      swap1\n      0x0100\n      exp\n      swap1\n      div\n      0xffffffffffffffffffffffffffffffffffffffff\n      and\n        /* \"contracts/lib/GameRegistry.sol\":2189:2215  registeredGames[i] == game */\n      0xffffffffffffffffffffffffffffffffffffffff\n      and\n      sub\n        /* \"contracts/lib/GameRegistry.sol\":2185:2376  if (registeredGames[i] == game) {... */\n      tag_126\n      jumpi\n        /* \"contracts/lib/GameRegistry.sol\":2256:2271  registeredGames */\n      0x02\n        /* \"contracts/lib/GameRegistry.sol\":2297:2298  1 */\n      0x01\n        /* \"contracts/lib/GameRegistry.sol\":2272:2287  registeredGames */\n      0x02\n        /* \"contracts/lib/GameRegistry.sol\":2272:2294  registeredGames.length */\n      dup1\n      sload\n      swap1\n      pop\n        /* \"contracts/lib/GameRegistry.sol\":2272:2298  registeredGames.length - 1 */\n      tag_127\n      swap2\n      swap1\n      tag_128\n      jump\t// in\n    tag_127:\n        /* \"contracts/lib/GameRegistry.sol\":2256:2299  registeredGames[registeredGames.length - 1] */\n      dup2\n      sload\n      dup2\n      lt\n      tag_129\n      jumpi\n      tag_130\n      tag_76\n      jump\t// in\n    tag_130:\n    tag_129:\n      swap1\n      0x00\n      mstore\n      keccak256(0x00, 0x20)\n      add\n      0x00\n      swap1\n      sload\n      swap1\n      0x0100\n      exp\n      swap1\n      div\n      0xffffffffffffffffffffffffffffffffffffffff\n      and\n        /* \"contracts/lib/GameRegistry.sol\":2235:2250  registeredGames */\n      0x02\n        /* \"contracts/lib/GameRegistry.sol\":2251:2252  i */\n      dup3\n        /* \"contracts/lib/GameRegistry.sol\":2235:2253  registeredGames[i] */\n      dup2\n      sload\n      dup2\n      lt\n      tag_132\n      jumpi\n      tag_133\n      tag_76\n      jump\t// in\n    tag_133:\n    tag_132:\n      swap1\n      0x00\n      mstore\n      keccak256(0x00, 0x20)\n      add\n      0x00\n        /* \"contracts/lib/GameRegistry.sol\":2235:2299  registeredGames[i] = registeredGames[registeredGames.length - 1] */\n      0x0100\n      exp\n      dup2\n      sload\n      dup2\n      0xffffffffffffffffffffffffffffffffffffffff\n      mul\n      not\n      and\n      swap1\n      dup4\n      0xffffffffffffffffffffffffffffffffffffffff\n      and\n      mul\n      or\n      swap1\n      sstore\n      pop\n        /* \"contracts/lib/GameRegistry.sol\":2317:2332  registeredGames */\n      0x02\n        /* \"contracts/lib/GameRegistry.sol\":2317:2338  registeredGames.pop() */\n      dup1\n      sload\n      dup1\n      tag_135\n      jumpi\n      tag_136\n      tag_137\n      jump\t// in\n    tag_136:\n    tag_135:\n      0x01\n      swap1\n      sub\n      dup2\n      dup2\n      swap1\n      0x00\n      mstore\n      keccak256(0x00, 0x20)\n      add\n      exp(0x0100, 0x00)\n      dup2\n      sload\n      swap1\n      0xffffffffffffffffffffffffffffffffffffffff\n      mul\n      not\n      and\n      swap1\n      sstore\n      swap1\n      sstore\n        /* \"contracts/lib/GameRegistry.sol\":2356:2361  break */\n      jump(tag_121)\n        /* \"contracts/lib/GameRegistry.sol\":2185:2376  if (registeredGames[i] == game) {... */\n    tag_126:\n        /* \"contracts/lib/GameRegistry.sol\":2166:2169  i++ */\n      dup1\n      dup1\n      0x01\n      add\n      swap2\n      pop\n      pop\n        /* \"contracts/lib/GameRegistry.sol\":2121:2386  for (uint i = 0; i < registeredGames.length; i++) {... */\n      jump(tag_120)\n    tag_121:\n      pop\n        /* \"contracts/lib/GameRegistry.sol\":2424:2434  msg.sender */\n      caller\n        /* \"contracts/lib/GameRegistry.sol\":2401:2435  GameUnregistered(game, msg.sender) */\n      0xffffffffffffffffffffffffffffffffffffffff\n      and\n        /* \"contracts/lib/GameRegistry.sol\":2418:2422  game */\n      dup2\n        /* \"contracts/lib/GameRegistry.sol\":2401:2435  GameUnregistered(game, msg.sender) */\n      0xffffffffffffffffffffffffffffffffffffffff\n      and\n      0x65878649e6dbcda020be4486d4b9d0da6aea73412dd86aeb4cb8d0c7936bd8b9\n      mload(0x40)\n      mload(0x40)\n      dup1\n      swap2\n      sub\n      swap1\n      log3\n        /* \"contracts/lib/GameRegistry.sol\":1913:2442  function unregisterGame(address game) external onlyOwner {... */\n      pop\n      jump\t// out\n        /* \"@openzeppelin/contracts/access/Ownable.sol\":1638:1723  function owner() public view virtual returns (address) {... */\n    tag_41:\n        /* \"@openzeppelin/contracts/access/Ownable.sol\":1684:1691  address */\n      0x00\n        /* \"@openzeppelin/contracts/access/Ownable.sol\":1710:1716  _owner */\n      dup1\n      0x00\n      swap1\n      sload\n      swap1\n      0x0100\n      exp\n      swap1\n      div\n      0xffffffffffffffffffffffffffffffffffffffff\n      and\n        /* \"@openzeppelin/contracts/access/Ownable.sol\":1703:1716  return _owner */\n      swap1\n      pop\n        /* \"@openzeppelin/contracts/access/Ownable.sol\":1638:1723  function owner() public view virtual returns (address) {... */\n      swap1\n      jump\t// out\n        /* \"contracts/lib/GameRegistry.sol\":681:713  address[] public registeredGames */\n    tag_47:\n      0x02\n      dup2\n      dup2\n      sload\n      dup2\n      lt\n      tag_140\n      jumpi\n      0x00\n      dup1\n      revert\n    tag_140:\n      swap1\n      0x00\n      mstore\n      keccak256(0x00, 0x20)\n      add\n      0x00\n      swap2\n      pop\n      sload\n      swap1\n      0x0100\n      exp\n      swap1\n      div\n      0xffffffffffffffffffffffffffffffffffffffff\n      and\n      dup2\n      jump\t// out\n        /* \"contracts/lib/GameRegistry.sol\":3987:4390  function getGameData(address game) external view returns (... */\n    tag_51:\n        /* \"contracts/lib/GameRegistry.sol\":4054:4071  bool isRegistered */\n      0x00\n        /* \"contracts/lib/GameRegistry.sol\":4081:4108  bytes32[] memory attributes */\n      0x60\n        /* \"contracts/lib/GameRegistry.sol\":4118:4142  uint256 registrationTime */\n      0x00\n        /* \"contracts/lib/GameRegistry.sol\":4152:4172  address registeredBy */\n      dup1\n        /* \"contracts/lib/GameRegistry.sol\":4189:4209  GameData memory data */\n      0x00\n        /* \"contracts/lib/GameRegistry.sol\":4212:4217  games */\n      0x01\n        /* \"contracts/lib/GameRegistry.sol\":4212:4223  games[game] */\n      0x00\n        /* \"contracts/lib/GameRegistry.sol\":4218:4222  game */\n      dup8\n        /* \"contracts/lib/GameRegistry.sol\":4212:4223  games[game] */\n      0xffffffffffffffffffffffffffffffffffffffff\n      and\n      0xffffffffffffffffffffffffffffffffffffffff\n      and\n      dup2\n      mstore\n      0x20\n      add\n      swap1\n      dup2\n      mstore\n      0x20\n      add\n      0x00\n      keccak256\n        /* \"contracts/lib/GameRegistry.sol\":4189:4223  GameData memory data = games[game] */\n      mload(0x40)\n      dup1\n      0x80\n      add\n      0x40\n      mstore\n      swap1\n      dup2\n      0x00\n      dup3\n      add\n      0x00\n      swap1\n      sload\n      swap1\n      0x0100\n      exp\n      swap1\n      div\n      0xff\n      and\n      iszero\n      iszero\n      iszero\n      iszero\n      dup2\n      mstore\n      0x20\n      add\n      0x01\n      dup3\n      add\n      dup1\n      sload\n      dup1\n      0x20\n      mul\n      0x20\n      add\n      mload(0x40)\n      swap1\n      dup2\n      add\n      0x40\n      mstore\n      dup1\n      swap3\n      swap2\n      swap1\n      dup2\n      dup2\n      mstore\n      0x20\n      add\n      dup3\n      dup1\n      sload\n      dup1\n      iszero\n      tag_143\n      jumpi\n      0x20\n      mul\n      dup3\n      add\n      swap2\n      swap1\n      0x00\n      mstore\n      keccak256(0x00, 0x20)\n      swap1\n    tag_144:\n      dup2\n      sload\n      dup2\n      mstore\n      0x20\n      add\n      swap1\n      0x01\n      add\n      swap1\n      dup1\n      dup4\n      gt\n      tag_144\n      jumpi\n    tag_143:\n      pop\n      pop\n      pop\n      pop\n      pop\n      dup2\n      mstore\n      0x20\n      add\n      0x02\n      dup3\n      add\n      sload\n      dup2\n      mstore\n      0x20\n      add\n      0x03\n      dup3\n      add\n      0x00\n      swap1\n      sload\n      swap1\n      0x0100\n      exp\n      swap1\n      div\n      0xffffffffffffffffffffffffffffffffffffffff\n      and\n      0xffffffffffffffffffffffffffffffffffffffff\n      and\n      0xffffffffffffffffffffffffffffffffffffffff\n      and\n      dup2\n      mstore\n      pop\n      pop\n      swap1\n      pop\n        /* \"contracts/lib/GameRegistry.sol\":4254:4258  data */\n      dup1\n        /* \"contracts/lib/GameRegistry.sol\":4254:4271  data.isRegistered */\n      0x00\n      add\n      mload\n        /* \"contracts/lib/GameRegistry.sol\":4285:4289  data */\n      dup2\n        /* \"contracts/lib/GameRegistry.sol\":4285:4307  data.allowedAttributes */\n      0x20\n      add\n      mload\n        /* \"contracts/lib/GameRegistry.sol\":4321:4325  data */\n      dup3\n        /* \"contracts/lib/GameRegistry.sol\":4321:4342  data.registrationTime */\n      0x40\n      add\n      mload\n        /* \"contracts/lib/GameRegistry.sol\":4356:4360  data */\n      dup4\n        /* \"contracts/lib/GameRegistry.sol\":4356:4373  data.registeredBy */\n      0x60\n      add\n      mload\n        /* \"contracts/lib/GameRegistry.sol\":4233:4383  return (... */\n      swap5\n      pop\n      swap5\n      pop\n      swap5\n      pop\n      swap5\n      pop\n      pop\n        /* \"contracts/lib/GameRegistry.sol\":3987:4390  function getGameData(address game) external view returns (... */\n      swap2\n      swap4\n      pop\n      swap2\n      swap4\n      jump\t// out\n        /* \"contracts/lib/GameRegistry.sol\":2631:2977  function updateGameAttributes(address game, bytes32[] calldata attributes) external onlyOwner {... */\n    tag_56:\n        /* \"@openzeppelin/contracts/access/Ownable.sol\":1531:1544  _checkOwner() */\n      tag_146\n        /* \"@openzeppelin/contracts/access/Ownable.sol\":1531:1542  _checkOwner */\n      tag_92\n        /* \"@openzeppelin/contracts/access/Ownable.sol\":1531:1544  _checkOwner() */\n      jump\t// in\n    tag_146:\n        /* \"contracts/lib/GameRegistry.sol\":2743:2748  games */\n      0x01\n        /* \"contracts/lib/GameRegistry.sol\":2743:2754  games[game] */\n      0x00\n        /* \"contracts/lib/GameRegistry.sol\":2749:2753  game */\n      dup5\n        /* \"contracts/lib/GameRegistry.sol\":2743:2754  games[game] */\n      0xffffffffffffffffffffffffffffffffffffffff\n      and\n      0xffffffffffffffffffffffffffffffffffffffff\n      and\n      dup2\n      mstore\n      0x20\n      add\n      swap1\n      dup2\n      mstore\n      0x20\n      add\n      0x00\n      keccak256\n        /* \"contracts/lib/GameRegistry.sol\":2743:2767  games[game].isRegistered */\n      0x00\n      add\n      0x00\n      swap1\n      sload\n      swap1\n      0x0100\n      exp\n      swap1\n      div\n      0xff\n      and\n        /* \"contracts/lib/GameRegistry.sol\":2735:2791  require(games[game].isRegistered, \"Game not registered\") */\n      tag_148\n      jumpi\n      mload(0x40)\n      0x08c379a000000000000000000000000000000000000000000000000000000000\n      dup2\n      mstore\n      0x04\n      add\n      tag_149\n      swap1\n      tag_87\n      jump\t// in\n    tag_149:\n      mload(0x40)\n      dup1\n      swap2\n      sub\n      swap1\n      revert\n    tag_148:\n        /* \"contracts/lib/GameRegistry.sol\":2829:2830  0 */\n      0x00\n        /* \"contracts/lib/GameRegistry.sol\":2809:2819  attributes */\n      dup3\n      dup3\n        /* \"contracts/lib/GameRegistry.sol\":2809:2826  attributes.length */\n      swap1\n      pop\n        /* \"contracts/lib/GameRegistry.sol\":2809:2830  attributes.length > 0 */\n      gt\n        /* \"contracts/lib/GameRegistry.sol\":2801:2858  require(attributes.length > 0, \"No attributes specified\") */\n      tag_150\n      jumpi\n      mload(0x40)\n      0x08c379a000000000000000000000000000000000000000000000000000000000\n      dup2\n      mstore\n      0x04\n      add\n      tag_151\n      swap1\n      tag_107\n      jump\t// in\n    tag_151:\n      mload(0x40)\n      dup1\n      swap2\n      sub\n      swap1\n      revert\n    tag_150:\n        /* \"contracts/lib/GameRegistry.sol\":2901:2911  attributes */\n      dup2\n      dup2\n        /* \"contracts/lib/GameRegistry.sol\":2869:2874  games */\n      0x01\n        /* \"contracts/lib/GameRegistry.sol\":2869:2880  games[game] */\n      0x00\n        /* \"contracts/lib/GameRegistry.sol\":2875:2879  game */\n      dup7\n        /* \"contracts/lib/GameRegistry.sol\":2869:2880  games[game] */\n      0xffffffffffffffffffffffffffffffffffffffff\n      and\n      0xffffffffffffffffffffffffffffffffffffffff\n      and\n      dup2\n      mstore\n      0x20\n      add\n      swap1\n      dup2\n      mstore\n      0x20\n      add\n      0x00\n      keccak256\n        /* \"contracts/lib/GameRegistry.sol\":2869:2898  games[game].allowedAttributes */\n      0x01\n      add\n        /* \"contracts/lib/GameRegistry.sol\":2869:2911  games[game].allowedAttributes = attributes */\n      swap2\n      swap1\n      tag_152\n      swap3\n      swap2\n      swap1\n      tag_153\n      jump\t// in\n    tag_152:\n      pop\n        /* \"contracts/lib/GameRegistry.sol\":2953:2957  game */\n      dup3\n        /* \"contracts/lib/GameRegistry.sol\":2935:2970  AttributesUpdated(game, attributes) */\n      0xffffffffffffffffffffffffffffffffffffffff\n      and\n      0x1c50ef0651282591fa74ee2c938e0a1da260dcdf93862b41f66145fed968379d\n        /* \"contracts/lib/GameRegistry.sol\":2959:2969  attributes */\n      dup4\n      dup4\n        /* \"contracts/lib/GameRegistry.sol\":2935:2970  AttributesUpdated(game, attributes) */\n      mload(0x40)\n      tag_154\n      swap3\n      swap2\n      swap1\n      tag_112\n      jump\t// in\n    tag_154:\n      mload(0x40)\n      dup1\n      swap2\n      sub\n      swap1\n      log2\n        /* \"contracts/lib/GameRegistry.sol\":2631:2977  function updateGameAttributes(address game, bytes32[] calldata attributes) external onlyOwner {... */\n      pop\n      pop\n      pop\n      jump\t// out\n        /* \"contracts/lib/GameRegistry.sol\":3149:3275  function isGameRegistered(address game) external view override returns (bool) {... */\n    tag_59:\n        /* \"contracts/lib/GameRegistry.sol\":3221:3225  bool */\n      0x00\n        /* \"contracts/lib/GameRegistry.sol\":3244:3249  games */\n      0x01\n        /* \"contracts/lib/GameRegistry.sol\":3244:3255  games[game] */\n      0x00\n        /* \"contracts/lib/GameRegistry.sol\":3250:3254  game */\n      dup4\n        /* \"contracts/lib/GameRegistry.sol\":3244:3255  games[game] */\n      0xffffffffffffffffffffffffffffffffffffffff\n      and\n      0xffffffffffffffffffffffffffffffffffffffff\n      and\n      dup2\n      mstore\n      0x20\n      add\n      swap1\n      dup2\n      mstore\n      0x20\n      add\n      0x00\n      keccak256\n        /* \"contracts/lib/GameRegistry.sol\":3244:3268  games[game].isRegistered */\n      0x00\n      add\n      0x00\n      swap1\n      sload\n      swap1\n      0x0100\n      exp\n      swap1\n      div\n      0xff\n      and\n        /* \"contracts/lib/GameRegistry.sol\":3237:3268  return games[game].isRegistered */\n      swap1\n      pop\n        /* \"contracts/lib/GameRegistry.sol\":3149:3275  function isGameRegistered(address game) external view override returns (bool) {... */\n      swap2\n      swap1\n      pop\n      jump\t// out\n        /* \"@openzeppelin/contracts/access/Ownable.sol\":2543:2758  function transferOwnership(address newOwner) public virtual onlyOwner {... */\n    tag_63:\n        /* \"@openzeppelin/contracts/access/Ownable.sol\":1531:1544  _checkOwner() */\n      tag_157\n        /* \"@openzeppelin/contracts/access/Ownable.sol\":1531:1542  _checkOwner */\n      tag_92\n        /* \"@openzeppelin/contracts/access/Ownable.sol\":1531:1544  _checkOwner() */\n      jump\t// in\n    tag_157:\n        /* \"@openzeppelin/contracts/access/Ownable.sol\":2647:2648  0 */\n      0x00\n        /* \"@openzeppelin/contracts/access/Ownable.sol\":2627:2649  newOwner == address(0) */\n      0xffffffffffffffffffffffffffffffffffffffff\n      and\n        /* \"@openzeppelin/contracts/access/Ownable.sol\":2627:2635  newOwner */\n      dup2\n        /* \"@openzeppelin/contracts/access/Ownable.sol\":2627:2649  newOwner == address(0) */\n      0xffffffffffffffffffffffffffffffffffffffff\n      and\n      sub\n        /* \"@openzeppelin/contracts/access/Ownable.sol\":2623:2714  if (newOwner == address(0)) {... */\n      tag_159\n      jumpi\n        /* \"@openzeppelin/contracts/access/Ownable.sol\":2700:2701  0 */\n      0x00\n        /* \"@openzeppelin/contracts/access/Ownable.sol\":2672:2703  OwnableInvalidOwner(address(0)) */\n      mload(0x40)\n      0x1e4fbdf700000000000000000000000000000000000000000000000000000000\n      dup2\n      mstore\n      0x04\n      add\n      tag_160\n      swap2\n      swap1\n      tag_43\n      jump\t// in\n    tag_160:\n      mload(0x40)\n      dup1\n      swap2\n      sub\n      swap1\n      revert\n        /* \"@openzeppelin/contracts/access/Ownable.sol\":2623:2714  if (newOwner == address(0)) {... */\n    tag_159:\n        /* \"@openzeppelin/contracts/access/Ownable.sol\":2723:2751  _transferOwnership(newOwner) */\n      tag_161\n        /* \"@openzeppelin/contracts/access/Ownable.sol\":2742:2750  newOwner */\n      dup2\n        /* \"@openzeppelin/contracts/access/Ownable.sol\":2723:2741  _transferOwnership */\n      tag_95\n        /* \"@openzeppelin/contracts/access/Ownable.sol\":2723:2751  _transferOwnership(newOwner) */\n      jump\t// in\n    tag_161:\n        /* \"@openzeppelin/contracts/access/Ownable.sol\":2543:2758  function transferOwnership(address newOwner) public virtual onlyOwner {... */\n      pop\n      jump\t// out\n        /* \"@openzeppelin/contracts/access/Ownable.sol\":1796:1958  function _checkOwner() internal view virtual {... */\n    tag_92:\n        /* \"@openzeppelin/contracts/access/Ownable.sol\":1866:1878  _msgSender() */\n      tag_163\n        /* \"@openzeppelin/contracts/access/Ownable.sol\":1866:1876  _msgSender */\n      tag_164\n        /* \"@openzeppelin/contracts/access/Ownable.sol\":1866:1878  _msgSender() */\n      jump\t// in\n    tag_163:\n        /* \"@openzeppelin/contracts/access/Ownable.sol\":1855:1878  owner() != _msgSender() */\n      0xffffffffffffffffffffffffffffffffffffffff\n      and\n        /* \"@openzeppelin/contracts/access/Ownable.sol\":1855:1862  owner() */\n      tag_165\n        /* \"@openzeppelin/contracts/access/Ownable.sol\":1855:1860  owner */\n      tag_41\n        /* \"@openzeppelin/contracts/access/Ownable.sol\":1855:1862  owner() */\n      jump\t// in\n    tag_165:\n        /* \"@openzeppelin/contracts/access/Ownable.sol\":1855:1878  owner() != _msgSender() */\n      0xffffffffffffffffffffffffffffffffffffffff\n      and\n      eq\n        /* \"@openzeppelin/contracts/access/Ownable.sol\":1851:1952  if (owner() != _msgSender()) {... */\n      tag_166\n      jumpi\n        /* \"@openzeppelin/contracts/access/Ownable.sol\":1928:1940  _msgSender() */\n      tag_167\n        /* \"@openzeppelin/contracts/access/Ownable.sol\":1928:1938  _msgSender */\n      tag_164\n        /* \"@openzeppelin/contracts/access/Ownable.sol\":1928:1940  _msgSender() */\n      jump\t// in\n    tag_167:\n        /* \"@openzeppelin/contracts/access/Ownable.sol\":1901:1941  OwnableUnauthorizedAccount(_msgSender()) */\n      mload(0x40)\n      0x118cdaa700000000000000000000000000000000000000000000000000000000\n      dup2\n      mstore\n      0x04\n      add\n      tag_168\n      swap2\n      swap1\n      tag_43\n      jump\t// in\n    tag_168:\n      mload(0x40)\n      dup1\n      swap2\n      sub\n      swap1\n      revert\n        /* \"@openzeppelin/contracts/access/Ownable.sol\":1851:1952  if (owner() != _msgSender()) {... */\n    tag_166:\n        /* \"@openzeppelin/contracts/access/Ownable.sol\":1796:1958  function _checkOwner() internal view virtual {... */\n      jump\t// out\n        /* \"@openzeppelin/contracts/access/Ownable.sol\":2912:3099  function _transferOwnership(address newOwner) internal virtual {... */\n    tag_95:\n        /* \"@openzeppelin/contracts/access/Ownable.sol\":2985:3001  address oldOwner */\n      0x00\n        /* \"@openzeppelin/contracts/access/Ownable.sol\":3004:3010  _owner */\n      dup1\n      0x00\n      swap1\n      sload\n      swap1\n      0x0100\n      exp\n      swap1\n      div\n      0xffffffffffffffffffffffffffffffffffffffff\n      and\n        /* \"@openzeppelin/contracts/access/Ownable.sol\":2985:3010  address oldOwner = _owner */\n      swap1\n      pop\n        /* \"@openzeppelin/contracts/access/Ownable.sol\":3029:3037  newOwner */\n      dup2\n        /* \"@openzeppelin/contracts/access/Ownable.sol\":3020:3026  _owner */\n      0x00\n      dup1\n        /* \"@openzeppelin/contracts/access/Ownable.sol\":3020:3037  _owner = newOwner */\n      0x0100\n      exp\n      dup2\n      sload\n      dup2\n      0xffffffffffffffffffffffffffffffffffffffff\n      mul\n      not\n      and\n      swap1\n      dup4\n      0xffffffffffffffffffffffffffffffffffffffff\n      and\n      mul\n      or\n      swap1\n      sstore\n      pop\n        /* \"@openzeppelin/contracts/access/Ownable.sol\":3083:3091  newOwner */\n      dup2\n        /* \"@openzeppelin/contracts/access/Ownable.sol\":3052:3092  OwnershipTransferred(oldOwner, newOwner) */\n      0xffffffffffffffffffffffffffffffffffffffff\n      and\n        /* \"@openzeppelin/contracts/access/Ownable.sol\":3073:3081  oldOwner */\n      dup2\n        /* \"@openzeppelin/contracts/access/Ownable.sol\":3052:3092  OwnershipTransferred(oldOwner, newOwner) */\n      0xffffffffffffffffffffffffffffffffffffffff\n      and\n      0x8be0079c531659141344cd1fd0a4f28419497f9722a3daafe3b4186f6b6457e0\n      mload(0x40)\n      mload(0x40)\n      dup1\n      swap2\n      sub\n      swap1\n      log3\n        /* \"@openzeppelin/contracts/access/Ownable.sol\":2975:3099  {... */\n      pop\n        /* \"@openzeppelin/contracts/access/Ownable.sol\":2912:3099  function _transferOwnership(address newOwner) internal virtual {... */\n      pop\n      jump\t// out\n        /* \"@openzeppelin/contracts/utils/Context.sol\":656:752  function _msgSender() internal view virtual returns (address) {... */\n    tag_164:\n        /* \"@openzeppelin/contracts/utils/Context.sol\":709:716  address */\n      0x00\n        /* \"@openzeppelin/contracts/utils/Context.sol\":735:745  msg.sender */\n      caller\n        /* \"@openzeppelin/contracts/utils/Context.sol\":728:745  return msg.sender */\n      swap1\n      pop\n        /* \"@openzeppelin/contracts/utils/Context.sol\":656:752  function _msgSender() internal view virtual returns (address) {... */\n      swap1\n      jump\t// out\n    tag_109:\n      dup3\n      dup1\n      sload\n      dup3\n      dup3\n      sstore\n      swap1\n      0x00\n      mstore\n      keccak256(0x00, 0x20)\n      swap1\n      dup2\n      add\n      swap3\n      dup3\n      iszero\n      tag_171\n      jumpi\n      swap2\n      0x20\n      mul\n      dup3\n      add\n    tag_172:\n      dup3\n      dup2\n      gt\n      iszero\n      tag_173\n      jumpi\n      dup3\n      mload\n      dup3\n      sstore\n      swap2\n      0x20\n      add\n      swap2\n      swap1\n      0x01\n      add\n      swap1\n      jump(tag_172)\n    tag_173:\n    tag_171:\n      pop\n      swap1\n      pop\n      tag_174\n      swap2\n      swap1\n      tag_175\n      jump\t// in\n    tag_174:\n      pop\n      swap1\n      jump\t// out\n    tag_119:\n      pop\n      dup1\n      sload\n      0x00\n      dup3\n      sstore\n      swap1\n      0x00\n      mstore\n      keccak256(0x00, 0x20)\n      swap1\n      dup2\n      add\n      swap1\n      tag_177\n      swap2\n      swap1\n      tag_175\n      jump\t// in\n    tag_177:\n      pop\n      jump\t// out\n    tag_153:\n      dup3\n      dup1\n      sload\n      dup3\n      dup3\n      sstore\n      swap1\n      0x00\n      mstore\n      keccak256(0x00, 0x20)\n      swap1\n      dup2\n      add\n      swap3\n      dup3\n      iszero\n      tag_178\n      jumpi\n      swap2\n      0x20\n      mul\n      dup3\n      add\n    tag_179:\n      dup3\n      dup2\n      gt\n      iszero\n      tag_180\n      jumpi\n      dup3\n      calldataload\n      dup3\n      sstore\n      swap2\n      0x20\n      add\n      swap2\n      swap1\n      0x01\n      add\n      swap1\n      jump(tag_179)\n    tag_180:\n    tag_178:\n      pop\n      swap1\n      pop\n      tag_181\n      swap2\n      swap1\n      tag_175\n      jump\t// in\n    tag_181:\n      pop\n      swap1\n      jump\t// out\n    tag_175:\n    tag_182:\n      dup1\n      dup3\n      gt\n      iszero\n      tag_183\n      jumpi\n      0x00\n      dup2\n      0x00\n      swap1\n      sstore\n      pop\n      0x01\n      add\n      jump(tag_182)\n    tag_183:\n      pop\n      swap1\n      jump\t// out\n        /* \"#utility.yul\":88:205   */\n    tag_185:\n        /* \"#utility.yul\":197:198   */\n      0x00\n        /* \"#utility.yul\":194:195   */\n      dup1\n        /* \"#utility.yul\":187:199   */\n      revert\n        /* \"#utility.yul\":211:328   */\n    tag_186:\n        /* \"#utility.yul\":320:321   */\n      0x00\n        /* \"#utility.yul\":317:318   */\n      dup1\n        /* \"#utility.yul\":310:322   */\n      revert\n        /* \"#utility.yul\":334:460   */\n    tag_187:\n        /* \"#utility.yul\":371:378   */\n      0x00\n        /* \"#utility.yul\":411:453   */\n      0xffffffffffffffffffffffffffffffffffffffff\n        /* \"#utility.yul\":404:409   */\n      dup3\n        /* \"#utility.yul\":400:454   */\n      and\n        /* \"#utility.yul\":389:454   */\n      swap1\n      pop\n        /* \"#utility.yul\":334:460   */\n      swap2\n      swap1\n      pop\n      jump\t// out\n        /* \"#utility.yul\":466:562   */\n    tag_188:\n        /* \"#utility.yul\":503:510   */\n      0x00\n        /* \"#utility.yul\":532:556   */\n      tag_236\n        /* \"#utility.yul\":550:555   */\n      dup3\n        /* \"#utility.yul\":532:556   */\n      tag_187\n      jump\t// in\n    tag_236:\n        /* \"#utility.yul\":521:556   */\n      swap1\n      pop\n        /* \"#utility.yul\":466:562   */\n      swap2\n      swap1\n      pop\n      jump\t// out\n        /* \"#utility.yul\":568:690   */\n    tag_189:\n        /* \"#utility.yul\":641:665   */\n      tag_238\n        /* \"#utility.yul\":659:664   */\n      dup2\n        /* \"#utility.yul\":641:665   */\n      tag_188\n      jump\t// in\n    tag_238:\n        /* \"#utility.yul\":634:639   */\n      dup2\n        /* \"#utility.yul\":631:666   */\n      eq\n        /* \"#utility.yul\":621:684   */\n      tag_239\n      jumpi\n        /* \"#utility.yul\":680:681   */\n      0x00\n        /* \"#utility.yul\":677:678   */\n      dup1\n        /* \"#utility.yul\":670:682   */\n      revert\n        /* \"#utility.yul\":621:684   */\n    tag_239:\n        /* \"#utility.yul\":568:690   */\n      pop\n      jump\t// out\n        /* \"#utility.yul\":696:835   */\n    tag_190:\n        /* \"#utility.yul\":742:747   */\n      0x00\n        /* \"#utility.yul\":780:786   */\n      dup2\n        /* \"#utility.yul\":767:787   */\n      calldataload\n        /* \"#utility.yul\":758:787   */\n      swap1\n      pop\n        /* \"#utility.yul\":796:829   */\n      tag_241\n        /* \"#utility.yul\":823:828   */\n      dup2\n        /* \"#utility.yul\":796:829   */\n      tag_189\n      jump\t// in\n    tag_241:\n        /* \"#utility.yul\":696:835   */\n      swap3\n      swap2\n      pop\n      pop\n      jump\t// out\n        /* \"#utility.yul\":841:958   */\n    tag_191:\n        /* \"#utility.yul\":950:951   */\n      0x00\n        /* \"#utility.yul\":947:948   */\n      dup1\n        /* \"#utility.yul\":940:952   */\n      revert\n        /* \"#utility.yul\":964:1081   */\n    tag_192:\n        /* \"#utility.yul\":1073:1074   */\n      0x00\n        /* \"#utility.yul\":1070:1071   */\n      dup1\n        /* \"#utility.yul\":1063:1075   */\n      revert\n        /* \"#utility.yul\":1087:1204   */\n    tag_193:\n        /* \"#utility.yul\":1196:1197   */\n      0x00\n        /* \"#utility.yul\":1193:1194   */\n      dup1\n        /* \"#utility.yul\":1186:1198   */\n      revert\n        /* \"#utility.yul\":1227:1795   */\n    tag_194:\n        /* \"#utility.yul\":1300:1308   */\n      0x00\n        /* \"#utility.yul\":1310:1316   */\n      dup1\n        /* \"#utility.yul\":1360:1363   */\n      dup4\n        /* \"#utility.yul\":1353:1357   */\n      0x1f\n        /* \"#utility.yul\":1345:1351   */\n      dup5\n        /* \"#utility.yul\":1341:1358   */\n      add\n        /* \"#utility.yul\":1337:1364   */\n      slt\n        /* \"#utility.yul\":1327:1449   */\n      tag_246\n      jumpi\n        /* \"#utility.yul\":1368:1447   */\n      tag_247\n      tag_191\n      jump\t// in\n    tag_247:\n        /* \"#utility.yul\":1327:1449   */\n    tag_246:\n        /* \"#utility.yul\":1481:1487   */\n      dup3\n        /* \"#utility.yul\":1468:1488   */\n      calldataload\n        /* \"#utility.yul\":1458:1488   */\n      swap1\n      pop\n        /* \"#utility.yul\":1511:1529   */\n      0xffffffffffffffff\n        /* \"#utility.yul\":1503:1509   */\n      dup2\n        /* \"#utility.yul\":1500:1530   */\n      gt\n        /* \"#utility.yul\":1497:1614   */\n      iszero\n      tag_248\n      jumpi\n        /* \"#utility.yul\":1533:1612   */\n      tag_249\n      tag_192\n      jump\t// in\n    tag_249:\n        /* \"#utility.yul\":1497:1614   */\n    tag_248:\n        /* \"#utility.yul\":1647:1651   */\n      0x20\n        /* \"#utility.yul\":1639:1645   */\n      dup4\n        /* \"#utility.yul\":1635:1652   */\n      add\n        /* \"#utility.yul\":1623:1652   */\n      swap2\n      pop\n        /* \"#utility.yul\":1701:1704   */\n      dup4\n        /* \"#utility.yul\":1693:1697   */\n      0x20\n        /* \"#utility.yul\":1685:1691   */\n      dup3\n        /* \"#utility.yul\":1681:1698   */\n      mul\n        /* \"#utility.yul\":1671:1679   */\n      dup4\n        /* \"#utility.yul\":1667:1699   */\n      add\n        /* \"#utility.yul\":1664:1705   */\n      gt\n        /* \"#utility.yul\":1661:1789   */\n      iszero\n      tag_250\n      jumpi\n        /* \"#utility.yul\":1708:1787   */\n      tag_251\n      tag_193\n      jump\t// in\n    tag_251:\n        /* \"#utility.yul\":1661:1789   */\n    tag_250:\n        /* \"#utility.yul\":1227:1795   */\n      swap3\n      pop\n      swap3\n      swap1\n      pop\n      jump\t// out\n        /* \"#utility.yul\":1801:2505   */\n    tag_18:\n        /* \"#utility.yul\":1896:1902   */\n      0x00\n        /* \"#utility.yul\":1904:1910   */\n      dup1\n        /* \"#utility.yul\":1912:1918   */\n      0x00\n        /* \"#utility.yul\":1961:1963   */\n      0x40\n        /* \"#utility.yul\":1949:1958   */\n      dup5\n        /* \"#utility.yul\":1940:1947   */\n      dup7\n        /* \"#utility.yul\":1936:1959   */\n      sub\n        /* \"#utility.yul\":1932:1964   */\n      slt\n        /* \"#utility.yul\":1929:2048   */\n      iszero\n      tag_253\n      jumpi\n        /* \"#utility.yul\":1967:2046   */\n      tag_254\n      tag_185\n      jump\t// in\n    tag_254:\n        /* \"#utility.yul\":1929:2048   */\n    tag_253:\n        /* \"#utility.yul\":2087:2088   */\n      0x00\n        /* \"#utility.yul\":2112:2165   */\n      tag_255\n        /* \"#utility.yul\":2157:2164   */\n      dup7\n        /* \"#utility.yul\":2148:2154   */\n      dup3\n        /* \"#utility.yul\":2137:2146   */\n      dup8\n        /* \"#utility.yul\":2133:2155   */\n      add\n        /* \"#utility.yul\":2112:2165   */\n      tag_190\n      jump\t// in\n    tag_255:\n        /* \"#utility.yul\":2102:2165   */\n      swap4\n      pop\n        /* \"#utility.yul\":2058:2175   */\n      pop\n        /* \"#utility.yul\":2242:2244   */\n      0x20\n        /* \"#utility.yul\":2231:2240   */\n      dup5\n        /* \"#utility.yul\":2227:2245   */\n      add\n        /* \"#utility.yul\":2214:2246   */\n      calldataload\n        /* \"#utility.yul\":2273:2291   */\n      0xffffffffffffffff\n        /* \"#utility.yul\":2265:2271   */\n      dup2\n        /* \"#utility.yul\":2262:2292   */\n      gt\n        /* \"#utility.yul\":2259:2376   */\n      iszero\n      tag_256\n      jumpi\n        /* \"#utility.yul\":2295:2374   */\n      tag_257\n      tag_186\n      jump\t// in\n    tag_257:\n        /* \"#utility.yul\":2259:2376   */\n    tag_256:\n        /* \"#utility.yul\":2408:2488   */\n      tag_258\n        /* \"#utility.yul\":2480:2487   */\n      dup7\n        /* \"#utility.yul\":2471:2477   */\n      dup3\n        /* \"#utility.yul\":2460:2469   */\n      dup8\n        /* \"#utility.yul\":2456:2478   */\n      add\n        /* \"#utility.yul\":2408:2488   */\n      tag_194\n      jump\t// in\n    tag_258:\n        /* \"#utility.yul\":2390:2488   */\n      swap3\n      pop\n      swap3\n      pop\n        /* \"#utility.yul\":2185:2498   */\n      pop\n        /* \"#utility.yul\":1801:2505   */\n      swap3\n      pop\n      swap3\n      pop\n      swap3\n      jump\t// out\n        /* \"#utility.yul\":2511:2601   */\n    tag_195:\n        /* \"#utility.yul\":2545:2552   */\n      0x00\n        /* \"#utility.yul\":2588:2593   */\n      dup2\n        /* \"#utility.yul\":2581:2594   */\n      iszero\n        /* \"#utility.yul\":2574:2595   */\n      iszero\n        /* \"#utility.yul\":2563:2595   */\n      swap1\n      pop\n        /* \"#utility.yul\":2511:2601   */\n      swap2\n      swap1\n      pop\n      jump\t// out\n        /* \"#utility.yul\":2607:2716   */\n    tag_196:\n        /* \"#utility.yul\":2688:2709   */\n      tag_261\n        /* \"#utility.yul\":2703:2708   */\n      dup2\n        /* \"#utility.yul\":2688:2709   */\n      tag_195\n      jump\t// in\n    tag_261:\n        /* \"#utility.yul\":2683:2686   */\n      dup3\n        /* \"#utility.yul\":2676:2710   */\n      mstore\n        /* \"#utility.yul\":2607:2716   */\n      pop\n      pop\n      jump\t// out\n        /* \"#utility.yul\":2722:2932   */\n    tag_21:\n        /* \"#utility.yul\":2809:2813   */\n      0x00\n        /* \"#utility.yul\":2847:2849   */\n      0x20\n        /* \"#utility.yul\":2836:2845   */\n      dup3\n        /* \"#utility.yul\":2832:2850   */\n      add\n        /* \"#utility.yul\":2824:2850   */\n      swap1\n      pop\n        /* \"#utility.yul\":2860:2925   */\n      tag_263\n        /* \"#utility.yul\":2922:2923   */\n      0x00\n        /* \"#utility.yul\":2911:2920   */\n      dup4\n        /* \"#utility.yul\":2907:2924   */\n      add\n        /* \"#utility.yul\":2898:2904   */\n      dup5\n        /* \"#utility.yul\":2860:2925   */\n      tag_196\n      jump\t// in\n    tag_263:\n        /* \"#utility.yul\":2722:2932   */\n      swap3\n      swap2\n      pop\n      pop\n      jump\t// out\n        /* \"#utility.yul\":2938:3052   */\n    tag_197:\n        /* \"#utility.yul\":3005:3011   */\n      0x00\n        /* \"#utility.yul\":3039:3044   */\n      dup2\n        /* \"#utility.yul\":3033:3045   */\n      mload\n        /* \"#utility.yul\":3023:3045   */\n      swap1\n      pop\n        /* \"#utility.yul\":2938:3052   */\n      swap2\n      swap1\n      pop\n      jump\t// out\n        /* \"#utility.yul\":3058:3242   */\n    tag_198:\n        /* \"#utility.yul\":3157:3168   */\n      0x00\n        /* \"#utility.yul\":3191:3197   */\n      dup3\n        /* \"#utility.yul\":3186:3189   */\n      dup3\n        /* \"#utility.yul\":3179:3198   */\n      mstore\n        /* \"#utility.yul\":3231:3235   */\n      0x20\n        /* \"#utility.yul\":3226:3229   */\n      dup3\n        /* \"#utility.yul\":3222:3236   */\n      add\n        /* \"#utility.yul\":3207:3236   */\n      swap1\n      pop\n        /* \"#utility.yul\":3058:3242   */\n      swap3\n      swap2\n      pop\n      pop\n      jump\t// out\n        /* \"#utility.yul\":3248:3380   */\n    tag_199:\n        /* \"#utility.yul\":3315:3319   */\n      0x00\n        /* \"#utility.yul\":3338:3341   */\n      dup2\n        /* \"#utility.yul\":3330:3341   */\n      swap1\n      pop\n        /* \"#utility.yul\":3368:3372   */\n      0x20\n        /* \"#utility.yul\":3363:3366   */\n      dup3\n        /* \"#utility.yul\":3359:3373   */\n      add\n        /* \"#utility.yul\":3351:3373   */\n      swap1\n      pop\n        /* \"#utility.yul\":3248:3380   */\n      swap2\n      swap1\n      pop\n      jump\t// out\n        /* \"#utility.yul\":3386:3494   */\n    tag_200:\n        /* \"#utility.yul\":3463:3487   */\n      tag_268\n        /* \"#utility.yul\":3481:3486   */\n      dup2\n        /* \"#utility.yul\":3463:3487   */\n      tag_188\n      jump\t// in\n    tag_268:\n        /* \"#utility.yul\":3458:3461   */\n      dup3\n        /* \"#utility.yul\":3451:3488   */\n      mstore\n        /* \"#utility.yul\":3386:3494   */\n      pop\n      pop\n      jump\t// out\n        /* \"#utility.yul\":3500:3679   */\n    tag_201:\n        /* \"#utility.yul\":3569:3579   */\n      0x00\n        /* \"#utility.yul\":3590:3636   */\n      tag_270\n        /* \"#utility.yul\":3632:3635   */\n      dup4\n        /* \"#utility.yul\":3624:3630   */\n      dup4\n        /* \"#utility.yul\":3590:3636   */\n      tag_200\n      jump\t// in\n    tag_270:\n        /* \"#utility.yul\":3668:3672   */\n      0x20\n        /* \"#utility.yul\":3663:3666   */\n      dup4\n        /* \"#utility.yul\":3659:3673   */\n      add\n        /* \"#utility.yul\":3645:3673   */\n      swap1\n      pop\n        /* \"#utility.yul\":3500:3679   */\n      swap3\n      swap2\n      pop\n      pop\n      jump\t// out\n        /* \"#utility.yul\":3685:3798   */\n    tag_202:\n        /* \"#utility.yul\":3755:3759   */\n      0x00\n        /* \"#utility.yul\":3787:3791   */\n      0x20\n        /* \"#utility.yul\":3782:3785   */\n      dup3\n        /* \"#utility.yul\":3778:3792   */\n      add\n        /* \"#utility.yul\":3770:3792   */\n      swap1\n      pop\n        /* \"#utility.yul\":3685:3798   */\n      swap2\n      swap1\n      pop\n      jump\t// out\n        /* \"#utility.yul\":3834:4566   */\n    tag_203:\n        /* \"#utility.yul\":3953:3956   */\n      0x00\n        /* \"#utility.yul\":3982:4036   */\n      tag_273\n        /* \"#utility.yul\":4030:4035   */\n      dup3\n        /* \"#utility.yul\":3982:4036   */\n      tag_197\n      jump\t// in\n    tag_273:\n        /* \"#utility.yul\":4052:4138   */\n      tag_274\n        /* \"#utility.yul\":4131:4137   */\n      dup2\n        /* \"#utility.yul\":4126:4129   */\n      dup6\n        /* \"#utility.yul\":4052:4138   */\n      tag_198\n      jump\t// in\n    tag_274:\n        /* \"#utility.yul\":4045:4138   */\n      swap4\n      pop\n        /* \"#utility.yul\":4162:4218   */\n      tag_275\n        /* \"#utility.yul\":4212:4217   */\n      dup4\n        /* \"#utility.yul\":4162:4218   */\n      tag_199\n      jump\t// in\n    tag_275:\n        /* \"#utility.yul\":4241:4248   */\n      dup1\n        /* \"#utility.yul\":4272:4273   */\n      0x00\n        /* \"#utility.yul\":4257:4541   */\n    tag_276:\n        /* \"#utility.yul\":4282:4288   */\n      dup4\n        /* \"#utility.yul\":4279:4280   */\n      dup2\n        /* \"#utility.yul\":4276:4289   */\n      lt\n        /* \"#utility.yul\":4257:4541   */\n      iszero\n      tag_278\n      jumpi\n        /* \"#utility.yul\":4358:4364   */\n      dup2\n        /* \"#utility.yul\":4352:4365   */\n      mload\n        /* \"#utility.yul\":4385:4448   */\n      tag_279\n        /* \"#utility.yul\":4444:4447   */\n      dup9\n        /* \"#utility.yul\":4429:4442   */\n      dup3\n        /* \"#utility.yul\":4385:4448   */\n      tag_201\n      jump\t// in\n    tag_279:\n        /* \"#utility.yul\":4378:4448   */\n      swap8\n      pop\n        /* \"#utility.yul\":4471:4531   */\n      tag_280\n        /* \"#utility.yul\":4524:4530   */\n      dup4\n        /* \"#utility.yul\":4471:4531   */\n      tag_202\n      jump\t// in\n    tag_280:\n        /* \"#utility.yul\":4461:4531   */\n      swap3\n      pop\n        /* \"#utility.yul\":4317:4541   */\n      pop\n        /* \"#utility.yul\":4304:4305   */\n      0x01\n        /* \"#utility.yul\":4301:4302   */\n      dup2\n        /* \"#utility.yul\":4297:4306   */\n      add\n        /* \"#utility.yul\":4292:4306   */\n      swap1\n      pop\n        /* \"#utility.yul\":4257:4541   */\n      jump(tag_276)\n    tag_278:\n        /* \"#utility.yul\":4261:4275   */\n      pop\n        /* \"#utility.yul\":4557:4560   */\n      dup6\n        /* \"#utility.yul\":4550:4560   */\n      swap4\n      pop\n        /* \"#utility.yul\":3958:4566   */\n      pop\n      pop\n      pop\n        /* \"#utility.yul\":3834:4566   */\n      swap3\n      swap2\n      pop\n      pop\n      jump\t// out\n        /* \"#utility.yul\":4572:4945   */\n    tag_25:\n        /* \"#utility.yul\":4715:4719   */\n      0x00\n        /* \"#utility.yul\":4753:4755   */\n      0x20\n        /* \"#utility.yul\":4742:4751   */\n      dup3\n        /* \"#utility.yul\":4738:4756   */\n      add\n        /* \"#utility.yul\":4730:4756   */\n      swap1\n      pop\n        /* \"#utility.yul\":4802:4811   */\n      dup2\n        /* \"#utility.yul\":4796:4800   */\n      dup2\n        /* \"#utility.yul\":4792:4812   */\n      sub\n        /* \"#utility.yul\":4788:4789   */\n      0x00\n        /* \"#utility.yul\":4777:4786   */\n      dup4\n        /* \"#utility.yul\":4773:4790   */\n      add\n        /* \"#utility.yul\":4766:4813   */\n      mstore\n        /* \"#utility.yul\":4830:4938   */\n      tag_282\n        /* \"#utility.yul\":4933:4937   */\n      dup2\n        /* \"#utility.yul\":4924:4930   */\n      dup5\n        /* \"#utility.yul\":4830:4938   */\n      tag_203\n      jump\t// in\n    tag_282:\n        /* \"#utility.yul\":4822:4938   */\n      swap1\n      pop\n        /* \"#utility.yul\":4572:4945   */\n      swap3\n      swap2\n      pop\n      pop\n      jump\t// out\n        /* \"#utility.yul\":4951:5280   */\n    tag_28:\n        /* \"#utility.yul\":5010:5016   */\n      0x00\n        /* \"#utility.yul\":5059:5061   */\n      0x20\n        /* \"#utility.yul\":5047:5056   */\n      dup3\n        /* \"#utility.yul\":5038:5045   */\n      dup5\n        /* \"#utility.yul\":5034:5057   */\n      sub\n        /* \"#utility.yul\":5030:5062   */\n      slt\n        /* \"#utility.yul\":5027:5146   */\n      iszero\n      tag_284\n      jumpi\n        /* \"#utility.yul\":5065:5144   */\n      tag_285\n      tag_185\n      jump\t// in\n    tag_285:\n        /* \"#utility.yul\":5027:5146   */\n    tag_284:\n        /* \"#utility.yul\":5185:5186   */\n      0x00\n        /* \"#utility.yul\":5210:5263   */\n      tag_286\n        /* \"#utility.yul\":5255:5262   */\n      dup5\n        /* \"#utility.yul\":5246:5252   */\n      dup3\n        /* \"#utility.yul\":5235:5244   */\n      dup6\n        /* \"#utility.yul\":5231:5253   */\n      add\n        /* \"#utility.yul\":5210:5263   */\n      tag_190\n      jump\t// in\n    tag_286:\n        /* \"#utility.yul\":5200:5263   */\n      swap2\n      pop\n        /* \"#utility.yul\":5156:5273   */\n      pop\n        /* \"#utility.yul\":4951:5280   */\n      swap3\n      swap2\n      pop\n      pop\n      jump\t// out\n        /* \"#utility.yul\":5286:5400   */\n    tag_204:\n        /* \"#utility.yul\":5353:5359   */\n      0x00\n        /* \"#utility.yul\":5387:5392   */\n      dup2\n        /* \"#utility.yul\":5381:5393   */\n      mload\n        /* \"#utility.yul\":5371:5393   */\n      swap1\n      pop\n        /* \"#utility.yul\":5286:5400   */\n      swap2\n      swap1\n      pop\n      jump\t// out\n        /* \"#utility.yul\":5406:5590   */\n    tag_205:\n        /* \"#utility.yul\":5505:5516   */\n      0x00\n        /* \"#utility.yul\":5539:5545   */\n      dup3\n        /* \"#utility.yul\":5534:5537   */\n      dup3\n        /* \"#utility.yul\":5527:5546   */\n      mstore\n        /* \"#utility.yul\":5579:5583   */\n      0x20\n        /* \"#utility.yul\":5574:5577   */\n      dup3\n        /* \"#utility.yul\":5570:5584   */\n      add\n        /* \"#utility.yul\":5555:5584   */\n      swap1\n      pop\n        /* \"#utility.yul\":5406:5590   */\n      swap3\n      swap2\n      pop\n      pop\n      jump\t// out\n        /* \"#utility.yul\":5596:5728   */\n    tag_206:\n        /* \"#utility.yul\":5663:5667   */\n      0x00\n        /* \"#utility.yul\":5686:5689   */\n      dup2\n        /* \"#utility.yul\":5678:5689   */\n      swap1\n      pop\n        /* \"#utility.yul\":5716:5720   */\n      0x20\n        /* \"#utility.yul\":5711:5714   */\n      dup3\n        /* \"#utility.yul\":5707:5721   */\n      add\n        /* \"#utility.yul\":5699:5721   */\n      swap1\n      pop\n        /* \"#utility.yul\":5596:5728   */\n      swap2\n      swap1\n      pop\n      jump\t// out\n        /* \"#utility.yul\":5734:5811   */\n    tag_207:\n        /* \"#utility.yul\":5771:5778   */\n      0x00\n        /* \"#utility.yul\":5800:5805   */\n      dup2\n        /* \"#utility.yul\":5789:5805   */\n      swap1\n      pop\n        /* \"#utility.yul\":5734:5811   */\n      swap2\n      swap1\n      pop\n      jump\t// out\n        /* \"#utility.yul\":5817:5925   */\n    tag_208:\n        /* \"#utility.yul\":5894:5918   */\n      tag_292\n        /* \"#utility.yul\":5912:5917   */\n      dup2\n        /* \"#utility.yul\":5894:5918   */\n      tag_207\n      jump\t// in\n    tag_292:\n        /* \"#utility.yul\":5889:5892   */\n      dup3\n        /* \"#utility.yul\":5882:5919   */\n      mstore\n        /* \"#utility.yul\":5817:5925   */\n      pop\n      pop\n      jump\t// out\n        /* \"#utility.yul\":5931:6110   */\n    tag_209:\n        /* \"#utility.yul\":6000:6010   */\n      0x00\n        /* \"#utility.yul\":6021:6067   */\n      tag_294\n        /* \"#utility.yul\":6063:6066   */\n      dup4\n        /* \"#utility.yul\":6055:6061   */\n      dup4\n        /* \"#utility.yul\":6021:6067   */\n      tag_208\n      jump\t// in\n    tag_294:\n        /* \"#utility.yul\":6099:6103   */\n      0x20\n        /* \"#utility.yul\":6094:6097   */\n      dup4\n        /* \"#utility.yul\":6090:6104   */\n      add\n        /* \"#utility.yul\":6076:6104   */\n      swap1\n      pop\n        /* \"#utility.yul\":5931:6110   */\n      swap3\n      swap2\n      pop\n      pop\n      jump\t// out\n        /* \"#utility.yul\":6116:6229   */\n    tag_210:\n        /* \"#utility.yul\":6186:6190   */\n      0x00\n        /* \"#utility.yul\":6218:6222   */\n      0x20\n        /* \"#utility.yul\":6213:6216   */\n      dup3\n        /* \"#utility.yul\":6209:6223   */\n      add\n        /* \"#utility.yul\":6201:6223   */\n      swap1\n      pop\n        /* \"#utility.yul\":6116:6229   */\n      swap2\n      swap1\n      pop\n      jump\t// out\n        /* \"#utility.yul\":6265:6997   */\n    tag_211:\n        /* \"#utility.yul\":6384:6387   */\n      0x00\n        /* \"#utility.yul\":6413:6467   */\n      tag_297\n        /* \"#utility.yul\":6461:6466   */\n      dup3\n        /* \"#utility.yul\":6413:6467   */\n      tag_204\n      jump\t// in\n    tag_297:\n        /* \"#utility.yul\":6483:6569   */\n      tag_298\n        /* \"#utility.yul\":6562:6568   */\n      dup2\n        /* \"#utility.yul\":6557:6560   */\n      dup6\n        /* \"#utility.yul\":6483:6569   */\n      tag_205\n      jump\t// in\n    tag_298:\n        /* \"#utility.yul\":6476:6569   */\n      swap4\n      pop\n        /* \"#utility.yul\":6593:6649   */\n      tag_299\n        /* \"#utility.yul\":6643:6648   */\n      dup4\n        /* \"#utility.yul\":6593:6649   */\n      tag_206\n      jump\t// in\n    tag_299:\n        /* \"#utility.yul\":6672:6679   */\n      dup1\n        /* \"#utility.yul\":6703:6704   */\n      0x00\n        /* \"#utility.yul\":6688:6972   */\n    tag_300:\n        /* \"#utility.yul\":6713:6719   */\n      dup4\n        /* \"#utility.yul\":6710:6711   */\n      dup2\n        /* \"#utility.yul\":6707:6720   */\n      lt\n        /* \"#utility.yul\":6688:6972   */\n      iszero\n      tag_302\n      jumpi\n        /* \"#utility.yul\":6789:6795   */\n      dup2\n        /* \"#utility.yul\":6783:6796   */\n      mload\n        /* \"#utility.yul\":6816:6879   */\n      tag_303\n        /* \"#utility.yul\":6875:6878   */\n      dup9\n        /* \"#utility.yul\":6860:6873   */\n      dup3\n        /* \"#utility.yul\":6816:6879   */\n      tag_209\n      jump\t// in\n    tag_303:\n        /* \"#utility.yul\":6809:6879   */\n      swap8\n      pop\n        /* \"#utility.yul\":6902:6962   */\n      tag_304\n        /* \"#utility.yul\":6955:6961   */\n      dup4\n        /* \"#utility.yul\":6902:6962   */\n      tag_210\n      jump\t// in\n    tag_304:\n        /* \"#utility.yul\":6892:6962   */\n      swap3\n      pop\n        /* \"#utility.yul\":6748:6972   */\n      pop\n        /* \"#utility.yul\":6735:6736   */\n      0x01\n        /* \"#utility.yul\":6732:6733   */\n      dup2\n        /* \"#utility.yul\":6728:6737   */\n      add\n        /* \"#utility.yul\":6723:6737   */\n      swap1\n      pop\n        /* \"#utility.yul\":6688:6972   */\n      jump(tag_300)\n    tag_302:\n        /* \"#utility.yul\":6692:6706   */\n      pop\n        /* \"#utility.yul\":6988:6991   */\n      dup6\n        /* \"#utility.yul\":6981:6991   */\n      swap4\n      pop\n        /* \"#utility.yul\":6389:6997   */\n      pop\n      pop\n      pop\n        /* \"#utility.yul\":6265:6997   */\n      swap3\n      swap2\n      pop\n      pop\n      jump\t// out\n        /* \"#utility.yul\":7003:7376   */\n    tag_31:\n        /* \"#utility.yul\":7146:7150   */\n      0x00\n        /* \"#utility.yul\":7184:7186   */\n      0x20\n        /* \"#utility.yul\":7173:7182   */\n      dup3\n        /* \"#utility.yul\":7169:7187   */\n      add\n        /* \"#utility.yul\":7161:7187   */\n      swap1\n      pop\n        /* \"#utility.yul\":7233:7242   */\n      dup2\n        /* \"#utility.yul\":7227:7231   */\n      dup2\n        /* \"#utility.yul\":7223:7243   */\n      sub\n        /* \"#utility.yul\":7219:7220   */\n      0x00\n        /* \"#utility.yul\":7208:7217   */\n      dup4\n        /* \"#utility.yul\":7204:7221   */\n      add\n        /* \"#utility.yul\":7197:7244   */\n      mstore\n        /* \"#utility.yul\":7261:7369   */\n      tag_306\n        /* \"#utility.yul\":7364:7368   */\n      dup2\n        /* \"#utility.yul\":7355:7361   */\n      dup5\n        /* \"#utility.yul\":7261:7369   */\n      tag_211\n      jump\t// in\n    tag_306:\n        /* \"#utility.yul\":7253:7369   */\n      swap1\n      pop\n        /* \"#utility.yul\":7003:7376   */\n      swap3\n      swap2\n      pop\n      pop\n      jump\t// out\n        /* \"#utility.yul\":7382:7500   */\n    tag_212:\n        /* \"#utility.yul\":7469:7493   */\n      tag_308\n        /* \"#utility.yul\":7487:7492   */\n      dup2\n        /* \"#utility.yul\":7469:7493   */\n      tag_188\n      jump\t// in\n    tag_308:\n        /* \"#utility.yul\":7464:7467   */\n      dup3\n        /* \"#utility.yul\":7457:7494   */\n      mstore\n        /* \"#utility.yul\":7382:7500   */\n      pop\n      pop\n      jump\t// out\n        /* \"#utility.yul\":7506:7728   */\n    tag_43:\n        /* \"#utility.yul\":7599:7603   */\n      0x00\n        /* \"#utility.yul\":7637:7639   */\n      0x20\n        /* \"#utility.yul\":7626:7635   */\n      dup3\n        /* \"#utility.yul\":7622:7640   */\n      add\n        /* \"#utility.yul\":7614:7640   */\n      swap1\n      pop\n        /* \"#utility.yul\":7650:7721   */\n      tag_310\n        /* \"#utility.yul\":7718:7719   */\n      0x00\n        /* \"#utility.yul\":7707:7716   */\n      dup4\n        /* \"#utility.yul\":7703:7720   */\n      add\n        /* \"#utility.yul\":7694:7700   */\n      dup5\n        /* \"#utility.yul\":7650:7721   */\n      tag_212\n      jump\t// in\n    tag_310:\n        /* \"#utility.yul\":7506:7728   */\n      swap3\n      swap2\n      pop\n      pop\n      jump\t// out\n        /* \"#utility.yul\":7734:7811   */\n    tag_213:\n        /* \"#utility.yul\":7771:7778   */\n      0x00\n        /* \"#utility.yul\":7800:7805   */\n      dup2\n        /* \"#utility.yul\":7789:7805   */\n      swap1\n      pop\n        /* \"#utility.yul\":7734:7811   */\n      swap2\n      swap1\n      pop\n      jump\t// out\n        /* \"#utility.yul\":7817:7939   */\n    tag_214:\n        /* \"#utility.yul\":7890:7914   */\n      tag_313\n        /* \"#utility.yul\":7908:7913   */\n      dup2\n        /* \"#utility.yul\":7890:7914   */\n      tag_213\n      jump\t// in\n    tag_313:\n        /* \"#utility.yul\":7883:7888   */\n      dup2\n        /* \"#utility.yul\":7880:7915   */\n      eq\n        /* \"#utility.yul\":7870:7933   */\n      tag_314\n      jumpi\n        /* \"#utility.yul\":7929:7930   */\n      0x00\n        /* \"#utility.yul\":7926:7927   */\n      dup1\n        /* \"#utility.yul\":7919:7931   */\n      revert\n        /* \"#utility.yul\":7870:7933   */\n    tag_314:\n        /* \"#utility.yul\":7817:7939   */\n      pop\n      jump\t// out\n        /* \"#utility.yul\":7945:8084   */\n    tag_215:\n        /* \"#utility.yul\":7991:7996   */\n      0x00\n        /* \"#utility.yul\":8029:8035   */\n      dup2\n        /* \"#utility.yul\":8016:8036   */\n      calldataload\n        /* \"#utility.yul\":8007:8036   */\n      swap1\n      pop\n        /* \"#utility.yul\":8045:8078   */\n      tag_316\n        /* \"#utility.yul\":8072:8077   */\n      dup2\n        /* \"#utility.yul\":8045:8078   */\n      tag_214\n      jump\t// in\n    tag_316:\n        /* \"#utility.yul\":7945:8084   */\n      swap3\n      swap2\n      pop\n      pop\n      jump\t// out\n        /* \"#utility.yul\":8090:8419   */\n    tag_46:\n        /* \"#utility.yul\":8149:8155   */\n      0x00\n        /* \"#utility.yul\":8198:8200   */\n      0x20\n        /* \"#utility.yul\":8186:8195   */\n      dup3\n        /* \"#utility.yul\":8177:8184   */\n      dup5\n        /* \"#utility.yul\":8173:8196   */\n      sub\n        /* \"#utility.yul\":8169:8201   */\n      slt\n        /* \"#utility.yul\":8166:8285   */\n      iszero\n      tag_318\n      jumpi\n        /* \"#utility.yul\":8204:8283   */\n      tag_319\n      tag_185\n      jump\t// in\n    tag_319:\n        /* \"#utility.yul\":8166:8285   */\n    tag_318:\n        /* \"#utility.yul\":8324:8325   */\n      0x00\n        /* \"#utility.yul\":8349:8402   */\n      tag_320\n        /* \"#utility.yul\":8394:8401   */\n      dup5\n        /* \"#utility.yul\":8385:8391   */\n      dup3\n        /* \"#utility.yul\":8374:8383   */\n      dup6\n        /* \"#utility.yul\":8370:8392   */\n      add\n        /* \"#utility.yul\":8349:8402   */\n      tag_215\n      jump\t// in\n    tag_320:\n        /* \"#utility.yul\":8339:8402   */\n      swap2\n      pop\n        /* \"#utility.yul\":8295:8412   */\n      pop\n        /* \"#utility.yul\":8090:8419   */\n      swap3\n      swap2\n      pop\n      pop\n      jump\t// out\n        /* \"#utility.yul\":8425:8543   */\n    tag_216:\n        /* \"#utility.yul\":8512:8536   */\n      tag_322\n        /* \"#utility.yul\":8530:8535   */\n      dup2\n        /* \"#utility.yul\":8512:8536   */\n      tag_213\n      jump\t// in\n    tag_322:\n        /* \"#utility.yul\":8507:8510   */\n      dup3\n        /* \"#utility.yul\":8500:8537   */\n      mstore\n        /* \"#utility.yul\":8425:8543   */\n      pop\n      pop\n      jump\t// out\n        /* \"#utility.yul\":8549:9241   */\n    tag_53:\n        /* \"#utility.yul\":8770:8774   */\n      0x00\n        /* \"#utility.yul\":8808:8811   */\n      0x80\n        /* \"#utility.yul\":8797:8806   */\n      dup3\n        /* \"#utility.yul\":8793:8812   */\n      add\n        /* \"#utility.yul\":8785:8812   */\n      swap1\n      pop\n        /* \"#utility.yul\":8822:8887   */\n      tag_324\n        /* \"#utility.yul\":8884:8885   */\n      0x00\n        /* \"#utility.yul\":8873:8882   */\n      dup4\n        /* \"#utility.yul\":8869:8886   */\n      add\n        /* \"#utility.yul\":8860:8866   */\n      dup8\n        /* \"#utility.yul\":8822:8887   */\n      tag_196\n      jump\t// in\n    tag_324:\n        /* \"#utility.yul\":8934:8943   */\n      dup2\n        /* \"#utility.yul\":8928:8932   */\n      dup2\n        /* \"#utility.yul\":8924:8944   */\n      sub\n        /* \"#utility.yul\":8919:8921   */\n      0x20\n        /* \"#utility.yul\":8908:8917   */\n      dup4\n        /* \"#utility.yul\":8904:8922   */\n      add\n        /* \"#utility.yul\":8897:8945   */\n      mstore\n        /* \"#utility.yul\":8962:9070   */\n      tag_325\n        /* \"#utility.yul\":9065:9069   */\n      dup2\n        /* \"#utility.yul\":9056:9062   */\n      dup7\n        /* \"#utility.yul\":8962:9070   */\n      tag_211\n      jump\t// in\n    tag_325:\n        /* \"#utility.yul\":8954:9070   */\n      swap1\n      pop\n        /* \"#utility.yul\":9080:9152   */\n      tag_326\n        /* \"#utility.yul\":9148:9150   */\n      0x40\n        /* \"#utility.yul\":9137:9146   */\n      dup4\n        /* \"#utility.yul\":9133:9151   */\n      add\n        /* \"#utility.yul\":9124:9130   */\n      dup6\n        /* \"#utility.yul\":9080:9152   */\n      tag_216\n      jump\t// in\n    tag_326:\n        /* \"#utility.yul\":9162:9234   */\n      tag_327\n        /* \"#utility.yul\":9230:9232   */\n      0x60\n        /* \"#utility.yul\":9219:9228   */\n      dup4\n        /* \"#utility.yul\":9215:9233   */\n      add\n        /* \"#utility.yul\":9206:9212   */\n      dup5\n        /* \"#utility.yul\":9162:9234   */\n      tag_212\n      jump\t// in\n    tag_327:\n        /* \"#utility.yul\":8549:9241   */\n      swap6\n      swap5\n      pop\n      pop\n      pop\n      pop\n      pop\n      jump\t// out\n        /* \"#utility.yul\":9247:9427   */\n    tag_76:\n        /* \"#utility.yul\":9295:9372   */\n      0x4e487b7100000000000000000000000000000000000000000000000000000000\n        /* \"#utility.yul\":9292:9293   */\n      0x00\n        /* \"#utility.yul\":9285:9373   */\n      mstore\n        /* \"#utility.yul\":9392:9396   */\n      0x32\n        /* \"#utility.yul\":9389:9390   */\n      0x04\n        /* \"#utility.yul\":9382:9397   */\n      mstore\n        /* \"#utility.yul\":9416:9420   */\n      0x24\n        /* \"#utility.yul\":9413:9414   */\n      0x00\n        /* \"#utility.yul\":9406:9421   */\n      revert\n        /* \"#utility.yul\":9433:9602   */\n    tag_217:\n        /* \"#utility.yul\":9517:9528   */\n      0x00\n        /* \"#utility.yul\":9551:9557   */\n      dup3\n        /* \"#utility.yul\":9546:9549   */\n      dup3\n        /* \"#utility.yul\":9539:9558   */\n      mstore\n        /* \"#utility.yul\":9591:9595   */\n      0x20\n        /* \"#utility.yul\":9586:9589   */\n      dup3\n        /* \"#utility.yul\":9582:9596   */\n      add\n        /* \"#utility.yul\":9567:9596   */\n      swap1\n      pop\n        /* \"#utility.yul\":9433:9602   */\n      swap3\n      swap2\n      pop\n      pop\n      jump\t// out\n        /* \"#utility.yul\":9608:9777   */\n    tag_218:\n        /* \"#utility.yul\":9748:9769   */\n      0x47616d65206e6f74207265676973746572656400000000000000000000000000\n        /* \"#utility.yul\":9744:9745   */\n      0x00\n        /* \"#utility.yul\":9736:9742   */\n      dup3\n        /* \"#utility.yul\":9732:9746   */\n      add\n        /* \"#utility.yul\":9725:9770   */\n      mstore\n        /* \"#utility.yul\":9608:9777   */\n      pop\n      jump\t// out\n        /* \"#utility.yul\":9783:10149   */\n    tag_219:\n        /* \"#utility.yul\":9925:9928   */\n      0x00\n        /* \"#utility.yul\":9946:10013   */\n      tag_332\n        /* \"#utility.yul\":10010:10012   */\n      0x13\n        /* \"#utility.yul\":10005:10008   */\n      dup4\n        /* \"#utility.yul\":9946:10013   */\n      tag_217\n      jump\t// in\n    tag_332:\n        /* \"#utility.yul\":9939:10013   */\n      swap2\n      pop\n        /* \"#utility.yul\":10022:10115   */\n      tag_333\n        /* \"#utility.yul\":10111:10114   */\n      dup3\n        /* \"#utility.yul\":10022:10115   */\n      tag_218\n      jump\t// in\n    tag_333:\n        /* \"#utility.yul\":10140:10142   */\n      0x20\n        /* \"#utility.yul\":10135:10138   */\n      dup3\n        /* \"#utility.yul\":10131:10143   */\n      add\n        /* \"#utility.yul\":10124:10143   */\n      swap1\n      pop\n        /* \"#utility.yul\":9783:10149   */\n      swap2\n      swap1\n      pop\n      jump\t// out\n        /* \"#utility.yul\":10155:10574   */\n    tag_87:\n        /* \"#utility.yul\":10321:10325   */\n      0x00\n        /* \"#utility.yul\":10359:10361   */\n      0x20\n        /* \"#utility.yul\":10348:10357   */\n      dup3\n        /* \"#utility.yul\":10344:10362   */\n      add\n        /* \"#utility.yul\":10336:10362   */\n      swap1\n      pop\n        /* \"#utility.yul\":10408:10417   */\n      dup2\n        /* \"#utility.yul\":10402:10406   */\n      dup2\n        /* \"#utility.yul\":10398:10418   */\n      sub\n        /* \"#utility.yul\":10394:10395   */\n      0x00\n        /* \"#utility.yul\":10383:10392   */\n      dup4\n        /* \"#utility.yul\":10379:10396   */\n      add\n        /* \"#utility.yul\":10372:10419   */\n      mstore\n        /* \"#utility.yul\":10436:10567   */\n      tag_335\n        /* \"#utility.yul\":10562:10566   */\n      dup2\n        /* \"#utility.yul\":10436:10567   */\n      tag_219\n      jump\t// in\n    tag_335:\n        /* \"#utility.yul\":10428:10567   */\n      swap1\n      pop\n        /* \"#utility.yul\":10155:10574   */\n      swap2\n      swap1\n      pop\n      jump\t// out\n        /* \"#utility.yul\":10580:10750   */\n    tag_220:\n        /* \"#utility.yul\":10720:10742   */\n      0x496e76616c69642067616d652061646472657373000000000000000000000000\n        /* \"#utility.yul\":10716:10717   */\n      0x00\n        /* \"#utility.yul\":10708:10714   */\n      dup3\n        /* \"#utility.yul\":10704:10718   */\n      add\n        /* \"#utility.yul\":10697:10743   */\n      mstore\n        /* \"#utility.yul\":10580:10750   */\n      pop\n      jump\t// out\n        /* \"#utility.yul\":10756:11122   */\n    tag_221:\n        /* \"#utility.yul\":10898:10901   */\n      0x00\n        /* \"#utility.yul\":10919:10986   */\n      tag_338\n        /* \"#utility.yul\":10983:10985   */\n      0x14\n        /* \"#utility.yul\":10978:10981   */\n      dup4\n        /* \"#utility.yul\":10919:10986   */\n      tag_217\n      jump\t// in\n    tag_338:\n        /* \"#utility.yul\":10912:10986   */\n      swap2\n      pop\n        /* \"#utility.yul\":10995:11088   */\n      tag_339\n        /* \"#utility.yul\":11084:11087   */\n      dup3\n        /* \"#utility.yul\":10995:11088   */\n      tag_220\n      jump\t// in\n    tag_339:\n        /* \"#utility.yul\":11113:11115   */\n      0x20\n        /* \"#utility.yul\":11108:11111   */\n      dup3\n        /* \"#utility.yul\":11104:11116   */\n      add\n        /* \"#utility.yul\":11097:11116   */\n      swap1\n      pop\n        /* \"#utility.yul\":10756:11122   */\n      swap2\n      swap1\n      pop\n      jump\t// out\n        /* \"#utility.yul\":11128:11547   */\n    tag_101:\n        /* \"#utility.yul\":11294:11298   */\n      0x00\n        /* \"#utility.yul\":11332:11334   */\n      0x20\n        /* \"#utility.yul\":11321:11330   */\n      dup3\n        /* \"#utility.yul\":11317:11335   */\n      add\n        /* \"#utility.yul\":11309:11335   */\n      swap1\n      pop\n        /* \"#utility.yul\":11381:11390   */\n      dup2\n        /* \"#utility.yul\":11375:11379   */\n      dup2\n        /* \"#utility.yul\":11371:11391   */\n      sub\n        /* \"#utility.yul\":11367:11368   */\n      0x00\n        /* \"#utility.yul\":11356:11365   */\n      dup4\n        /* \"#utility.yul\":11352:11369   */\n      add\n        /* \"#utility.yul\":11345:11392   */\n      mstore\n        /* \"#utility.yul\":11409:11540   */\n      tag_341\n        /* \"#utility.yul\":11535:11539   */\n      dup2\n        /* \"#utility.yul\":11409:11540   */\n      tag_221\n      jump\t// in\n    tag_341:\n        /* \"#utility.yul\":11401:11540   */\n      swap1\n      pop\n        /* \"#utility.yul\":11128:11547   */\n      swap2\n      swap1\n      pop\n      jump\t// out\n        /* \"#utility.yul\":11553:11726   */\n    tag_222:\n        /* \"#utility.yul\":11693:11718   */\n      0x47616d6520616c72656164792072656769737465726564000000000000000000\n        /* \"#utility.yul\":11689:11690   */\n      0x00\n        /* \"#utility.yul\":11681:11687   */\n      dup3\n        /* \"#utility.yul\":11677:11691   */\n      add\n        /* \"#utility.yul\":11670:11719   */\n      mstore\n        /* \"#utility.yul\":11553:11726   */\n      pop\n      jump\t// out\n        /* \"#utility.yul\":11732:12098   */\n    tag_223:\n        /* \"#utility.yul\":11874:11877   */\n      0x00\n        /* \"#utility.yul\":11895:11962   */\n      tag_344\n        /* \"#utility.yul\":11959:11961   */\n      0x17\n        /* \"#utility.yul\":11954:11957   */\n      dup4\n        /* \"#utility.yul\":11895:11962   */\n      tag_217\n      jump\t// in\n    tag_344:\n        /* \"#utility.yul\":11888:11962   */\n      swap2\n      pop\n        /* \"#utility.yul\":11971:12064   */\n      tag_345\n        /* \"#utility.yul\":12060:12063   */\n      dup3\n        /* \"#utility.yul\":11971:12064   */\n      tag_222\n      jump\t// in\n    tag_345:\n        /* \"#utility.yul\":12089:12091   */\n      0x20\n        /* \"#utility.yul\":12084:12087   */\n      dup3\n        /* \"#utility.yul\":12080:12092   */\n      add\n        /* \"#utility.yul\":12073:12092   */\n      swap1\n      pop\n        /* \"#utility.yul\":11732:12098   */\n      swap2\n      swap1\n      pop\n      jump\t// out\n        /* \"#utility.yul\":12104:12523   */\n    tag_104:\n        /* \"#utility.yul\":12270:12274   */\n      0x00\n        /* \"#utility.yul\":12308:12310   */\n      0x20\n        /* \"#utility.yul\":12297:12306   */\n      dup3\n        /* \"#utility.yul\":12293:12311   */\n      add\n        /* \"#utility.yul\":12285:12311   */\n      swap1\n      pop\n        /* \"#utility.yul\":12357:12366   */\n      dup2\n        /* \"#utility.yul\":12351:12355   */\n      dup2\n        /* \"#utility.yul\":12347:12367   */\n      sub\n        /* \"#utility.yul\":12343:12344   */\n      0x00\n        /* \"#utility.yul\":12332:12341   */\n      dup4\n        /* \"#utility.yul\":12328:12345   */\n      add\n        /* \"#utility.yul\":12321:12368   */\n      mstore\n        /* \"#utility.yul\":12385:12516   */\n      tag_347\n        /* \"#utility.yul\":12511:12515   */\n      dup2\n        /* \"#utility.yul\":12385:12516   */\n      tag_223\n      jump\t// in\n    tag_347:\n        /* \"#utility.yul\":12377:12516   */\n      swap1\n      pop\n        /* \"#utility.yul\":12104:12523   */\n      swap2\n      swap1\n      pop\n      jump\t// out\n        /* \"#utility.yul\":12529:12702   */\n    tag_224:\n        /* \"#utility.yul\":12669:12694   */\n      0x4e6f206174747269627574657320737065636966696564000000000000000000\n        /* \"#utility.yul\":12665:12666   */\n      0x00\n        /* \"#utility.yul\":12657:12663   */\n      dup3\n        /* \"#utility.yul\":12653:12667   */\n      add\n        /* \"#utility.yul\":12646:12695   */\n      mstore\n        /* \"#utility.yul\":12529:12702   */\n      pop\n      jump\t// out\n        /* \"#utility.yul\":12708:13074   */\n    tag_225:\n        /* \"#utility.yul\":12850:12853   */\n      0x00\n        /* \"#utility.yul\":12871:12938   */\n      tag_350\n        /* \"#utility.yul\":12935:12937   */\n      0x17\n        /* \"#utility.yul\":12930:12933   */\n      dup4\n        /* \"#utility.yul\":12871:12938   */\n      tag_217\n      jump\t// in\n    tag_350:\n        /* \"#utility.yul\":12864:12938   */\n      swap2\n      pop\n        /* \"#utility.yul\":12947:13040   */\n      tag_351\n        /* \"#utility.yul\":13036:13039   */\n      dup3\n        /* \"#utility.yul\":12947:13040   */\n      tag_224\n      jump\t// in\n    tag_351:\n        /* \"#utility.yul\":13065:13067   */\n      0x20\n        /* \"#utility.yul\":13060:13063   */\n      dup3\n        /* \"#utility.yul\":13056:13068   */\n      add\n        /* \"#utility.yul\":13049:13068   */\n      swap1\n      pop\n        /* \"#utility.yul\":12708:13074   */\n      swap2\n      swap1\n      pop\n      jump\t// out\n        /* \"#utility.yul\":13080:13499   */\n    tag_107:\n        /* \"#utility.yul\":13246:13250   */\n      0x00\n        /* \"#utility.yul\":13284:13286   */\n      0x20\n        /* \"#utility.yul\":13273:13282   */\n      dup3\n        /* \"#utility.yul\":13269:13287   */\n      add\n        /* \"#utility.yul\":13261:13287   */\n      swap1\n      pop\n        /* \"#utility.yul\":13333:13342   */\n      dup2\n        /* \"#utility.yul\":13327:13331   */\n      dup2\n        /* \"#utility.yul\":13323:13343   */\n      sub\n        /* \"#utility.yul\":13319:13320   */\n      0x00\n        /* \"#utility.yul\":13308:13317   */\n      dup4\n        /* \"#utility.yul\":13304:13321   */\n      add\n        /* \"#utility.yul\":13297:13344   */\n      mstore\n        /* \"#utility.yul\":13361:13492   */\n      tag_353\n        /* \"#utility.yul\":13487:13491   */\n      dup2\n        /* \"#utility.yul\":13361:13492   */\n      tag_225\n      jump\t// in\n    tag_353:\n        /* \"#utility.yul\":13353:13492   */\n      swap1\n      pop\n        /* \"#utility.yul\":13080:13499   */\n      swap2\n      swap1\n      pop\n      jump\t// out\n        /* \"#utility.yul\":13505:13622   */\n    tag_226:\n        /* \"#utility.yul\":13614:13615   */\n      0x00\n        /* \"#utility.yul\":13611:13612   */\n      dup1\n        /* \"#utility.yul\":13604:13616   */\n      revert\n        /* \"#utility.yul\":13628:13727   */\n    tag_227:\n        /* \"#utility.yul\":13713:13719   */\n      dup3\n        /* \"#utility.yul\":13708:13711   */\n      dup2\n        /* \"#utility.yul\":13703:13706   */\n      dup4\n        /* \"#utility.yul\":13690:13720   */\n      calldatacopy\n        /* \"#utility.yul\":13628:13727   */\n      pop\n      pop\n      pop\n      jump\t// out\n        /* \"#utility.yul\":13763:14300   */\n    tag_228:\n        /* \"#utility.yul\":13891:13894   */\n      0x00\n        /* \"#utility.yul\":13912:13998   */\n      tag_357\n        /* \"#utility.yul\":13991:13997   */\n      dup4\n        /* \"#utility.yul\":13986:13989   */\n      dup6\n        /* \"#utility.yul\":13912:13998   */\n      tag_205\n      jump\t// in\n    tag_357:\n        /* \"#utility.yul\":13905:13998   */\n      swap4\n      pop\n        /* \"#utility.yul\":14022:14088   */\n      0x07ffffffffffffffffffffffffffffffffffffffffffffffffffffffffffffff\n        /* \"#utility.yul\":14014:14020   */\n      dup4\n        /* \"#utility.yul\":14011:14089   */\n      gt\n        /* \"#utility.yul\":14008:14173   */\n      iszero\n      tag_358\n      jumpi\n        /* \"#utility.yul\":14092:14171   */\n      tag_359\n      tag_226\n      jump\t// in\n    tag_359:\n        /* \"#utility.yul\":14008:14173   */\n    tag_358:\n        /* \"#utility.yul\":14204:14208   */\n      0x20\n        /* \"#utility.yul\":14196:14202   */\n      dup4\n        /* \"#utility.yul\":14192:14209   */\n      mul\n        /* \"#utility.yul\":14182:14209   */\n      swap3\n      pop\n        /* \"#utility.yul\":14219:14262   */\n      tag_360\n        /* \"#utility.yul\":14255:14261   */\n      dup4\n        /* \"#utility.yul\":14250:14253   */\n      dup6\n        /* \"#utility.yul\":14243:14248   */\n      dup5\n        /* \"#utility.yul\":14219:14262   */\n      tag_227\n      jump\t// in\n    tag_360:\n        /* \"#utility.yul\":14287:14293   */\n      dup3\n        /* \"#utility.yul\":14282:14285   */\n      dup5\n        /* \"#utility.yul\":14278:14294   */\n      add\n        /* \"#utility.yul\":14271:14294   */\n      swap1\n      pop\n        /* \"#utility.yul\":13763:14300   */\n      swap4\n      swap3\n      pop\n      pop\n      pop\n      jump\t// out\n        /* \"#utility.yul\":14306:14699   */\n    tag_112:\n        /* \"#utility.yul\":14459:14463   */\n      0x00\n        /* \"#utility.yul\":14497:14499   */\n      0x20\n        /* \"#utility.yul\":14486:14495   */\n      dup3\n        /* \"#utility.yul\":14482:14500   */\n      add\n        /* \"#utility.yul\":14474:14500   */\n      swap1\n      pop\n        /* \"#utility.yul\":14546:14555   */\n      dup2\n        /* \"#utility.yul\":14540:14544   */\n      dup2\n        /* \"#utility.yul\":14536:14556   */\n      sub\n        /* \"#utility.yul\":14532:14533   */\n      0x00\n        /* \"#utility.yul\":14521:14530   */\n      dup4\n        /* \"#utility.yul\":14517:14534   */\n      add\n        /* \"#utility.yul\":14510:14557   */\n      mstore\n        /* \"#utility.yul\":14574:14692   */\n      tag_362\n        /* \"#utility.yul\":14687:14691   */\n      dup2\n        /* \"#utility.yul\":14678:14684   */\n      dup5\n        /* \"#utility.yul\":14670:14676   */\n      dup7\n        /* \"#utility.yul\":14574:14692   */\n      tag_228\n      jump\t// in\n    tag_362:\n        /* \"#utility.yul\":14566:14692   */\n      swap1\n      pop\n        /* \"#utility.yul\":14306:14699   */\n      swap4\n      swap3\n      pop\n      pop\n      pop\n      jump\t// out\n        /* \"#utility.yul\":14705:14885   */\n    tag_229:\n        /* \"#utility.yul\":14753:14830   */\n      0x4e487b7100000000000000000000000000000000000000000000000000000000\n        /* \"#utility.yul\":14750:14751   */\n      0x00\n        /* \"#utility.yul\":14743:14831   */\n      mstore\n        /* \"#utility.yul\":14850:14854   */\n      0x11\n        /* \"#utility.yul\":14847:14848   */\n      0x04\n        /* \"#utility.yul\":14840:14855   */\n      mstore\n        /* \"#utility.yul\":14874:14878   */\n      0x24\n        /* \"#utility.yul\":14871:14872   */\n      0x00\n        /* \"#utility.yul\":14864:14879   */\n      revert\n        /* \"#utility.yul\":14891:15085   */\n    tag_128:\n        /* \"#utility.yul\":14931:14935   */\n      0x00\n        /* \"#utility.yul\":14951:14971   */\n      tag_365\n        /* \"#utility.yul\":14969:14970   */\n      dup3\n        /* \"#utility.yul\":14951:14971   */\n      tag_213\n      jump\t// in\n    tag_365:\n        /* \"#utility.yul\":14946:14971   */\n      swap2\n      pop\n        /* \"#utility.yul\":14985:15005   */\n      tag_366\n        /* \"#utility.yul\":15003:15004   */\n      dup4\n        /* \"#utility.yul\":14985:15005   */\n      tag_213\n      jump\t// in\n    tag_366:\n        /* \"#utility.yul\":14980:15005   */\n      swap3\n      pop\n        /* \"#utility.yul\":15029:15030   */\n      dup3\n        /* \"#utility.yul\":15026:15027   */\n      dup3\n        /* \"#utility.yul\":15022:15031   */\n      sub\n        /* \"#utility.yul\":15014:15031   */\n      swap1\n      pop\n        /* \"#utility.yul\":15053:15054   */\n      dup2\n        /* \"#utility.yul\":15047:15051   */\n      dup2\n        /* \"#utility.yul\":15044:15055   */\n      gt\n        /* \"#utility.yul\":15041:15078   */\n      iszero\n      tag_367\n      jumpi\n        /* \"#utility.yul\":15058:15076   */\n      tag_368\n      tag_229\n      jump\t// in\n    tag_368:\n        /* \"#utility.yul\":15041:15078   */\n    tag_367:\n        /* \"#utility.yul\":14891:15085   */\n      swap3\n      swap2\n      pop\n      pop\n      jump\t// out\n        /* \"#utility.yul\":15091:15271   */\n    tag_137:\n        /* \"#utility.yul\":15139:15216   */\n      0x4e487b7100000000000000000000000000000000000000000000000000000000\n        /* \"#utility.yul\":15136:15137   */\n      0x00\n        /* \"#utility.yul\":15129:15217   */\n      mstore\n        /* \"#utility.yul\":15236:15240   */\n      0x31\n        /* \"#utility.yul\":15233:15234   */\n      0x04\n        /* \"#utility.yul\":15226:15241   */\n      mstore\n        /* \"#utility.yul\":15260:15264   */\n      0x24\n        /* \"#utility.yul\":15257:15258   */\n      0x00\n        /* \"#utility.yul\":15250:15265   */\n      revert\n\n    auxdata: 0xa26469706673582212203d3230e4ebf9607b223cded18c0995eca43754265bca0c798726e36667f9ed0d64736f6c634300081a0033\n}\n",
				"bytecode": {
					"linkReferences": {},
					"object": "608060405234801561000f575f80fd5b50335f73ffffffffffffffffffffffffffffffffffffffff168173ffffffffffffffffffffffffffffffffffffffff1603610081575f6040517f1e4fbdf70000000000000000000000000000000000000000000000000000000081526004016100789190610196565b60405180910390fd5b6100908161009660201b60201c565b506101af565b5f805f9054906101000a900473ffffffffffffffffffffffffffffffffffffffff169050815f806101000a81548173ffffffffffffffffffffffffffffffffffffffff021916908373ffffffffffffffffffffffffffffffffffffffff1602179055508173ffffffffffffffffffffffffffffffffffffffff168173ffffffffffffffffffffffffffffffffffffffff167f8be0079c531659141344cd1fd0a4f28419497f9722a3daafe3b4186f6b6457e060405160405180910390a35050565b5f73ffffffffffffffffffffffffffffffffffffffff82169050919050565b5f61018082610157565b9050919050565b61019081610176565b82525050565b5f6020820190506101a95f830184610187565b92915050565b611940806101bc5f395ff3fe608060405234801561000f575f80fd5b50600436106100b2575f3560e01c80638da5cb5b1161006f5780638da5cb5b146101765780639e3c5a7214610194578063b975c34d146101c4578063cfbb6bd0146101f7578063ee658e4514610213578063f2fde38b14610243576100b2565b8063099a99c8146100b65780631a4ad3f0146100e65780635549144414610104578063715018a6146101345780637ff7d4a01461013e578063890aa5411461015a575b5f80fd5b6100d060048036038101906100cb91906112c5565b61025f565b6040516100dd919061133c565b60405180910390f35b6100ee6103de565b6040516100fb919061140c565b60405180910390f35b61011e6004803603810190610119919061142c565b610469565b60405161012b9190611517565b60405180910390f35b61013c61058a565b005b610158600480360381019061015391906112c5565b61059d565b005b610174600480360381019061016f919061142c565b6108f4565b005b61017e610bec565b60405161018b9190611546565b60405180910390f35b6101ae60048036038101906101a99190611592565b610c13565b6040516101bb9190611546565b60405180910390f35b6101de60048036038101906101d9919061142c565b610c4e565b6040516101ee94939291906115cc565b60405180910390f35b610211600480360381019061020c91906112c5565b610d8f565b005b61022d6004803603810190610228919061142c565b610f0c565b60405161023a919061133c565b60405180910390f35b61025d6004803603810190610258919061142c565b610f60565b005b5f60015f8573ffffffffffffffffffffffffffffffffffffffff1673ffffffffffffffffffffffffffffffffffffffff1681526020019081526020015f205f015f9054906101000a900460ff166102b8575f90506103d7565b5f60015f8673ffffffffffffffffffffffffffffffffffffffff1673ffffffffffffffffffffffffffffffffffffffff1681526020019081526020015f2060010180548060200260200160405190810160405280929190818152602001828054801561034157602002820191905f5260205f20905b81548152602001906001019080831161032d575b505050505090505f5b848490508110156103d0575f805b83518110156103b15783818151811061037457610373611616565b5b602002602001015187878581811061038f5761038e611616565b5b90506020020135036103a457600191506103b1565b8080600101915050610358565b50806103c2575f93505050506103d7565b50808060010191505061034a565b5060019150505b9392505050565b6060600280548060200260200160405190810160405280929190818152602001828054801561045f57602002820191905f5260205f20905b815f9054906101000a900473ffffffffffffffffffffffffffffffffffffffff1673ffffffffffffffffffffffffffffffffffffffff1681526020019060010190808311610416575b5050505050905090565b606060015f8373ffffffffffffffffffffffffffffffffffffffff1673ffffffffffffffffffffffffffffffffffffffff1681526020019081526020015f205f015f9054906101000a900460ff166104f6576040517f08c379a00000000000000000000000000000000000000000000000000000000081526004016104ed9061169d565b60405180910390fd5b60015f8373ffffffffffffffffffffffffffffffffffffffff1673ffffffffffffffffffffffffffffffffffffffff1681526020019081526020015f2060010180548060200260200160405190810160405280929190818152602001828054801561057e57602002820191905f5260205f20905b81548152602001906001019080831161056a575b50505050509050919050565b610592610fe4565b61059b5f61106b565b565b6105a5610fe4565b5f73ffffffffffffffffffffffffffffffffffffffff168373ffffffffffffffffffffffffffffffffffffffff1603610613576040517f08c379a000000000000000000000000000000000000000000000000000000000815260040161060a90611705565b60405180910390fd5b60015f8473ffffffffffffffffffffffffffffffffffffffff1673ffffffffffffffffffffffffffffffffffffffff1681526020019081526020015f205f015f9054906101000a900460ff161561069f576040517f08c379a00000000000000000000000000000000000000000000000000000000081526004016106969061176d565b60405180910390fd5b5f82829050116106e4576040517f08c379a00000000000000000000000000000000000000000000000000000000081526004016106db906117d5565b60405180910390fd5b60405180608001604052806001151581526020018383808060200260200160405190810160405280939291908181526020018383602002808284375f81840152601f19601f8201169050808301925050505050505081526020014281526020013373ffffffffffffffffffffffffffffffffffffffff1681525060015f8573ffffffffffffffffffffffffffffffffffffffff1673ffffffffffffffffffffffffffffffffffffffff1681526020019081526020015f205f820151815f015f6101000a81548160ff02191690831515021790555060208201518160010190805190602001906107d4929190611133565b50604082015181600201556060820151816003015f6101000a81548173ffffffffffffffffffffffffffffffffffffffff021916908373ffffffffffffffffffffffffffffffffffffffff160217905550905050600283908060018154018082558091505060019003905f5260205f20015f9091909190916101000a81548173ffffffffffffffffffffffffffffffffffffffff021916908373ffffffffffffffffffffffffffffffffffffffff1602179055503373ffffffffffffffffffffffffffffffffffffffff168373ffffffffffffffffffffffffffffffffffffffff167f6eb4e0bf305910e6826fc3491a68d75b8ac753d1d90695979c53fc90ba1c0ef684846040516108e792919061185b565b60405180910390a3505050565b6108fc610fe4565b60015f8273ffffffffffffffffffffffffffffffffffffffff1673ffffffffffffffffffffffffffffffffffffffff1681526020019081526020015f205f015f9054906101000a900460ff16610987576040517f08c379a000000000000000000000000000000000000000000000000000000000815260040161097e9061169d565b60405180910390fd5b60015f8273ffffffffffffffffffffffffffffffffffffffff1673ffffffffffffffffffffffffffffffffffffffff1681526020019081526020015f205f8082015f6101000a81549060ff0219169055600182015f6109e6919061117e565b600282015f9055600382015f6101000a81549073ffffffffffffffffffffffffffffffffffffffff021916905550505f5b600280549050811015610b8e578173ffffffffffffffffffffffffffffffffffffffff1660028281548110610a4f57610a4e611616565b5b905f5260205f20015f9054906101000a900473ffffffffffffffffffffffffffffffffffffffff1673ffffffffffffffffffffffffffffffffffffffff1603610b815760026001600280549050610aa691906118aa565b81548110610ab757610ab6611616565b5b905f5260205f20015f9054906101000a900473ffffffffffffffffffffffffffffffffffffffff1660028281548110610af357610af2611616565b5b905f5260205f20015f6101000a81548173ffffffffffffffffffffffffffffffffffffffff021916908373ffffffffffffffffffffffffffffffffffffffff1602179055506002805480610b4a57610b496118dd565b5b600190038181905f5260205f20015f6101000a81549073ffffffffffffffffffffffffffffffffffffffff02191690559055610b8e565b8080600101915050610a17565b503373ffffffffffffffffffffffffffffffffffffffff168173ffffffffffffffffffffffffffffffffffffffff167f65878649e6dbcda020be4486d4b9d0da6aea73412dd86aeb4cb8d0c7936bd8b960405160405180910390a350565b5f805f9054906101000a900473ffffffffffffffffffffffffffffffffffffffff16905090565b60028181548110610c22575f80fd5b905f5260205f20015f915054906101000a900473ffffffffffffffffffffffffffffffffffffffff1681565b5f60605f805f60015f8773ffffffffffffffffffffffffffffffffffffffff1673ffffffffffffffffffffffffffffffffffffffff1681526020019081526020015f206040518060800160405290815f82015f9054906101000a900460ff1615151515815260200160018201805480602002602001604051908101604052809291908181526020018280548015610d0257602002820191905f5260205f20905b815481526020019060010190808311610cee575b5050505050815260200160028201548152602001600382015f9054906101000a900473ffffffffffffffffffffffffffffffffffffffff1673ffffffffffffffffffffffffffffffffffffffff1673ffffffffffffffffffffffffffffffffffffffff16815250509050805f01518160200151826040015183606001519450945094509450509193509193565b610d97610fe4565b60015f8473ffffffffffffffffffffffffffffffffffffffff1673ffffffffffffffffffffffffffffffffffffffff1681526020019081526020015f205f015f9054906101000a900460ff16610e22576040517f08c379a0000000000000000000000000000000000000000000000000000000008152600401610e199061169d565b60405180910390fd5b5f8282905011610e67576040517f08c379a0000000000000000000000000000000000000000000000000000000008152600401610e5e906117d5565b60405180910390fd5b818160015f8673ffffffffffffffffffffffffffffffffffffffff1673ffffffffffffffffffffffffffffffffffffffff1681526020019081526020015f206001019190610eb692919061119c565b508273ffffffffffffffffffffffffffffffffffffffff167f1c50ef0651282591fa74ee2c938e0a1da260dcdf93862b41f66145fed968379d8383604051610eff92919061185b565b60405180910390a2505050565b5f60015f8373ffffffffffffffffffffffffffffffffffffffff1673ffffffffffffffffffffffffffffffffffffffff1681526020019081526020015f205f015f9054906101000a900460ff169050919050565b610f68610fe4565b5f73ffffffffffffffffffffffffffffffffffffffff168173ffffffffffffffffffffffffffffffffffffffff1603610fd8575f6040517f1e4fbdf7000000000000000000000000000000000000000000000000000000008152600401610fcf9190611546565b60405180910390fd5b610fe18161106b565b50565b610fec61112c565b73ffffffffffffffffffffffffffffffffffffffff1661100a610bec565b73ffffffffffffffffffffffffffffffffffffffff16146110695761102d61112c565b6040517f118cdaa70000000000000000000000000000000000000000000000000000000081526004016110609190611546565b60405180910390fd5b565b5f805f9054906101000a900473ffffffffffffffffffffffffffffffffffffffff169050815f806101000a81548173ffffffffffffffffffffffffffffffffffffffff021916908373ffffffffffffffffffffffffffffffffffffffff1602179055508173ffffffffffffffffffffffffffffffffffffffff168173ffffffffffffffffffffffffffffffffffffffff167f8be0079c531659141344cd1fd0a4f28419497f9722a3daafe3b4186f6b6457e060405160405180910390a35050565b5f33905090565b828054828255905f5260205f2090810192821561116d579160200282015b8281111561116c578251825591602001919060010190611151565b5b50905061117a91906111e7565b5090565b5080545f8255905f5260205f209081019061119991906111e7565b50565b828054828255905f5260205f209081019282156111d6579160200282015b828111156111d55782358255916020019190600101906111ba565b5b5090506111e391906111e7565b5090565b5b808211156111fe575f815f9055506001016111e8565b5090565b5f80fd5b5f80fd5b5f73ffffffffffffffffffffffffffffffffffffffff82169050919050565b5f6112338261120a565b9050919050565b61124381611229565b811461124d575f80fd5b50565b5f8135905061125e8161123a565b92915050565b5f80fd5b5f80fd5b5f80fd5b5f8083601f84011261128557611284611264565b5b8235905067ffffffffffffffff8111156112a2576112a1611268565b5b6020830191508360208202830111156112be576112bd61126c565b5b9250929050565b5f805f604084860312156112dc576112db611202565b5b5f6112e986828701611250565b935050602084013567ffffffffffffffff81111561130a57611309611206565b5b61131686828701611270565b92509250509250925092565b5f8115159050919050565b61133681611322565b82525050565b5f60208201905061134f5f83018461132d565b92915050565b5f81519050919050565b5f82825260208201905092915050565b5f819050602082019050919050565b61138781611229565b82525050565b5f611398838361137e565b60208301905092915050565b5f602082019050919050565b5f6113ba82611355565b6113c4818561135f565b93506113cf8361136f565b805f5b838110156113ff5781516113e6888261138d565b97506113f1836113a4565b9250506001810190506113d2565b5085935050505092915050565b5f6020820190508181035f83015261142481846113b0565b905092915050565b5f6020828403121561144157611440611202565b5b5f61144e84828501611250565b91505092915050565b5f81519050919050565b5f82825260208201905092915050565b5f819050602082019050919050565b5f819050919050565b61149281611480565b82525050565b5f6114a38383611489565b60208301905092915050565b5f602082019050919050565b5f6114c582611457565b6114cf8185611461565b93506114da83611471565b805f5b8381101561150a5781516114f18882611498565b97506114fc836114af565b9250506001810190506114dd565b5085935050505092915050565b5f6020820190508181035f83015261152f81846114bb565b905092915050565b61154081611229565b82525050565b5f6020820190506115595f830184611537565b92915050565b5f819050919050565b6115718161155f565b811461157b575f80fd5b50565b5f8135905061158c81611568565b92915050565b5f602082840312156115a7576115a6611202565b5b5f6115b48482850161157e565b91505092915050565b6115c68161155f565b82525050565b5f6080820190506115df5f83018761132d565b81810360208301526115f181866114bb565b905061160060408301856115bd565b61160d6060830184611537565b95945050505050565b7f4e487b71000000000000000000000000000000000000000000000000000000005f52603260045260245ffd5b5f82825260208201905092915050565b7f47616d65206e6f742072656769737465726564000000000000000000000000005f82015250565b5f611687601383611643565b915061169282611653565b602082019050919050565b5f6020820190508181035f8301526116b48161167b565b9050919050565b7f496e76616c69642067616d6520616464726573730000000000000000000000005f82015250565b5f6116ef601483611643565b91506116fa826116bb565b602082019050919050565b5f6020820190508181035f83015261171c816116e3565b9050919050565b7f47616d6520616c726561647920726567697374657265640000000000000000005f82015250565b5f611757601783611643565b915061176282611723565b602082019050919050565b5f6020820190508181035f8301526117848161174b565b9050919050565b7f4e6f2061747472696275746573207370656369666965640000000000000000005f82015250565b5f6117bf601783611643565b91506117ca8261178b565b602082019050919050565b5f6020820190508181035f8301526117ec816117b3565b9050919050565b5f80fd5b82818337505050565b5f61180b8385611461565b93507f07ffffffffffffffffffffffffffffffffffffffffffffffffffffffffffffff83111561183e5761183d6117f3565b5b60208302925061184f8385846117f7565b82840190509392505050565b5f6020820190508181035f830152611874818486611800565b90509392505050565b7f4e487b71000000000000000000000000000000000000000000000000000000005f52601160045260245ffd5b5f6118b48261155f565b91506118bf8361155f565b92508282039050818111156118d7576118d661187d565b5b92915050565b7f4e487b71000000000000000000000000000000000000000000000000000000005f52603160045260245ffdfea26469706673582212203d3230e4ebf9607b223cded18c0995eca43754265bca0c798726e36667f9ed0d64736f6c634300081a0033",
					"opcodes": "PUSH1 0x80 PUSH1 0x40 MSTORE CALLVALUE DUP1 ISZERO PUSH2 0xF JUMPI PUSH0 DUP1 REVERT JUMPDEST POP CALLER PUSH0 PUSH20 0xFFFFFFFFFFFFFFFFFFFFFFFFFFFFFFFFFFFFFFFF AND DUP2 PUSH20 0xFFFFFFFFFFFFFFFFFFFFFFFFFFFFFFFFFFFFFFFF AND SUB PUSH2 0x81 JUMPI PUSH0 PUSH1 0x40 MLOAD PUSH32 0x1E4FBDF700000000000000000000000000000000000000000000000000000000 DUP2 MSTORE PUSH1 0x4 ADD PUSH2 0x78 SWAP2 SWAP1 PUSH2 0x196 JUMP JUMPDEST PUSH1 0x40 MLOAD DUP1 SWAP2 SUB SWAP1 REVERT JUMPDEST PUSH2 0x90 DUP2 PUSH2 0x96 PUSH1 0x20 SHL PUSH1 0x20 SHR JUMP JUMPDEST POP PUSH2 0x1AF JUMP JUMPDEST PUSH0 DUP1 PUSH0 SWAP1 SLOAD SWAP1 PUSH2 0x100 EXP SWAP1 DIV PUSH20 0xFFFFFFFFFFFFFFFFFFFFFFFFFFFFFFFFFFFFFFFF AND SWAP1 POP DUP2 PUSH0 DUP1 PUSH2 0x100 EXP DUP2 SLOAD DUP2 PUSH20 0xFFFFFFFFFFFFFFFFFFFFFFFFFFFFFFFFFFFFFFFF MUL NOT AND SWAP1 DUP4 PUSH20 0xFFFFFFFFFFFFFFFFFFFFFFFFFFFFFFFFFFFFFFFF AND MUL OR SWAP1 SSTORE POP DUP2 PUSH20 0xFFFFFFFFFFFFFFFFFFFFFFFFFFFFFFFFFFFFFFFF AND DUP2 PUSH20 0xFFFFFFFFFFFFFFFFFFFFFFFFFFFFFFFFFFFFFFFF AND PUSH32 0x8BE0079C531659141344CD1FD0A4F28419497F9722A3DAAFE3B4186F6B6457E0 PUSH1 0x40 MLOAD PUSH1 0x40 MLOAD DUP1 SWAP2 SUB SWAP1 LOG3 POP POP JUMP JUMPDEST PUSH0 PUSH20 0xFFFFFFFFFFFFFFFFFFFFFFFFFFFFFFFFFFFFFFFF DUP3 AND SWAP1 POP SWAP2 SWAP1 POP JUMP JUMPDEST PUSH0 PUSH2 0x180 DUP3 PUSH2 0x157 JUMP JUMPDEST SWAP1 POP SWAP2 SWAP1 POP JUMP JUMPDEST PUSH2 0x190 DUP2 PUSH2 0x176 JUMP JUMPDEST DUP3 MSTORE POP POP JUMP JUMPDEST PUSH0 PUSH1 0x20 DUP3 ADD SWAP1 POP PUSH2 0x1A9 PUSH0 DUP4 ADD DUP5 PUSH2 0x187 JUMP JUMPDEST SWAP3 SWAP2 POP POP JUMP JUMPDEST PUSH2 0x1940 DUP1 PUSH2 0x1BC PUSH0 CODECOPY PUSH0 RETURN INVALID PUSH1 0x80 PUSH1 0x40 MSTORE CALLVALUE DUP1 ISZERO PUSH2 0xF JUMPI PUSH0 DUP1 REVERT JUMPDEST POP PUSH1 0x4 CALLDATASIZE LT PUSH2 0xB2 JUMPI PUSH0 CALLDATALOAD PUSH1 0xE0 SHR DUP1 PUSH4 0x8DA5CB5B GT PUSH2 0x6F JUMPI DUP1 PUSH4 0x8DA5CB5B EQ PUSH2 0x176 JUMPI DUP1 PUSH4 0x9E3C5A72 EQ PUSH2 0x194 JUMPI DUP1 PUSH4 0xB975C34D EQ PUSH2 0x1C4 JUMPI DUP1 PUSH4 0xCFBB6BD0 EQ PUSH2 0x1F7 JUMPI DUP1 PUSH4 0xEE658E45 EQ PUSH2 0x213 JUMPI DUP1 PUSH4 0xF2FDE38B EQ PUSH2 0x243 JUMPI PUSH2 0xB2 JUMP JUMPDEST DUP1 PUSH4 0x99A99C8 EQ PUSH2 0xB6 JUMPI DUP1 PUSH4 0x1A4AD3F0 EQ PUSH2 0xE6 JUMPI DUP1 PUSH4 0x55491444 EQ PUSH2 0x104 JUMPI DUP1 PUSH4 0x715018A6 EQ PUSH2 0x134 JUMPI DUP1 PUSH4 0x7FF7D4A0 EQ PUSH2 0x13E JUMPI DUP1 PUSH4 0x890AA541 EQ PUSH2 0x15A JUMPI JUMPDEST PUSH0 DUP1 REVERT JUMPDEST PUSH2 0xD0 PUSH1 0x4 DUP1 CALLDATASIZE SUB DUP2 ADD SWAP1 PUSH2 0xCB SWAP2 SWAP1 PUSH2 0x12C5 JUMP JUMPDEST PUSH2 0x25F JUMP JUMPDEST PUSH1 0x40 MLOAD PUSH2 0xDD SWAP2 SWAP1 PUSH2 0x133C JUMP JUMPDEST PUSH1 0x40 MLOAD DUP1 SWAP2 SUB SWAP1 RETURN JUMPDEST PUSH2 0xEE PUSH2 0x3DE JUMP JUMPDEST PUSH1 0x40 MLOAD PUSH2 0xFB SWAP2 SWAP1 PUSH2 0x140C JUMP JUMPDEST PUSH1 0x40 MLOAD DUP1 SWAP2 SUB SWAP1 RETURN JUMPDEST PUSH2 0x11E PUSH1 0x4 DUP1 CALLDATASIZE SUB DUP2 ADD SWAP1 PUSH2 0x119 SWAP2 SWAP1 PUSH2 0x142C JUMP JUMPDEST PUSH2 0x469 JUMP JUMPDEST PUSH1 0x40 MLOAD PUSH2 0x12B SWAP2 SWAP1 PUSH2 0x1517 JUMP JUMPDEST PUSH1 0x40 MLOAD DUP1 SWAP2 SUB SWAP1 RETURN JUMPDEST PUSH2 0x13C PUSH2 0x58A JUMP JUMPDEST STOP JUMPDEST PUSH2 0x158 PUSH1 0x4 DUP1 CALLDATASIZE SUB DUP2 ADD SWAP1 PUSH2 0x153 SWAP2 SWAP1 PUSH2 0x12C5 JUMP JUMPDEST PUSH2 0x59D JUMP JUMPDEST STOP JUMPDEST PUSH2 0x174 PUSH1 0x4 DUP1 CALLDATASIZE SUB DUP2 ADD SWAP1 PUSH2 0x16F SWAP2 SWAP1 PUSH2 0x142C JUMP JUMPDEST PUSH2 0x8F4 JUMP JUMPDEST STOP JUMPDEST PUSH2 0x17E PUSH2 0xBEC JUMP JUMPDEST PUSH1 0x40 MLOAD PUSH2 0x18B SWAP2 SWAP1 PUSH2 0x1546 JUMP JUMPDEST PUSH1 0x40 MLOAD DUP1 SWAP2 SUB SWAP1 RETURN JUMPDEST PUSH2 0x1AE PUSH1 0x4 DUP1 CALLDATASIZE SUB DUP2 ADD SWAP1 PUSH2 0x1A9 SWAP2 SWAP1 PUSH2 0x1592 JUMP JUMPDEST PUSH2 0xC13 JUMP JUMPDEST PUSH1 0x40 MLOAD PUSH2 0x1BB SWAP2 SWAP1 PUSH2 0x1546 JUMP JUMPDEST PUSH1 0x40 MLOAD DUP1 SWAP2 SUB SWAP1 RETURN JUMPDEST PUSH2 0x1DE PUSH1 0x4 DUP1 CALLDATASIZE SUB DUP2 ADD SWAP1 PUSH2 0x1D9 SWAP2 SWAP1 PUSH2 0x142C JUMP JUMPDEST PUSH2 0xC4E JUMP JUMPDEST PUSH1 0x40 MLOAD PUSH2 0x1EE SWAP5 SWAP4 SWAP3 SWAP2 SWAP1 PUSH2 0x15CC JUMP JUMPDEST PUSH1 0x40 MLOAD DUP1 SWAP2 SUB SWAP1 RETURN JUMPDEST PUSH2 0x211 PUSH1 0x4 DUP1 CALLDATASIZE SUB DUP2 ADD SWAP1 PUSH2 0x20C SWAP2 SWAP1 PUSH2 0x12C5 JUMP JUMPDEST PUSH2 0xD8F JUMP JUMPDEST STOP JUMPDEST PUSH2 0x22D PUSH1 0x4 DUP1 CALLDATASIZE SUB DUP2 ADD SWAP1 PUSH2 0x228 SWAP2 SWAP1 PUSH2 0x142C JUMP JUMPDEST PUSH2 0xF0C JUMP JUMPDEST PUSH1 0x40 MLOAD PUSH2 0x23A SWAP2 SWAP1 PUSH2 0x133C JUMP JUMPDEST PUSH1 0x40 MLOAD DUP1 SWAP2 SUB SWAP1 RETURN JUMPDEST PUSH2 0x25D PUSH1 0x4 DUP1 CALLDATASIZE SUB DUP2 ADD SWAP1 PUSH2 0x258 SWAP2 SWAP1 PUSH2 0x142C JUMP JUMPDEST PUSH2 0xF60 JUMP JUMPDEST STOP JUMPDEST PUSH0 PUSH1 0x1 PUSH0 DUP6 PUSH20 0xFFFFFFFFFFFFFFFFFFFFFFFFFFFFFFFFFFFFFFFF AND PUSH20 0xFFFFFFFFFFFFFFFFFFFFFFFFFFFFFFFFFFFFFFFF AND DUP2 MSTORE PUSH1 0x20 ADD SWAP1 DUP2 MSTORE PUSH1 0x20 ADD PUSH0 KECCAK256 PUSH0 ADD PUSH0 SWAP1 SLOAD SWAP1 PUSH2 0x100 EXP SWAP1 DIV PUSH1 0xFF AND PUSH2 0x2B8 JUMPI PUSH0 SWAP1 POP PUSH2 0x3D7 JUMP JUMPDEST PUSH0 PUSH1 0x1 PUSH0 DUP7 PUSH20 0xFFFFFFFFFFFFFFFFFFFFFFFFFFFFFFFFFFFFFFFF AND PUSH20 0xFFFFFFFFFFFFFFFFFFFFFFFFFFFFFFFFFFFFFFFF AND DUP2 MSTORE PUSH1 0x20 ADD SWAP1 DUP2 MSTORE PUSH1 0x20 ADD PUSH0 KECCAK256 PUSH1 0x1 ADD DUP1 SLOAD DUP1 PUSH1 0x20 MUL PUSH1 0x20 ADD PUSH1 0x40 MLOAD SWAP1 DUP2 ADD PUSH1 0x40 MSTORE DUP1 SWAP3 SWAP2 SWAP1 DUP2 DUP2 MSTORE PUSH1 0x20 ADD DUP3 DUP1 SLOAD DUP1 ISZERO PUSH2 0x341 JUMPI PUSH1 0x20 MUL DUP3 ADD SWAP2 SWAP1 PUSH0 MSTORE PUSH1 0x20 PUSH0 KECCAK256 SWAP1 JUMPDEST DUP2 SLOAD DUP2 MSTORE PUSH1 0x20 ADD SWAP1 PUSH1 0x1 ADD SWAP1 DUP1 DUP4 GT PUSH2 0x32D JUMPI JUMPDEST POP POP POP POP POP SWAP1 POP PUSH0 JUMPDEST DUP5 DUP5 SWAP1 POP DUP2 LT ISZERO PUSH2 0x3D0 JUMPI PUSH0 DUP1 JUMPDEST DUP4 MLOAD DUP2 LT ISZERO PUSH2 0x3B1 JUMPI DUP4 DUP2 DUP2 MLOAD DUP2 LT PUSH2 0x374 JUMPI PUSH2 0x373 PUSH2 0x1616 JUMP JUMPDEST JUMPDEST PUSH1 0x20 MUL PUSH1 0x20 ADD ADD MLOAD DUP8 DUP8 DUP6 DUP2 DUP2 LT PUSH2 0x38F JUMPI PUSH2 0x38E PUSH2 0x1616 JUMP JUMPDEST JUMPDEST SWAP1 POP PUSH1 0x20 MUL ADD CALLDATALOAD SUB PUSH2 0x3A4 JUMPI PUSH1 0x1 SWAP2 POP PUSH2 0x3B1 JUMP JUMPDEST DUP1 DUP1 PUSH1 0x1 ADD SWAP2 POP POP PUSH2 0x358 JUMP JUMPDEST POP DUP1 PUSH2 0x3C2 JUMPI PUSH0 SWAP4 POP POP POP POP PUSH2 0x3D7 JUMP JUMPDEST POP DUP1 DUP1 PUSH1 0x1 ADD SWAP2 POP POP PUSH2 0x34A JUMP JUMPDEST POP PUSH1 0x1 SWAP2 POP POP JUMPDEST SWAP4 SWAP3 POP POP POP JUMP JUMPDEST PUSH1 0x60 PUSH1 0x2 DUP1 SLOAD DUP1 PUSH1 0x20 MUL PUSH1 0x20 ADD PUSH1 0x40 MLOAD SWAP1 DUP2 ADD PUSH1 0x40 MSTORE DUP1 SWAP3 SWAP2 SWAP1 DUP2 DUP2 MSTORE PUSH1 0x20 ADD DUP3 DUP1 SLOAD DUP1 ISZERO PUSH2 0x45F JUMPI PUSH1 0x20 MUL DUP3 ADD SWAP2 SWAP1 PUSH0 MSTORE PUSH1 0x20 PUSH0 KECCAK256 SWAP1 JUMPDEST DUP2 PUSH0 SWAP1 SLOAD SWAP1 PUSH2 0x100 EXP SWAP1 DIV PUSH20 0xFFFFFFFFFFFFFFFFFFFFFFFFFFFFFFFFFFFFFFFF AND PUSH20 0xFFFFFFFFFFFFFFFFFFFFFFFFFFFFFFFFFFFFFFFF AND DUP2 MSTORE PUSH1 0x20 ADD SWAP1 PUSH1 0x1 ADD SWAP1 DUP1 DUP4 GT PUSH2 0x416 JUMPI JUMPDEST POP POP POP POP POP SWAP1 POP SWAP1 JUMP JUMPDEST PUSH1 0x60 PUSH1 0x1 PUSH0 DUP4 PUSH20 0xFFFFFFFFFFFFFFFFFFFFFFFFFFFFFFFFFFFFFFFF AND PUSH20 0xFFFFFFFFFFFFFFFFFFFFFFFFFFFFFFFFFFFFFFFF AND DUP2 MSTORE PUSH1 0x20 ADD SWAP1 DUP2 MSTORE PUSH1 0x20 ADD PUSH0 KECCAK256 PUSH0 ADD PUSH0 SWAP1 SLOAD SWAP1 PUSH2 0x100 EXP SWAP1 DIV PUSH1 0xFF AND PUSH2 0x4F6 JUMPI PUSH1 0x40 MLOAD PUSH32 0x8C379A000000000000000000000000000000000000000000000000000000000 DUP2 MSTORE PUSH1 0x4 ADD PUSH2 0x4ED SWAP1 PUSH2 0x169D JUMP JUMPDEST PUSH1 0x40 MLOAD DUP1 SWAP2 SUB SWAP1 REVERT JUMPDEST PUSH1 0x1 PUSH0 DUP4 PUSH20 0xFFFFFFFFFFFFFFFFFFFFFFFFFFFFFFFFFFFFFFFF AND PUSH20 0xFFFFFFFFFFFFFFFFFFFFFFFFFFFFFFFFFFFFFFFF AND DUP2 MSTORE PUSH1 0x20 ADD SWAP1 DUP2 MSTORE PUSH1 0x20 ADD PUSH0 KECCAK256 PUSH1 0x1 ADD DUP1 SLOAD DUP1 PUSH1 0x20 MUL PUSH1 0x20 ADD PUSH1 0x40 MLOAD SWAP1 DUP2 ADD PUSH1 0x40 MSTORE DUP1 SWAP3 SWAP2 SWAP1 DUP2 DUP2 MSTORE PUSH1 0x20 ADD DUP3 DUP1 SLOAD DUP1 ISZERO PUSH2 0x57E JUMPI PUSH1 0x20 MUL DUP3 ADD SWAP2 SWAP1 PUSH0 MSTORE PUSH1 0x20 PUSH0 KECCAK256 SWAP1 JUMPDEST DUP2 SLOAD DUP2 MSTORE PUSH1 0x20 ADD SWAP1 PUSH1 0x1 ADD SWAP1 DUP1 DUP4 GT PUSH2 0x56A JUMPI JUMPDEST POP POP POP POP POP SWAP1 POP SWAP2 SWAP1 POP JUMP JUMPDEST PUSH2 0x592 PUSH2 0xFE4 JUMP JUMPDEST PUSH2 0x59B PUSH0 PUSH2 0x106B JUMP JUMPDEST JUMP JUMPDEST PUSH2 0x5A5 PUSH2 0xFE4 JUMP JUMPDEST PUSH0 PUSH20 0xFFFFFFFFFFFFFFFFFFFFFFFFFFFFFFFFFFFFFFFF AND DUP4 PUSH20 0xFFFFFFFFFFFFFFFFFFFFFFFFFFFFFFFFFFFFFFFF AND SUB PUSH2 0x613 JUMPI PUSH1 0x40 MLOAD PUSH32 0x8C379A000000000000000000000000000000000000000000000000000000000 DUP2 MSTORE PUSH1 0x4 ADD PUSH2 0x60A SWAP1 PUSH2 0x1705 JUMP JUMPDEST PUSH1 0x40 MLOAD DUP1 SWAP2 SUB SWAP1 REVERT JUMPDEST PUSH1 0x1 PUSH0 DUP5 PUSH20 0xFFFFFFFFFFFFFFFFFFFFFFFFFFFFFFFFFFFFFFFF AND PUSH20 0xFFFFFFFFFFFFFFFFFFFFFFFFFFFFFFFFFFFFFFFF AND DUP2 MSTORE PUSH1 0x20 ADD SWAP1 DUP2 MSTORE PUSH1 0x20 ADD PUSH0 KECCAK256 PUSH0 ADD PUSH0 SWAP1 SLOAD SWAP1 PUSH2 0x100 EXP SWAP1 DIV PUSH1 0xFF AND ISZERO PUSH2 0x69F JUMPI PUSH1 0x40 MLOAD PUSH32 0x8C379A000000000000000000000000000000000000000000000000000000000 DUP2 MSTORE PUSH1 0x4 ADD PUSH2 0x696 SWAP1 PUSH2 0x176D JUMP JUMPDEST PUSH1 0x40 MLOAD DUP1 SWAP2 SUB SWAP1 REVERT JUMPDEST PUSH0 DUP3 DUP3 SWAP1 POP GT PUSH2 0x6E4 JUMPI PUSH1 0x40 MLOAD PUSH32 0x8C379A000000000000000000000000000000000000000000000000000000000 DUP2 MSTORE PUSH1 0x4 ADD PUSH2 0x6DB SWAP1 PUSH2 0x17D5 JUMP JUMPDEST PUSH1 0x40 MLOAD DUP1 SWAP2 SUB SWAP1 REVERT JUMPDEST PUSH1 0x40 MLOAD DUP1 PUSH1 0x80 ADD PUSH1 0x40 MSTORE DUP1 PUSH1 0x1 ISZERO ISZERO DUP2 MSTORE PUSH1 0x20 ADD DUP4 DUP4 DUP1 DUP1 PUSH1 0x20 MUL PUSH1 0x20 ADD PUSH1 0x40 MLOAD SWAP1 DUP2 ADD PUSH1 0x40 MSTORE DUP1 SWAP4 SWAP3 SWAP2 SWAP1 DUP2 DUP2 MSTORE PUSH1 0x20 ADD DUP4 DUP4 PUSH1 0x20 MUL DUP1 DUP3 DUP5 CALLDATACOPY PUSH0 DUP2 DUP5 ADD MSTORE PUSH1 0x1F NOT PUSH1 0x1F DUP3 ADD AND SWAP1 POP DUP1 DUP4 ADD SWAP3 POP POP POP POP POP POP POP DUP2 MSTORE PUSH1 0x20 ADD TIMESTAMP DUP2 MSTORE PUSH1 0x20 ADD CALLER PUSH20 0xFFFFFFFFFFFFFFFFFFFFFFFFFFFFFFFFFFFFFFFF AND DUP2 MSTORE POP PUSH1 0x1 PUSH0 DUP6 PUSH20 0xFFFFFFFFFFFFFFFFFFFFFFFFFFFFFFFFFFFFFFFF AND PUSH20 0xFFFFFFFFFFFFFFFFFFFFFFFFFFFFFFFFFFFFFFFF AND DUP2 MSTORE PUSH1 0x20 ADD SWAP1 DUP2 MSTORE PUSH1 0x20 ADD PUSH0 KECCAK256 PUSH0 DUP3 ADD MLOAD DUP2 PUSH0 ADD PUSH0 PUSH2 0x100 EXP DUP2 SLOAD DUP2 PUSH1 0xFF MUL NOT AND SWAP1 DUP4 ISZERO ISZERO MUL OR SWAP1 SSTORE POP PUSH1 0x20 DUP3 ADD MLOAD DUP2 PUSH1 0x1 ADD SWAP1 DUP1 MLOAD SWAP1 PUSH1 0x20 ADD SWAP1 PUSH2 0x7D4 SWAP3 SWAP2 SWAP1 PUSH2 0x1133 JUMP JUMPDEST POP PUSH1 0x40 DUP3 ADD MLOAD DUP2 PUSH1 0x2 ADD SSTORE PUSH1 0x60 DUP3 ADD MLOAD DUP2 PUSH1 0x3 ADD PUSH0 PUSH2 0x100 EXP DUP2 SLOAD DUP2 PUSH20 0xFFFFFFFFFFFFFFFFFFFFFFFFFFFFFFFFFFFFFFFF MUL NOT AND SWAP1 DUP4 PUSH20 0xFFFFFFFFFFFFFFFFFFFFFFFFFFFFFFFFFFFFFFFF AND MUL OR SWAP1 SSTORE POP SWAP1 POP POP PUSH1 0x2 DUP4 SWAP1 DUP1 PUSH1 0x1 DUP2 SLOAD ADD DUP1 DUP3 SSTORE DUP1 SWAP2 POP POP PUSH1 0x1 SWAP1 SUB SWAP1 PUSH0 MSTORE PUSH1 0x20 PUSH0 KECCAK256 ADD PUSH0 SWAP1 SWAP2 SWAP1 SWAP2 SWAP1 SWAP2 PUSH2 0x100 EXP DUP2 SLOAD DUP2 PUSH20 0xFFFFFFFFFFFFFFFFFFFFFFFFFFFFFFFFFFFFFFFF MUL NOT AND SWAP1 DUP4 PUSH20 0xFFFFFFFFFFFFFFFFFFFFFFFFFFFFFFFFFFFFFFFF AND MUL OR SWAP1 SSTORE POP CALLER PUSH20 0xFFFFFFFFFFFFFFFFFFFFFFFFFFFFFFFFFFFFFFFF AND DUP4 PUSH20 0xFFFFFFFFFFFFFFFFFFFFFFFFFFFFFFFFFFFFFFFF AND PUSH32 0x6EB4E0BF305910E6826FC3491A68D75B8AC753D1D90695979C53FC90BA1C0EF6 DUP5 DUP5 PUSH1 0x40 MLOAD PUSH2 0x8E7 SWAP3 SWAP2 SWAP1 PUSH2 0x185B JUMP JUMPDEST PUSH1 0x40 MLOAD DUP1 SWAP2 SUB SWAP1 LOG3 POP POP POP JUMP JUMPDEST PUSH2 0x8FC PUSH2 0xFE4 JUMP JUMPDEST PUSH1 0x1 PUSH0 DUP3 PUSH20 0xFFFFFFFFFFFFFFFFFFFFFFFFFFFFFFFFFFFFFFFF AND PUSH20 0xFFFFFFFFFFFFFFFFFFFFFFFFFFFFFFFFFFFFFFFF AND DUP2 MSTORE PUSH1 0x20 ADD SWAP1 DUP2 MSTORE PUSH1 0x20 ADD PUSH0 KECCAK256 PUSH0 ADD PUSH0 SWAP1 SLOAD SWAP1 PUSH2 0x100 EXP SWAP1 DIV PUSH1 0xFF AND PUSH2 0x987 JUMPI PUSH1 0x40 MLOAD PUSH32 0x8C379A000000000000000000000000000000000000000000000000000000000 DUP2 MSTORE PUSH1 0x4 ADD PUSH2 0x97E SWAP1 PUSH2 0x169D JUMP JUMPDEST PUSH1 0x40 MLOAD DUP1 SWAP2 SUB SWAP1 REVERT JUMPDEST PUSH1 0x1 PUSH0 DUP3 PUSH20 0xFFFFFFFFFFFFFFFFFFFFFFFFFFFFFFFFFFFFFFFF AND PUSH20 0xFFFFFFFFFFFFFFFFFFFFFFFFFFFFFFFFFFFFFFFF AND DUP2 MSTORE PUSH1 0x20 ADD SWAP1 DUP2 MSTORE PUSH1 0x20 ADD PUSH0 KECCAK256 PUSH0 DUP1 DUP3 ADD PUSH0 PUSH2 0x100 EXP DUP2 SLOAD SWAP1 PUSH1 0xFF MUL NOT AND SWAP1 SSTORE PUSH1 0x1 DUP3 ADD PUSH0 PUSH2 0x9E6 SWAP2 SWAP1 PUSH2 0x117E JUMP JUMPDEST PUSH1 0x2 DUP3 ADD PUSH0 SWAP1 SSTORE PUSH1 0x3 DUP3 ADD PUSH0 PUSH2 0x100 EXP DUP2 SLOAD SWAP1 PUSH20 0xFFFFFFFFFFFFFFFFFFFFFFFFFFFFFFFFFFFFFFFF MUL NOT AND SWAP1 SSTORE POP POP PUSH0 JUMPDEST PUSH1 0x2 DUP1 SLOAD SWAP1 POP DUP2 LT ISZERO PUSH2 0xB8E JUMPI DUP2 PUSH20 0xFFFFFFFFFFFFFFFFFFFFFFFFFFFFFFFFFFFFFFFF AND PUSH1 0x2 DUP3 DUP2 SLOAD DUP2 LT PUSH2 0xA4F JUMPI PUSH2 0xA4E PUSH2 0x1616 JUMP JUMPDEST JUMPDEST SWAP1 PUSH0 MSTORE PUSH1 0x20 PUSH0 KECCAK256 ADD PUSH0 SWAP1 SLOAD SWAP1 PUSH2 0x100 EXP SWAP1 DIV PUSH20 0xFFFFFFFFFFFFFFFFFFFFFFFFFFFFFFFFFFFFFFFF AND PUSH20 0xFFFFFFFFFFFFFFFFFFFFFFFFFFFFFFFFFFFFFFFF AND SUB PUSH2 0xB81 JUMPI PUSH1 0x2 PUSH1 0x1 PUSH1 0x2 DUP1 SLOAD SWAP1 POP PUSH2 0xAA6 SWAP2 SWAP1 PUSH2 0x18AA JUMP JUMPDEST DUP2 SLOAD DUP2 LT PUSH2 0xAB7 JUMPI PUSH2 0xAB6 PUSH2 0x1616 JUMP JUMPDEST JUMPDEST SWAP1 PUSH0 MSTORE PUSH1 0x20 PUSH0 KECCAK256 ADD PUSH0 SWAP1 SLOAD SWAP1 PUSH2 0x100 EXP SWAP1 DIV PUSH20 0xFFFFFFFFFFFFFFFFFFFFFFFFFFFFFFFFFFFFFFFF AND PUSH1 0x2 DUP3 DUP2 SLOAD DUP2 LT PUSH2 0xAF3 JUMPI PUSH2 0xAF2 PUSH2 0x1616 JUMP JUMPDEST JUMPDEST SWAP1 PUSH0 MSTORE PUSH1 0x20 PUSH0 KECCAK256 ADD PUSH0 PUSH2 0x100 EXP DUP2 SLOAD DUP2 PUSH20 0xFFFFFFFFFFFFFFFFFFFFFFFFFFFFFFFFFFFFFFFF MUL NOT AND SWAP1 DUP4 PUSH20 0xFFFFFFFFFFFFFFFFFFFFFFFFFFFFFFFFFFFFFFFF AND MUL OR SWAP1 SSTORE POP PUSH1 0x2 DUP1 SLOAD DUP1 PUSH2 0xB4A JUMPI PUSH2 0xB49 PUSH2 0x18DD JUMP JUMPDEST JUMPDEST PUSH1 0x1 SWAP1 SUB DUP2 DUP2 SWAP1 PUSH0 MSTORE PUSH1 0x20 PUSH0 KECCAK256 ADD PUSH0 PUSH2 0x100 EXP DUP2 SLOAD SWAP1 PUSH20 0xFFFFFFFFFFFFFFFFFFFFFFFFFFFFFFFFFFFFFFFF MUL NOT AND SWAP1 SSTORE SWAP1 SSTORE PUSH2 0xB8E JUMP JUMPDEST DUP1 DUP1 PUSH1 0x1 ADD SWAP2 POP POP PUSH2 0xA17 JUMP JUMPDEST POP CALLER PUSH20 0xFFFFFFFFFFFFFFFFFFFFFFFFFFFFFFFFFFFFFFFF AND DUP2 PUSH20 0xFFFFFFFFFFFFFFFFFFFFFFFFFFFFFFFFFFFFFFFF AND PUSH32 0x65878649E6DBCDA020BE4486D4B9D0DA6AEA73412DD86AEB4CB8D0C7936BD8B9 PUSH1 0x40 MLOAD PUSH1 0x40 MLOAD DUP1 SWAP2 SUB SWAP1 LOG3 POP JUMP JUMPDEST PUSH0 DUP1 PUSH0 SWAP1 SLOAD SWAP1 PUSH2 0x100 EXP SWAP1 DIV PUSH20 0xFFFFFFFFFFFFFFFFFFFFFFFFFFFFFFFFFFFFFFFF AND SWAP1 POP SWAP1 JUMP JUMPDEST PUSH1 0x2 DUP2 DUP2 SLOAD DUP2 LT PUSH2 0xC22 JUMPI PUSH0 DUP1 REVERT JUMPDEST SWAP1 PUSH0 MSTORE PUSH1 0x20 PUSH0 KECCAK256 ADD PUSH0 SWAP2 POP SLOAD SWAP1 PUSH2 0x100 EXP SWAP1 DIV PUSH20 0xFFFFFFFFFFFFFFFFFFFFFFFFFFFFFFFFFFFFFFFF AND DUP2 JUMP JUMPDEST PUSH0 PUSH1 0x60 PUSH0 DUP1 PUSH0 PUSH1 0x1 PUSH0 DUP8 PUSH20 0xFFFFFFFFFFFFFFFFFFFFFFFFFFFFFFFFFFFFFFFF AND PUSH20 0xFFFFFFFFFFFFFFFFFFFFFFFFFFFFFFFFFFFFFFFF AND DUP2 MSTORE PUSH1 0x20 ADD SWAP1 DUP2 MSTORE PUSH1 0x20 ADD PUSH0 KECCAK256 PUSH1 0x40 MLOAD DUP1 PUSH1 0x80 ADD PUSH1 0x40 MSTORE SWAP1 DUP2 PUSH0 DUP3 ADD PUSH0 SWAP1 SLOAD SWAP1 PUSH2 0x100 EXP SWAP1 DIV PUSH1 0xFF AND ISZERO ISZERO ISZERO ISZERO DUP2 MSTORE PUSH1 0x20 ADD PUSH1 0x1 DUP3 ADD DUP1 SLOAD DUP1 PUSH1 0x20 MUL PUSH1 0x20 ADD PUSH1 0x40 MLOAD SWAP1 DUP2 ADD PUSH1 0x40 MSTORE DUP1 SWAP3 SWAP2 SWAP1 DUP2 DUP2 MSTORE PUSH1 0x20 ADD DUP3 DUP1 SLOAD DUP1 ISZERO PUSH2 0xD02 JUMPI PUSH1 0x20 MUL DUP3 ADD SWAP2 SWAP1 PUSH0 MSTORE PUSH1 0x20 PUSH0 KECCAK256 SWAP1 JUMPDEST DUP2 SLOAD DUP2 MSTORE PUSH1 0x20 ADD SWAP1 PUSH1 0x1 ADD SWAP1 DUP1 DUP4 GT PUSH2 0xCEE JUMPI JUMPDEST POP POP POP POP POP DUP2 MSTORE PUSH1 0x20 ADD PUSH1 0x2 DUP3 ADD SLOAD DUP2 MSTORE PUSH1 0x20 ADD PUSH1 0x3 DUP3 ADD PUSH0 SWAP1 SLOAD SWAP1 PUSH2 0x100 EXP SWAP1 DIV PUSH20 0xFFFFFFFFFFFFFFFFFFFFFFFFFFFFFFFFFFFFFFFF AND PUSH20 0xFFFFFFFFFFFFFFFFFFFFFFFFFFFFFFFFFFFFFFFF AND PUSH20 0xFFFFFFFFFFFFFFFFFFFFFFFFFFFFFFFFFFFFFFFF AND DUP2 MSTORE POP POP SWAP1 POP DUP1 PUSH0 ADD MLOAD DUP2 PUSH1 0x20 ADD MLOAD DUP3 PUSH1 0x40 ADD MLOAD DUP4 PUSH1 0x60 ADD MLOAD SWAP5 POP SWAP5 POP SWAP5 POP SWAP5 POP POP SWAP2 SWAP4 POP SWAP2 SWAP4 JUMP JUMPDEST PUSH2 0xD97 PUSH2 0xFE4 JUMP JUMPDEST PUSH1 0x1 PUSH0 DUP5 PUSH20 0xFFFFFFFFFFFFFFFFFFFFFFFFFFFFFFFFFFFFFFFF AND PUSH20 0xFFFFFFFFFFFFFFFFFFFFFFFFFFFFFFFFFFFFFFFF AND DUP2 MSTORE PUSH1 0x20 ADD SWAP1 DUP2 MSTORE PUSH1 0x20 ADD PUSH0 KECCAK256 PUSH0 ADD PUSH0 SWAP1 SLOAD SWAP1 PUSH2 0x100 EXP SWAP1 DIV PUSH1 0xFF AND PUSH2 0xE22 JUMPI PUSH1 0x40 MLOAD PUSH32 0x8C379A000000000000000000000000000000000000000000000000000000000 DUP2 MSTORE PUSH1 0x4 ADD PUSH2 0xE19 SWAP1 PUSH2 0x169D JUMP JUMPDEST PUSH1 0x40 MLOAD DUP1 SWAP2 SUB SWAP1 REVERT JUMPDEST PUSH0 DUP3 DUP3 SWAP1 POP GT PUSH2 0xE67 JUMPI PUSH1 0x40 MLOAD PUSH32 0x8C379A000000000000000000000000000000000000000000000000000000000 DUP2 MSTORE PUSH1 0x4 ADD PUSH2 0xE5E SWAP1 PUSH2 0x17D5 JUMP JUMPDEST PUSH1 0x40 MLOAD DUP1 SWAP2 SUB SWAP1 REVERT JUMPDEST DUP2 DUP2 PUSH1 0x1 PUSH0 DUP7 PUSH20 0xFFFFFFFFFFFFFFFFFFFFFFFFFFFFFFFFFFFFFFFF AND PUSH20 0xFFFFFFFFFFFFFFFFFFFFFFFFFFFFFFFFFFFFFFFF AND DUP2 MSTORE PUSH1 0x20 ADD SWAP1 DUP2 MSTORE PUSH1 0x20 ADD PUSH0 KECCAK256 PUSH1 0x1 ADD SWAP2 SWAP1 PUSH2 0xEB6 SWAP3 SWAP2 SWAP1 PUSH2 0x119C JUMP JUMPDEST POP DUP3 PUSH20 0xFFFFFFFFFFFFFFFFFFFFFFFFFFFFFFFFFFFFFFFF AND PUSH32 0x1C50EF0651282591FA74EE2C938E0A1DA260DCDF93862B41F66145FED968379D DUP4 DUP4 PUSH1 0x40 MLOAD PUSH2 0xEFF SWAP3 SWAP2 SWAP1 PUSH2 0x185B JUMP JUMPDEST PUSH1 0x40 MLOAD DUP1 SWAP2 SUB SWAP1 LOG2 POP POP POP JUMP JUMPDEST PUSH0 PUSH1 0x1 PUSH0 DUP4 PUSH20 0xFFFFFFFFFFFFFFFFFFFFFFFFFFFFFFFFFFFFFFFF AND PUSH20 0xFFFFFFFFFFFFFFFFFFFFFFFFFFFFFFFFFFFFFFFF AND DUP2 MSTORE PUSH1 0x20 ADD SWAP1 DUP2 MSTORE PUSH1 0x20 ADD PUSH0 KECCAK256 PUSH0 ADD PUSH0 SWAP1 SLOAD SWAP1 PUSH2 0x100 EXP SWAP1 DIV PUSH1 0xFF AND SWAP1 POP SWAP2 SWAP1 POP JUMP JUMPDEST PUSH2 0xF68 PUSH2 0xFE4 JUMP JUMPDEST PUSH0 PUSH20 0xFFFFFFFFFFFFFFFFFFFFFFFFFFFFFFFFFFFFFFFF AND DUP2 PUSH20 0xFFFFFFFFFFFFFFFFFFFFFFFFFFFFFFFFFFFFFFFF AND SUB PUSH2 0xFD8 JUMPI PUSH0 PUSH1 0x40 MLOAD PUSH32 0x1E4FBDF700000000000000000000000000000000000000000000000000000000 DUP2 MSTORE PUSH1 0x4 ADD PUSH2 0xFCF SWAP2 SWAP1 PUSH2 0x1546 JUMP JUMPDEST PUSH1 0x40 MLOAD DUP1 SWAP2 SUB SWAP1 REVERT JUMPDEST PUSH2 0xFE1 DUP2 PUSH2 0x106B JUMP JUMPDEST POP JUMP JUMPDEST PUSH2 0xFEC PUSH2 0x112C JUMP JUMPDEST PUSH20 0xFFFFFFFFFFFFFFFFFFFFFFFFFFFFFFFFFFFFFFFF AND PUSH2 0x100A PUSH2 0xBEC JUMP JUMPDEST PUSH20 0xFFFFFFFFFFFFFFFFFFFFFFFFFFFFFFFFFFFFFFFF AND EQ PUSH2 0x1069 JUMPI PUSH2 0x102D PUSH2 0x112C JUMP JUMPDEST PUSH1 0x40 MLOAD PUSH32 0x118CDAA700000000000000000000000000000000000000000000000000000000 DUP2 MSTORE PUSH1 0x4 ADD PUSH2 0x1060 SWAP2 SWAP1 PUSH2 0x1546 JUMP JUMPDEST PUSH1 0x40 MLOAD DUP1 SWAP2 SUB SWAP1 REVERT JUMPDEST JUMP JUMPDEST PUSH0 DUP1 PUSH0 SWAP1 SLOAD SWAP1 PUSH2 0x100 EXP SWAP1 DIV PUSH20 0xFFFFFFFFFFFFFFFFFFFFFFFFFFFFFFFFFFFFFFFF AND SWAP1 POP DUP2 PUSH0 DUP1 PUSH2 0x100 EXP DUP2 SLOAD DUP2 PUSH20 0xFFFFFFFFFFFFFFFFFFFFFFFFFFFFFFFFFFFFFFFF MUL NOT AND SWAP1 DUP4 PUSH20 0xFFFFFFFFFFFFFFFFFFFFFFFFFFFFFFFFFFFFFFFF AND MUL OR SWAP1 SSTORE POP DUP2 PUSH20 0xFFFFFFFFFFFFFFFFFFFFFFFFFFFFFFFFFFFFFFFF AND DUP2 PUSH20 0xFFFFFFFFFFFFFFFFFFFFFFFFFFFFFFFFFFFFFFFF AND PUSH32 0x8BE0079C531659141344CD1FD0A4F28419497F9722A3DAAFE3B4186F6B6457E0 PUSH1 0x40 MLOAD PUSH1 0x40 MLOAD DUP1 SWAP2 SUB SWAP1 LOG3 POP POP JUMP JUMPDEST PUSH0 CALLER SWAP1 POP SWAP1 JUMP JUMPDEST DUP3 DUP1 SLOAD DUP3 DUP3 SSTORE SWAP1 PUSH0 MSTORE PUSH1 0x20 PUSH0 KECCAK256 SWAP1 DUP2 ADD SWAP3 DUP3 ISZERO PUSH2 0x116D JUMPI SWAP2 PUSH1 0x20 MUL DUP3 ADD JUMPDEST DUP3 DUP2 GT ISZERO PUSH2 0x116C JUMPI DUP3 MLOAD DUP3 SSTORE SWAP2 PUSH1 0x20 ADD SWAP2 SWAP1 PUSH1 0x1 ADD SWAP1 PUSH2 0x1151 JUMP JUMPDEST JUMPDEST POP SWAP1 POP PUSH2 0x117A SWAP2 SWAP1 PUSH2 0x11E7 JUMP JUMPDEST POP SWAP1 JUMP JUMPDEST POP DUP1 SLOAD PUSH0 DUP3 SSTORE SWAP1 PUSH0 MSTORE PUSH1 0x20 PUSH0 KECCAK256 SWAP1 DUP2 ADD SWAP1 PUSH2 0x1199 SWAP2 SWAP1 PUSH2 0x11E7 JUMP JUMPDEST POP JUMP JUMPDEST DUP3 DUP1 SLOAD DUP3 DUP3 SSTORE SWAP1 PUSH0 MSTORE PUSH1 0x20 PUSH0 KECCAK256 SWAP1 DUP2 ADD SWAP3 DUP3 ISZERO PUSH2 0x11D6 JUMPI SWAP2 PUSH1 0x20 MUL DUP3 ADD JUMPDEST DUP3 DUP2 GT ISZERO PUSH2 0x11D5 JUMPI DUP3 CALLDATALOAD DUP3 SSTORE SWAP2 PUSH1 0x20 ADD SWAP2 SWAP1 PUSH1 0x1 ADD SWAP1 PUSH2 0x11BA JUMP JUMPDEST JUMPDEST POP SWAP1 POP PUSH2 0x11E3 SWAP2 SWAP1 PUSH2 0x11E7 JUMP JUMPDEST POP SWAP1 JUMP JUMPDEST JUMPDEST DUP1 DUP3 GT ISZERO PUSH2 0x11FE JUMPI PUSH0 DUP2 PUSH0 SWAP1 SSTORE POP PUSH1 0x1 ADD PUSH2 0x11E8 JUMP JUMPDEST POP SWAP1 JUMP JUMPDEST PUSH0 DUP1 REVERT JUMPDEST PUSH0 DUP1 REVERT JUMPDEST PUSH0 PUSH20 0xFFFFFFFFFFFFFFFFFFFFFFFFFFFFFFFFFFFFFFFF DUP3 AND SWAP1 POP SWAP2 SWAP1 POP JUMP JUMPDEST PUSH0 PUSH2 0x1233 DUP3 PUSH2 0x120A JUMP JUMPDEST SWAP1 POP SWAP2 SWAP1 POP JUMP JUMPDEST PUSH2 0x1243 DUP2 PUSH2 0x1229 JUMP JUMPDEST DUP2 EQ PUSH2 0x124D JUMPI PUSH0 DUP1 REVERT JUMPDEST POP JUMP JUMPDEST PUSH0 DUP2 CALLDATALOAD SWAP1 POP PUSH2 0x125E DUP2 PUSH2 0x123A JUMP JUMPDEST SWAP3 SWAP2 POP POP JUMP JUMPDEST PUSH0 DUP1 REVERT JUMPDEST PUSH0 DUP1 REVERT JUMPDEST PUSH0 DUP1 REVERT JUMPDEST PUSH0 DUP1 DUP4 PUSH1 0x1F DUP5 ADD SLT PUSH2 0x1285 JUMPI PUSH2 0x1284 PUSH2 0x1264 JUMP JUMPDEST JUMPDEST DUP3 CALLDATALOAD SWAP1 POP PUSH8 0xFFFFFFFFFFFFFFFF DUP2 GT ISZERO PUSH2 0x12A2 JUMPI PUSH2 0x12A1 PUSH2 0x1268 JUMP JUMPDEST JUMPDEST PUSH1 0x20 DUP4 ADD SWAP2 POP DUP4 PUSH1 0x20 DUP3 MUL DUP4 ADD GT ISZERO PUSH2 0x12BE JUMPI PUSH2 0x12BD PUSH2 0x126C JUMP JUMPDEST JUMPDEST SWAP3 POP SWAP3 SWAP1 POP JUMP JUMPDEST PUSH0 DUP1 PUSH0 PUSH1 0x40 DUP5 DUP7 SUB SLT ISZERO PUSH2 0x12DC JUMPI PUSH2 0x12DB PUSH2 0x1202 JUMP JUMPDEST JUMPDEST PUSH0 PUSH2 0x12E9 DUP7 DUP3 DUP8 ADD PUSH2 0x1250 JUMP JUMPDEST SWAP4 POP POP PUSH1 0x20 DUP5 ADD CALLDATALOAD PUSH8 0xFFFFFFFFFFFFFFFF DUP2 GT ISZERO PUSH2 0x130A JUMPI PUSH2 0x1309 PUSH2 0x1206 JUMP JUMPDEST JUMPDEST PUSH2 0x1316 DUP7 DUP3 DUP8 ADD PUSH2 0x1270 JUMP JUMPDEST SWAP3 POP SWAP3 POP POP SWAP3 POP SWAP3 POP SWAP3 JUMP JUMPDEST PUSH0 DUP2 ISZERO ISZERO SWAP1 POP SWAP2 SWAP1 POP JUMP JUMPDEST PUSH2 0x1336 DUP2 PUSH2 0x1322 JUMP JUMPDEST DUP3 MSTORE POP POP JUMP JUMPDEST PUSH0 PUSH1 0x20 DUP3 ADD SWAP1 POP PUSH2 0x134F PUSH0 DUP4 ADD DUP5 PUSH2 0x132D JUMP JUMPDEST SWAP3 SWAP2 POP POP JUMP JUMPDEST PUSH0 DUP2 MLOAD SWAP1 POP SWAP2 SWAP1 POP JUMP JUMPDEST PUSH0 DUP3 DUP3 MSTORE PUSH1 0x20 DUP3 ADD SWAP1 POP SWAP3 SWAP2 POP POP JUMP JUMPDEST PUSH0 DUP2 SWAP1 POP PUSH1 0x20 DUP3 ADD SWAP1 POP SWAP2 SWAP1 POP JUMP JUMPDEST PUSH2 0x1387 DUP2 PUSH2 0x1229 JUMP JUMPDEST DUP3 MSTORE POP POP JUMP JUMPDEST PUSH0 PUSH2 0x1398 DUP4 DUP4 PUSH2 0x137E JUMP JUMPDEST PUSH1 0x20 DUP4 ADD SWAP1 POP SWAP3 SWAP2 POP POP JUMP JUMPDEST PUSH0 PUSH1 0x20 DUP3 ADD SWAP1 POP SWAP2 SWAP1 POP JUMP JUMPDEST PUSH0 PUSH2 0x13BA DUP3 PUSH2 0x1355 JUMP JUMPDEST PUSH2 0x13C4 DUP2 DUP6 PUSH2 0x135F JUMP JUMPDEST SWAP4 POP PUSH2 0x13CF DUP4 PUSH2 0x136F JUMP JUMPDEST DUP1 PUSH0 JUMPDEST DUP4 DUP2 LT ISZERO PUSH2 0x13FF JUMPI DUP2 MLOAD PUSH2 0x13E6 DUP9 DUP3 PUSH2 0x138D JUMP JUMPDEST SWAP8 POP PUSH2 0x13F1 DUP4 PUSH2 0x13A4 JUMP JUMPDEST SWAP3 POP POP PUSH1 0x1 DUP2 ADD SWAP1 POP PUSH2 0x13D2 JUMP JUMPDEST POP DUP6 SWAP4 POP POP POP POP SWAP3 SWAP2 POP POP JUMP JUMPDEST PUSH0 PUSH1 0x20 DUP3 ADD SWAP1 POP DUP2 DUP2 SUB PUSH0 DUP4 ADD MSTORE PUSH2 0x1424 DUP2 DUP5 PUSH2 0x13B0 JUMP JUMPDEST SWAP1 POP SWAP3 SWAP2 POP POP JUMP JUMPDEST PUSH0 PUSH1 0x20 DUP3 DUP5 SUB SLT ISZERO PUSH2 0x1441 JUMPI PUSH2 0x1440 PUSH2 0x1202 JUMP JUMPDEST JUMPDEST PUSH0 PUSH2 0x144E DUP5 DUP3 DUP6 ADD PUSH2 0x1250 JUMP JUMPDEST SWAP2 POP POP SWAP3 SWAP2 POP POP JUMP JUMPDEST PUSH0 DUP2 MLOAD SWAP1 POP SWAP2 SWAP1 POP JUMP JUMPDEST PUSH0 DUP3 DUP3 MSTORE PUSH1 0x20 DUP3 ADD SWAP1 POP SWAP3 SWAP2 POP POP JUMP JUMPDEST PUSH0 DUP2 SWAP1 POP PUSH1 0x20 DUP3 ADD SWAP1 POP SWAP2 SWAP1 POP JUMP JUMPDEST PUSH0 DUP2 SWAP1 POP SWAP2 SWAP1 POP JUMP JUMPDEST PUSH2 0x1492 DUP2 PUSH2 0x1480 JUMP JUMPDEST DUP3 MSTORE POP POP JUMP JUMPDEST PUSH0 PUSH2 0x14A3 DUP4 DUP4 PUSH2 0x1489 JUMP JUMPDEST PUSH1 0x20 DUP4 ADD SWAP1 POP SWAP3 SWAP2 POP POP JUMP JUMPDEST PUSH0 PUSH1 0x20 DUP3 ADD SWAP1 POP SWAP2 SWAP1 POP JUMP JUMPDEST PUSH0 PUSH2 0x14C5 DUP3 PUSH2 0x1457 JUMP JUMPDEST PUSH2 0x14CF DUP2 DUP6 PUSH2 0x1461 JUMP JUMPDEST SWAP4 POP PUSH2 0x14DA DUP4 PUSH2 0x1471 JUMP JUMPDEST DUP1 PUSH0 JUMPDEST DUP4 DUP2 LT ISZERO PUSH2 0x150A JUMPI DUP2 MLOAD PUSH2 0x14F1 DUP9 DUP3 PUSH2 0x1498 JUMP JUMPDEST SWAP8 POP PUSH2 0x14FC DUP4 PUSH2 0x14AF JUMP JUMPDEST SWAP3 POP POP PUSH1 0x1 DUP2 ADD SWAP1 POP PUSH2 0x14DD JUMP JUMPDEST POP DUP6 SWAP4 POP POP POP POP SWAP3 SWAP2 POP POP JUMP JUMPDEST PUSH0 PUSH1 0x20 DUP3 ADD SWAP1 POP DUP2 DUP2 SUB PUSH0 DUP4 ADD MSTORE PUSH2 0x152F DUP2 DUP5 PUSH2 0x14BB JUMP JUMPDEST SWAP1 POP SWAP3 SWAP2 POP POP JUMP JUMPDEST PUSH2 0x1540 DUP2 PUSH2 0x1229 JUMP JUMPDEST DUP3 MSTORE POP POP JUMP JUMPDEST PUSH0 PUSH1 0x20 DUP3 ADD SWAP1 POP PUSH2 0x1559 PUSH0 DUP4 ADD DUP5 PUSH2 0x1537 JUMP JUMPDEST SWAP3 SWAP2 POP POP JUMP JUMPDEST PUSH0 DUP2 SWAP1 POP SWAP2 SWAP1 POP JUMP JUMPDEST PUSH2 0x1571 DUP2 PUSH2 0x155F JUMP JUMPDEST DUP2 EQ PUSH2 0x157B JUMPI PUSH0 DUP1 REVERT JUMPDEST POP JUMP JUMPDEST PUSH0 DUP2 CALLDATALOAD SWAP1 POP PUSH2 0x158C DUP2 PUSH2 0x1568 JUMP JUMPDEST SWAP3 SWAP2 POP POP JUMP JUMPDEST PUSH0 PUSH1 0x20 DUP3 DUP5 SUB SLT ISZERO PUSH2 0x15A7 JUMPI PUSH2 0x15A6 PUSH2 0x1202 JUMP JUMPDEST JUMPDEST PUSH0 PUSH2 0x15B4 DUP5 DUP3 DUP6 ADD PUSH2 0x157E JUMP JUMPDEST SWAP2 POP POP SWAP3 SWAP2 POP POP JUMP JUMPDEST PUSH2 0x15C6 DUP2 PUSH2 0x155F JUMP JUMPDEST DUP3 MSTORE POP POP JUMP JUMPDEST PUSH0 PUSH1 0x80 DUP3 ADD SWAP1 POP PUSH2 0x15DF PUSH0 DUP4 ADD DUP8 PUSH2 0x132D JUMP JUMPDEST DUP2 DUP2 SUB PUSH1 0x20 DUP4 ADD MSTORE PUSH2 0x15F1 DUP2 DUP7 PUSH2 0x14BB JUMP JUMPDEST SWAP1 POP PUSH2 0x1600 PUSH1 0x40 DUP4 ADD DUP6 PUSH2 0x15BD JUMP JUMPDEST PUSH2 0x160D PUSH1 0x60 DUP4 ADD DUP5 PUSH2 0x1537 JUMP JUMPDEST SWAP6 SWAP5 POP POP POP POP POP JUMP JUMPDEST PUSH32 0x4E487B7100000000000000000000000000000000000000000000000000000000 PUSH0 MSTORE PUSH1 0x32 PUSH1 0x4 MSTORE PUSH1 0x24 PUSH0 REVERT JUMPDEST PUSH0 DUP3 DUP3 MSTORE PUSH1 0x20 DUP3 ADD SWAP1 POP SWAP3 SWAP2 POP POP JUMP JUMPDEST PUSH32 0x47616D65206E6F74207265676973746572656400000000000000000000000000 PUSH0 DUP3 ADD MSTORE POP JUMP JUMPDEST PUSH0 PUSH2 0x1687 PUSH1 0x13 DUP4 PUSH2 0x1643 JUMP JUMPDEST SWAP2 POP PUSH2 0x1692 DUP3 PUSH2 0x1653 JUMP JUMPDEST PUSH1 0x20 DUP3 ADD SWAP1 POP SWAP2 SWAP1 POP JUMP JUMPDEST PUSH0 PUSH1 0x20 DUP3 ADD SWAP1 POP DUP2 DUP2 SUB PUSH0 DUP4 ADD MSTORE PUSH2 0x16B4 DUP2 PUSH2 0x167B JUMP JUMPDEST SWAP1 POP SWAP2 SWAP1 POP JUMP JUMPDEST PUSH32 0x496E76616C69642067616D652061646472657373000000000000000000000000 PUSH0 DUP3 ADD MSTORE POP JUMP JUMPDEST PUSH0 PUSH2 0x16EF PUSH1 0x14 DUP4 PUSH2 0x1643 JUMP JUMPDEST SWAP2 POP PUSH2 0x16FA DUP3 PUSH2 0x16BB JUMP JUMPDEST PUSH1 0x20 DUP3 ADD SWAP1 POP SWAP2 SWAP1 POP JUMP JUMPDEST PUSH0 PUSH1 0x20 DUP3 ADD SWAP1 POP DUP2 DUP2 SUB PUSH0 DUP4 ADD MSTORE PUSH2 0x171C DUP2 PUSH2 0x16E3 JUMP JUMPDEST SWAP1 POP SWAP2 SWAP1 POP JUMP JUMPDEST PUSH32 0x47616D6520616C72656164792072656769737465726564000000000000000000 PUSH0 DUP3 ADD MSTORE POP JUMP JUMPDEST PUSH0 PUSH2 0x1757 PUSH1 0x17 DUP4 PUSH2 0x1643 JUMP JUMPDEST SWAP2 POP PUSH2 0x1762 DUP3 PUSH2 0x1723 JUMP JUMPDEST PUSH1 0x20 DUP3 ADD SWAP1 POP SWAP2 SWAP1 POP JUMP JUMPDEST PUSH0 PUSH1 0x20 DUP3 ADD SWAP1 POP DUP2 DUP2 SUB PUSH0 DUP4 ADD MSTORE PUSH2 0x1784 DUP2 PUSH2 0x174B JUMP JUMPDEST SWAP1 POP SWAP2 SWAP1 POP JUMP JUMPDEST PUSH32 0x4E6F206174747269627574657320737065636966696564000000000000000000 PUSH0 DUP3 ADD MSTORE POP JUMP JUMPDEST PUSH0 PUSH2 0x17BF PUSH1 0x17 DUP4 PUSH2 0x1643 JUMP JUMPDEST SWAP2 POP PUSH2 0x17CA DUP3 PUSH2 0x178B JUMP JUMPDEST PUSH1 0x20 DUP3 ADD SWAP1 POP SWAP2 SWAP1 POP JUMP JUMPDEST PUSH0 PUSH1 0x20 DUP3 ADD SWAP1 POP DUP2 DUP2 SUB PUSH0 DUP4 ADD MSTORE PUSH2 0x17EC DUP2 PUSH2 0x17B3 JUMP JUMPDEST SWAP1 POP SWAP2 SWAP1 POP JUMP JUMPDEST PUSH0 DUP1 REVERT JUMPDEST DUP3 DUP2 DUP4 CALLDATACOPY POP POP POP JUMP JUMPDEST PUSH0 PUSH2 0x180B DUP4 DUP6 PUSH2 0x1461 JUMP JUMPDEST SWAP4 POP PUSH32 0x7FFFFFFFFFFFFFFFFFFFFFFFFFFFFFFFFFFFFFFFFFFFFFFFFFFFFFFFFFFFFFF DUP4 GT ISZERO PUSH2 0x183E JUMPI PUSH2 0x183D PUSH2 0x17F3 JUMP JUMPDEST JUMPDEST PUSH1 0x20 DUP4 MUL SWAP3 POP PUSH2 0x184F DUP4 DUP6 DUP5 PUSH2 0x17F7 JUMP JUMPDEST DUP3 DUP5 ADD SWAP1 POP SWAP4 SWAP3 POP POP POP JUMP JUMPDEST PUSH0 PUSH1 0x20 DUP3 ADD SWAP1 POP DUP2 DUP2 SUB PUSH0 DUP4 ADD MSTORE PUSH2 0x1874 DUP2 DUP5 DUP7 PUSH2 0x1800 JUMP JUMPDEST SWAP1 POP SWAP4 SWAP3 POP POP POP JUMP JUMPDEST PUSH32 0x4E487B7100000000000000000000000000000000000000000000000000000000 PUSH0 MSTORE PUSH1 0x11 PUSH1 0x4 MSTORE PUSH1 0x24 PUSH0 REVERT JUMPDEST PUSH0 PUSH2 0x18B4 DUP3 PUSH2 0x155F JUMP JUMPDEST SWAP2 POP PUSH2 0x18BF DUP4 PUSH2 0x155F JUMP JUMPDEST SWAP3 POP DUP3 DUP3 SUB SWAP1 POP DUP2 DUP2 GT ISZERO PUSH2 0x18D7 JUMPI PUSH2 0x18D6 PUSH2 0x187D JUMP JUMPDEST JUMPDEST SWAP3 SWAP2 POP POP JUMP JUMPDEST PUSH32 0x4E487B7100000000000000000000000000000000000000000000000000000000 PUSH0 MSTORE PUSH1 0x31 PUSH1 0x4 MSTORE PUSH1 0x24 PUSH0 REVERT INVALID LOG2 PUSH5 0x6970667358 0x22 SLT KECCAK256 RETURNDATASIZE ORIGIN ADDRESS 0xE4 0xEB 0xF9 PUSH1 0x7B 0x22 EXTCODECOPY 0xDE 0xD1 DUP13 MULMOD SWAP6 0xEC LOG4 CALLDATACOPY SLOAD 0x26 JUMPDEST 0xCA 0xC PUSH26 0x8726E36667F9ED0D64736F6C634300081A003300000000000000 "
				},
				"gasEstimates": {
					"creation": {
						"codeDepositCost": "1292800",
						"executionCost": "infinite",
						"totalCost": "infinite"
					},
					"external": {
						"getAllRegisteredGames()": "infinite",
						"getGameData(address)": "infinite",
						"getGamePermissions(address)": "infinite",
						"hasPermissions(address,bytes32[])": "infinite",
						"isGameRegistered(address)": "2963",
						"owner()": "2515",
						"registerGame(address,bytes32[])": "infinite",
						"registeredGames(uint256)": "4966",
						"renounceOwnership()": "infinite",
						"transferOwnership(address)": "infinite",
						"unregisterGame(address)": "infinite",
						"updateGameAttributes(address,bytes32[])": "infinite"
					}
				},
				"methodIdentifiers": {
					"getAllRegisteredGames()": "1a4ad3f0",
					"getGameData(address)": "b975c34d",
					"getGamePermissions(address)": "55491444",
					"hasPermissions(address,bytes32[])": "099a99c8",
					"isGameRegistered(address)": "ee658e45",
					"owner()": "8da5cb5b",
					"registerGame(address,bytes32[])": "7ff7d4a0",
					"registeredGames(uint256)": "9e3c5a72",
					"renounceOwnership()": "715018a6",
					"transferOwnership(address)": "f2fde38b",
					"unregisterGame(address)": "890aa541",
					"updateGameAttributes(address,bytes32[])": "cfbb6bd0"
				}
			},
			"storageLayout": {
				"storage": [
					{
						"astId": 8,
						"contract": "contracts/lib/GameRegistry.sol:GameRegistry",
						"label": "_owner",
						"offset": 0,
						"slot": "0",
						"type": "t_address"
					},
					{
						"astId": 201,
						"contract": "contracts/lib/GameRegistry.sol:GameRegistry",
						"label": "games",
						"offset": 0,
						"slot": "1",
						"type": "t_mapping(t_address,t_struct(GameData)196_storage)"
					},
					{
						"astId": 204,
						"contract": "contracts/lib/GameRegistry.sol:GameRegistry",
						"label": "registeredGames",
						"offset": 0,
						"slot": "2",
						"type": "t_array(t_address)dyn_storage"
					}
				],
				"types": {
					"t_address": {
						"encoding": "inplace",
						"label": "address",
						"numberOfBytes": "20"
					},
					"t_array(t_address)dyn_storage": {
						"base": "t_address",
						"encoding": "dynamic_array",
						"label": "address[]",
						"numberOfBytes": "32"
					},
					"t_array(t_bytes32)dyn_storage": {
						"base": "t_bytes32",
						"encoding": "dynamic_array",
						"label": "bytes32[]",
						"numberOfBytes": "32"
					},
					"t_bool": {
						"encoding": "inplace",
						"label": "bool",
						"numberOfBytes": "1"
					},
					"t_bytes32": {
						"encoding": "inplace",
						"label": "bytes32",
						"numberOfBytes": "32"
					},
					"t_mapping(t_address,t_struct(GameData)196_storage)": {
						"encoding": "mapping",
						"key": "t_address",
						"label": "mapping(address => struct GameRegistry.GameData)",
						"numberOfBytes": "32",
						"value": "t_struct(GameData)196_storage"
					},
					"t_struct(GameData)196_storage": {
						"encoding": "inplace",
						"label": "struct GameRegistry.GameData",
						"members": [
							{
								"astId": 188,
								"contract": "contracts/lib/GameRegistry.sol:GameRegistry",
								"label": "isRegistered",
								"offset": 0,
								"slot": "0",
								"type": "t_bool"
							},
							{
								"astId": 191,
								"contract": "contracts/lib/GameRegistry.sol:GameRegistry",
								"label": "allowedAttributes",
								"offset": 0,
								"slot": "1",
								"type": "t_array(t_bytes32)dyn_storage"
							},
							{
								"astId": 193,
								"contract": "contracts/lib/GameRegistry.sol:GameRegistry",
								"label": "registrationTime",
								"offset": 0,
								"slot": "2",
								"type": "t_uint256"
							},
							{
								"astId": 195,
								"contract": "contracts/lib/GameRegistry.sol:GameRegistry",
								"label": "registeredBy",
								"offset": 0,
								"slot": "3",
								"type": "t_address"
							}
						],
						"numberOfBytes": "128"
					},
					"t_uint256": {
						"encoding": "inplace",
						"label": "uint256",
						"numberOfBytes": "32"
					}
				}
			},
			"userdoc": {
				"kind": "user",
				"methods": {
					"getAllRegisteredGames()": {
						"notice": "Get all registered games"
					},
					"getGameData(address)": {
						"notice": "Get registration data for a game"
					},
					"getGamePermissions(address)": {
						"notice": "Get attributes a game can modify"
					},
					"hasPermissions(address,bytes32[])": {
						"notice": "Check if a game has permission for specific attributes"
					},
					"isGameRegistered(address)": {
						"notice": "Check if a game is registered"
					},
					"registerGame(address,bytes32[])": {
						"notice": "Register a new game"
					},
					"unregisterGame(address)": {
						"notice": "Unregister a game"
					},
					"updateGameAttributes(address,bytes32[])": {
						"notice": "Update allowed attributes for a registered game"
					}
				},
				"version": 1
			}
		}
	}
}